:020000021000EC
:040000006F200072FB
:10000400000000000000000090000020B405002063
:10001400A9BDF9F5940000200000000000000000D4
:10002400960000209800002000000000000000005E
:100034009A000020000000009C0000200000000046
:100044009E000020240A0020540A0020A40000205E
:10005400A6000020A800002030060020AC000020EC
:10006400AE000020B0000020B2000020B400002048
:10007400020A0020B8000020BA000020BC000020C2
:10008400BE000020C0000020C2000020C4000020E8
:1000940001A001A001A001A001A001A001A001A054
:1000A40001A001A001A001A001A001A001A001A044
:1000B40001A001A001A001A001A001A001A001A034
:1000C40001A001A001A041118146014681451145CD
:1000D40006C6EF003024B727004011472383E7808A
:1000E400B7F700E003A707D16D9B23A8E7D003A7C8
:1000F40007D15D9B23A8E7D07300501001000100D5
:10010400B240410182804111814681450146114539
:1001140006C6EF003020B727004011472383E7804D
:10012400B717004003C7E70283C5E70483D78703F3
:1001340091661377F70F93E5350063E5D700719B5C
:1001440013671700B7170040130670052380C70410
:10015400930680FA2380D70401000100238207025A
:100164002380C7042380D704010001002387E7020A
:100174002387B7042380C7042380D7040100010028
:1001840003C7B70413670702A385E70423800704A2
:1001940037F700E0832507D193E545002328B7D03E
:1001A400832507D1DD992328B7D0730050100100AF
:1001B40001002380C7042380D7040100010003C782
:1001C400B7041377F70DA385E70423800704B2402F
:1001D400410182800111B7F5070022CC8146E10577
:1001E4002A840A86194506CE26CA02C023120100B3
:1001F400EF005012B717004003C7E70283C5E704B6
:1002040083D7870391661377F70F93E5350063E58A
:10021400D700719B13671700B717004013067005CA
:100224002380C704930680FA2380D70401000100C9
:10023400238207022380C7042380D704010001001E
:100244002387E7022387B70423800704B7F500E078
:1002540003A705D11367470023A8E5D003D50702F8
:100264006577110713750560418D598D42054181EC
:1002740001002380C7042380D7040100010003C7C1
:10028400F70037F40700B7F400E013670704A38707
:10029400E70003C7B704610413670702A385E704F3
:1002A4002390A70283A704D1DD9B23A8F4D0730075
:1002B40050100100010013056004812681463000BE
:1002C400A285194502C423160100EF00B004224799
:1002D4008247E319F7FCB717004013077005238022
:1002E400E704130780FA2380E7040100010003C731
:1002F400B7041377F70DA385E70423800704F240BE
:100304006244D2440561828001114EC68146014691
:10031400AA898145114506CE22CC26CA4AC8EF00D7
:10032400607FB716004083C7E60203C7E60483D69E
:100334008603116693F7F70F1367370063E5C6006A
:10034400F19B93E71700371400401309700523004D
:100354002405930480FA230094040100010023027D
:100364000402230024052300940401000100230750
:10037400F4022307E4042300040413055002592063
:10038400B7F700E003A707D11367470023A8E7D016
:100394002300240523009404010001000347F40012
:1003A40013670704A307E40023002405230094042F
:1003B400010001002567B3E9E9002310340303A712
:1003C40007D15D9B23A8E7D0730050100100010002
:1003D4008146014681451145352F2300240523001C
:1003E4009404010001008347640493E71700230386
:1003F400F40423000404F2406244D2444249B24962
:1004040005618280B7170040930670052380D704E6
:10041400130780FA2380E7040100010003C6B70430
:100424001376F60DA385C70423800704137605020B
:100434004DC203C6A700118A1DE22380D70423807E
:10044400E7040100010003C7A700136747002385E1
:10045400E7009307004B01000100FD17EDFFB717FC
:100464000040930670052380D704130780FA238085
:10047400E704010001007D892394A7000100010025
:1004840001000100238007042380D7042380E704AC
:100494000100010001000100372700409306100508
:1004A400A303D78023800704B71700401307700500
:1004B4002380E704130780FA2380E7040100010086
:1004C40003C7B70413670708A385E7042380070459
:1004D40082801376050441C603C6A700418A1DE243
:1004E4002380D7042380E7040100010003C7A70089
:1004F400136707012385E7009307007D01000100CE
:10050400FD17EDFFB7170040930670052380D7044D
:10051400130780FA2380E704010001001376F50134
:10052400136606042394C7000100010001000100C2
:10053400238007042380D704130660042380E70480
:100544006318C5000100010037270040894689BFB0
:1005540001000100372700409306200591B723804E
:10056400D7042380E7040100010003D78700136741
:10057400070C2394E7000DBF4111814601468145D4
:10058400114506C6412BB717004013077005238099
:10059400E704130780FA2380E7040100010003C77E
:1005A4006704136717002383E70423800704B2401A
:1005B400410182808146014681451145A12BB7172F
:1005C4000040930670052380D704130780FA238024
:1005D400E704010001007D562396C7022380D70457
:1005E4002380E7040100010003C7670413671700B1
:1005F4002383E7042380070401A0BD473305F502E4
:1006040001007D1575FD8280411122C426C206C6F3
:10061400AA84014463179400B240224492444101E5
:10062400828005041305803E4204C13F4180DDB74A
:100634000111A307010022CE26CC4ACA4EC8378432
:1006440000408347640093F7F70FA307F100834743
:10065400F100898B638D072E834774001307000311
:1006640093F70703638EE70683447400834774009B
:10067400BD8893F70703638A071C13070002639C72
:10068400E704138941F06399041083C781FF9D83B4
:10069400F9C78347240293C707042301F40283475D
:1006A400240293F7C70F93E727002301F40283275B
:1006B400490183C581F063FCF5088D8F23ACF1F00B
:1006C40083278901BE9523AEB1F013050008977006
:1006D40001E0E780A076B787004009472383E7005D
:1006E4003784004083477400E207E18763D5072A13
:1006F400930720FC2301F402938441F083A50408AA
:100704002146138581FF970004E0E78020F4838766
:10071400440F63CA0700230004028347240293F7AB
:10072400C70F2301F4023784004083472402138552
:1007340081FF93F7370F93E787002301F402977043
:1007440001E0E780406089472303F400A9A48325DE
:100754008901BE9523AEB1F023AC01F0BDB703C748
:1007640091FF9547631BF700834734000347090053
:1007740093F70708D98FA301F4008347240293F762
:10078400C70F93E727002301F4028347240293F75A
:10079400370F2301F40281B791476398F40083472C
:1007A400240393C707042309F402154433D48402B1
:1007B400930700033304F402939724003E94B7870D
:1007C4000040938727023E948347040093F7C70FA2
:1007D40093E727002300F400E147B387F402CA97A4
:1007E400D84B03C64700944F6379E6048C4B118FB2
:1007F400B296B2958CCBD8CB94CF88476376E60279
:10080400970004E0E78080E4E147B384F40285477D
:10081400CA9403C75400630BF7008347040093F79B
:10082400C70F2300F40045BD3A86D9BF83470400AF
:1008340093F7C70F93E71700EDB7B305D7008CCF35
:1008440023AA070013E5040859B5B1E48347240239
:1008540083448400138941F093C707082301F402F9
:1008640083250908032589082686970004E0E78084
:10087400E0DD832509090145A69523AAB1F883275C
:10088400C908858F23A8F1F8977001E0E780005D1F
:10089400E39304E4DDBD8347740093F70704E38C1A
:1008A40007E291476398F4008347240393C707083A
:1008B4002309F4026144B3878402B7890040138496
:1008C40041F003C989004A863E9483250408032520
:1008D4008408970004E0E78060D783278408832591
:1008E40004090347C407CA972324F4088327C408C8
:1008F400CA952328B408B38727412326F4086363E1
:10090400E90099E72685977001E0E7802055E1B377
:100914009547B3D7F402130700038A049389290285
:10092400B387E7020347D407BE948547CE9463098F
:10093400F70083C7040093F7370F2380F40061BBEB
:1009440083C7040093F7370F93E74700FDB7834746
:10095400F100858B99CFA3010400977001E0E78033
:10096400203B8347240293F7370F2301F402854782
:10097400E1BB8347F100918B95C783475400918B6A
:1009840091C7014597D001E0E780402DB78700402B
:1009940011472383E7007244E2445249C249056186
:1009A400730020308347F10093F7F70F71BB0111F7
:1009B400680006CE973001E0E780C0628566014694
:1009C40081450545812A7DF98146014681451145C8
:1009D4009122B7170040130770052380E70413071B
:1009E40080FA2380E704010001007D572396E70283
:1009F40003C76704136717002383E70423800704EE
:100A040001A0B7170040130700032388E7028547B6
:100A1400175700002320F71673002030411106C633
:100A24005525FDBF411122C61754000013040414B8
:100A34000C4003D701D0B7170040239EE7080545B3
:100A4400978001E0E780407A23200400324441018A
:100A540073002030730020302303048015472303E0
:100A6400E48001002302A480828083076480E3CEB3
:100A740007FE23030480828083076480E3CE07FE9D
:100A840003454480828083076480E3CE07FE23020B
:100A9400A4808280411126C44AC24EC006C6137780
:100AA400F50BAD47AA892E8995446306F7001945CD
:100AB4006537653F8D444E854537FD59FD14639870
:100AC4003401B240A2441249824941018280135543
:100AD40009011375F50F453F2209CDB7011126CC45
:100AE40006CEB704080051371545BD37713769374D
:100AF4002AC6A53F32459377150089EB1365150087
:100B04001375F50FF240E24405618280FD14E9FC9F
:100B14000145CDBF397126DC4ADA4ED852D656D4B7
:100B24005AD25ED006DE62CE66CCB7E700E07D57CF
:100B340083AA070022C603AA470023A0E71823A21A
:100B4400E718B7170040130770052380E70413075D
:100B540080FA2380E70483C74704930B75FFB684A8
:100B6400E20793FBFB0F8546AA892E8B3289372433
:100B74000040E187015763FA76016308D50089468E
:100B8400130700026313D5000157D98F93F7F70FAA
:100B9400B71C00402382FC0411472303E48013059F
:100BA400F00F5D3D094CD135636D7C11B70507002D
:100BB400DA9537870700795563F2E504B387950022
:100BC400636EF702370B0800A94733EB650163999D
:100BD400F90689E48144513D26850DA0DA8509454D
:100BE400553D05090345F9FFFD14050B693D81C415
:100BF4009377FB0FFDF7DD3569FD7D55B717004091
:100C0400130770052380E704130780FA2380E704A1
:100C140003C74704418B2382E704F250B7E700E09F
:100C240023A0571123A24711E25432445259C25906
:100C3400325AA25A125B825B724CE24C216182806E
:100C4400A5476395F90685691309F00FB306990062
:100C5400B3742B01B6941349F9FFB3749900856BEF
:100C640033796901416B9387F9FFB3F7270199E35E
:100C740063FC340193D94900C147E3E637FF99BFC8
:100C84000569C1697D19D9B71305800D63886901A8
:100C9400130500026384790113051008CA85DD3B3E
:100CA400353D21DD4E99B3843441D9B7DA852D45DC
:100CB400D533CA94E30099F205097D3BA30FA9FE3D
:100CC400D5BF9387F9FF93F7F70F6361FC0C83C7D4
:100CD4001C0413073008631FF70437070800636B0D
:100CE400EB04B3079B00B706100063F5D704334B3E
:100CF400EB0089476393F9068980D549E38C04ECBA
:100D0400DA850945413B11090327C9FF914723208F
:100D1400E48003076480E34E07FE23033481FD1758
:100D2400EDFBFD14110B81C49377FB0FE9FF7D33B9
:100D340071F5E1B5B717004003C75704B7070800BA
:100D44001377070219E3B78707007955E378FBEABD
:100D540033079B00E3FFE7F855B58547E382F9F2D3
:100D6400DA852D45053B9389F4FFE38504E62933B1
:100D740093F7390091EB8326048003270900930736
:100D84004900E39AE6E43E89CE84F1BFB547639611
:100D9400F9001305900BC93135BDB1471305B00AED
:100DA400E38BF9FE99476391F904B7050800B3652D
:100DB400BB002D45C53181448D4BA14975396396DE
:100DC4007401832704802320F9008504E39834FF09
:100DD4008327048013172B01635507002312F9009E
:100DE400D5BB2322F900FDB39D476399F9028145E0
:100DF4001305B0044531BD44232009002322090012
:100E0400FD599D3993F77400CA9703C70700FD1471
:100E1400398D2380A700E39634FF6DBBA14763920D
:100E2400F9046D398144630D0B008D479304C003AD
:100E34006308FB009304000563048B0193044004DE
:100E44001375C507E30895D819453931393905456E
:100E5400213126850D3909453D314931E31C05D63B
:100E640069BB91476399F90013056006F536F53EB1
:100E7400130590090DB7E38F09D4F154A9BB19CD1B
:100E840091CD09CE81473387F500834607003307A8
:100E9400F50085072300D700E317F6FE828019C901
:100EA40091C909CA910583A7C5FF11057D16232E93
:100EB400F5FEC5BF828001C919C62A960505A30F90
:100EC400B5FEE31DA6FE828081473307F5000307C4
:100ED400070019E33E8582808507C5BF01112E8670
:100EE40026CAAA84131506019305F004418122CC75
:100EF40006CE32C6EF1040592A8401C53246A68573
:100F0400BD3F2285F2406244D24405618280854718
:100F140015C18DC105C28147B306F5003387F500BD
:100F240083C60600034707006398E6008507E315B8
:100F3400F6FE85473E8582808147EDBF9307F6FF25
:100F4400BE952A966313C5008280FD1583C71500DC
:100F54000505A30FF5FEFDB7AA87014581CF09CE8C
:100F64003E96850703C7F7FF6317B700E39BC7FEE9
:100F740005458280828001458280797197670000EF
:100F84009387070F22D4804306D626D24AD04ECE6A
:100F940052CC56CA5AC85EC662C45DCC37C9C901B0
:100FA400814B176A0000130A2A1197640000938486
:100FB400640C1309F937976A0000938A2A06B70963
:100FC400C0A8370B40578357240095E35C44639DC6
:100FD4000B0017670000232DF708032CC40022859B
:100FE400EF10A057628499A823A6FB00FDB78327BE
:100FF4000A008297838664011C4463DB0606330778
:10100400F5406367E9089767000023A10702835549
:1010140024000345040097E001E0E78060715C4030
:101024005844A9CF1444B6978386640163C5060067
:1010340063E33701DA971CC4A28B3A8449F49767B7
:1010440000009387A7FD9C4B09476378F706F917BF
:1010540017670000232CF7FCB25022549254025913
:10106400F249624AD24A424BB24B224C45618280D9
:10107400E377F5F83387F9402A9761B763970B0054
:101084009767000023A6E7FE89BF23A6EB00B1B74C
:10109400D85009CF63DF06003385A74083A70A0130
:1010A4006376F5009767000023A2A7F8A28B40445B
:1010B40071B7E3F3A7FECE97C5B79767000023A7E0
:1010C40007F659BF411122C417640000130404F841
:1010D4001C4006C626C24AC091C782979767000083
:1010E40023A607F65C4091C382971C406391071CBA
:1010F4009767000083C71714858B9DC79767000007
:10110400A38A0712176700000347F712954763FD88
:10111400E700EF0010379767000083C7D711F51772
:101124008A07A2979C438297176900001309491400
:101134008347C900918B99C3EF1060281C4491C365
:10114400829797640000938464F2984017660000C5
:101154000346D6EC9767000083C747EC93961700C5
:10116400BA9683D60600D5CA9767000083C707EBF3
:1011740063EFC70A97670000238207EA1C4063985D
:1011840007129767000083C7370B91CF976700005A
:1011940083C7770A89EB97670000A38F07089740F6
:1011A40003E0E780E0E5976700009387E7F09C435E
:1011B400638F070EB707C0A8176700002328F7E658
:1011C4006D3B976700009387E7EADC53EDC317672D
:1011D40000001307A7E4184B9767000083C7D7EAFA
:1011E4006367F70C176700000347F704954763E04C
:1011F400E70C8347C900918BDDEB904097660000B4
:1012040083C6D6E163CBD70A2244B2409244024952
:10121400410117E301E06700C32E850793F7F70F39
:1012240097660000238CF6DEE3E6C7F235BF860737
:101234003E97835507002310070097670000239506
:1012440007E297670000938727E09C431765000037
:101254000345C5DC13172500BA979C43829797670B
:10126400000083D767E017670000034727DB93C7B5
:10127400F7FF7D8D9317170098403E97835707001B
:101284005D8D2310A7009767000083C727D991C7F6
:101294008507176700002303F7D817670000034783
:1012A400E7D79767000083C777D7E375F7ECB240B9
:1012B40022449244024941018280139717003297D5
:1012C400035707006DF7850735BFAD6737C7004083
:1012D400BD072326F7200F100000976700009387AF
:1012E400E7D3C84F83278726BD66BD0693C7F7FF9C
:1012F40099836A052326D7205D8D82804111B71713
:101304000040985F3AC6945F3247E39CE6FE32455C
:1013140041018280828003278511630007124111F5
:1013240022C406C68347C5008345C5042A8493F7AF
:10133400C70F2306F500834697000356C70013958D
:101344008601618563F1C508635A05060345870074
:1013540093F6F607A304D700054693E62700631423
:10136400C50093E617002306D4005C4389075CC3D9
:10137400A30AB400032504112E864C430905013643
:101384008327841103465401D44303D7C700B2967C
:10139400118FD4C32396E7008947A30DF4000347B4
:1013A40044039767000083C707CE6378F704834735
:1013B400C40093E707012306F40081A093E7170014
:1013C4002306F40075B79376F60F635D05020345B3
:1013D4008700854513E627006314B50013E617005C
:1013E4002306C400A30AD400A30407008547A30D61
:1013F400F400832784119C43DDF3B2402244014569
:101404004101828093E717002306F400A30AD40065
:10141400A3040700032504114C4309058D348327D5
:10142400841103465401D44303D7C700B296118FE5
:10143400D4C32396E7008D475DBF05458280976737
:101444000000938767DD9C43411122C406C6858B47
:101454002A84C5EF4165130525F597E002E0E7808E
:1014640080CD45C58347A5002315F50083270412C5
:10147400BDE72320A4122322A41285472310F404D9
:10148400232005008347640154412316F5000347D4
:10149400D4002304E5000547A304E5001767000012
:1014A400130707D9184F1385170215811C437D159F
:1014B4001375F50F9CC25C43DCC21C479CC65C4799
:1014C400DCC61C4B9CCA5C4BDCCA1C4F9CCE5C4FDC
:1014D400DCCE19CD9386060213070702C1BF83270A
:1014E400441288C3835704042322A412850779B7BE
:1014F4009767000083D707E1850717670000231368
:10150400F7E0B2402244410182808347C4002309AA
:101514000400054593C747002306F400DDB783475D
:10152400850193F7E70FD5EF83479501DDEB03467C
:1015340025018346C50009CA834545031767000092
:10154400034777B463E7E50013F7060141CF01478A
:1015540009C6C18A0357651C81C68356A51C3697E4
:1015640051C31307C712176500000355A5ADB33562
:10157400A70237460F00411113060624814622C4F0
:1015840026C206C67D543305A70297F003E0E78020
:1015940020D19767000083C777AFB384A70097670C
:1015A40000009387A7D503A707098327070963F3D7
:1015B40087003E84184375FB976700009387C7AF85
:1015C4009C43829781476364A400B307A440B2405C
:1015D4002244B3B7970093C7170092443E85410154
:1015E400828081473E858280797126D206D622D4B4
:1015F4004AD04ECE52CC56CA5AC85EC6834735032B
:1016040003447513AA843E941374F40F93074002A1
:1016140063F687001304B4FD1374F40F03AA841350
:1016240083AAC413A38B841222865285D68597F08D
:1016340003E0E78060C1058915E503CBD4120149B5
:101644008149337B6403930B50024A865285D685C5
:1016540097F003E0E78040BF058915C563916903EE
:101664001374F90F238B8412B250225492540259EA
:10167400F249624AD24A424BB24B456182808509A3
:10168400E20993D989410509E31179FDE1BF832773
:1016940085090356E503797193D60701BD8EC20609
:1016A400C182358E1357764093575640898B058BEC
:1016B4005D8F93573640918B5D8F93571640A18B66
:1016C4005D8F93171600C18B5D8F9317360093F7C8
:1016D40007025D8F931756009355860093F707040E
:1016E4001E065D8F1376F60F518F93D7554013D690
:1016F4003540118A898BD18F13D67540D18F13D67B
:101704001540218AD18F13961500418AD18F1396E3
:10171400350013760602D18F13965500137606040E
:101724009E05D18F93F5F50FCD8FA20745465D8FAA
:101734003307C70222D42A8426D252CC56CA032A9B
:101744008413832AC4135AC806D6369742074183A2
:1017540093577740135557400989858BC98F135583
:1017640037401189C98F135517402189C98F131523
:1017740017004189C98F1315370013750502C98FE6
:101784001315570093558700137505041E07C98F59
:101794001377F70FD98F13D5354013D755401189D7
:1017A400098B498F13D57540498F13D5154021896D
:1017B400498F139515004189498F13953500137589
:1017C4000502498F13955500137505049E05498F2D
:1017D40093F5F50F4D8F2207D98FB387C7024AD0EF
:1017E4004ECE5EC662C4B697C207C18313D7774094
:1017F40013D557400989058B498F13D53740118973
:10180400498F13D517402189498F139517004189B2
:10181400498F1395370013750502498F13955700A7
:1018240093D58700137505049E07498F93F7F70F27
:10183400D98F13D5354013D755401189098B498F5A
:1018440013D57540498F13D515402189498F1395B8
:1018540015004189498F1395350013750502498F89
:1018640013955500137505049E05498F93F5F50FDF
:101874004D8F2207D98FB387C702130650025285B2
:10188400D685B697BD8E93940601C18033F6C40203
:10189400137BF60F97F003E0E780009B05890DEDBD
:1018A4008347D41201498149B3849702130C50022F
:1018B400C1804A865285D68597F003E0E780C098B8
:1018C4000589937BF90F11C563863403850993F960
:1018D400F90F0509E31F89FD230B6413B250225449
:1018E40092540259F249624AD24A424BB24B224CB8
:1018F400456182805E8BCDB70111976700009387A5
:10190400E79F22CC03A4470B26CA06CE2AC42EC6C0
:10191400854419E40145F2406244D2440561828061
:101924008347910003471400858B6304F700004448
:10193400CDB719469305A10013052400EFF02FDD60
:10194400E31795FE0545C1BF011122CC17640000C1
:101954001304C48F18402AC62EC432C206CE3C4B90
:1019640093F7F7F73CCB973003E0E7802066184005
:10197400976600009386C68A3C4B93E707083CCBE6
:101984009C423245A24523A00700034715000348A3
:10199400250022074208429703480500429703485E
:1019A40035006208429798D70347550003486500FD
:1019B40022074208429703484500429703487500AE
:1019C40062084297D8D7034795000348A500220729
:1019D400420842970348850042970348B5006208CD
:1019E400429798DB0347D5000348E50022074208E5
:1019F40042970348C5000345F500429762052A97BC
:101A0400D8DB03C7150003C52500220742052A9722
:101A140003C505002A9703C5350062052A9798CFA8
:101A240003C7550003C56500220742052A9703C56D
:101A340045002A9703C5750062052A97D8CF03C7C6
:101A4400950003C5A500220742052A9703C5850012
:101A54002A9703C5B50062052A9798D303C7D50012
:101A640003C5E500220742052A9703C5C50083C5BF
:101A7400F5002A97E2052E97D8D3D843759BD8C38F
:101A8400D84313671700D8C398431367170098C344
:101A9400124698425C43858BD1E71C4F01452300D5
:101AA400F6009C429C4FA183A300F6009C429C4FED
:101AB400C1832301F6009C429C4FE183A301F600FD
:101AC4009C42D84F2302E600D84F2183A302E600AC
:101AD400D84F41832303E600D84F6183A303E60074
:101AE40098532304E60098532183A304E6009853F3
:101AF40041832305E60098536183A305E600D85388
:101B04002306E600D8532183A306E600D853418375
:101B14002307E600DC53E183A307F600F2406244A6
:101B2400056182800100B5B7175700001307876F5E
:101B34001443411122C49C5E4AC006C6998326C23E
:101B4400858B3A84175900001309896DD1CB9C5EAB
:101B5400975400009384C46D93F7F7F99CDE1757EC
:101B640000000347476D93070008631BF7008327B2
:101B740009009C4393F7070417570000230DF76AE5
:101B840083C7040093F707049DC397570000938706
:101B9400A7529C4382979757000023A3A76A83C741
:101BA400040093F7F70B175700002303F76883C764
:101BB400440093F707048DE7854717570000A30BEC
:101BC400F76697570000938767689C43096798C72F
:101BD400130700FC97560000238EE664D844F8D31C
:101BE4001C40985F1183058B09CB985F3D9B98DF60
:101BF400054797560000238FE662985F1D83058B87
:101C040011CB985F1377F7F798DF854717570000D4
:101C14002302F76283270900D8430583058B19C77C
:101C2400D843759BD8C3D843799BD8C3B2402244C8
:101C34009244024941018280397106DE16DC1ADAC7
:101C44001ED82AD62ED432D236D03ACE3ECC42CA70
:101C540046C872C676C47AC27EC0F935F250E252E2
:101C64005253C2533255A255125682567247E24716
:101C74005248C248324EA24E124F824F2161730025
:101C84002030975700009387675C94439757000070
:101C94009387075A03C70700058B11CB975700009A
:101CA400238A075897570000A3860758828003C7E2
:101CB4001700058B65F7F85271FF83C75700DDB72E
:101CC4001758000013080856032708001C5F958363
:101CD400858BD1E709C61C5BBD832300F60085CA4A
:101CE40083270800985B46079357670163560700EC
:101CF40093E707C0C207C18303970600C207C187E1
:101D040009C7BA970947B3C7E7022390F60085CD00
:101D1400834715008DCB9756000083C6C65193F6B2
:101D240006041387970089478DCA3A95034705002F
:101D3400854699471376F7066311D60262076187D1
:101D4400B947634C0700832708009C5FED838D8BA4
:101D540017570000A303F74E81473E8582808547CD
:101D6400EDBF411122C406C6175400001304044EEB
:101D7400184049E9AE877453FDFE3E85B2859757F6
:101D840000002388074A973003E0E78020FA97573A
:101D94000000938727499C43B70680009843558FDA
:101DA40098C3D857719BD8D797570000A384074886
:101DB40097570000A38E07461C40094798C3B7F7FE
:101DC40000E003A707D16D9B23A8E7D003A707D1A1
:101DD4005D9B23A8E7D073005010144017570000F0
:101DE4001307074583472700858B89EB8347370013
:101DF400858BD9C797570000238E0742B2402244EF
:101E0400410182808D476310F50297570000938744
:101E140067419C43B70680009843558F98C3D857B1
:101E2400719BD8D75DBF8547E319F5FAB567BD0740
:101E34005CC70F1000001C400967094698C71307C8
:101E440000F8975600002387E63E17570000130753
:101E5400673D1443984231830D8B6319C700130700
:101E6400E043F8D33D673D07D8C785BF9842318327
:101E74000D8B01E713076019EDB71307E01BD5B706
:101E8400FC52ADF3A5BF5D7152DC175A0000130A72
:101E94006A3903270A0086C6A2C4A6C2CAC04EDE97
:101EA4001C43975900009389293F175900001309CF
:101EB400E93993F7F7E793E707081CC383A60900FA
:101EC4003707CEFF7D179C46130680022A84F98FBC
:101ED4009CC683270900130700082800B8CBAE84EA
:101EE40093051008EFE03FFD973003E0E780000E14
:101EF400973003E0E780201B83270A009376F41FC2
:101F0400370FFCFF23A40700984B4E88CA88136739
:101F1400F70398CBF84F130510F8D285137707E031
:101F2400558FF8CF9843F576FD16758F98C398436F
:101F3400B7063300B70204001377F7E798C3984352
:101F44009303401F7D1F1377F7E71367071098C3A8
:101F540003A70900930F800285491C47D58F1CC72E
:101F6400832709001307900D3400B8CB11490147AA
:101F74001353370026938347030013767700B3D7B0
:101F8400C740858BDDCF9C41832E0800239C07042A
:101F94002390070603AECE02137EDEFF23A6CE03F4
:101FA40083AE0700137EF70793FE0EF833EECE01DF
:101FB40023A0C70103AE4702336E5E0023A2C7030A
:101FC40083AE0800014E23A27E0603DA07066307E8
:101FD4004E0303AE0703038A0600135EFE00620E7F
:101FE400135E8E416358CA0103AE0703135EFE00FD
:101FF4002380C60103DE0706137EFE0F03AA4E06E6
:1020040063060A0003DA8705E37F49FB03AE470250
:10201400337EEE0123A2C70383870600635CF400CA
:10202400034E03003396C9001346F6FF3376C60108
:102034002300C3003E8663D3A7002A8613158601B6
:10204400618505071377F70F8506E313F7F3B640A9
:10205400264496440649F259625A61618280975631
:1020640000009386A61E9C42D84713161701635599
:102074000602984713161701635006027D57B8D716
:1020840017570000130787F9584F05071756000024
:102094002324E6FA116798C798470D83058B1DC35F
:1020A400175700000347E718136717001756000077
:1020B4002301E618130700F817560000230CE61650
:1020C400214798C79847058B09CF17570000034746
:1020D40037161367170017560000A30BE6140547BD
:1020E40098C798470983058B09E798470583058BAB
:1020F40031CF984717560000130686131755000072
:10210400130545120983058B63030710184118430F
:1021140031830D8B75EBAC4B184E93F505020347D9
:102124001700CDCD79EF13077006D8CF034706000B
:102134001367170017560000230CE60E114798C7C3
:1021440018415C57F19B93E717005CD79C42984772
:102154009316370163D606029756000083C64621BC
:10216400C18A1757000013076719C5CE03474707ED
:102174001367070297560000238CE61E056798C76D
:1021840098479316270163D10602175700000347A7
:10219400670A62076187635707000547975600007F
:1021A400238AE608096798C798479316070163D6F8
:1021B40006029756000083C6B61B858A175700008F
:1021C4001307C713ADCE0347570713672700975666
:1021D4000000A38FE618216798C7828029D7854518
:1021E4006315B7001307B00689B789456315B700AF
:1021F4001307F0061DBF8D456315B700130730079D
:102204002DB71307500715B71307600739BF0347E6
:1022140036001367170017560000A30CE6000947A1
:1022240039BF834647070946BD8A6388C60003470A
:1022340047078D463D8BE313D7F4114725BF8346EB
:102244005707918AC9DA034757071367870041B7CD
:10225400397106DE16DC1ADA1ED82AD62ED432D20A
:1022640036D03ACE3ECC42CA46C872C676C47AC28A
:102274007EC0F533F250E2525253C2533255A25546
:10228400125682567247E2475248C248324EA24E14
:10229400124F824F2161730020301757000013073B
:1022A40027FB8346B7019757000083C737FD4C4B84
:1022B400B697FD8B33D7F50097560000A38AF6F83E
:1022C40097560000A38CF6FA058B15EF17570000FC
:1022D400034717FBB3F7E7028146014713050002E2
:1022E40033D6E500058A1378F70F19CA6397D70028
:1022F40097570000A38E07F58280850693F6F60FA4
:102304000507E31FA7FC8280975700009387C7DA6D
:102314009C43011122CC4EC606CE26CA4AC852C4DA
:1023240056C2829797570000938787F48047814964
:102334006305A406BE84975700009387A7D3038739
:1023440067013E8963550706018D1354550097575D
:10235400000083C787F19379F501636DF402370AAE
:10236400C0A8B70A4057153F9C449756000083C63F
:10237400C6EF139756003E9783076901158C63C512
:1023840007006363470156979757000023A6E7EEBB
:10239400E37BD4FC1604B3693401F24062444E85F5
:1023A400D2444249B249224A924A05618280E37D7D
:1023B40085F8B707C0A833848740229579B7975723
:1023C4000000938767CF9C43411122C406C626C2EE
:1023D4008297975700009387A7E980476309A4066B
:1023E400BE84975700009387E7C88387670163D843
:1023F4000704018D135455009757000083C7E7E67F
:102404006367F404593D98449757000083C7E7E590
:102414009396570036971D8C9756000023AEE6E43A
:10242400E372F4FE2244B24092441755000003457F
:1024340035E281454101173303E06700630EE37A17
:1024440085FAB707C0A833848740229565B7B240A0
:102454002244924441018280975700009387C7E346
:102464009843B75702009387079F8326070913965B
:1024740056006358060083260709139666006344D2
:102484000600FD17FDF3828071C5AA870145E9C5E1
:102494008D07C207C183F19BC207C18313074003A1
:1024A400636FF70217570000130707E50843175730
:1024B40000001307E7E314436398A60217570000CC
:1024C400130747BB185B014541CB4111C20706C640
:1024D4000545DD8D0297B2400145410182801757C1
:1024E4000000130727E1D9B70357650035E3035705
:1024F4004500636FF704B306F7402146637CD602B8
:1025040003280500938687001D8FAA966117175626
:102514000000035606B12392E60023A0060123938C
:10252400060014C12312F500130786FF9756000016
:102534002399E6AE2313B5009755000083D565AE05
:10254400B387F54017570000231DF7AC210582809F
:1025540008419DB70145828082800DC197570000D4
:10256400938787D903A3070097570000938747D819
:1025740083A8070081469A8763E31701828003A832
:102584000700636DF50A636BA80A13878700E36786
:10259400E5FE03D66700216705076317E60003C756
:1025A40001DE05072380E1DE97550000938505A72A
:1025B40003D6470003D765002393070032974207E9
:1025C400418317550000231EE5A4638A670217554B
:1025D4000000130525D208416303F50203D5660004
:1025E40019ED83D7460023A0060121073E96210654
:1025F4002392C600975700002395E7A2B687984315
:10260400E30E17F7975600009386C6CE9442E3076D
:10261400D7F683566700BDF283D6470003564700BA
:102624001843A106B2962392D70098C383D76500B6
:10263400A107175700002316F79E8280BE86C28723
:1026440025BF011197570000938747CB22CC03A4E1
:10265400C70B26CA4AC84EC606CEAA84130925004B
:10266400854915C083C7140003473400858B630470
:10267400F700405CFDB71946930544004A85EFE036
:102684001F89E31835FF2285F2406244D24442494F
:10269400B24905618280411197570000938707C6AC
:1026A40022C403A4C70B26C24AC006C6930425004D
:1026B400054901E82285B24022449244024941017D
:1026C4008280A6851305A40297D003E0E780006DFD
:1026D400E30225FF405CF1BF411197570000938747
:1026E400E7C122C403A4C70B26C24AC006C693048A
:1026F4002500054901E82285B2402244924402495A
:1027040041018280A6851305A40197D003E0E780E8
:0C271400E068E30225FF405CF1BF00001C
:102720009711FF1F938181DC1761FF1F1301418DFA
:1027300017E5FFFF1305458D97E5FE1F9385858CF3
:102740001706FF1F1306C6FD63FAC50083220500A6
:1027500023A0550011059105E3EAC5FE17250300E6
:102760001305452B9705FF1F938585FB1386019065
:1027700063FAC5008322050023A0550011059105C9
:10278000E3EAC5FE138581C89755FF1F938505C9E8
:102790006377B500232005001105E36DB5FEFD420A
:1027A000739002BC8D42739042809302800873A0A4
:1027B000023097E2FE1F9382E28493E2320073902C
:1027C000523097C20000938282E9739012347300F2
:1027D0002030797106D622D40018232EA4FCB757D6
:1027E000002003A74771B75700209387477183C71D
:1027F00087003E8693053006130500080297AA87D6
:102800002307F4FE8347E4FEC9C78327C4FD3727A7
:102810000400034F47F7930647F783CE160093064D
:1028200047F703CE2600930647F703C33600930607
:1028300047F783C84600930647F703C85600930638
:1028400047F703C56600930647F783C576009306EE
:1028500047F703C68600930647F783C6960013071B
:1028600047F70347A7002380E701A380D70123810F
:10287000C701A381670023821701A3820701238375
:10288000A700A383B7002384C700A384D7002385B0
:10289000E700B757002003A74771B7570020938779
:1028A000477183C787003E8681451305E00502977F
:1028B000B757002003A74771B75700209387477188
:1028C00083C787003E8685451305B0020297B75738
:1028D000002003A74771B75700209387477183C72C
:1028E00087003E8685451305C0020297B757002032
:1028F00003A74771B75700209387477183C78700A5
:102900003E8681451305D0020297B757002003A7E2
:102910004771B75700209387477183C787003E866A
:1029200081451305E0020297B757002003A74771BE
:10293000B75700209387477183C787003E86854538
:102940001305F0020297B757002003A74771B75746
:1029500000209387477183C787003E86854513050E
:1029600000030297B757002003A74771B75700200D
:102970009387477183C787003E869305F00F130541
:1029800010030297B757002003A74771B7570020DD
:102990009387477183C787003E86814513052003CF
:1029A0000297B757002003A74771B75700209387B6
:1029B000477183C787003E86814513053003029720
:1029C000B757002003A74771B75700209387477177
:1029D00083C787003E868145130540030297B7579A
:1029E000002003A74771B75700209387477183C71B
:1029F00087003E868145130550030297B757002094
:102A000003A74771B75700209387477183C7870093
:102A10003E86BD45130560030297B757002003A704
:102A20004771B75700209387477183C787003E8659
:102A3000BD45130570030297B757002003A74771E0
:102A4000B75700209387477183C787003E8681452B
:102A5000130580030297B757002003A74771B757A4
:102A600000209387477183C787003E868145130501
:102A700090030297B757002003A74771B75700206C
:102A80009387477183C787003E8685451305A0035A
:102A90000297B757002003A74771B75700209387C5
:102AA000477183C787003E8685451305B0030297AB
:102AB000B757002003A74771B75700209387477186
:102AC00083C787003E869305F00F1305C003029766
:102AD000B757002003A74771B75700209387477166
:102AE00083C787003E869305F00F1305D003029736
:102AF000B757002003A74771B75700209387477146
:102B000083C787003E8681451305E0030297B757C8
:102B1000002003A74771B75700209387477183C7E9
:102B200087003E8681451305F0030297B7570020C2
:102B300003A74771B75700209387477183C7870062
:102B40003E868145130500040297A30704FE31A0C9
:102B50008347F4FE8507A307F4FE0347F4FE8D4781
:102B6000E3F8E7FEA30704FE71A8B757002003A807
:102B700047710347F4FE9387818FBA9783C7070095
:102B8000860793F7F70F9387170413F7F70FB757D5
:102B900000209387477283D7870093F6F70FB757C4
:102BA00000209387477183C787003E86B6853A85A4
:102BB0000298B757002003A847710347F4FE938794
:102BC000818FBA9783C707009387170293F7F70F90
:102BD000860713F7F70FB75700209387477283D7FD
:102BE000A70093F6F70FB75700209387477183C765
:102BF00087003E86B6853A8502988347F4FE8507AE
:102C0000A307F4FE0347F4FE9947E3F0E7F6B7574E
:102C1000002003A74771B75700209387477183C7E8
:102C200087003E868945130590050297B757002017
:102C300003A74771B75700209387477183C7870061
:102C40003E8685451305A0050297B757002003A7C8
:102C50004771B75700209387477183C787003E8627
:102C600081451305B0050297B757002003A74771A8
:102C7000B75700209387477183C787003E86C145B9
:102C80001305C0050297B757002003A74771B75730
:102C900000209387477183C787003E8693054002D3
:102CA0001305D0050297B757002003A74771B75700
:102CB00000209387477183C787003E86AD45130583
:102CC000B0070297B757002003A74771B7570020F6
:102CD0009387477183C787003E869305800C130551
:102CE000D0070297B757002003A74771B7570020B6
:102CF0009387477183C787003E8693052008130595
:102D0000E0070297B757002003A74771B757002085
:102D10009387477183C787003E869305400B130551
:102D2000F0070297B757002003A74771B757002055
:102D30009387477183C787003E869305C00B1305B1
:102D4000E00502970100B2502254456182807971FA
:102D500022D60018AA87232CB4FC3287231FF4FC48
:102D6000BA87A30EF4FC231604FEA30704FE89A071
:102D70008357E4FD0347F4FE832684FD369703471B
:102D80000700B3D7E74013F717008347F4FEB317E4
:102D9000F7001397070141878317C4FED98FC20735
:102DA000C1872316F4FE8347F4FE8507A307F4FECC
:102DB0000347F4FE8347D4FDE36CF7FA8357C4FE60
:102DC0003E85325445618280011122CE0010A30756
:102DD00004FE85A88347F4FE938617000347F4FE9C
:102DE000B6878607B6978A07B7560020938646743B
:102DF000BE96B757002013864774BA878607BA97DE
:102E00008A07B297D4C38346F4FE8347F4FE138740
:102E10001700B6878607B6978A07B75600209386AD
:102E20004674BE96B757002013864774BA87860744
:102E3000BA978A07B29794C78347F4FE8507A3071A
:102E4000F4FE8347F4FED9D7B75700209387477421
:102E5000375700201307077598C7B7570020938787
:102E60004774375700201307477498CBB757002093
:102E7000375700201307477423AEE77401007244EC
:102E800005618280411122C60008010032444101DF
:102E90008280011106CE22CC00102326A4FE23241A
:102EA000B4FE2322C4FE4146832584FEB75700208A
:102EB00013854771EFD042796946832544FEB757A1
:102EC000002013854772EFD02278FD3D0325C4FE14
:102ED00009324D3F0100F2406244056182800111D8
:102EE00022CE00102326A4FE8327C4FE37570020DD
:102EF000834607742380D70013070774034717001E
:102F0000A380E7000100724405618280011122CE96
:102F100000102326A4FE375700208327C4FE83C653
:102F200007002300D7741307077483C71700A30093
:102F3000F7000100724405618280011122CE001069
:102F40002326A4FEAE873287A305F4FEBA87231496
:102F5000F4FE8347B4FE8A070327C4FEBA9798435A
:102F60008347B4FE8A078326C4FEB697584398C3A6
:102F70008347B4FE8A070327C4FEBA979C430357CE
:102F800084FE2390E70001007244056182800111F4
:102F900006CE22CC0010B75700209387477103A8B4
:102FA0004700B75700209387477103C787009307EF
:102FB000E4FE89463A86BE85014502988357E4FEC1
:102FC0003E868145B75700201385C775BD37010080
:102FD000F240624405618280797106D622D40018DD
:102FE000AA87A30FF4FCB757002083A7C77503D7A0
:102FF00007001D469385818F3A85913BAA87231749
:10300000F4FEB757002083A7C7759C4703D7070076
:103010001D469385818F3A851D3BAA872316F4FEB2
:10302000B757002093874771DC4783C707009D8B04
:10303000A305F4FE8347F4FD858BFDC78357E4FEAB
:10304000F5C78357C4FEFDC30357E4FE8357C4FE90
:1030500063F4E706B757002083A70776858B99C7E7
:10306000B7570020094723A0E776E1A0B757002013
:1030700083A7077613872700B757002023A0E7769A
:10308000B757002003A7077699476314F70AB75785
:10309000002023A00776B757002003D707741367D3
:1030A00027002390E774B757002003D707741377DE
:1030B000F7EF2390E774D9AC0357E4FE8357C4FEBF
:1030C0006378F706B757002083A70776858B99E7C3
:1030D000B7570020054723A0E776A1A8B7570020DF
:1030E00083A7077613872700B757002023A0E7762A
:1030F000B757002003A707769547631BF702B7571A
:10310000002023A00776B757002003D70774136762
:1031100017002390E774B757002003D7077413777D
:10312000F7F72390E7749DA4010021A0010011A0EE
:1031300001008347F4FD898B638707248357E4FEEE
:103140008D8BB337F00013F7F70F8357C4FE8D8BC9
:10315000B337F00093F7F70FB98F93F7F70FB1CFAD
:103160008357E4FE8D8BB9E3B757002093874772EE
:1031700003D74701854763FAE700B75700209387D5
:1031800047720357C4FE2399E700B757002093877F
:103190004771DC4703C70700B75700209387477183
:1031A000DC47799B1377F70F2380E700B7570020A0
:1031B00093874772239A0700E1A0B75700209387AF
:1031C000477283D7470193960701C18241677517FC
:1031D0006373D700F557C207C183850713970701AB
:1031E0004183B757002093874772239AE70083579C
:1031F000E4FE8D8B95E7B75700209387477203D77E
:103200004701B75700209387477283D7C700636988
:10321000F706B757002093874772239907008DA0C0
:10322000B75700209387477283D72701B1CBB75791
:1032300000209387477223990700B7570020938790
:103240004771DC4703C70700B757002093874771D2
:10325000DC47136717001377F70F2380E700B75792
:10326000002003D70774136747002390E774B7570C
:10327000002003D707741377F7DF2390E77439A290
:103280008357E4FE93F70706B337F00013F7F70F01
:103290008357C4FE93F70706B337F00093F7F70F91
:1032A000B98F93F7F70F95CF8357E4FE93F707068F
:1032B00095E3B757002093874771DC4703C70700A2
:1032C000B757002093874771DC47759B1377F70F3B
:1032D0002380E700B757002093874772239C07009D
:1032E00075A08357E4FE93F70706C5C3B7570020C0
:1032F0009387477283D7870193960701C1824167FD
:1033000075176373D700F557C207C18385071397F5
:1033100007014183B757002093874772239CE7003A
:10332000B75700209387477203D78701B75700200C
:103330009387477283D7E7006319F704B7570020D4
:1033400093874771DC4703C70700B757002093876F
:103350004771DC47136727001377F70F2380E700D7
:10336000B757002003D70774136707012390E7744A
:10337000B757002083D607747D771307F77F758FC3
:103380002390E77421A0010011A00100B75700208D
:1033900093874771DC4783C7070013F7770083479C
:1033A000B4FE630AF700B757002003D7077413670A
:1033B00007042390E7740100B250225445618280D3
:1033C0003D432A876373C3029377F700BDEFADE5F2
:1033D000937606FF3D8ABA960CC34CC30CC74CC704
:1033E0004107E36BD7FE11E28280B306C3408A0631
:1033F0009702000096966780A6002307B700A306F1
:10340000B7002306B700A305B7002305B700A30440
:10341000B7002304B700A303B7002303B700A30238
:10342000B7002302B700A301B7002301B700A30030
:10343000B7002300B700828093F5F50F93968500BF
:10344000D58D93960501D58D61B793962700970288
:10345000000096968682E78086FA9680C1171D8FB7
:103460003E96E374C3F8A5B73367B500FD530D8BE3
:1034700079E7B7877F7F9387F7F710419441B3725D
:10348000F6003363F600BE92B3E262006397720CFB
:103490006318D6065041D441B372F6003363F60088
:1034A000BE92B3E262006398720A631BD6041045B1
:1034B0009445B372F6003363F600BE92B3E2620045
:1034C0006391720A631ED6025045D445B372F6006A
:1034D0003363F600BE92B3E26200639A720863112E
:1034E000D60210499449B372F6003363F600BE92D7
:1034F000B3E26200639372085105D105E30FD6F67B
:103500001317060193970601631CF7001357060172
:1035100093D706013305F7409375F50F91E9828043
:103520004183C1833305F7409375F50F91E18280A4
:103530001377F70F93F7F70F3305F74082800346B1
:10354000050083C60500050585056313D60065FAE9
:103550003305D640828011059105E312D6FE014560
:1035600082802105A105E31CD6FC0145828031053E
:10357000B105E316D6FC014582804105C105E31083
:10358000D6FC01458280B717004003C777051A05AE
:1035900092054D8D1377E70F13653500A38BE70474
:1035A0001375F50FA38CA7048280B717004003C7DB
:1035B00077051377E70FA38BE704130700F8A38DB4
:1035C000E7043D47238CE70413075003A38CE7046B
:1035D00082804111B7170040985F3AC6945F324726
:1035E000E39CE6FE3245410182801D71D2C45EDE5D
:1035F00086CEA2CCA6CACAC8CEC6D6C2DAC062DC03
:1036000066DA6AD86ED6AA8BEF007019B717004039
:10361000930670052380D704130780FA2A8A238033
:10362000E7040100010003C6F70213668600A387C2
:10363000C70203C6F7021376760FA387C70223805B
:10364000D7042380E7040100010003C6E7021376D4
:10365000C60F2387C70203C6E70213661600238737
:10366000C7022380D7042380E70401000100130967
:10367000803E33492503930A007D930480C103C72C
:10368000370593095002130BA0041377870FA38902
:10369000E70403C7370537140040116C13671700A0
:1036A000A389E704A167930D0404130D80FAE17C5C
:1036B0007D1CB30A5903B344950233C7FA02916AD9
:1036C000B38434033AC6B309390333C7F40293040D
:1036D0007005B3C7F9023AC88149330B69033ECA82
:1036E000BD67938707A6B347FB02094B3ECC930700
:1036F00070052380FD002380AD0101000100834798
:10370000340593E70702A309F40483570405B3E7DC
:1037100057012318F40483570405B3E79701C20740
:10372000C1832318F4048347340593F70702E5C3E4
:103730000347340593073405218B7DDB23809D00EF
:103740002380AD010100010003C707001377F70DC7
:103750002380E70003C70700136707022380E70001
:1037600083570405B3E757012318F404835704056E
:10377000B3E79701C207C1832318F40483473405D4
:1037800093F70702D5C383473405A18BEDFF91352D
:10379000AA873ECE3D3DF247E30DF5FE8357040573
:1037A000B3E757012318F40483473405A18BEDDFF9
:1037B00003570405834724053377EC00B307FC0265
:1037C0003E97B2471D8FC24763D5E700D247634A91
:1037D000F706636A3B079386190093F9F60FE246F2
:1037E00093171700B3C7D7026355E02885072380D6
:1037F0009D002380AD01B3C767030100010003579B
:10380000C402BA97C207C1832316F402CDB5238040
:103810009D002380AD01010001008347340593E73B
:103820000702A309F40401B723809D002380AD01A2
:10383000010001008347340593E70702A309F4045C
:1038400035BFE38A09F8B7170040130770052380D6
:10385000E704130780FA2380E7040100010003C78F
:10386000370513F6FB0F930570051377870FA389B0
:10387000E70403C73705130580FA518FA389E704CE
:1038800083C63705138737059D8A6396761F93068F
:1038900070052380D704930680FA2380D7040100A3
:1038A000010083460700130680FA93F6F60D230005
:1038B000D7008346070093E606022300D70003D70C
:1038C00007059166558F2398E70403D70705A1667E
:1038D000558F2398E70493067005B717004003C778
:1038E0003705137707026304071AB717004083C62A
:1038F000370513873705A18AFDDA93067005238003
:10390000D704930680FA2380D70401000100834680
:103910000700130680FA93F6F60D2300D7008346BE
:10392000070093E606022300D70003D70705916638
:10393000558F2398E70403D70705A166558F239871
:10394000E70493067005B717004003C737051377E0
:103950000702630B07143717004083473705A18B15
:10396000EDFF85392A84B531E30F85FE3717004016
:10397000835707059166D58F2318F704B7170040C2
:1039800003C7370593863705218B7DDB1307700549
:103990002380E704130780FA2380E7040100010075
:1039A00003C706001377F70D2380E60083D60705CB
:1039B00003C727059167FD17FD8EB387E7023747D9
:1039C0000F0013070724334AEA02BE9685679387E0
:1039D00007FAB397770113070008B3874703130A61
:1039E0000010B3C74703130A803EB3874703B3C72A
:1039F000E7020547B31B770193DB3B403D671307A5
:103A000007A633892B03930B60559D8E9307800C7B
:103A1000330979033349E902B387F602B3C72703B1
:103A20006351D00A8507094793067005B3C7E702BB
:103A3000371700402300D704930680FA2300D704E9
:103A40009607010001008356C702F6406644B69708
:103A5000C207C1832316F702D6444649B649264A0F
:103A6000964A064BF25B625CD25C425DB25D2561B8
:103A70008280FD17ADBB2380B7042380A70401001B
:103A8000010003C73705518FA389E704D5BB238005
:103A9000D7042380C7040100010003C7370513675B
:103AA0000702A389E70425BD2380D7042380C70428
:103AB0000100010003C7370513670702A389E70464
:103AC00069B5FD178DB7914763EEB70217E702009E
:103AD0001307474C8A05BA959C41BA978287B71756
:103AE000004003A7470B1345F5FF698F23AAE70A98
:103AF00003A7070B698F23A8E70A03A7070A798D95
:103B000023A0A70A8280B717004083A6470B13475C
:103B1000F5FFF98E23AAD70A83A6070B558D23A894
:103B2000A70A83A6070A758F23A0E70A8280B71722
:103B3000004003A7470B498F23AAE70A03A7070BF7
:103B40001345F5FF45BFB717004083A6470B134742
:103B5000F5FF758F23AAE70A03A7070A598D4DB70A
:103B6000B717004003A7470B498FEDB7914763EEA6
:103B7000B70217E70200130727438A05BA959C414D
:103B8000BA978287B717004003A7470D1345F5FF83
:103B9000698F23AAE70C03A7070D698F23A8E70CF9
:103BA00003A7070C798D23A0A70C8280B7170040CC
:103BB00083A6470D1347F5FFF98E23AAD70C83A6DA
:103BC000070D558D23A8A70C83A6070C758F23A07E
:103BD000E70C8280B717004003A7470D498F23AA3F
:103BE000E70C03A7070D1345F5FF45BFB7170040C6
:103BF00083A6470D1347F5FF758F23AAE70C03A78C
:103C0000070C598D4DB7B717004003A7470D498FD3
:103C1000EDB7931705010547C1836382E5048DC1A4
:103C20000947638DE5040D476380E50637170040BB
:103C3000231EF70883560709D58F2318F7088280BB
:103C4000371700400356470993C6F7FFF18E231A32
:103C5000D7088326C70A558D2326A70AC1BF371761
:103C600000400356470993C6F7FFF18E231AD70881
:103C70008326870A558D2324A70A4DBF3717004096
:103C800083564709DD8EE1B7371700408356470951
:103C9000DD8EE9BF375700408357078011C593E792
:103CA00017002310F7808280C207C183F99BC207E7
:103CB000C183C5BF375700408357078011C593E7BD
:103CC00007102310F7808280C207C18393F7F7EFB4
:103CD000C207C183FDB7375700408357078011C51E
:103CE00093E707202310F7808280C207C18393F7F0
:103CF000F7DFC207C183FDB73757004083570780FE
:103D000011C593E707402310F7808280C207C18363
:103D100093F7F7BFC207C183FDB7B7570040239899
:103D2000A7808280B757004003D507811375F50F30
:103D300082809377E50F99C193671500C207C1830D
:103D4000375700402318F780828037570040835749
:103D5000078011C5A166D58F2310F7808280C60722
:103D6000C583DDBF011126CAB754004022CC2E8482
:103D700083D504804AC82A892165C98D32C636C4D4
:103D80003AC23EC006CE2390B48001457D3F012C4F
:103D900037480F00130808243358050383D544809F
:103DA00082471247C205C18193F505FCC205C18156
:103DB0002392B48083D54480A2463246B365B800CE
:103DC000C205C1812392B48083D50480C205C1811C
:103DD000F999C205C1812390B480E1659385056A94
:103DE00063ED850806043354850205669305C6FF16
:103DF000114542044180E18D81C51305F6FF618DB7
:103E000005081306F003637406011308F003420863
:103E100037560040135808012310068337560040D8
:103E2000231EA68083550680F240624493E5150068
:103E30002310B68083550680D244C205C18193F514
:103E400055BFC205C1812310B68083550680CD8E33
:103E5000B3E62601C206C1822310D680835686802F
:103E600023140680835686804249D58FD98FC20796
:103E7000C1832314F6800561828015E68D45B30564
:103E8000B4023355B5025205518111E10545216651
:103E9000518D1306C0123308C8021306803E3358F2
:103EA000C8020508ADB7E5453304B40211663355C1
:103EB000850252055181518DD9BF37570040835635
:103EC000478183578781C207D58FE98FA207A183D6
:103ED0003385A740133515008280411102C4B757BE
:103EE000004002C6938707803EC69357C5013EC473
:103EF000A2472205218199CBB247D1073EC6B247DE
:103F00009C4341017D8D3335A0008280B2474181C1
:103F1000E107EDB7B71700401DE5130770052380D3
:103F2000E704130780FA2380E7040100010003C7B8
:103F3000E70093C5F5FFF98D2387B700B717004059
:103F4000238007048280930670052380D70413071B
:103F500080FA2380E7040100010003C5E700C98D52
:103F600093E505042387B7002380D7042380E70463
:103F70000100010083C5F70093F5C50FA387B700C3
:103F80002380D7042380E7040100010003C7F70062
:103F90007D163336C000598EA387C70045B7B717C3
:103FA000004003D58700420541819377050491EBDA
:103FB0009377F5013755E801130505803345F50280
:103FC00082809377050C130700046397E7009377CB
:103FD000F50137459C1CCDB72165130505D08280BE
:103FE00037E700E01C435443A183E206D58F1CC190
:103FF000FD572320F7182322F71882801317850016
:10400000B7E700E023A0E710618123A2A710828018
:10401000B7F700E08847CC47828012059A054D8D9E
:104020001365C5001375F50FB72700402380A7401F
:104030008280B727004001E5A38007408280239C4F
:10404000B740239EC740154791E20547A380E7404C
:104050008280938741C99C43011106CE22CC91C333
:104060008297938741CF8043938781C99C431315DF
:104070000401418181C72AC68297324597F7FE1F06
:1040800083D7E7C66379F50403D741806378A70433
:10409000938601C903A30600630603006244F2404D
:1040A000056102838507998F139507014181935715
:1040B00025001315040141816544198D33058502DE
:1040C0001384F7FF22953345F5021375F50FF2407F
:1040D00062440561828013054006D5BF0145C5BF16
:1040E00003A84500411126C206C622C48347180012
:1040F00003480800A944A207B3E70701C2070D68F7
:10410000C187130828906396070385473284EF0020
:10411000115EAA8419ED9387C1C89C4399CB0345CE
:104120001400034704002205598D133515000505B9
:104130008297B240224426859244410182802D45D7
:104140002DEFD841411122C426C206C6834717006D
:1041500003470700B684A207D98F0D67930697A17E
:104160003284639CD702F53597F7FE1F83C707B8E3
:104170006376F50097F7FE1F238AA7B6854723903D
:10418000F40097F7FE1F83C767B62300F4000145CC
:10419000B24022449244410182801307879029450E
:1041A000E398E7FECC4589472390F4000946228531
:1041B00097D0FE1FE780E0CCD9BF828083474500BF
:1041C000858BBDC7011122CC2A8403552500938518
:1041D00041E506CEEF00714C058939C50355240031
:1041E000014781460546ED45EF0091052AC60DCDF4
:1041F00097E7FE1F9387C75283D7A70201462C007B
:104200002314F10085472315F10097F7FE1F83C79C
:10421000E7AD2300F50003552400EF10F12409C594
:10422000ED452800EF009119F2406244056182805B
:10423000828041654111938541E57D1506C6EF20D9
:10424000F113B24097E6FE1F93868652414695458C
:1042500017E5FE1F1305C54C41016F20510723A62A
:10426000A1C88280411122C406C685470944631350
:10427000F5028347060001442384F1C817F7FE1FA7
:104280000347C7A66378F70017050000130545F339
:10429000EF40B14B2285B2402244410182808547E4
:1042A0006303F50209C909476304E5020D47630882
:1042B000E5020945828097F7FE1F83C727A3238065
:1042C000F50001458280938781C883C70700C5BF79
:1042D00097E7FE1F83D767452390F500DDB7138767
:1042E0008180035707002392E50017E7FE1F13079D
:1042F00027438356A7020357A7032383F500239080
:10430000D5002391E50075BF411106C6993397F793
:10431000FE1F83C7A79D637CF50097F7FE1F2387C9
:10432000A79C170500001305A5E9EF401142B24014
:1043300001454101828041677917630CE502411113
:1043400022C406C685472A84639AF5002285224442
:10435000B240938541E541016F2051028947639640
:10436000F5008545EF40F13875D1B2402244410156
:1043700082808280CC41411106C6328503C6150079
:1043800083C5050022064D8E42068D654186138841
:1043900075A2630C060F6348C804138845A2630620
:1043A000060B634AC800938535A26309B6062390BD
:1043B0000600294679A0138855A26308060B938549
:1043C00065A2E316B6FEC1451D4663ECE50645460B
:1043D000198E63F3C7003E862390C60097E502005E
:1043E0009385C5BE89A8138895A26300060F634E06
:1043F000060B1388A5A2630A060F938505A5E3188B
:10440000B6FA99451D4663EEE502198E63F3C700BF
:104410003E862390C6009385018131A89D451D46A7
:1044200063E1E5022146198E63F3C7003E862390BF
:10443000C6009385C1C9BA9597D0FE1FE78060A4D6
:104440000146B240328541018280AD451D46E3EA16
:10445000E5FE3146198E63F3C7003E862390C60001
:1044600097E50200938545BAF9B7B1451D46E3EAE1
:10447000E5FC3546198E63F3C7003E862390C600DF
:1044800097E50200938545B97DB7C1451D46E3EA2E
:10449000E5FA4546198E63F3C7003E862390C600B1
:1044A00097E502009385C5B379B7C1451D46E3EA98
:1044B000E5F84546198E63F3C7003E862390C60093
:1044C00097E50200938545B6BDB7C1451D46E3EAB1
:1044D000E5F64546198E63F3C7003E862390C60075
:1044E00097E50200938505B1B9B7B5451D46E3EAE6
:1044F000E5F43946198E63F3C7003E862390C60063
:1045000097E50200938585AB3DB797E6FE1F93863E
:10451000E6394146CD4517E5FE1F130525266F20D8
:10452000015B82808280938781CB9C4303C7C1CA91
:1045300083C6F18101E781473E85828003D607006B
:104540006316A60003C66700E308D6FE7D1713773F
:10455000F70FA107C5B70111930500030D4506CE5E
:10456000EFD0E05D930500051145EFD0405D930568
:10457000C0030545EFD0A05C85471306F1008545D3
:1045800013055030A307F100EF708267F240056118
:1045900082808547631CF5001166130686A989454C
:1045A0001715FF1F034585246FB0802A89476319BB
:1045B000F50089451715FF1F034545236FB0604A75
:1045C000828085476392F50209EE2383B1CA97176B
:1045D000FF1F83C7E75993E727001717FF1F23091A
:1045E000F758238EC1CA828009476393E50231E2FE
:1045F0002383F1CA9717FF1F83C7875793E72700C5
:104600001717FF1F2306F75603D541CA6F00D007BF
:104610008D476390F502411117E50200130505A2CD
:1046200006C6EF804041B2401305007D41016F8016
:10463000C05A8280938701CB9C43011122CC06CEC5
:104640002E8481CB9C4791C78297F24062440561DA
:1046500082806C0013057040EF50923C32468145D9
:104660002285EF50527ED5B741119397050122C4A0
:1046700006C6C1872E8463D107021715FF1F0345A5
:10468000E516EFA0B04119C1EFA0303A2165218DA8
:10469000B24022444101828093F7150095C317E68A
:1046A000FE1F1306262297E5FE1F9385E5201715AA
:1046B000FF1F0345A513EF70222313451400C9BF44
:1046C00093F725000145E9D781311166130686A9C4
:1046D00089451715FF1F03456511EFB06017134596
:1046E00024007DB7797126D24ECE06D622D44AD088
:1046F00052CC9147AA84AE896314F50483D7A500F0
:104700001306E1008545130550302392F1CA2307B3
:104710000100238301CAEF70A24E938701CB9C4313
:1047200091C7DC4781C7CE8526858297B250225437
:1047300023A491CA02599254F249624A4561828087
:10474000138781CA1843E31AF7FC854503D541CA8C
:10475000DD36854503D541CAEF00C078C16703DA6D
:1047600041CAF917631BFA0205449305E1001305DA
:104770005041238301CAA38F818023070100EF509A
:10478000322A8347E100B1E303C7C1CB9147E31667
:10479000F7F8D133238E01CA49B7938781CB03A998
:1047A000070003C4C1CA69D00355290011C9930584
:1047B000E100EF00F15309C54C455285EF20013C63
:1047C0007D141374F40F2109F9BF938741CB9C43E7
:1047D00083C74700898BCDDB9305000A0D45EFD0D9
:1047E00000369305000A1145EFD060358145054537
:1047F000EFD0E0341306E100854513055030230760
:104800008100EF70E23F49B7011117050000130561
:10481000E5E506CE22CCEFB0804C1714FF1F130441
:10482000E4FC85471306F10085452300A400130529
:104830004041A307F100EF6082087D55EFF09068DA
:104840007D55EF208130D131ED3231251705000043
:10485000130565D42934170500001305E5CC15258B
:10486000034504008545EFA0706CF2406244056189
:10487000828023A8B1CA23AAA1CA828023ACB1CA6C
:104880002386A1CA8280938781CA9C43797106D608
:1048900022D426D24AD04ECE52CC1147639BE70495
:1048A00083C761CA414481CF938781CB8043B2845F
:1048B000B68983C7C1CA03C7F18199EB55442285E4
:1048C000B250225492540259F249624A45618280A0
:1048D00083464400639AA600834654006396B6005C
:1048E000834664006380E606FD1793F7F70F210403
:1048F000E9B709474144E384E7FC2C001305504124
:1049000023040100EF50D211834781008DCB930522
:1049100000020D45EFD0A022930500031145EFD012
:10492000002295450545EFD080218547300085451B
:10493000130550302304F100EF70822C49B7213960
:104940004144B5BF0355240093056100EF00513A7F
:1049500035D51399040113590901014781464A8647
:10496000ED4503D541CA035A0400EF00610D2AC684
:104970004D4431D52686CE852314410123152101CE
:1049800097C0FE1FE780E04F01462C0003D541CAC7
:10499000EF10812D2A84E30405F2ED452800EF0095
:1049A000E12131BFC841011122CC06CE3284034639
:1049B0001500034505002206498E19CB0D68130822
:1049C000B8A42D4563090607F24062440561828060
:1049D0000D651308D5A463000603130825A2630C14
:1049E000060175781308E85C3298420813580801EC
:1049F000854863EE080303D5A50036C632C42536C4
:104A0000B24615C1938701CB9C432246834555008E
:104A100003A30700A2876244F2400345450036879E
:104A200085460561028323900600014571BF130886
:104A3000B5A46317060303D661821D45E376C7F864
:104A4000198E63D3C7003E86CC452390C60042062C
:104A50004182BA95228597C0FE1FE7808042F1B758
:104A60009307A5A46318F60091472390F60011461A
:104A7000CC45CDB7930785906317F60089472390FF
:104A8000F6000946F5B79307E5A4631AF600DC457E
:104A90002390160183C707002300F40079B713059C
:104AA0007590E314A6F8D9BF011122CC06CE26CA10
:104AB0004AC82317D1002D4429EBDC412E89B2844A
:104AC00003C4170083C7070022045D8C8D6793869B
:104AD000D7A46306D400938627A3631FD40203558B
:104AE000A900913419E101440DA0938701CB9C43A7
:104AF000834555000345450003A807002286A68785
:104B00001307E100814602982A842285F24062441C
:104B1000D2444249056182809386C7A46314D402BB
:104B20008357E10005473544E391E7FE034506005E
:104B300013040008E3EBA7FC938701CB9C43DC4301
:104B4000829755B793862790631AD4028356E10063
:104B50008547EF00C1392A844DF9938781CB83566D
:104B6000A9009C4303C7C1CA3DDF03D627006302E7
:104B7000D6047D171377F70FA107FDB79387E7A436
:104B8000E313F4F68357E10005473544E39FE7F666
:104B90000345060013040008E3E9A7F6DC4523807B
:104BA000A700938701CB9C433335A0000905DC4364
:104BB00041BF138701CB184303C5470083C5570086
:104BC00083C714000328070003C70400A20789460F
:104BD000D98FC207C18705476383E7008D460D66FD
:104BE000A6871307E10013062690029839BF4111EA
:104BF00022C441641305F4FF938541E806C626C22A
:104C00004AC0EF10B1771305F4FF938541E9EF1027
:104C1000F1761305F4FF938541E7EF103176130524
:104C2000F4FF938541E697E4FE1F938464CAEF1076
:104C3000F17497E6FE1F9386A6EB4146930520028A
:104C40002685EF10D168CC4C2A890945EFF02FE575
:104C50001387C18303570700138441EA9387818335
:104C60002316E40003D7A41083D7070003D5A418A4
:104C70002314E40003D7A4112312F40083D7A40C57
:104C80002315E400138701838345070003461700BB
:104C900003D7A4142310F40083D7A40D2318E40031
:104CA00003D7A4152311F40085472319E4001387C3
:104CB000418383460700034717002303F4002307BB
:104CC000F400230BF400230ED400230FF400230A76
:104CD000B400A30AC400A30EE400231CA400230212
:104CE000B402231D0400A302C402A306E40203D7F6
:104CF000A41E03D6A41B2306D4022314E4021387A4
:104D0000C182035707002310C40203D6A41C231A30
:104D1000E40203D7A4202311C402230BF4022318B6
:104D2000E4022303040223150402230704022319C7
:104D300004029385C1ED0D45EFF06FD6A2852145A4
:104D4000353EB24022444A85924402494101828064
:104D50008D67138527A36301A6049387D7A4014514
:104D6000631EF6008947639CF500854735456397C8
:104D7000F600834707002381F1CC014582808D47EF
:104D80002945E39DF5FE85473545E399F6FE8347C2
:104D900007002380F1CCD5B785473545E390F6FE73
:104DA00083470700A38FF1CAC9BF8D67138527A367
:104DB0006308A6029387D7A46317F6028947639B0B
:104DC000F50083C721CC2300F70085472390F60028
:104DD000014582808D476398F50083C701CCE5B714
:104DE00083C7F1CBCDB723900600DDB701458280A4
:104DF00025E303A84500AE88834718000348080050
:104E0000A207B3E707010D68930EF8A4639AD703CE
:104E100091473548639FF60203A5C8004111B2854A
:104E2000114606C697C0FE1FE780A005938701CDF7
:104E30009C4305458297B2400148428541018280EA
:104E40009308289029486396170185476F00210A27
:104E50002D484285828041654111938541EE7D1543
:104E600006C6EF10B151B24097E6FE1F938606CFFB
:104E70004146994517E5FE1F130545C841016F10CE
:104E8000114523A8A1CC82800111938541EE22CC4B
:104E900006CE2A84EF006100058929C101478146B9
:104EA0000546ED452285EFF0B0392AC605C997E7DA
:104EB000FE1F9387A7C483D7A70501462C002314A0
:104EC000F10085472315F100230005002285EF003E
:104ED000B15909C5ED452800EFF0504EF24062444B
:104EE0000561828041677917630CE502411122C494
:104EF00006C685472A84639AF50022852244B2407B
:104F0000938541EE41016F10714789476396F50023
:104F10008545EF30117E75D1B24022444101828037
:104F2000828001458280014582804111B286A605BA
:104F30002A862D4506C697C0FE1FE780E0BDB24019
:104F40000145410182809307B00363E2B704411138
:104F500022C41394950026C24AC0B2842A89B2861C
:104F6000A2850146254506C697C0FE1FE780C0BA48
:104F7000A6864A86A285294597C0FE1FE780C0B94C
:104F8000B2402244924402490145410182800145D8
:104F9000828005476305E502814701C989476308A7
:104FA000F5008D47630BF50091473E85828093079E
:104FB00000202390F5008147CDBF98C1EDBF930736
:104FC000C0039CC1CDBF09E9411106C6993FB2405B
:104FD0001375F50F410182800545828009E9411171
:104FE00006C69137B2401375F50F41018280054521
:104FF0008280AE87B28509E5139696003E8535B767
:1050000011458280AE87B28509E5139696003E85EC
:105010001DBF11458280AE8701E5B2853E8595BFF3
:105020001145828001458280834735000347250072
:10503000A207D98F03471500A20703450500D98FA2
:10504000A2075D8D828093D785002300B500A30061
:10505000F50093D70501E1812301F500A301B50017
:1050600082802A960505A30FB5FEE31DC5FE82804A
:10507000184DF915791763F9E5008357A5004855D0
:10508000B387B7023E958280014582809306B500C2
:10509000814713D7170005059E07D98F0347F5FFF2
:1050A000BA9793F7F70FE316D5FE3E8582801C4131
:1050B00095C33E87FD451306A00305078306F7FF4A
:1050C00013F8F60F63F20503E399C6FE93862700F3
:1050D0006304D700FD5711A8038607009306000359
:1050E000FD576314D60018C181473E85828001EDCB
:1050F000814725459CC1828025458147F240624415
:105100009CC1056182801C41011122CC06CE2A84FB
:10511000E5D703C707006DD38356450003D7670063
:10512000E39CE6FC03C517002EC6713D0589B24518
:1051300061F51C40E1B781473387F50083460700DE
:105140003307F50085072300D700E317F6FE8280BA
:1051500083C7B50103C7A501A207D98F0D47631AFD
:10516000E50003C7550183C645012207558F420755
:10517000D98F3E85828093170601C183A183A38DB9
:10518000F500238DC500034705008D476318F70020
:105190004182238AC5002182A38AC50082804111F1
:1051A00022C426C24AC006C61309450310592A84E0
:1051B000034515008546CA85B135854415E5105867
:1051C0005C50584CA3010400B307F640814463FDD2
:1051D000E7008346240089476398F60003451400DE
:1051E00085463A96CA85393DB24022442685024911
:1051F0009244410182801C596381B704411122C449
:1052000026C206C6834735002A84AE8491EF034543
:1052100014008546268693054403E13B814719C166
:105220008547FD5404D821A09D3FAA876DD1B24087
:10523000224492443E854101828081473E8582809E
:10524000411122C406C6FD57A30105001CD92A84BA
:105250005D3761E503473423834724239306B00E6B
:1052600022075D8F834744036388D700E10793F7E4
:10527000F70F854663E5F608AD67938757A5631476
:10528000F702930664089305E40817D60200130694
:1052900026E58506050683C7F6FF0345F6FF898FD9
:1052A0006387B606FDD7834704048346F403A20749
:1052B000D58F9386F7FFFD8EB9E2930600206390A9
:1052C000D7048346140485CE9387F6FFF58F85EBCC
:1052D000834744048546FD1793F7F70F63E1F60211
:1052E0008347640483465404A207D58F89CB834740
:1052F000B4048346A4040145A207D58F99EBAD679A
:10530000938757A509456306F7000D4519A0014588
:10531000D9FBB2402244410182801145DDBF011119
:105320004EC652C406CE22CC26CA4AC856C25AC05D
:10533000054A8949637EBA081C4D2A89894963F95F
:10534000F508834705000947B2842E846384E70A81
:105350000D476387E70C639D470713DA15005C511F
:105360002E9A93559A00BE957935AA8935E1930A0C
:105370004903130B1A000588137AFA1F569A93F7FC
:10538000F40F09CC83470A008566C11613F7F700AE
:1053900093974400F58FD98F93F7F70F2300FA0006
:1053A0008547A301F9008327490293559B004A854D
:1053B000BE959135AA8909ED137BFB1FDA9A05C4C6
:1053C000918093F4F40F23809A008547A301F9009C
:1053D000F24062444E85D2444249B249224A924A3E
:1053E000024B0561828083C70A00A180BD88C19BF2
:1053F000DD8CD1BF5C51A181BE95F53BAA8969F9CD
:105400000604930749031374E41F3E942300940099
:10541000C204C180A180A3009400A30149014DBF33
:105420005C519D81BE95C13BAA895DF10A04930739
:1054300049031374C41F3E942285FD369204B705B8
:1054400000F09180E98DC58D2285F53EF9B785473D
:1054500063F8B70C184D011122CC06CE26CA4AC8F3
:105460004EC62A8463F7E502034705008946AE84E9
:105470006306D7068D466305D708631CF70013D96A
:1054800015005C512E9993559900BE95AD3311C905
:10549000FD57F2406244D2444249B2493E8505611B
:1054A00082805C509309190093D599001379F91FF4
:1054B0002299BE95228503494903353B71F993F939
:1054C000F91F4E94834744038588A207B3E7270159
:1054D00099C091837DBFD207D18365BF5C51A18103
:1054E000BE95113B55F586041304440393F4E41F61
:1054F00026948347140003470400A207D98F51BFA5
:105500005C519D81BE95C53941F513952400130466
:1055100044031375C51F2295013E9317450055BFDF
:1055200085473E858280B707200063EFF500094577
:1055300082800945F2406244D2444249B249224A3B
:10554000924A024B05618280011126CA06CE22CC06
:105550004AC84EC652C456C25AC093F7F501AE842B
:10556000E9FB832985002A8900412328B900639635
:10557000090403470400894763F4E7001C548DEFD6
:105580000357840093D75400E3F5E7FA1C54232C07
:10559000F90003278901232A390141DF93D79400B9
:1055A0001304440393F4F41FBA972694232CF900B0
:1055B000232E89000145BDBFBE89035AA400FD5AB0
:1055C000054B260ACE8563F7440122855534232CEA
:1055D000A900C1B7032509009D3DAA89630A5501A9
:1055E000E379ABF41C4CE376F5F4B3844441D9BFC2
:1055F000054589B7011126CA4EC652C406CE22CC33
:105600004AC856C25AC02A8AAE89044191E903A900
:105610000401630509009C4C636DF902054915A856
:105620002685353585472A8463EEA7000544228503
:10563000F2406244D2444249B249224A924A024B61
:1056400005618280FD576307F50A9C4C4E89E36033
:10565000F5FEDC4899E30144D9BF631A39039C4C39
:10566000130419006363F400094403250A00A285AA
:10567000F93B0547E30CE5FAFD57630DF50615CD3B
:105680009C486376F700984C63F3E7003E894A84B0
:10569000854A7D5B9C4C05046365F400E3FD2AFBB1
:1056A000094403250A00A2855D3309C9E30055F9C1
:1056B00063026505E31024FF79BF71D87D56A2858A
:1056C0002685B1390DE5639F0900984CDC4880C8F8
:1056D00079176373F70283C7440093E717002382A7
:1056E000F400B1B72286CE852685153979DD854748
:1056F000E31EF5F27D5425BFFD17DCC8E9BF01119B
:1057000022CC26CA06CE4AC84EC652C456C28547C7
:10571000AE84004163FAB7061C4C63F7F506AA890C
:10572000B28519EA054AFD5A03A50900A685053385
:105730002A8905E1014529A07D562285CD367DD1F6
:10574000F2406244D2444249B249224A924A056137
:105750008280630B4503630B55030146A6852285B2
:105760007D3E79FD184C5C489306E7FF63FAD7004D
:1057700085075CC88347440093E717002302F400C1
:10578000CA84E363E9FA7DB709455DBF05454DBFAE
:1057900039714AD806DE22DC26DA4ED652D456D2E9
:1057A0005AD023A0050032892EC6EFF05F90AD4796
:1057B000634E050213172500938741CDBA978043A6
:1057C000AA84B14705C4B2451379E90F80C1834764
:1057D000040085CB03451400EFF0EFFE937715002E
:1057E0008DE363050900118911C1A947F250625484
:1057F000D2544259B259225A925A025B3E852161D3
:10580000828013F5F40F23000400A300A400EFF03E
:10581000EFFC137715008D4771FB630409001189B4
:1058200069F581452285EFF0BFA189476314F5042E
:1058300004081309A41F130AA423A6894A85EFF0BC
:10584000AFFE23A0A90041099109E3192AFF13899A
:10585000040185498C400D4591C52285EFF05F9E7E
:1058600063F2A9029104E31799FE11478547631972
:10587000E500ADBF11478547E30AE5F663F4A700ED
:10588000B547ADB7834704040347F403A207D98F94
:10589000C207C18713070020E394E7FE8349B404DD
:1058A0008347A404A209B3E9F9006397090013052B
:1058B0008405EFF06FF7AA8983444404232E340152
:1058C00005479387F4FF2301940093F7F70F032A0A
:1058D0000403E367F7FA0349140493170901C1832A
:1058E0002315F400D1DF9307F9FFB3F72701C9FBB4
:1058F00083476404834A5404A207B3E75701939A89
:10590000070193DA0A41139B0A01135B0B0123146D
:1059100064019377FB00ADF7034584048347740467
:1059200022055D8D09E513054405EFF0EFEF834790
:10593000340403472404A207D98FB9D3B3863403B0
:1059400013574B003E973697E36CE5F2198DB3542D
:105950002503E36725F3370600105516E36296F238
:1059600041665516637996100D4952978904D2976E
:1059700058D404CC232044035CD00D47631EE90CAB
:105980008347F4050347E405A207D98FB3E7FA007C
:10599000C207C187E39607EE13050406EFF0CFE8D0
:1059A00008D48A049384F41FA580E3EB99ECFD5797
:1059B0005CC81CC8930700F82302F4008D476310ED
:1059C000F9088347540603474406A207D98FC20744
:1059D000C18705476395E70693051A002285EFF016
:1059E0009F8131ED8347342303472423230204009E
:1059F000A207D98FC2076D77C187130757A5639098
:105A0000E70413054403EFF02FE2B7576141938792
:105A100027256316F50213058421EFF0EFE0B77731
:105A2000416193872727631CF5001305C421EFF01C
:105A3000AFDF48C813050422EFF00FDF08C883D793
:105A400081CD8507C207C183239CF1CC2313F400C9
:105A500023002401814759BBE3040BE2B6971CD411
:105A600089476314F900860435BF3387E4028588CB
:105A70000583BA9405BF056955193339990005099D
:105A8000EDB5411122C406C626C2834735002A84DB
:105A9000CDE3034704008D476314F7080347440030
:105AA0008547631FF70693044403130600208145CE
:105AB0002685EFF00FDB930750052309F4229307A7
:105AC000A0FAA309F4224C489307200513071004F9
