:020000021000EC
:040000006F20004726
:100004000000000000000000900000207A0300209F
:10001400A9BDF9F5940000200000000000000000D4
:10002400960000209800002000000000000000005E
:100034009A000020000000009C0000200000000046
:100044009E0000207E070020A4070020A4000020BA
:10005400A6000020A8000020F6030020AC00002029
:10006400AE000020B0000020B2000020B400002048
:1000740060070020B8000020BA000020BC00002067
:10008400BE000020C0000020C2000020C4000020E8
:1000940001A001A001A001A001A001A001A001A054
:1000A40001A001A001A001A001A001A001A001A044
:1000B40001A001A001A001A001A001A001A001A034
:1000C40001A001A001A041118146014681451145CD
:1000D40006C6EF002079B727004011472383E78045
:1000E400B7F700E0938707D0984B6D9B98CB984B5C
:1000F4005D9B98CB7300501001000100B240410198
:1001040082804111814681450146114506C6992FD9
:10011400B727004011472383E780B717004003C780
:10012400E70283C5E70483D6870391671377F70F44
:1001340093E5350063E5F600719B13671700B71765
:100144000040130670052380C704930680FA2380B9
:10015400D70401000100238207022380C7042380FF
:10016400D704010001002387E7022387B704238013
:10017400C7042380D7040100010003C7B704136731
:100184000702A385E70437F700E023800704130779
:1001940007D00C4B93E545000CCB0C4BDD990CCBF5
:1001A40073005010010001002380C7042380D7048A
:1001B4000100010003C7B7041377F70DA385E70413
:1001C40023800704B24041018280B71700409306A0
:1001D40070052380D704130780FA2380E704010005
:1001E400010003C6B7041376F60DA385C704238064
:1001F4000704137605024DC203C6A700118A1DE247
:100204002380D7042380E7040100010003C7A7006B
:10021400136747002385E7009307004B01000100A3
:10022400FD17EDFFB7170040930670052380D70430
:10023400130780FA2380E704010001007D892394D9
:10024400A7000100010001000100238007042380AE
:10025400D7042380E70401000100010001003727CF
:10026400004093061005A303D78023800704B71723
:100274000040130770052380E704130780FA2380E6
:10028400E7040100010003C7B70413670708A38547
:10029400E7042380070482801376050441C603C65D
:1002A400A700418A1DE22380D7042380E7040100CC
:1002B400010003C7A700136707012385E70093071D
:1002C400007D01000100FD17EDFFB7170040930604
:1002D40070052380D704130780FA2380E704010004
:1002E40001001376F501136606042394C700010088
:1002F400010001000100238007042380D7041306B2
:1003040060042380E7046318C50001000100372757
:100314000040894689BF0100010037270040930649
:10032400200591B72380D7042380E704010001004E
:1003340003D787001367070C2394E7000DBF41110F
:10034400814601468145114506C6292BB717004051
:10035400130770052380E704130780FA2380E7045A
:100364000100010003C76704136717002383E70430
:1003740023800704B24041018280814601468145C1
:100384001145CD21B7170040930670052380D7048B
:10039400130780FA2380E704010001007D562396A9
:1003A400C7022380D7042380E7040100010003C7A8
:1003B4006704136717002383E7042380070401A05D
:1003C400BD473305F50201007D1575FD828041119D
:1003D40022C426C206C6AA84014463179400B2400C
:1003E400224492444101828005041305803E420464
:1003F400C13F4180DDB77971A307010022D626D41D
:100404004AD24ED052CE378400408347640093F7DB
:10041400F70FA307F1008347F100898B6381072E4F
:10042400834774001307000393F70703638EE706FB
:100434008344740083477400BD8893F7070363897A
:10044400071C13070002639CE704138941036398A4
:1004540004108347490F9D83F1C78347240293C740
:1004640007042301F4028347240293F7C70F93E799
:1004740027002301F4020327490183454900832708
:10048400890163FAE5080D8FBE95232AE900232C20
:10049400B90013050008978001E0E780409CB78706
:1004A400004009472383E7003784004083477400F2
:1004B400E207E18763D90728930720FC2301F402AC
:1004C4009384410383A50408214613858112973040
:1004D40001E0E780400E8387440F63CA07002300CE
:1004E40004028347240293F7C70F2301F4023784DD
:1004F4000040834724021385811293F7370F93E753
:1005040087002301F402978001E0E780A0858947F2
:100514002303F4000DACB305F700232CB90023A486
:10052400010485BF0347590F9547631BF700034731
:1005340034008347090013770708D98FA301F40017
:100544008347240293F7C70F93E727002301F4029C
:100554008347240293F7370F2301F40289B79147A5
:100564006398F4008347240393C707042309F40220
:10057400154433D48402930700033304F40293979D
:1005840024003E94B7870040938727023E94834714
:10059400040093F7C70F93E727002300F400E14713
:1005A400B387F402CA97D84B03C64700944F6379C4
:1005B400E6048C4B118FB296B2958CCBD8CB94CFEA
:1005C40088476376E602973001E0E780C0FEE147A2
:1005D400B387F402CA9703C757008547630BF70034
:1005E4008347040093F7C70F2300F4004DBD3A86F8
:1005F400D9BF8347040093F7C70F93E71700EDB7FC
:10060400B305D7008CCF23AA070013E5040861B50E
:10061400A9E0834724029384410B0349840093C7D0
:1006240007082301F4028C4088444A86973001E08D
:10063400E78060F88C48DC440145CA95B3872741BC
:100644008CC8DCC4978001E0E780E082E31909E408
:1006540001B78347740093F70704E38207E49147E3
:100664006398F4008347240393C707082309F4021B
:10067400E147B387F40213894103378A0040834971
:100684008A004E863E99130409080C4008449730AA
:1006940001E0E78040F21C440C480347C907CE97A9
:1006A4001CC45C44CE950CC8B38737415CC463E377
:1006B400E90099E72685977001E0E780C07BC5B320
:1006C4009547B3D7F402130700038346D9078A0476
:1006D400130A2A02B387E7020547A697D2976389CC
:1006E400E60003C707001377370F2380E70045BBF5
:1006F40003C707001377370F13674700FDB7834716
:10070400F100858B99CFA3010400977001E0E78085
:1007140000628347240293F7370F2301F4028547CD
:10072400C5BB8347F100918B9DC783475400918BD0
:1007340091C7014597D001E0E780605CB78700402E
:1007440011472383E7003254A25412598259724A42
:100754004561730020308347F10093F7F70F4DBBD9
:10076400B7170040130700032388E702854723A037
:10077400F1DE73002030411106C6692DFDBF838769
:10078400818663D9070083A501860545979001E01A
:10079400E780A0A903D741DAB7170040239EE708F2
:1007A4007300203073002030230304801547230393
:1007B400E48001002302A480828083076480E3CE66
:1007C40007FE23030480828083076480E3CE07FE50
:1007D40003454480828083076480E3CE07FE2302BE
:1007E400A4808280411126C44AC24EC006C6137733
:1007F400F50BAD47AA892E8995446306F700194580
:100804006537653F8D444E854537FD59FD14639822
:100814003401B240A24412498249410182801355F5
:1008240009011375F50F453F2209CDB7011126CCF7
:1008340006CEB704080051371545BD3771376937FF
:100844002AC6A53F32459377150089EB1365150039
:100854001375F50FF240E24405618280FD14E9FC52
:100864000145CDBF397126DC4ADA4ED852D656D46A
:100874005AD25ED006DE62CE66CCB7E700E07D5782
:1008840083AA070022C603AA470023A0E71823A2CD
:10089400E718B7170040130770052380E704130710
:1008A40080FA2380E70483C74704930B75FFB6845B
:1008B400E20793FBFB0F8546AA892E8B32893724E6
:1008C4000040E187015763FA76016308D500894641
:1008D400130700026313D5000157D98F93F7F70F5D
:1008E400B71C00402382FC0411472303E480130552
:1008F400F00F5D3D094CD135636D7C11B7050700E0
:10090400DA9537870700795563F2E504B3879500D4
:10091400636EF702370B0800A94733EB650163994F
:10092400F90689E48144513D26850DA0DA850945FF
:10093400553D05090345F9FFFD14050B693D81C4C7
:100944009377FB0FFDF7DD3569FD7D55B717004043
:10095400130770052380E704130780FA2380E70454
:1009640003C74704418B2382E704F250B7E700E052
:1009740023A0571123A24711E25432445259C259B9
:10098400325AA25A125B825B724CE24C2161828021
:10099400A5476395F90685691309F00FB306990015
:1009A400B3742B01B6941349F9FFB3749900856BA2
:1009B40033796901416B9387F9FFB3F7270199E311
:1009C40063FC340193D94900C147E3E637FF99BF7B
:1009D4000569C1697D19D9B71305800D638869015B
:1009E400130500026384790113051008CA85DD3BF1
:1009F400353D21DD4E99B3843441D9B7DA852D458F
:100A0400D533CA94E30099F205097D3BA30FA9FEEF
:100A1400D5BF9387F9FF93F7F70F6361FC0C83C786
:100A24001C0413073008631FF70437070800636BBF
:100A3400EB04B3079B00B706100063F5D704334BF0
:100A4400EB0089476393F9068980D549E38C04EC6C
:100A5400DA850945413B11090327C9FF9147232042
:100A6400E48003076480E34E07FE23033481FD170B
:100A7400EDFBFD14110B81C49377FB0FE9FF7D336C
:100A840071F5E1B5B717004003C75704B70708006D
:100A94001377070219E3B78707007955E378FBEA70
:100AA40033079B00E3FFE7F855B58547E382F9F286
:100AB400DA852D45053B9389F4FFE38504E6293364
:100AC40093F7390091EB83260480032709009307E9
:100AD4004900E39AE6E43E89CE84F1BFB5476396C4
:100AE400F9001305900BC93135BDB1471305B00AA0
:100AF400E38BF9FE99476391F904B7050800B365E0
:100B0400BB002D45C53181448D4BA1497539639690
:100B14007401832704802320F9008504E39834FFBB
:100B24008327048013172B01635507002312F90050
:100B3400D5BB2322F900FDB39D476399F902814592
:100B44001305B0044531BD442320090023220900C4
:100B5400FD599D3993F77400CA9703C70700FD1424
:100B6400398D2380A700E39634FF6DBBA1476392C0
:100B7400F9046D398144630D0B008D479304C00360
:100B84006308FB009304000563048B019304400491
:100B94001375C507E30895D8194539313939054521
:100BA400213126850D3909453D314931E31C05D6EE
:100BB40069BB91476399F90013056006F536F53E64
:100BC400130590090DB7E38F09D4F154A9BB19CDCE
:100BD40091CD09CE81473387F5008346070033075B
:100BE400F50085072300D700E317F6FE828019C9B4
:100BF40091C909CA910583A7C5FF11057D16232E46
:100C0400F5FEC5BF828001C919C62A960505A30F42
:100C1400B5FEE31DA6FE828081473307F500030776
:100C2400070019E33E8582808507C5BF01112E8622
:100C340026CAAA84131506019305F004418122CC27
:100C440006CE32C6EF1040592A8401C53246A68525
:100C5400BD3F2285F2406244D244056182808547CB
:100C640015C18DC105C28147B306F5003387F50070
:100C740083C60600034707006398E6008507E3156B
:100C8400F6FE85473E8582808147EDBF9307F6FFD8
:100C9400BE952A966313C5008280FD1583C715008F
:100CA4000505A30FF5FEFDB7AA87014581CF09CE3F
:100CB4003E96850703C7F7FF6317B700E39BC7FE9C
:100CC40005458280828001458280797197670000A2
:100CD4009387871A22D4804306D626D24AD04ECE92
:100CE40052CC56CA5AC85EC662C45DCC37C9C90163
:100CF400814B176A0000130AAA1C976400009384AE
:100D0400E4171309F937976A0000938AAA11B709FF
:100D1400C0A8370B40578357240095E35C44639D78
:100D24000B00176700002329F714032CC400228545
:100D3400EF10A057628499A823A6FB00FDB7832770
:100D44000A008297838664011C4463DB060633072A
:100D5400F5406367E9089767000023AD070C8355E6
:100D640024000345040097F001E0E78020A25C40E2
:100D74005844A9CF1444B6978386640163C506001A
:100D840063E33701DA971CC4A28B3A8449F497676A
:100D94000000938727099C4B09476378F706F917E6
:100DA400176700002328F708B250225492540259BE
:100DB400F249624AD24A424BB24B224C456182808C
:100DC400E377F5F83387F9402A9761B763970B0007
:100DD4009767000023A2E70A89BF23A6EB00B1B7F7
:100DE400D85009CF63DF06003385A74083A70A01E3
:100DF4006376F5009767000023AEA702A28B4044F8
:100E040071B7E3F3A7FECE97C5B79767000023A396
:100E1400070259BF411122C417640000130484035C
:100E24001C4006C626C24AC091C782979767000035
:100E340023A207025C4091C382971C406391071C64
:100E44009767000083C7971F858B9DC7976700002E
:100E5400A386071E176700000347771E954763FDA7
:100E6400E700EF0010379767000083C7571DF51799
:100E74008A07A2979C438297176900001309C91F28
:100E84008347C900918B99C3EF1060281C4491C318
:100E94008297976400009384E4FD984017660000ED
:100EA400034656F89767000083C7C7F79396170061
:100EB400BA9683D60600D5CA9767000083C787F61B
:100EC40063EFC70A97670000238E07F41C406398FA
:100ED40007129767000083C7B71691CF9767000082
:100EE40083C7F71589EB97670000A38B0714974016
:100EF40003E0E780A01697670000938767FC9C4394
:100F0400638F070EB707C0A8176700002324F7F202
:100F14006D3B97670000938767F6DC53EDC3176753
:100F24000000130727F0184B9767000083C757F694
:100F34006367F70C1767000003477710954763E072
:100F4400E70C8347C900918BDDEB90409766000066
:100F540083C656ED63CBD70A2244B2409244024979
:100F6400410117E301E06700835F850793F7F70FFB
:100F7400976600002388F6EAE3E6C7F235BF8607E2
:100F84003E978355070023100700976700002391BD
:100F940007EE976700009387A7EB9C431765000053
:100FA400034545E813172500BA979C438297976732
:100FB400000083D7E7EB176700000347A7E693C752
:100FC400F7FF7D8D9317170098403E9783570700CE
:100FD4005D8D2310A7009767000083C7A7E491C71E
:100FE400850717670000230FF7E217670000034720
:100FF40067E39767000083C7F7E2E375F7ECB24055
:101004002244924402494101828013971700329787
:10101400035707006DF7850735BFAD6737C7004035
:10102400BD072326F7200F10000097670000938761
:1010340067DFC84F83278726BD66BD0693C7F7FFC2
:1010440099836A052326D7205D8D82804111B717C5
:101054000040985F3AC6945F3247E39CE6FE32450F
:1010640041018280828003278511630007124111A8
:1010740022C406C68347C5008345C5042A8493F762
:10108400C70F2306F500834697000356C700139540
:101094008601618563F1C508635A05060345870027
:1010A40093F6F607A304D700054693E627006314D6
:1010B400C50093E617002306D4005C4389075CC38C
:1010C400A30AB400032504112E864C4309050136F6
:1010D4008327841103465401D44303D7C700B2962F
:1010E400118FD4C32396E7008947A30DF400034767
:1010F40044039767000083C787D96378F70483475D
:10110400C40093E707012306F40081A093E71700C6
:101114002306F40075B79376F60F635D0502034565
:101124008700854513E627006314B50013E617000E
:101134002306C400A30AD400A30407008547A30D13
:10114400F400832784119C43DDF3B240224401451B
:101154004101828093E717002306F400A30AD40018
:10116400A3040700032504114C4309058D34832788
:10117400841103465401D44303D7C700B296118F98
:10118400D4C32396E7008D475DBF054582809767EA
:1011940000009387E7E89C43411122C406C6858B6F
:1011A4002A84C5EF4165130525F597E002E0E78041
:1011B40040FE45C58347A5002315F5008327041287
:1011C400BDE72320A4122322A41285472310F4048C
:1011D400232005008347640154412316F500034787
:1011E400D4002304E5000547A304E50017670000C5
:1011F400130787E4184F1385170215811C437D15C7
:101204001375F50F9CC25C43DCC21C479CC65C474B
:10121400DCC61C4B9CCA5C4BDCCA1C4F9CCE5C4F8E
:10122400DCCE19CD9386060213070702C1BF8327BC
:10123400441288C3835704042322A412850779B770
:101244009767000083D787EC850717670000231F83
:10125400F7EAB2402244410182808347C400230953
:101264000400054593C747002306F400DDB7834710
:10127400850193F7E70FD5EF83479501DDEB03462F
:1012840025018346C50009CA834545031767000045
:101294000347F7BF63E7E50013F7060141CF0147B2
:1012A40009C6C18A0357651C81C68356A51C369797
:1012B40051C31307C71217650000035525B9B33589
:1012C400A70237460F00411113060624814622C4A3
:1012D40026C206C67D543305A70297F003E0E780D3
:1012E40020019767000083C7F7BAB384A700976704
:1012F4000000938727E103A707098327070963F3FE
:1013040087003E84184375FB97670000938747BBAB
:101314009C43829781476364A400B307A440B2400E
:101324002244B3B7970093C7170092443E85410106
:10133400828081473E858280797126D206D622D466
:101344004AD04ECE52CC56CA5AC85EC683473503DD
:1013540003447513AA843E941374F40F9307400254
:1013640063F687001304B4FD1374F40F03AA841303
:1013740083AAC413A38B841222865285D68597F040
:1013840003E0E78020F2058915E503CBD412014977
:101394008149337B6403930B50024A865285D68578
:1013A40097F003E0E78000F0058915C563916903B0
:1013B4001374F90F238B8412B2502254925402599D
:1013C400F249624AD24A424BB24B45618280850956
:1013D400E20993D989410509E31179FDE1BF832726
:1013E40085090356E503797193D60701BD8EC206BC
:1013F400C182358E1357764093575640898B058B9F
:101404005D8F93573640918B5D8F93571640A18B18
:101414005D8F93171600C18B5D8F9317360093F77A
:1014240007025D8F931756009355860093F70704C0
:101434001E065D8F1376F60F518F93D7554013D642
:101444003540118A898BD18F13D67540D18F13D62D
:101454001540218AD18F13961500418AD18F139696
:10146400350013760602D18F1396550013760604C1
:101474009E05D18F93F5F50FCD8FA20745465D8F5D
:101484003307C70222D42A8426D252CC56CA032A4E
:101494008413832AC4135AC806D636974207418355
:1014A40093577740135557400989858BC98F135536
:1014B40037401189C98F135517402189C98F1315D6
:1014C40017004189C98F1315370013750502C98F99
:1014D4001315570093558700137505041E07C98F0C
:1014E4001377F70FD98F13D5354013D7554011898A
:1014F400098B498F13D57540498F13D51540218920
:10150400498F139515004189498F1395350013753B
:101514000502498F13955500137505049E05498FDF
:1015240093F5F50F4D8F2207D98FB387C7024AD0A1
:101534004ECE5EC662C4B697C207C18313D7774046
:1015440013D557400989058B498F13D53740118925
:10155400498F13D517402189498F13951700418965
:10156400498F1395370013750502498F139557005A
:1015740093D58700137505049E07498F93F7F70FDA
:10158400D98F13D5354013D755401189098B498F0D
:1015940013D57540498F13D515402189498F13956B
:1015A40015004189498F1395350013750502498F3C
:1015B40013955500137505049E05498F93F5F50F92
:1015C4004D8F2207D98FB387C70213065002528565
:1015D400D685B697BD8E93940601C18033F6C402B6
:1015E400137BF60F97F003E0E780C0CB05890DED80
:1015F4008347D41201498149B3849702130C5002E2
:10160400C1804A865285D68597F003E0E78080C979
:101614000589937BF90F11C563863403850993F912
:10162400F90F0509E31F89FD230B6413B2502254FB
:1016340092540259F249624AD24A424BB24B224C6A
:10164400456182805E8BCDB7011197670000938757
:1016540067AB22CC03A4470B26CA06CE2AC42EC6E7
:10166400854419E40145F2406244D2440561828014
:101674008347910003471400858B6304F7000044FB
:10168400CDB719469305A10013052400EFF02FDD13
:10169400E31795FE0545C1BF011122CC1764000074
:1016A4001304449B18402AC62EC432C206CE3C4BB7
:1016B40093F7F7F73CCB974003E0E780E0961840B8
:1016C40097660000938646963C4B93E707083CCB0D
:1016D4009C423245A24523A0070003471500034856
:1016E4002500220742084297034805004297034811
:1016F40035006208429798D70347550003486500B0
:101704002207420842970348450042970348750060
:1017140062084297D8D7034795000348A5002207DB
:10172400420842970348850042970348B50062087F
:10173400429798DB0347D5000348E5002207420897
:1017440042970348C5000345F500429762052A976E
:10175400D8DB03C7150003C52500220742052A97D5
:1017640003C505002A9703C5350062052A9798CF5B
:1017740003C7550003C56500220742052A9703C520
:1017840045002A9703C5750062052A97D8CF03C779
:10179400950003C5A500220742052A9703C58500C5
:1017A4002A9703C5B50062052A9798D303C7D500C5
:1017B40003C5E500220742052A9703C5C50083C572
:1017C400F5002A97E2052E97D8D3D843759BD8C342
:1017D400D84313671700D8C398431367170098C3F7
:1017E400124698425C43858BD1E71C4F0145230088
:1017F400F6009C429C4FA183A300F6009C429C4FA0
:10180400C1832301F6009C429C4FE183A301F600AF
:101814009C42D84F2302E600D84F2183A302E6005E
:10182400D84F41832303E600D84F6183A303E60026
:1018340098532304E60098532183A304E6009853A5
:1018440041832305E60098536183A305E600D8533A
:101854002306E600D8532183A306E600D853418328
:101864002307E600DC53E183A307F600F240624459
:10187400056182800100B5B7175700001307077B85
:101884001443411122C49C5E4AC006C6998326C2F1
:10189400858B3A841759000013090979D1CB9C5ED2
:1018A400975400009384447993F7F7F99CDE175713
:1018B40000000347C77893070008631BF7008327DA
:1018C40009009C4393F70704175700002309F77690
:1018D40083C7040093F707049DC3975700009387B9
:1018E400275E9C4382979757000023AFA77483C752
:1018F400040093F7F70B17570000230FF77283C701
:10190400440093F707048DE7854717570000A307A2
:10191400F772975700009387E7739C43096798C74A
:10192400130700FC97560000238AE670D844F8D3C6
:101934001C40985F1183058B09CB985F3D9B98DF12
:10194400054797560000238BE66E985F1D83058B31
:1019540011CB985F1377F7F798DF85471757000087
:10196400230EF76C83270900D8430583058B19C719
:10197400D843759BD8C3D843799BD8C3B24022447B
:101984009244024941018280397106DE16DC1ADA7A
:101994001ED82AD62ED432D236D03ACE3ECC42CA23
:1019A40046C872C676C47AC27EC0F935F250E25295
:1019B4005253C2533255A255125682567247E247C9
:1019C4005248C248324EA24E124F824F21617300D8
:1019D4002030975700009387E76794439757000098
:1019E4009387876503C70700058B11CB97570000C2
:1019F4002386076497570000A3820764828003C785
:101A04001700058B65F7F85271FF83C75700DDB7E0
:101A14001758000013088861032708001C5F95838A
:101A2400858BD1E709C61C5BBD832300F60085CAFC
:101A340083270800985B460793576701635607009E
:101A440093E707C0C207C18303970600C207C18793
:101A540009C7BA970947B3C7E7022390F60085CDB3
:101A6400834715008DCB9756000083C6465D93F6D9
:101A740006041387970089478DCA3A9503470500E2
:101A8400854699471376F7066311D6026207618784
:101A9400B947634C0700832708009C5FED838D8B57
:101AA40017570000A30FF75881473E85828085476A
:101AB400EDBF411122C406C6175400001304845913
:101AC400184049E9AE877453FDFE3E85B2859757A9
:101AD400000023840756973003E0E780E02A9757F5
:101AE40000009387A7549C43B70680009843558F02
:101AF40098C3D857719BD8D797570000A380075431
:101B040097570000A38A07521C40094798C3B7F7A8
:101B140000E003A707D16D9B23A8E7D003A707D153
:101B24005D9B23A8E7D073005010144017570000A2
:101B34001307875083472700858B89EB834737003A
:101B4400858BD9C797570000238A074EB240224499
:101B5400410182808D476310F502975700009387F7
:101B6400E74C9C43B70680009843558F98C3D857D9
:101B7400719BD8D75DBF8547E319F5FAB567BD07F3
:101B84005CC70F1000001C400967094698C713077B
:101B940000F8975600002383E64A175700001307FE
:101BA400E7481443984231830D8B6319C700130728
:101BB400E043F8D33D673D07D8C785BF98423183DA
:101BC4000D8B01E713076019EDB71307E01BD5B7B9
:101BD400FC52ADF3A5BF5D7152DC175A0000130A25
:101BE400EA4403270A0086C6A2C4A6C2CAC04EDEBF
:101BF4001C43975900009389A94A175900001309F7
:101C0400694593F7F7E793E707081CC383A6090020
:101C14003707CEFF7D179C46130680022A84F98F6E
:101C24009CC683270900130700082800B8CBAE849C
:101C340093051008EFE03FFD973003E0E780C03ED6
:101C4400973003E0E780E04B83270A009376F41F84
:101C5400370FFCFF23A40700984B4E88CA881367EC
:101C6400F70398CBF84F130510F8D285137707E0E4
:101C7400558FF8CF9843F576FD16758F98C3984322
:101C8400B7063300B70204001377F7E798C3984305
:101C94009303401F7D1F1377F7E71367071098C35B
:101CA40003A70900930F800285491C47D58F1CC7E1
:101CB400832709001307900D3400B8CB114901475D
:101CC4001353370026938347030013767700B3D763
:101CD400C740858BDDCF9C41832E0800239C0704DD
:101CE4002390070603AECE02137EDEFF23A6CE03A7
:101CF40083AE0700137EF70793FE0EF833EECE0192
:101D040023A0C70103AE4702336E5E0023A2C703BC
:101D140083AE0800014E23A27E0603DA070663079A
:101D24004E0303AE0703038A0600135EFE00620E31
:101D3400135E8E416358CA0103AE0703135EFE00AF
:101D44002380C60103DE0706137EFE0F03AA4E0698
:101D540063060A0003DA8705E37F49FB03AE470203
:101D6400337EEE0123A2C70383870600635CF4007D
:101D7400034E03003396C9001346F6FF3376C601BB
:101D84002300C3003E8663D3A7002A861315860169
:101D9400618505071377F70F8506E313F7F3B6405C
:101DA400264496440649F259625A616182809756E4
:101DB40000009386262A9C42D847131617016355C0
:101DC4000602984713161701635006027D57B8D7C9
:101DD4001757000013070705584F0507175600004B
:101DE4002320E606116798C798470D83058B1DC30A
:101DF400175700000347672413671700175600009E
:101E0400230DE622130700F8175600002308E622E4
:101E1400214798C79847058B09CF175700000347F8
:101E2400B7211367170017560000A307E6200547DC
:101E340098C798470983058B09E798470583058B5D
:101E440031CF9847175600001306061F1755000098
:101E54001305C51D0983058B630307101841184337
:101E640031830D8B75EBAC4B184E93F5050203478C
:101E74001700CDCD79EF13077006D8CF03470600BE
:101E840013671700175600002308E61A114798C76E
:101E940018415C57F19B93E717005CD79C42984725
:101EA4009316370163D606029756000083C6C62CE4
:101EB400C18A175700001307E724C5CE0347470715
:101EC40013670702975600002388E62A056798C718
:101ED40098479316270163D106021757000003475A
:101EE400E7156207618763570700054797560000A7
:101EF4002386E614096798C798479316070163D6A3
:101F040006029756000083C63627858A17570000B5
:101F14001307471FADCE034757071367270097568C
:101F24000000A38BE624216798C7828029D78545C2
:101F34006315B7001307B00689B789456315B70061
:101F44001307F0061DBF8D456315B700130730074F
:101F54002DB71307500715B71307600739BF034799
:101F640036001367170017560000A308E60C09474C
:101F740039BF834647070946BD8A6388C6000347BD
:101F840047078D463D8BE313D7F4114725BF83469E
:101F94005707918AC9DA034757071367870041B780
:101FA400397106DE16DC1ADA1ED82AD62ED432D2BD
:101FB40036D03ACE3ECC42CA46C872C676C47AC23D
:101FC4007EC0F533F250E2525253C2533255A255F9
:101FD400125682567247E2475248C248324EA24EC7
:101FE400124F824F216173002030175700001307EE
:101FF400A7068346B7019757000083C7B7084C4B21
:10200400B697FD8B33D7F50097560000A386F604E8
:1020140097560000A388F606058B15EF17570000A6
:1020240003479706B3F7E702814601471305000209
:1020340033D6E500058A1378F70F19CA6397D700DA
:1020440097570000A38A07018280850693F6F60F4E
:102054000507E31FA7FC828097570000938747E694
:102064009C43011122CC4EC606CE26CA4AC852C48D
:1020740056C282979757000093870700804781498B
:102084006305A406BE8497570000938727DF038760
:1020940067013E8963550706018D13545500975710
:1020A400000083C707FD9379F501636DF402370AD5
:1020B400C0A8B70A4057153F9C449756000083C6F2
:1020C40046FB139756003E9783076901158C63C539
:1020D40007006363470156979757000023A2E7FA66
:1020E400E37BD4FC1604B3693401F24062444E85A8
:1020F400D2444249B249224A924A05618280E37D30
:1021040085F8B707C0A833848740229579B79757D5
:1021140000009387E7DA9C43411122C406C626C215
:10212400829797570000938727F580476309A40691
:10213400BE8497570000938767D48387670163D869
:102144000704018D135455009757000083C767F2A5
:102154006367F404593D98449757000083C767F1B7
:102164009396570036971D8C9756000023AAE6F0E5
:10217400E372F4FE2244B240924417550000034532
:10218400B5ED81454101173303E06700233FE37A4E
:1021940085FAB707C0A833848740229565B7B24053
:1021A400224492444101828097570000938747EF6D
:1021B4009843B75702009387079F8326070913960E
:1021C4005600635806008326070913966600634485
:1021D4000600FD17FDF3828071C5AA870145E9C594
:1021E4008D07C207C183F19BC207C1831307400354
:1021F400636FF70217570000130787F00843175758
:102204000000130767EF14436398A60217570000F2
:102214001307C7C6185B014541CB4111C20706C667
:102224000545DD8D0297B240014541018280175773
:1022340000001307A7ECD9B70357650035E303572C
:102244004500636FF704B306F7402146637CD6026A
:1022540003280500938687001D8FAA9661171756D9
:102264000000035686BC2392E60023A006012393B4
:10227400060014C12312F500130786FF97560000C9
:102284002395E6BA2313B5009755000083D5E5B925
:10229400B387F540175700002319F7B8210582804A
:1022A40008419DB70145828082800DC19757000087
:1022B400938707E503A30700975700009387C7E3B5
:1022C40083A8070081469A8763E31701828003A8E5
:1022D4000700636DF50A636BA80A13878700E36739
:1022E400E5FE03D66700216705076317E60003C709
:1022F40081E805072384E1E897550000938585B2BA
:1023040003D6470003D7650023930700329742079B
:10231400418317550000231AE5B0638A67021755F5
:1023240000001305A5DD08416303F50203D566002B
:1023340019ED83D7460023A0060121073E96210606
:102344002392C600975700002391E7AEB6879843BF
:10235400E30E17F797560000938646DA9442E30794
:10236400D7F683566700BDF283D64700035647006D
:102374001843A106B2962392D70098C383D7650069
:10238400A107175700002312F7AA8280BE86C287CE
:1023940025BF0111975700009387C7D622CC03A409
:1023A400C70B26CA4AC84EC606CEAA8413092500FE
:1023B400854915C083C7140003473400858B630423
:1023C400F700405CFDB71946930544004A85EFE0E9
:1023D4001F89E31835FF2285F2406244D244424902
:1023E400B24905618280411197570000938787D1D4
:1023F40022C403A4C70B26C24AC006C69304250000
:10240400054901E82285B24022449244024941012F
:102414008280A6851305A40297E003E0E780C09DAF
:10242400E30225FF405CF1BF4111975700009387F9
:1024340067CD22C403A4C70B26C24AC006C69304B0
:102444002500054901E82285B2402244924402490C
:1024540041018280A6851305A40197E003E0E7808B
:0C246400A099E30225FF405CF1BF0000DE
:102470009711FF1F938181DC1761FF1F130141B882
:1024800017E5FFFF130545B897E5FE1F938585B750
:102490001706FF1F1306C6FD63FAC5008322050059
:1024A00023A0550011059105E3EAC5FE1735030089
:1024B0001305859E9705FF1F938585FB138641981D
:1024C00063FAC5008322050023A05500110591057C
:1024D000E3EAC5FE138501D19755FF1F938545D4C7
:1024E0006377B500232005001105E36DB5FEFD42BD
:1024F000739002BC8D42739042809302800873A057
:10250000023097E2FE1F9382E2AF93E232007390B3
:10251000523097C200009382021A739012347300F3
:102520002030797106D622D40018232EA4FCB77768
:10253000002003A787D4B7770020938787D483C769
:1025400087003E8693053006130500080297AA8788
:102550002307F4FE8347E4FEC9C78327C4FD37275A
:102560000400034F07139306071383CE1600930648
:10257000071303CE26009306071303C33600930602
:10258000071383C846009306071303C85600930633
:10259000071303C566009306071383C576009306E9
:1025A000071303C686009306071383C69600130716
:1025B00007130347A7002380E701A380D7012381E6
:1025C000C701A381670023821701A3820701238328
:1025D000A700A383B7002384C700A384D700238563
:1025E000E700B777002003A787D4B7770020938749
:1025F00087D483C787003E8681451305E00502978F
:10260000B777002003A787D4B7770020938787D4B4
:1026100083C787003E8685451305B0020297B777CA
:10262000002003A787D4B7770020938787D483C778
:1026300087003E8685451305C0020297B7770020C4
:1026400003A787D4B7770020938787D483C78700F1
:102650003E8681451305D0020297B777002003A775
:1026600087D4B7770020938787D483C787003E86B7
:1026700081451305E0020297B777002003A787D4AE
:10268000B7770020938787D483C787003E86854528
:102690001305F0020297B777002003A787D4B77716
:1026A0000020938787D483C787003E86854513051E
:1026B00000030297B777002003A787D4B7770020DD
:1026C000938787D483C787003E869305F00F130551
:1026D00010030297B777002003A787D4B7770020AD
:1026E000938787D483C787003E86814513052003DF
:1026F0000297B777002003A787D4B7770020938786
:1027000087D483C787003E8681451305300302972F
:10271000B777002003A787D4B7770020938787D4A3
:1027200083C787003E868145130540030297B7772C
:10273000002003A787D4B7770020938787D483C767
:1027400087003E868145130550030297B777002026
:1027500003A787D4B7770020938787D483C78700E0
:102760003E86BD45130560030297B777002003A797
:1027700087D4B7770020938787D483C787003E86A6
:10278000BD45130570030297B777002003A787D4D0
:10279000B7770020938787D483C787003E8681451B
:1027A000130580030297B777002003A787D4B77774
:1027B0000020938787D483C787003E868145130511
:1027C00090030297B777002003A787D4B77700203C
:1027D000938787D483C787003E8685451305A0036A
:1027E0000297B777002003A787D4B7770020938795
:1027F00087D483C787003E8685451305B0030297BB
:10280000B777002003A787D4B7770020938787D4B2
:1028100083C787003E869305F00F1305C003029718
:10282000B777002003A787D4B7770020938787D492
:1028300083C787003E869305F00F1305D0030297E8
:10284000B777002003A787D4B7770020938787D472
:1028500083C787003E8681451305E0030297B7775B
:10286000002003A787D4B7770020938787D483C736
:1028700087003E8681451305F0030297B777002055
:1028800003A787D4B7770020938787D483C78700AF
:102890003E868145130500040297A30704FE31A07C
:1028A0008347F4FE8507A307F4FE0347F4FE8D4734
:1028B000E3F8E7FEA30704FE71A8B777002003A89A
:1028C00087D40347F4FE93878197BA9783C707009D
:1028D000860793F7F70F9387170413F7F70FB77768
:1028E0000020938787D583D7870093F6F70FB777B4
:1028F0000020938787D483C787003E86B6853A85B4
:102900000298B777002003A887D40347F4FE938783
:102910008197BA9783C707009387170293F7F70F3A
:10292000860713F7F70FB7770020938787D583D7EC
:10293000A70093F6F70FB7770020938787D483C754
:1029400087003E86B6853A8502988347F4FE850760
:10295000A307F4FE0347F4FE9947E3F0E7F6B777E1
:10296000002003A787D4B7770020938787D483C735
:1029700087003E868945130590050297B7770020AA
:1029800003A787D4B7770020938787D483C78700AE
:102990003E8685451305A0050297B777002003A75B
:1029A00087D4B7770020938787D483C787003E8674
:1029B00081451305B0050297B777002003A787D498
:1029C000B7770020938787D483C787003E86C145A9
:1029D0001305C0050297B777002003A787D4B77700
:1029E0000020938787D483C787003E8693054002E3
:1029F0001305D0050297B777002003A787D4B777D0
:102A00000020938787D483C787003E86AD45130592
:102A1000B0070297B777002003A787D4B7770020C5
:102A2000938787D483C787003E869305800C130560
:102A3000D0070297B777002003A787D4B777002085
:102A4000938787D483C787003E86930520081305A4
:102A5000E0070297B777002003A787D4B777002055
:102A6000938787D483C787003E869305400B130561
:102A7000F0070297B777002003A787D4B777002025
:102A8000938787D483C787003E869305C00B1305C1
:102A9000E00502970100B2502254456182807971AD
:102AA00022D60018AA87232CB4FC3287231FF4FCFB
:102AB000BA87A30EF4FC231604FEA30704FE89A024
:102AC0008357E4FD0347F4FE832684FD36970347CE
:102AD0000700B3D7E74013F717008347F4FEB31797
:102AE000F7001397070141878317C4FED98FC207E8
:102AF000C1872316F4FE8347F4FE8507A307F4FE7F
:102B00000347F4FE8347D4FDE36CF7FA8357C4FE12
:102B10003E85325445618280797122D60018AA8799
:102B2000231FF4FCBD47A307F4FE0357E4FD8347CE
:102B3000F4FEB357F740858B81C78347F4FE39A075
:102B40008347F4FEFD17A307F4FEC5B73E85325454
:102B500045618280797122D60018AA87231FF4FC70
:102B6000A30704FE0DA00357E4FD8347F4FEB3570B
:102B7000F740858B81C78347F4FE29A88347F4FE7D
:102B80008507A307F4FE0347F4FEB947E3FDE7FC1E
:102B90009307F00F3E85325445618280797122D6C9
:102BA0000018AA872E87231FF4FCBA87231EF4FC83
:102BB000BD47A307F4FE8347F4FE0547B317F700AC
:102BC0001397070141878317E4FDF98FC207C18777
:102BD0002316F4FE8347F4FE0547B317F700139757
:102BE000070141878317C4FDF98FC207C1872315E9
:102BF000F4FE0357C4FE8357A4FE631DF7008357FA
:102C0000C4FE99E78347F4FEFD17A307F4FE65B7FA
:102C1000814729A88357C4FE13F7F70F8357A4FEF3
:102C200093F7F70FB307F74093F7F70F3E8532544A
:102C300045618280797122D60018AA872E87231FCA
:102C4000F4FCBA87231EF4FCA30704FEADA8834757
:102C5000F4FE0547B317F700139707014187831761
:102C6000E4FDF98FC207C1872316F4FE8347F4FE03
:102C70000547B317F7001397070141878317C4FD72
:102C8000F98FC207C1872315F4FE0357C4FE83578B
:102C9000A4FE631DF7008357C4FE99E78347F4FE43
:102CA0008507A307F4FE05A0814725A08357C4FE2E
:102CB00013F7F70F8357A4FE93F7F70FB307F74007
:102CC00093F7F70F39A00347F4FEB947E3F1E7F8AC
:102CD00081473E85325445618280011122CE001029
:102CE000A30704FE85A88347F4FE938617000347D5
:102CF000F4FEB6878607B6978A07B77600209386D4
:102D000086D7BE96B7770020138687D7BA878607FF
:102D1000BA978A07B297D4C38346F4FE8347F4FE7A
:102D200013871700B6878607B6978A07B7760020FD
:102D3000938686D7BE96B7770020138687D7BA8743
:102D40008607BA978A07B29794C78347F4FE850728
:102D5000A307F4FE8347F4FED9D7B7770020938703
:102D600087D737770020130747D898C7B777002051
:102D7000938787D737770020130787D798CBB77704
:102D8000002037770020130787D723A8E7D8010052
:102D9000724405618280411122C60008010032445C
:102DA00041018280011106CE22CC00102326A4FE10
:102DB0002324B4FE2322C4FE4146832584FEB77734
:102DC0000020138587D4EF00C07E6946832544FE2A
:102DD000B7770020138587D5EF00A07DB777002057
:102DE000938787D523980700B7770020938787D5E7
:102DF00023990700B7770020938787D5239A070088
:102E0000B7770020938787D5239B0700B7770020EB
:102E1000938787D5239C0700C9350325C4FEEFF0AF
:102E20004FF0953F0100F24062440561828001113C
:102E300022CE00102326A4FE8327C4FE377700206D
:102E4000834647D72380D700130747D70347170088
:102E5000A380E7000100724405618280011122CE47
:102E600000102326A4FE377700208327C4FE83C6E4
:102E70000700230AD7D6130747D783C71700A30035
:102E8000F7000100724405618280011122CE00101A
:102E90002326A4FEAE873287A305F4FEBA87231447
:102EA000F4FE8347B4FE8A070327C4FEBA9798430B
:102EB0008347B4FE8A078326C4FEB697584398C357
:102EC0008347B4FE8A070327C4FEBA979C4303577F
:102ED00084FE2390E70001007244056182800111A5
:102EE00006CE22CC0010B7770020938787D403A8A2
:102EF0004700B7770020938787D403C787009307DD
:102F0000E4FE89463A86BE85014502988357E4FE71
:102F10003E868145B7770020138507D9BD3701006C
:102F2000F240624405618280797106D622D400188D
:102F3000AA87A30FF4FCB777002083A707D903D78C
:102F400007001D46938581973A85913EAA872317EE
:102F5000F4FEB777002083A707D99C4703D7070063
:102F60001D46938581973A851D3EAA872316F4FE58
:102F7000B7770020938787D4DC4783C707009D8BF2
:102F8000A305F4FE8347F4FD858BFDC78357E4FE5C
:102F9000F5C78357C4FEFDC30357E4FE8357C4FE41
:102FA00063F4E706B777002083A747D9858B99C7D5
:102FB000B7770020094723AAE7D8E1A0B777002018
:102FC00083A747D913872700B777002023AAE7D81C
:102FD000B777002003A747D9A1476314F70AB7774B
:102FE000002023AA07D8B777002003D747D7136755
:102FF0002700239AE7D6B777002003D747D7137760
:10300000F7EF239AE7D6A5AB0357E4FE8357C4FE38
:103010006378F706B777002083A747D9858B99E7B0
:10302000B7770020054723AAE7D8A1A8B7770020E3
:1030300083A747D913872700B777002023AAE7D8AB
:10304000B777002003A747D99D47631BF702B777DF
:10305000002023AA07D8B777002003D747D71367E4
:103060001700239AE7D6B777002003D747D71377FF
:10307000F7F7239AE7D621A3010021A0010011A0B0
:1030800001008347F4FD898B6388074EB7770020E2
:1030900003D747D76D9B239AE7D6B777002003D78E
:1030A00047D75D9B239AE7D6B777002003D747D74A
:1030B0003D9B239AE7D68357E4FE858BB337F00018
:1030C00013F7F70F8357C4FE858BB337F00093F7E0
:1030D000F70FB98F93F7F70FC1C38357E4FE858BC2
:1030E000ADE7B7770020938787D583D7270193E78C
:1030F0001700139707014183B7770020938787D57F
:103100002399E700B7770020938747D783C7170035
:10311000898B93F7F70F95CBB777002003D747D765
:103120001377F7DF239AE7D6B7770020938787D402
:10313000DC4703C70700B7770020938787D4DC47B5
:10314000799B1377F70F2380E700B77700209387E9
:1031500087D5239A0700C5A8B7770020938787D51E
:1031600083D7470193960701C1824167751763733F
:10317000D700F557C207C18385071397070141831D
:10318000B7770020938787D5239AE7008357E4FE1B
:10319000858BA1E3B7770020938787D503D74701B5
:1031A000B7770020938787D583D7C700636DF7086B
:1031B000B7770020938787D583D72701F99B13978B
:1031C00007014183B7770020938787D52399E700CC
:1031D0009DA8B7770020938787D583D72701858B54
:1031E000BDC3B7770020938787D583D72701F99B85
:1031F000139707014183B7770020938787D52399D9
:10320000E700B7770020938787D4DC4703C7070020
:10321000B7770020938787D4DC47136717001377AD
:10322000F70F2380E700B777002003D747D713674E
:103230004700239AE7D6B777002003D747D71377FD
:10324000F7DF239AE7D68357E4FEA18BB337F0006C
:1032500013F7F70F8357C4FEA18BB337F00093F732
:10326000F70FB98F93F7F70FC1C38357E4FEA18B14
:10327000ADE7B7770020938787D583D7270193E7FA
:103280002700139707014183B7770020938787D5DD
:103290002399E700B7770020938747D783C71700A4
:1032A000918B93F7F70F95CBB777002003D747D7CC
:1032B0001377F7BF239AE7D6B7770020938787D491
:1032C000DC4703C70700B7770020938787D4DC4724
:1032D0006D9B1377F70F2380E700B7770020938764
:1032E00087D5239B0700C5A8B7770020938787D58C
:1032F00083D7670193960701C1824167751763738E
:10330000D700F557C207C18385071397070141838B
:10331000B7770020938787D5239BE7008357E4FE88
:10332000A18BA1E3B7770020938787D503D76701E7
:10333000B7770020938787D583D7C700636DF708D9
:10334000B7770020938787D583D72701F59B1397FD
:1033500007014183B7770020938787D52399E7003A
:103360009DA8B7770020938787D583D72701898BBE
:10337000BDC3B7770020938787D583D72701F59BF7
:10338000139707014183B7770020938787D5239947
:10339000E700B7770020938787D4DC4703C707008F
:1033A000B7770020938787D4DC47136747001377EC
:1033B000F70F2380E700B777002003D747D71367BD
:1033C0008700239AE7D6B777002003D747D713772C
:1033D000F7BF239AE7D68357E4FE93F70704B33782
:1033E000F00013F7F70F8357C4FE93F70704B337C2
:1033F000F00093F7F70FB98F93F7F70FD9C38357FF
:10340000E4FE93F70704BDE7B7770020938787D5DD
:1034100083D7270193E74700139707014183B777C5
:103420000020938787D52399E700B77700209387FB
:1034300047D783C71700A18B93F7F70F85CFB777CF
:10344000002083D647D77D771307F77F758F239AA0
:10345000E7D6B7770020938787D4DC4703C70700F8
:10346000B7770020938787D4DC47759B1377F70FD6
:103470002380E700B7770020938787D5239C070038
:10348000FDA8B7770020938787D583D787019396C8
:103490000701C182416775176373D700F557C207EB
:1034A000C1838507139707014183B777002093876E
:1034B00087D5239CE7008357E4FE93F70704A1E335
:1034C000B7770020938787D503D78701B777002088
:1034D000938787D583D7C7006363F70AB777002040
:1034E000938787D583D72701ED9B139707014183E6
:1034F000B7770020938787D52399E70049A0B7774E
:103500000020938787D583D72701918BA5CBB777E9
:103510000020938787D583D72701ED9B1397070159
:103520004183B7770020938787D52399E700B77742
:103530000020938787D4DC4703C70700B7770020B4
:10354000938787D4DC47136727001377F70F23800F
:10355000E700B777002003D747D713670701239AFF
:10356000E7D6B777002083D647D77D771307F77F55
:10357000758F239AE7D621A0010011A00100B7772B
:103580000020938787D4DC4783C7070013F77700B1
:103590008347B4FE630AF700B777002003D747D705
:1035A00013670704239AE7D60100B25022544561FD
:1035B00082802A8309CA83830500230073007D1655
:1035C000050385056DFA828015C22A8385466367E7
:1035D000B500FD561307F6FF3A93BA9583830500AD
:1035E000230073007D163693B6956DFA82802A8388
:1035F00011C62300B3007D16050365FE82800346D5
:10360000050083C60500050585056313D60065FA28
:103610003305D6408280B717004003C777051A05E7
:1036200092054D8D1377E70F13653500A38BE704E3
:103630001375F50FA38CA7048280B717004003C74A
:1036400077051377E70FA38BE704130700F8A38D23
:10365000E7043D47238CE70413075003A38CE704DA
:103660008280B717004003C7E704930670052380E4
:10367000D7040D89930680FA1377C70F498F2380EB
:10368000D704010001002387E70423800704828018
:103690004111B7170040985F3AC6945F3247E39CE8
:1036A000E6FE3245410182805D71CAC04EDE86C6AB
:1036B000A2C4A6C252DC56DA5AD85ED662D466D20A
:1036C0006AD06ECEAA89EF005010B717004093065B
:1036D00070052380D704130780FA2A892380E70422
:1036E0000100010003C6F70213668600A387C70224
:1036F00003C6F7021376760FA387C7022380D70489
:103700002380E7040100010003C6E7021376C60F19
:103710002387C70203C6E702136616002387C70282
:103720002380D7042380E70401000100930480C1B3
:1037300003C73705B3449502116B1377870FA3892D
:10374000E70403C73705930B0BE8130A500213670E
:103750001700A389E704930A60FB37140040930D18
:103760000404130D7005930C80FA617C7D1BB34734
:103770007503916B338A44033EC0A167938707D0DA
:10378000334AFA02B38A5403B30740413EC4BD67CB
:10379000938707A6B3C7FA02814A3EC29307700512
:1037A0002380FD0023809D01010001008347340533
:1037B00093E70702A309F40483570405B3E77701ED
:1037C000C207C1832318F40483570405B3E78701B4
:1037D000C207C1832318F4048347340593F7070213
:1037E0006380072C83473405A18BEDDF2380AD0177
:1037F00023809D01010001008347340593F7F70DF5
:10380000A309F4048347340593E70702A309F404EA
:1038100083570405B3E77701C207C1832318F40473
:1038200083570405B3E78701C207C1832318F40453
:103830008347340593F707026381072883473405DC
:10384000A18BEDFFB135AA873EC69935B247E30D8E
:10385000F5FE83570405B3E77701C207C183231838
:10386000F40483473405A18BEDDF03570405834738
:10387000240533776701B38767033E9782471D8F1F
:103880006355EA00A2476347F7248D476396FA24FD
:10389000B7170040130770052380E704130780FA69
:1038A0002380E7040100010003C7370593F6F90FF1
:1038B000130670051377870FA389E70403C737053D
:1038C000930580FA558FA389E70403C737051D8B3D
:1038D000631E3725130770052380E704130780FA5A
:1038E0002380E7040100010003C737059166130632
:1038F00080FA1377F70DA389E70403C73705136729
:103900000702A389E70403D70705558F2398E70427
:1039100003D70705A166558F2398E7049306700522
:10392000B717004003C7370513770702630C07205A
:10393000B717004003C73705218B6DDF13077005EC
:103940002380E704130780FA2380E70401000100C5
:1039500003C737059166130680FA1377F70DA3891D
:10396000E70403C7370513670702A389E70403D7F2
:103970000705558F2398E70403D70705A166558FE0
:103980002398E70493067005B717004003C737056F
:10399000137707026305071C371700408347370575
:1039A000A18BEDFFF5312A84E531E30F85FE371752
:1039B0000040835707059166D58F2318F704834786
:1039C0003705A18BEDDF930770052300F7049307FC
:1039D00080FA2300F7040100010083473705B30490
:1039E000904093F7F70DA309F70483570705834623
:1039F000270511677D17F98F3387E602B7460F0059
:103A0000938606243349D902BA970567130707FA44
:103A10003317370193060010330727033347D702C4
:103A2000930660550E07998F0547331737010D87A9
:103A3000330797023307D702BD66938606A633473E
:103A4000D7029306800C6359F012B387D702B3C72D
:103A5000E70285070947B3C7E702B7160040130717
:103A600070052380E604130780FA2380E604960796
:103A70000100010003D7C602B6402644BA97C20728
:103A8000C1832396F60296440649F259625AD25AE5
:103A9000425BB25B225C925C025DF24D61618280AE
:103AA0002380AD0123809D0101000100834734057F
:103AB00093E70702A309F40405B32380AD01238033
:103AC0009D01010001008347340593E70702A30924
:103AD000F404B9BBE39E0ADA93861A0093FAF60F50
:103AE000931717006357E0021247B3C7E702850731
:103AF00009472380AD01B3C7E70223809D01010080
:103B000001000357C402BA97C207C1832316F40207
:103B100071B1130760FB3387E4023D65130505A609
:103B20003347A702B3C7E702FD17D9B72380C704FD
:103B30002380B7040100010003C73705558FA3890F
:103B4000E70461B32380D7042380C7040100010088
:103B500003C7370513670702A389E704E1B323808E
:103B6000D7042380C7040100010003C7370513678A
:103B70000702A389E70419BDB387D702B3C7E702D9
:103B8000FD17C9BD914763EAB70897E7020093871D
:103B9000275C8A05BE9598413E97B71700409387EA
:103BA000470B028794431345F5FF37170040E98E12
:103BB00094C39306070B9C42E98F9CC29307070AA4
:103BC0009843798D88C3828090439346F5FF3717D9
:103BD0000040758E90C31306070B1C42C98F1CC290
:103BE0009307070A9843F98E94C38280944337174A
:103BF0000040C98E94C39306070B9C421345F5FF02
:103C000065BF94431347F5FF758F98C3B7170040FE
:103C10009387070A9843498F98C382809843498FB6
:103C2000EDB7914763EAB70897E702009387875398
:103C30008A05BE9598413E97B71700409387470D78
:103C4000028794431345F5FF37170040E98E94C36C
:103C50009306070D9C42E98F9CC29307070C98437B
:103C6000798D88C3828090439346F5FF37170040D3
:103C7000758E90C31306070D1C42C98F1CC2930793
:103C8000070C9843F98E94C3828094433717004001
:103C9000C98E94C39306070D9C421345F5FF65BF7B
:103CA00094431347F5FF758F98C3B7170040938768
:103CB000070C9843498F98C382809843498FEDB78A
:103CC0001317050189474183638BF50463E2B7024B
:103CD0001346F7FF9DE9B717004083D64709F18ED9
:103CE000239AD7089387C70A9443C98E94C321A007
:103CF0008D47638CF502B7170040239EE70883D6F3
:103D00000709558F2398E7088280B717004083D6AC
:103D10004709F18E239AD7089387870AF1B7B71717
:103D2000004083D64709D98E65BFB717004083D6B8
:103D30004709D98EC5B7375700408357078011C54B
:103D400093E717002310F7808280C207C183F99B95
:103D5000C207C183C5BF375700408357078011C5CD
:103D600093E707102310F7808280C207C18393F77F
:103D7000F7EFC207C183FDB737570040835707806D
:103D800011C593E707202310F7808280C207C18303
:103D900093F7F7DFC207C183FDB73757004083575A
:103DA000078011C593E707402310F7808280C20780
:103DB000C18393F7F7BFC207C183FDB7B757004070
:103DC0002398A7808280B757004003D507811375D9
:103DD000F50F82809377E50F99C1936715003757E8
:103DE00000402318F78082803757004083570780B0
:103DF00011C5A166D58F2310F7808280C607C583C1
:103E0000DDBF011126CAB754004052C43E8A83D791
:103E100004804EC6BA892167D98F06CE22CC4AC803
:103E200056C25AC02390F4802A8901452E84328BD1
:103E3000B68A5D3F592A37480F00130808243358C3
:103E4000050383D74480C207C18393F707FCC207E9
:103E5000C1832392F48083D74480B3E70701C2076C
:103E6000C1832392F48083D70480C207C183F99B66
:103E7000C207C1832390F480E1679387076A63E4F4
:103E8000870A06043354850285671387C7FF1146E6
:103E900042044180618F01C7FD173376F4000508A5
:103EA0009307F00363F407011308F0034208B757C0
:103EB00000401358080123900783B7550040239E04
:103EC000C58083D70580F240624493E717002390B2
:103ED000F58083D70580D244024BC207C18393F794
:103EE00057BFC207C1832390F58003D50580336592
:103EF000550133652501420541812390A58083D773
:103F000085802394058083D685804249924AB3E711
:103F1000460133E73701420741832394E580B249E4
:103F2000224A05618280631A0B028D45B305B402F3
:103F3000B355B502D205D1812E8691E105464206E0
:103F40004182A1675D8E9307C0123308F802930780
:103F5000803E3358F802050891BFE5473304F40268
:103F6000916733568502520651825D8ED9BFB7578D
:103F7000004003D7478183D78781C207D98FE98F54
:103F8000A207A1833385A740133515008280411114
:103F900002C4B757004002C6938707803EC69357B6
:103FA000C5013EC4224722059357850019CB3247ED
:103FB00051073AC63247084341017D8D3335A00091
:103FC00082803247C1836107EDB7B717004003D73E
:103FD00087009317070113770704C18309EBFD8B53
:103FE0003755E801130505803345F502828013F744
:103FF000070C930600046316D700FD8B37459C1C05
:10400000D5B72165130505D0828037E700E01C4352
:104010005443A183E206D58F1CC1FD572320F71816
:104020002322F718828013178500B7E700E023A04A
:10403000E710618123A2A7108280B7F700E08847CC
:10404000CC47828012059A054D8D1365C500137506
:10405000F50FB72700402380A7408280B727004094
:1040600001E5A38007408280239CB740239EC74080
:10407000154791E20547A380E7408280011106CEF3
:1040800022CC83A7C1D191C3829703A401D8131571
:10409000040183A781D1418181C72AC68297324515
:1040A00097F7FE1F83D7C7996374F50403D7618020
:1040B0006373A70483A641D189C66244F2400561B7
:1040C00082861315040185074181998F198D6547F3
:1040D0003305E502C207C18389831387F7FF3A9549
:1040E0003345F5021375F50FF24062440561828095
:1040F00013054006D5BF0145C5BF2D453DEBDC414D
:10410000411122C426C206C603C7070083C7170091
:10411000B6843284A207D98F0D67930697A1639A5C
:10412000D702A93F97F7FE1F9387679103C7070040
:104130006374E5002380A70083C707000547239029
:10414000E4002300F4000145B240224492444101BE
:104150008280130787902945E398E7FECC4589477D
:104160002390F4000946228597D0FE1FE78060A6C1
:10417000D9BF8280DC41411122C406C626C203C8D1
:10418000070083C717002944A207B3E707010D689A
:1041900013082890639607038547B284EF00F15A0D
:1041A0002A8419ED03A701D201CF83C7140083C667
:1041B0000400A207D58F93B7170013851700029745
:1041C000B2402285224492444101828083474500C7
:1041D000858BADC7011122CC2A8403552500938518
:1041E000C1F006CEEF003151058929C503552400E1
:1041F000014781460546ED45EF00510A2AC61DC913
:1042000097E7FE1F83D7272A2314F100854723153C
:10421000F10097F7FE1F83C787822300F50003553F
:10422000240001462C00EF10F12909C5ED452800B6
:10423000EF00911EF24062440561828082804165F8
:1042400041119385C1F07D1506C6EF20F118B240EB
:1042500097E6FE1F9386C6214146954517E5FE1F4A
:104260001305C52141016F20510C23A0A1D28280EA
:1042700085476318F502834706002388F1D017E7C6
:10428000FE1F0347C77B6370F7024111170500004B
:10429000130505F406C6EF401151B2400145410136
:1042A0008280094582800145828089476305F50245
:1042B00063EBA70011ED97E7FE1F83C747782380C4
:1042C000F500014582808D47630EF5000945828027
:1042D00083C701D1EDB797E7FE1F83D7C71A239095
:1042E000F500C5B797E7FE1F83D747752392F50002
:1042F00097E7FE1F9387871803D7A70283D7A703E3
:104300002390E5002391F50085472383F50055BFF1
:10431000411106C6A53397E7FE1F9387477203C76F
:104320000700637AE5002380A70017050000130546
:1043300025EAEF405147B240014541018280C16703
:10434000F917630CF502411122C406C685472A8479
:10435000639AF50022852244B2409385C1F0410161
:104360006F20910789476396F5008545EF40313E00
:1043700075D1B24022444101828082803285D04191
:10438000411106C683451600034806000D66A205C6
:10439000B3E5050113980501135808419308A6A237
:1043A00063C80803130626A263580603757613062E
:1043B000C65DB295C205C18119466363B60217E8AE
:1043C0000200130868DB8A05C29590414296028676
:1043D000130606A5630DC81023900600A94525A065
:1043E0001D469D456361E6022146198E63F3C700B1
:1043F0003E862390C600938541D2BA9597C0FE1F92
:10440000E780207D8145B2402E85410182802D4686
:104410009D45E36AE6FE3146198E63F3C7003E868A
:104420002390C60097E502009385C5DDF9B73146B4
:104430009D45E36AE6FC3546198E63F3C7003E8668
:104440002390C60097E502009385C5DA7DB7414603
:104450009D45E36AE6FA4546198E63F3C7003E863A
:104460002390C60097E50200938585D779B741462A
:104470009D45E36AE6F84546198E63F3C7003E861C
:104480002390C60097E50200938545D4BDB7414609
:104490009D45E36AE6F64546198E63F3C7003E86FE
:1044A0002390C60097E50200938505D1B9B7414630
:1044B0009D45E36AE6F44546198E63F3C7003E86E0
:1044C0002390C60097E502009385C5CD3DB73546DC
:1044D0009D45E36AE6F23946198E63F3C7003E86CE
:1044E0002390C60097E502009385C5CA39B71946DF
:1044F0009D45E36AE6F03386E54063F3C7003E86F8
:104500002390C60097E5FE1F9385C553FDB597E63A
:10451000FE1F9386A6FB4146CD4517E5FE1F1305FA
:10452000A5FB6F208160828082802A8783C741D368
:1045300003A581D383C6F18299E3014582800356A6
:1045400005006316E60003466500E309D6FEFD1785
:1045500093F7F70F2105CDB70111930500030D4522
:1045600006CEEFD08063930500051145EFD0E062E1
:104570009305C0030545EFD0406285471306F1005F
:10458000854513055030A307F100EF70226DF2400E
:10459000056182808547631AF5001166130686A9B6
:1045A000894503C581D46FB0603089476317F50032
:1045B000894503C581D46FB0805082808547639060
:1045C000F50219EA138781DC2380B1D48347070001
:1045D00093E727002300F700238EC1D2828009478A
:1045E0006391E50221E22380F1D4138781DC8347C4
:1045F000070003D5E1D393E727002300F7006F00FE
:10460000D0048D476390F502411117E502001305B0
:1046100065C006C6EF80403EB2401305007D4101F3
:104620006F80E0578280011122CC06CE83A701D390
:104630002E8499C79C4789C76244F24005618287EE
:104640006C0013057040EF5072433246228581455D
:10465000EF602205F2406244056182804111939728
:10466000050122C406C6C1872E8463DF070003C587
:1046700081D4EFA0704819C1EFA0F0402165218DD1
:10468000B24022444101828093F7150085C317E6AA
:10469000FE1F130626F897E5FE1F9385E5F603C572
:1046A00081D4EF70222A13451400D9BF13F52500D9
:1046B00061D9B9391166130686A9894503C581D424
:1046C000EFB0C01E1345240065BF797122D44AD0D3
:1046D00052CC06D626D24ECE56CA91472A842E896F
:1046E000138A41D46314F50483D7A5001306E100AF
:1046F000854513055030239FF1D223070100238005
:1047000001D4EF70A25583A701D391C7DC4781C7BD
:10471000CA852285829723208A00B250225492545F
:104720000259F249624AD24A4561828003270A004F
:10473000E31BF7FC9384E1D303D5040085450131E5
:1047400003D504008545EF00C07583DA0400C16716
:10475000F917639BFA0285449305E1001305504164
:10476000238001D4A387918223070100EF501231E7
:104770008347E100A1E303C7C1D39147E315F7F8ED
:10478000E13B238E01D241B783A981D383C441D3B6
:10479000F9D003D5290011C99305E100EF00115BA1
:1047A00009C54C455685EF202143FD1493F4F40FC1
:1047B000A109F9BF83A7C1D283C74700898BC5DF91
:1047C0009305000A0D45EFD0403D9305000A1145C1
:1047D000EFD0A03C81450545EFD0203C1306E10019
:1047E00085451305503023079100EF70224761B7CC
:1047F0000111170500001305A5E606CE22CCEFB087
:10480000C053138481D485471306F10085452300E6
:10481000A40013054041A307F100EF6002107D558D
:10482000EFF010707D55EF200138D531093CED23B4
:1048300017050000130545D60D3C170500001305AC
:10484000E5CE0925034504006244F2408545056133
:104850006FA0907323A8B1D223A6A1D2828023ACEB
:10486000B1D2238AA1D28280797106D622D426D2EF
:104870004AD04ECE52CC83A741D411476398E70A61
:1048800083C701D499EB4144B250228522549254FB
:104890000259F249624A45618280B284368903A492
:1048A00081D383C741D303C7F18285C783464400C0
:1048B0006393A60283465400639FB6008346640058
:1048C000639BE6000355240093056100EF00114847
:1048D00001E9554455BFFD1793F7F70F2104F1B7D0
:1048E0009389E1D303D50900014781462686ED452A
:1048F000035A0400EF00811A2AC64D4451D526867A
:10490000CA85231441012315910097C0FE1FE7803B
:10491000402C03D5090001462C00EF10A13A2A844F
:1049200025D5ED452800EF00212FB9BF0947E38CBD
:10493000E7F42C001305504123040100EF5012143A
:10494000834781008DCB930500020D45EFD0E02415
:10495000930500031145EFD0402495450545EFD060
:10496000C023854730008545130550302304F100EE
:10497000EF70C22E09BFCD3639B741114AC0368912
:10498000D44126C206C622C403C41600B28403C69C
:10499000060022040D68518C01CF1308B8A42D45E0
:1049A00063080407B24022449244024941018280D4
:1049B0009306D8A46300D402930628A2630CD40003
:1049C000F5789388E85CA298C20893D808018546D8
:1049D00063EC160303D5A500893E1DC183A701D34F
:1049E0002286224403A8070083455500B2400345B0
:1049F0004500A6874A8792440249854641010288BC
:104A000023100900014579BF1306B8A46319C40235
:104A100003D881831D45E37707F93308E84063D362
:104A200007013E88CC451316080123100901418275
:104A3000BA95268597C0FE1FE780A019E1B79307B6
:104A4000A8A46318F40091472310F9001146CC453F
:104A5000CDB7930788906317F40089472310F900B6
:104A60000946F5B79307E8A4631AF400DC45231060
:104A7000D90083C707002380F40069B71308789032
:104A8000E31204F9D9BF011106CE22CC26CA4AC8C6
:104A90002317D10063130712DC412E89B28403C4AB
:104AA000170083C607008D672204558C9386D7A410
:104AB0006306D400938627A3631CD4020355A90080
:104AC000AD3401E90145F2406244D24442490561F6
:104AD000828083A701D303A80700834555000345BF
:104AE0004500A6871307E100814622860298E1BFB0
:104AF0009386C7A46314D4020357E1008547354564
:104B0000E313F7FC8347060013050008E36DF7FA8B
:104B100003A701D358433E8502976DB7938627902C
:104B20006313D4068356E1008547EF00014241FD3F
:104B300003C6140083C704008356A90022065D8EB5
:104B400003A781D383C741D3B5DF8355270063977C
:104B5000D50283A701D303A8070085470345470073
:104B6000834557008D466313F60089460D66A68778
:104B70001307E100130626900298A9B7FD1793F7D3
:104B8000F70F2107D1B79387E7A4E31DF4F203578A
:104B9000E10085473545E318F7F283470600130522
:104BA0000008E362F7F2D8453335F0000905230029
:104BB000F70003A701D3584385B72D4529B7411105
:104BC00022C441641305F4FF9385C1F406C626C2CE
:104BD0004AC0EF2061001305F4FF9385C1F3EF1085
:104BE000B17F1305F4FF9385C1F2EF10F17E130539
:104BF000F4FF9385C1F1EF10317E97E6FE1F938697
:104C000026A241469305200217E5FE1F130505A2C3
:104C100097E4FE1F938484A1EF103171CC4C2A8954
:104C20000945EFF08FE81384C1F503D7818223167D
:104C3000E40003D7A41083D7C1822312F400231405
:104C4000E40003D7A41183D7A40C03D5A41823151B
:104C5000E40013874182834507000346170003D70A
:104C6000A4142310F40083D7A40D2318E40003D761
:104C7000A4152311F40085472319E400138701824A
:104C800083460700034717002303F4002307F400BB
:104C9000230BF400230ED400230FF400230AB400E6
:104CA000A30AC400A30EE400231CA4002302B40240
:104CB000231D0400A302C402A306E40203D7A41E1A
:104CC00003D6A41B938541F92314E40203D7818101
:104CD0002310C402231AE40203D6A41C03D7A42081
:104CE0000D452311C4022306D4022318E402230B2A
:104CF000F4022303040223150402230704022319E8
:104D00000402EFF08FDAA2852145913EB2402244A1
:104D100092444A850249410182808D67138527A309
:104D20006300A6049387D7A4631DF6008947639C9C
:104D3000F500854735456397F600834707002386CE
:104D4000F1D4014582808D472945E39DF5FE8547D5
:104D50003545E399F6FE83470700A384F1D4D5B720
:104D600085473545E390F6FE834707002385F1D458
:104D7000C9BF8D67138527A36309A6029387D7A4AC
:104D80000145631AF6008947639BF50083C7C1D4C8
:104D90002300F70005452390A600014582808D473A
:104DA000E39BF5FE83C791D4E5B783C7A1D4CDB704
:104DB0000145828039EFDC41AE8803C8070083C714
:104DC0001700A207B3E707010D68930EF8A4639AD2
:104DD000D70391473548639FF60203A5C800328385
:104DE000411111469A8506C697C0FE1FE78060DE16
:104DF000054583A7C1D58297B2400148428541014C
:104E000082809308289029486396170185476F0090
:104E1000C1132D4842858280416541119385C1F9B6
:104E20007D1506C6EF10515BB24097E6FE1F9386D4
:104E3000E6A14146994517E5FE1F1305E5A141018D
:104E40006F10B14E23AEA1D4828001119385C1F9B8
:104E500022CC06CE2A84EF00010A05891DCD014728
:104E600081460546ED452285EFF050432AC615C51B
:104E700097E7FE1F83D7E7A32314F1008547231587
:104E8000F1002300050001462C002285EF0091630C
:104E900009C5ED452800EFF03058F2406244056145
:104EA0008280C167F917630CF502411122C406C65E
:104EB00085472A84639AF50022852244B24093856F
:104EC000C1F941016F10515189476396F50085453D
:104ED000EF40E10775D1B2402244410182808280D7
:104EE00001458280014582804111B286A6052A864D
:104EF0002D4506C697C0FE1FE7800097B2400145CA
:104F0000410182809307B00363EDB702011122CC07
:104F1000B2862A84A60532C62545014606CE2EC491
:104F200097C0FE1FE7804094B246A24522862945DD
:104F300097C0FE1FE7804093F2406244014505613F
:104F40008280014582808947630EF50063E7A700F0
:104F50009307C00311ED014582808D476309F50079
:104F600011458280930700202390F500EDB7854717
:104F70009CC1D5B709E9411106C69D37B2401375EA
:104F8000F50F410182800545828009E9411106C67D
:104F9000913FB2401375F50F410182800545828033
:104FA000AA872E85B28581E71396960035BF1145F5
:104FB0008280AA872E85B28581E71396960099B7DD
:104FC00011458280AA872E85B28591E3ADBF114538
:104FD0008280014582800347150083470500220730
:104FE0005D8F8347250003453500C207D98F6205D1
:104FF0005D8D828093D785002300B500A300F50066
:1050000093D70501E1812301F500A301B50082805A
:105010002A960505A30FB5FEE31DC5FE82801C4D33
:10502000F915F91763FAF5008357A5005855B387AA
:10503000B7023385E700828001458280AA87930604
:10504000B500014503C60700135715001E05498F1B
:10505000850732971375F70FE396D7FE82801C41C0
:10506000AA8685C73E877D459305A00303060700F2
:1050700005071378F60F63710503E319B6FE838500
:105080000700130600036384C5007D5582808907ED
:105090007D55E31DF7FE98C201458280411126C26D
:1050A00006C622C4AE8409E925458147B2402244A0
:1050B0009CC09244410182801C412A84F5D703C7D9
:1050C00007007DD38356450003D76700E39EE6FCC7
:1050D00003C517004535058961F91C40C1BF8347E9
:1050E0003500A9CB011122CC06CE930545031059FA
:1050F0002A840345150085462EC6653D854715E57E
:1051000010585C50584CA3010400B307F64063FDEF
:10511000E700834624008947B2456397F6000345BC
:10512000140085463A9671358147F24062443E85C7
:105130000561828081473E85828081473387F50003
:10514000834607003307F50085072300D700E317E0
:10515000F6FE828093170601C183A183A38DF5001B
:10516000238DC500034705008D476318F700418272
:10517000238AC5002182A38AC50082801C59638AC4
:10518000B702411122C426C206C62A84AE84813FDA
:1051900001ED034514008546268693054403093531
:1051A00019C10545FD5404D8B2402244924441013E
:1051B000828001458280411122C406C6FD57A301A9
:1051C00005001CD92A845D3F7DE9034734238347CA
:1051D00024239306B00E22075D8F83474403638820
:1051E000D700E10793F7F70F854663E3F60CAD6749
:1051F000938757A56302F702834704048346F403A9
:10520000A207D58F9386F7FFFD8E89E693060020CF
:105210006383D7060D45A1A8930664089305E408A7
:1052200017D602001306460883C706000348060087
:1052300085060506B3870741638AD502F5D78347FC
:1052400004048346F403A207D58F9386F7FFFD8EEF
:1052500081EE930600206399D7008346140489C623
:105260009387F6FFF58F99CF094511A0E9FBB2406E
:1052700022444101828083461404C9DE9387F6FFED
:10528000F58FC9FB834744048546FD1793F7F70F55
:1052900063E0F6028347640483465404A207D58F73
:1052A00081CB8347B4048346A404A207D58FE1F3DE
:1052B000AD67938757A50D45E308F7FA4DBF114534
:1052C0007DB7854663F4B612184D011122CC4AC849
:1052D00006CE26CA4EC652C456C22A892E84894793
:1052E00063F9E50803470500B2846305F70A8D47B3
:1052F0006306F70C8947631ED7065C5193D91500E6
:10530000AE9993D59900BE95953DAA873DE1130AC4
:105310004903938A1900058893F9F91FD29993F7E5
:10532000F40F01CC83C70900856613974400C116AA
:10533000BD8B758FD98F93F7F70F2380F9008547C1
:10534000A301F9008327490293D59A004A85BE95A7
:105350003535AA8719ED93FAFA1F569A0DC493D7DB
:10536000440093F7F70F2300FA008547A301F900E3
:105370008147F2406244D2444249B249224A924AA9
:105380003E850561828083470A00A180BD88C19B5C
:10539000C58FD1BF5C51A181BE95CD33AA8771F96C
:1053A0000604930749031374E41FA2972380970010
:1053B000C204C180A180A380970045BF5C519D813C
:1053C000BE956D3BAA8755F50A04930749031374EC
:1053D000C41F3E9422850131B70700F09204B375D3
:1053E000F5009180C58D2285313141B789473E85D1
:1053F0008280797126D206D622D44AD04ECEAA8493
:105400002EC6F13921E9B2452A84268509399389C6
:1054100044032A8988D81306002081454E85CD3E55
:1054200083D7A400636EF40003D5A400018D333547
:10543000A000B250225492540259F2494561828030
:1054400003C51400854633068900CE859D3669FD67
:105450000504F9B70545F1BF411122C406C626C2AD
:105460002A84B53959E9034704008D476310F708CA
:10547000034744008547631BF70693044403130660
:105480000020814526856936930750052309F422BB
:105490009307A0FA4C48A309F422930720051307A9
:1054A000100493062007230AF402A30AF4029307C8
:1054B0001006230BF402A30BE402230CD420A30C4C
:1054C000D420230DE420A30DF4201305C4211D36A0
:1054D0000C4813050422393E10500345140085463C
:1054E000050610D8A685F1342302040003451400F4
:1054F00001468145C13C3335A000B240224492446C
:105500004101828079714AD04ECE06D622D426D26D
:1055100052CC56CA23A00500AE8932898936634F22
:10552000052A13172500938741D6BA978043AA848A
:10553000314505C423A08900834704001379E90F8E
:1055400085CB03451400EFF0FFA2937715008DE3A0
:1055500063040900118919E90145B250225492549B
:105560000259F249624AD24A456182802945F5B71B
:1055700013F5F40F23000400A300A400EFF0FFA034
:1055800013771500AA870D4569FB63040900918B09
:10559000F1FF81452285053189476313F5048A842B
:1055A0001309A41F130AA423A6894A85EFF0BFA2FA
:1055B00023A0A90041099109E31949FF13890401B6
:1055C00085498C400D4589C52285F53663F2A902CF
:1055D0009104E31899FE9147631AF5000545B5BF9C
:1055E0009147E30DF5FE854763F4A7003545B5B750
:1055F000834704040347F403032A0403A207D98F53
:1056000013070020E394E7FE8349B4048347A4040E
:10561000A209B3E9F9006397090013058405EFF0C7
:105620009F9BAA8983444404232E34010547938712
:10563000F4FF2301940093F7F70FE369F7FA834A25
:10564000140423155401E3830AFA9387FAFFB3F78E
:105650005701C9FF0349640483475404220933698D
:10566000F900231424019377F900C9F383478404D4
:1056700003477404A20733E5E70009E51305440571
:10568000EFF07F958347340403472404A207D98FA2
:10569000B1DF33863403135749003E97B306C70082
:1056A000E366D5F43307D540B3555703E36057F5A8
:1056B000370700105517E36BB7F23307DA00C166FE
:1056C000D51693842500D29763ECB6028566D5166D
:1056D00004CC232044035CD058D463EDB600E30728
:1056E00009F00D47B29705493387E40285880583A1
:1056F000BA942DA8E30C09EEB297860409493DA09F
:105700005CD08347F40558D40347E405A20704CCD2
:10571000D98F232044033369F900E31909EC1305F9
:105720000406EFF05F8BAA878A040D499384F41F67
:105730001CD4A580E3EC99EAFD575CC81CC893070C
:1057400000F82302F4008D47631CF90683475406D2
:1057500003474406A207D98F05476393E7069305DD
:105760001A002285EFF09FA121ED834734230347E0
:10577000242323020400A207D98F2D67130757A5FE
:105780006390E70413054403EFF0FF84B7576141CA
:10579000938727256316F50213058421EFF0BF8355
:1057A000B777416193872727631CF5001305C42150
:1057B000EFF07F8248C813050422EFF0DF8108C8AC
:1057C000138701D683570700230024018507C207EA
:1057D000C1832310F7002313F400BDBB2D45B5BBD7
:1057E00083C7B50183C6A5012A87A20733E5D70081
:1057F0008D47631AF70083C7550103C74501A20708
:10580000D98FC2075D8D8280854763FAB70C184D2A
:10581000011122CC26CA06CE4AC84EC6AA842E84BE
:1058200063F7E5020347050089466308D7068D46FE
:105830006306D708631DF70013D915005C512E9934
:1058400093559900BE95EFF07F9311C9FD57F24033
:105850006244D2444249B2493E8505618280DC50AF
:105860009309190093D599001379F91F2699BE95CC
:10587000268503494903EFF07F9069F993F9F91FF1
:10588000A69983C749030588A207B3E7270119C072
:10589000918375BFD207D1835DBF5C51A181BE9555
:1058A000EFF0DF8D45F506041374E41F269483475B
:1058B000540303474403A207D98F51BF5C519D8114
:1058C000BE95EFF0BF8B59F10A041385440313749E
:1058D000C41F2295EFF02FF09317450055BF854761
:1058E0003E858280797122D426D206D64AD04ECE09
:1058F00052CC854704412E8463FBB7069C4C63F869
:10590000F5062A89B28509EE85497D5A03250900E5
:10591000A28522C6D53DB2452A8405E1014531A0C4
:105920007D562685EFF0FF9965D1B25022549254EE
:105930000259F249624A45618280630A3503630A6B
:10594000450301462685EFF0DF9765F1984CDC486A
:105950009306E7FF63FAD7008507DCC883C74400D6
:1059600093E717002382F400E362E4FA45BF094598
:105970006DBF05455DBF011126CA4EC652C406CE95
:1059800022CC4AC856C25AC004412A8AAE89B1ED17
:1059900003A90401DC4863020902984C637FE90013
:1059A00099EF0144F24022856244D2444249B2490F
:1059B000224A924A024B056182800549FDD34A84FE
:1059C000854A7D5B9C4C05046365F400E30B59FD3F
:1059D000094403250A00A285053D35C1630D550123
:1059E000630D6509E31024FF6DBF2685313D8547B2
:1059F0002A8463E4A700054475B7FD57630FF506D5
:105A00009C4CE361F5FAD84849DF138419006363BD
:105A1000F400094403250A00A285FD338547E30C01
:105A2000F5FC7D57630BE50411C903A9040163F577
:105A300027019C4CE365F9F84E8951B775DC7D561A
:105A4000A2852685EFF0FF8715E5639F0900984C36
:105A5000DC4880C879176374F70283C7440093E772
:105A600017002382F4003DBF2286CE852685EFF005
:105A70005F8571DD8547E310F5F87D5425B7FD1787
:105A8000DCC8E1BF79714AD00329050122D426D2AE
:105A900052CC06D64ECE56CA13090902B7072000CB
:105AA00004412A842E8A6364F900232C05001C4CCF
:105AB0008DC39379F91F639709084C4885071CCC5F
:105AC0009DE103D784009357590063EDE706232C2B
