:020000021000EC
:040000006F20C07C31
:100004000000000000000000900000206A060020AC
:10001400A9BDF9F5900000200000000000000000D8
:10002400900000209000002000000000000000006C
:10003400900000200000000090000020000000005C
:1000440090000020E20A0020000B00209000002015
:1000540090000020900000205A070020900000200B
:1000640090000020900000209000002090000020CC
:10007400C40A00209000002090000020900000207E
:1000840090000020900000209000002090000020AC
:1000940001A04111814601468145114506C6EF0084
:1000A4003032B727004011472383E780B7F700E0D9
:1000B400938707D0984B6D9B98CB984B5D9B98CBBF
:1000C4007300501001000100B240410182804111CF
:1000D400814601468145114506C6EF00702EB727BB
:1000E400004011472383E780B717004003C7E702A6
:1000F40003C6E70483D6870391671377F70F136664
:10010400360063E5F600719B13671700F326008041
:10011400A18A938701D281CAF326008094C39443B1
:10012400DD9A7390068001000100B7160040930524
:1001340070052380B604930580FA2380B604010079
:1001440001002382060223800604F32500809443E1
:10015400A18ACD8E7390068023A001D201000100F4
:10016400F3260080A18A81CAF326008094C39443B5
:10017400DD9A7390068001000100B71600409305D4
:1001840070052380B604930580FA2380B604010029
:1001940001002387E6022387C60423800604F3268E
:1001A40000809843218B558F7310078023A001D2C0
:1001B4000100010073270080218B01CB732700808D
:1001C40098C398435D9B73100780010001003717A3
:1001D4000040930670052300D704930680FA230099
:1001E400D704010001008346B70493E60602A30581
:1001F400D70423000704F32600809843218B558FEE
:100204007310078023A001D20100010037F700E03A
:10021400130707D0144B93E6460014CB144BDD9A16
:1002240014CB730050100100010073270080218B50
:1002340001CB7327008098C398435D9B731007809C
:100244000100010037170040930670052300D7040E
:10025400930680FA2300D704010001008346B70403
:1002640093F6F60DA305D704230007047327008033
:100274009C43A18BD98F7390078023A001D20100E6
:100284000100B2404101828073270080218B938753
:1002940001D201CB7327008098C398435D9B7310F0
:1002A4000780010001003717004093067005230002
:1002B400D704930680FA2300D70401000100834683
:1002C400B70493F6F60DA305D70423000704732699
:1002D40000809443A18AD18E7390068023A001D21A
:1002E4000100010093760502638006180347A70006
:1002F400118B3DE373270080218B01CB7327008092
:1003040098C398435D9B7310078001000100371761
:100314000040930670052300D704930680FA230057
:10032400D704010001008346A70093E64600230595
:10033400D70023000704F32600809843218B558FB0
:100344007310078023A001D2010001001307004BA2
:10035400010001007D176DFF73270080218B01CB05
:100364007327008098C398435D9B73100780010036
:10037400010037170040930670052300D704930645
:1003840080FA2300D704010001007D892314A7000B
:10039400010001000100010023000704F32600808E
:1003A4009843218B558F7310078023A001D201003D
:1003B400010073270080218B01CB7327008098C331
:1003C40098435D9B731007800100010037170040BC
:1003D400930670052300D704930680FA2300D704FC
:1003E4000100010001000100B726004013061005BA
:1003F400A383C68023000704F32600809843218B3F
:10040400558F7310078023A001D2010001007327C8
:100414000080218B01CB7327008098C398435D9B98
:100424007310078001000100371700409306700520
:100434002300D704930680FA2300D70401000100A7
:100444008346B70493E60608A305D70423000704EC
:10045400732700809C43A18BD98F7390078023A0BE
:1004640001D201000100828093760504638706149B
:100474000347A700418B3DE373270080218B01CB09
:100484007327008098C398435D9B73100780010015
:10049400010037170040930670052300D704930624
:1004A40080FA2300D704010001008346A70093E6E5
:1004B40006012305D70023000704F3260080984390
:1004C400218B558F7310078023A001D201000100F6
:1004D4001307007D010001007D176DFF7327008065
:1004E400218B01CB7327008098C398435D9B7310C5
:1004F40007800100010037170040930670052300B0
:10050400D704930680FA2300D704010001009376F0
:10051400F50193E606042314D7000100010001004D
:10052400010023000704F32600809843218B558F94
:100534007310078023A001D2010001001307600497
:10054400631FE50273270080218B01CB7327008092
:1005540098C398435D9B731007800100010037170F
:100564000040930670052300D704930680FA230005
:10057400D70401000100B7260040094695BD732742
:100584000080218B01CB7327008098C398435D9B27
:1005940073100780010001003717004093067005AF
:1005A4002300D704930680FA2300D7040100010036
:1005B400B72600401306200525BD73270080218B34
:1005C40001CB7327008098C398435D9B7310078009
:1005D4000100010037170040930670052300D7047B
:1005E400930680FA2300D704010001008356870094
:1005F40093E6060C2314D700F5BB4111814601464E
:100604008145114506C66D2BF3270080A18B138706
:1006140001D281CBF32700801CC31C43DD9B739064
:10062400078001000100B71700409306700523807E
:10063400D704930680FA2380D7040100010083C6FF
:10064400670493E616002383D70423800704F32664
:1006540000801C43A18BD58F7390078023A001D207
:1006640001000100B240410182808146014681457A
:100674001145B92373270080218B938701D201CBC5
:100684007327008098C398435D9B73100780010013
:10069400010037170040930670052300D704930622
:1006A40080FA2300D70401000100FD562316D70267
:1006B40023000704F32600809843218B558F731081
:1006C400078023A001D20100010073270080218B41
:1006D40001CB7327008098C398435D9B73100780F8
:1006E4000100010037170040930670052300D7046A
:1006F400930680FA2300D7040100010083466704AF
:1007040093E616002303D70423000704732700800D
:100714009C43A18BD98F7390078023A001D2010041
:10072400010001A0BD473305F50201007D1575FDEB
:100734008280411122C426C206C6AA8401446317DA
:100744009400B2402244924441018280050413057E
:10075400803E4204C13F4180DDB77971A3070100A7
:1007640022D626D44AD24ED052CE37840040834774
:10077400640093F7F70FA307F1008347F100898B17
:100784006381072E834774001307000393F707035D
:10079400638EE7068344740083477400BD8893F72F
:1007A40007036389071C13070002639CE70413898A
:1007B4008106639804108347490F9D83F1C78347DB
:1007C400240293C707042301F4028347240293F706
:1007D400C70F93E727002301F40203274901834548
:1007E40049008327890163FAE5080D8FBE95232A02
:1007F400E900232CB90013050008978001E0E78085
:10080400E0E3B787004009472383E70037840040CB
:1008140083477400E207E18763D90728930720FC24
:100824002301F4029384810683A5040821461385D9
:10083400C115973001E0E780C00D8387440F63CA78
:100844000700230004028347240293F7C70F230100
:10085400F40237840040834724021385C11593F7BB
:10086400370F93E787002301F402978001E0E780C4
:1008740040CD89472303F4000DACB305F700232CC6
:10088400B90023AE010685BF0347590F9547631B83
:10089400F700034734008347090013770708D98F0B
:1008A400A301F4008347240293F7C70F93E72700BB
:1008B4002301F4028347240293F7370F2301F40240
:1008C40089B791476398F4008347240393C70704C7
:1008D4002309F402154433D4840293070003330438
:1008E400F402939724003E94B7870040938727022D
:1008F4003E948347040093F7C70F93E72700230030
:10090400F400E147B387F402CA97D84B03C6470003
:10091400944F6379E6048C4B118FB296B2958CCBCD
:10092400D8CB94CF88476376E602973001E0E7801E
:1009340040FEE147B387F402CA9703C757008547CF
:10094400630BF7008347040093F7C70F2300F400F9
:100954004DBD3A86D9BF8347040093F7C70F93E789
:100964001700EDB7B305D7008CCF23AA070013E512
:10097400040861B5A9E0834724029384810E0349E6
:10098400840093C707082301F4028C4088444A86F4
:10099400973001E0E780E0F78C48DC440145CA95D4
:1009A400B38727418CC8DCC4978001E0E78080CA04
:1009B400E31909E401B78347740093F70704E3825A
:1009C40007E491476398F4008347240393C7070817
:1009D4002309F402E147B387F40213898106378AB5
:1009E400004083498A004E863E99130409080C404E
:1009F4000844973001E0E780C0F11C440C480347E9
:100A0400C907CE971CC45C44CE950CC8B387374144
:100A14005CC463E3E90099E72685978001E0E780F9
:100A240060C3C5B39547B3D7F402130700038346E5
:100A3400D9078A04130A2A02B387E7020547A6974F
:100A4400D2976389E60003C707001377370F238023
:100A5400E70045BB03C707001377370F1367470049
:100A6400FDB78347F100858B99CFA30104009780DC
:100A740001E0E780A0A98347240293F7370F2301FD
:100A8400F4028547C5BB8347F100918B9DC783471B
:100A94005400918B91C7014597E001E0E7808022E3
:100AA400B787004011472383E7003254A2541259F8
:100AB4008259724A4561730020308347F10093F7ED
:100AC400F70F4DBBB7170040130700032388E70255
:100AD400854723AEF1DE73002030411106C6492D4F
:100AE400FDBF83C7D186918B81C78547238DF1DCF8
:100AF40003D781DBB7170040239EE708730020303B
:100B0400730020302303048015472303E48001008D
:100B14002302A480828083076480E3CE07FE23033C
:100B24000480828083076480E3CE07FE034544800B
:100B3400828083076480E3CE07FE2302A480828040
:100B4400411126C44AC24EC006C61377F50BAD4701
:100B5400AA892E8995446306F70019456537653FD0
:100B64008D444E854537FD59FD1463983401B240D8
:100B7400A244124982494101828013550901137527
:100B8400F50F453F2209CDB7011126CC06CEB70497
:100B9400080051371545BD37713769372AC6A53F57
:100BA40032459377150089EB136515001375F50F1E
:100BB400F240E24405618280FD14E9FC0145CDBFA9
:100BC400397126DC4ADA4ED852D656D45AD25ED07F
:100BD40006DE62CE66CCB7E700E07D5783AA070045
:100BE40022C603AA470023A0E71823A2E718B717D1
:100BF4000040130770052380E704130780FA23805D
:100C0400E70483C74704930B75FFB684E20793FB9D
:100C1400FB0F8546AA892E8B328937240040E18751
:100C2400015763FA76016308D50089461307000269
:100C34006313D5000157D98F93F7F70FB71C004002
:100C44002382FC0411472303E4801305F00F5D3D68
:100C5400094CD135636D7C11B7050700DA953787E8
:100C64000700795563F2E504B3879500636EF702D4
:100C7400370B0800A94733EB65016399F90689E44A
:100C84008144513D26850DA0DA850945553D050968
:100C94000345F9FFFD14050B693D81C49377FB0FF0
:100CA400FDF7DD3569FD7D55B71700401307700565
:100CB4002380E704130780FA2380E70403C747046B
:100CC400418B2382E704F250B7E700E023A05711D9
:100CD40023A24711E25432445259C259325AA25AF9
:100CE400125B825B724CE24C21618280A547639562
:100CF400F90685691309F00FB3069900B3742B0143
:100D0400B6941349F9FFB3749900856B337969017B
:100D1400416B9387F9FFB3F7270199E363FC34012F
:100D240093D94900C147E3E637FF99BF0569C16913
:100D34007D19D9B71305800D638869011305000275
:100D44006384790113051008CA85DD3B353D21DD37
:100D54004E99B3843441D9B7DA852D45D533CA9435
:100D6400E30099F205097D3BA30FA9FED5BF938744
:100D7400F9FF93F7F70F6361FC0C83C71C04130797
:100D84003008631FF70437070800636BEB04B307ED
:100D94009B00B706100063F5D704334BEB0089477B
:100DA4006393F9068980D549E38C04ECDA85094517
:100DB400413B11090327C9FF91472320E48003071E
:100DC4006480E34E07FE23033481FD17EDFBFD141D
:100DD400110B81C49377FB0FE9FF7D3371F5E1B506
:100DE400B717004003C75704B70708001377070273
:100DF40019E3B78707007955E378FBEA33079B00CB
:100E0400E3FFE7F855B58547E382F9F2DA852D4526
:100E1400053B9389F4FFE38504E6293393F739000E
:100E240091EB832604800327090093074900E39A82
:100E3400E6E43E89CE84F1BFB5476396F900130515
:100E4400900BC93135BDB1471305B00AE38BF9FEE8
:100E540099476391F904B7050800B365BB002D45B4
:100E6400C53181448D4BA14975396396740183273B
:100E740004802320F9008504E39834FF8327048049
:100E840013172B01635507002312F900D5BB232246
:100E9400F900FDB39D476399F90281451305B00438
:100EA4004531BD442320090023220900FD599D3901
:100EB40093F77400CA9703C70700FD14398D238084
:100EC400A700E39634FF6DBBA1476392F9046D3923
:100ED4008144630D0B008D479304C0036308FB003A
:100EE4009304000563048B01930440041375C50740
:100EF400E30895D819453931393905452131268515
:100F04000D3909453D314931E31C05D669BB91478B
:100F14006399F90013056006F536F53E130590094B
:100F24000DB7E38F09D4F154A9BB19CD91CD09CEE6
:100F340081473387F500834607003307F5008507AB
:100F44002300D700E317F6FE828019C991C909CAA4
:100F5400910583A7C5FF11057D16232EF5FEC5BF98
:100F6400828001C919C62A960505A30FB5FEE31DA3
:100F7400A6FE828081473307F5000307070019E3C3
:100F84003E8582808507C5BF01112E8626CAAA84A4
:100F9400131506019305F004418122CC06CE32C616
:100FA400EF1040592A8401C53246A685BD3F2285EB
:100FB400F2406244D24405618280854715C18DC1E7
:100FC40005C28147B306F5003387F50083C60600E2
:100FD400034707006398E6008507E315F6FE854797
:100FE4003E8582808147EDBF9307F6FFBE952A9622
:100FF4006313C5008280FD1583C715000505A30F83
:10100400F5FEFDB7AA87014581CF09CE3E96850737
:1010140003C7F7FF6317B700E39BC7FE054582804C
:101024008280014582807971976700009387071C4D
:1010340022D4804306D626D24AD04ECE52CC56CAAB
:101044005AC85EC662C45DCC37C9C901814B176AF0
:101054000000130A2A1E976400009384641913097C
:10106400F937976A0000938A2A13B709C0A8370B87
:1010740040578357240095E35C44639D0B00176736
:1010840000002325F716032CC4002285EF10A05777
:10109400628499A823A6FB00FDB783270A008297E0
:1010A400838664011C4463DB06063307F5406367EB
:1010B400E9089767000023A9070E83552400034518
:1010C4000400970002E0E780404F5C405844A9CFF9
:1010D4001444B6978386640163C5060063E337014D
:1010E400DA971CC4A28B3A8449F49767000093876B
:1010F400A70A9C4B09476378F706F917176700009E
:101104002324F70AB250225492540259F249624AF3
:10111400D24A424BB24B224C45618280E377F5F8C8
:101124003387F9402A9761B763970B0097670000EC
:1011340023AEE70A89BF23A6EB00B1B7D85009CF85
:1011440063DF06003385A74083A70A016376F500B1
:101154009767000023AAA704A28B404471B7E3F366
:10116400A7FECE97C5B79767000023AF070259BF04
:10117400411122C417640000130404051C4006C670
:1011840026C24AC091C782979767000023AE070220
:101194005C4091C382971C406391071C97670000D1
:1011A40083C71721858B9DC797670000A3820720FB
:1011B400176700000347F71F954763FDE700EF003B
:1011C40010379767000083C7D71EF5178A07A297C1
:1011D4009C43829717690000130949218347C9007A
:1011E400918B99C3EF1060281C4491C38297976434
:1011F4000000938464FF9840176600000346D6F904
:101204009767000083C747F993961700BA9683D669
:101214000600D5CA9767000083C707F863EFC70ABB
:1012240097670000238A07F61C40639807129767A4
:10123400000083C7371891CF9767000083C77717DB
:1012440089EB97670000A3870716976003E0E780A0
:10125400C0C3976700009387E7FD9C43638F070E25
:10126400B707C0A8176700002320F7F46D3B976702
:1012740000009387E7F7DC53EDC3176700001307FB
:10128400A7F1184B9767000083C7D7F76367F70C7C
:10129400176700000347F711954763E0E70C83479E
:1012A400C900918BDDEB90409766000083C6D6EEB3
:1012B40063CBD70A2244B240924402494101170346
:1012C40002E06700A30C850793F7F70F9766000009
:1012D4002384F6ECE3E6C7F235BF86073E978355D1
:1012E40007002310070097670000239D07EE976708
:1012F4000000938727ED9C43176500000345C5E96B
:1013040013172500BA979C4382979767000083D7E9
:1013140067ED17670000034727E893C7F7FF7D8D44
:101324009317170098403E97835707005D8D23104D
:10133400A7009767000083C727E691C7850717674B
:101344000000230BF7E4176700000347E7E49767FF
:10135400000083C777E4E375F7ECB240224492447B
:1013640002494101828013971700329703570700FF
:101374006DF7850735BFAD6737C70040BD07232626
:10138400F7200F100000976700009387E7E0C84F2D
:1013940083278726BD66BD0693C7F7FF99836A0531
:1013A4002326D7205D8D82804111B7170040985FB6
:1013B4003AC6945F3247E39CE6FE3245410182809F
:1013C40082800327851163000712411122C406C6D7
:1013D4008347C5008345C5042A8493F7C70F2306B2
:1013E400F500834697000356C7001395860161856F
:1013F40063F1C508635A05060345870093F6F607AB
:10140400A304D700054693E627006314C50093E6BA
:1014140017002306D4005C4389075CC3A30AB40005
:10142400032504112E864C430905013683278411B4
:1014340003465401D44303D7C700B296118FD4C3D3
:101444002396E7008947A30DF400034744039767F5
:10145400000083C707DB6378F7048347C40093E77E
:1014640007012306F40081A093E717002306F40084
:1014740075B79376F60F635D0502034587008545CE
:1014840013E627006314B50013E617002306C4000F
:10149400A30AD400A30407008547A30DF4008327FF
:1014A40084119C43DDF3B240224401454101828012
:1014B40093E717002306F400A30AD400A30407004B
:1014C400032504114C4309058D34832784110346F5
:1014D4005401D44303D7C700B296118FD4C32396C3
:1014E400E7008D475DBF05458280976700009387BD
:1014F40067EA9C43411122C406C6858B2A84C5EF42
:101504004165130525F5970003E0E78060AB45C509
:101514008347A5002315F50083270412BDE7232084
:10152400A4122322A41285472310F40423200500C7
:101534008347640154412316F5000347D400230470
:10154400E5000547A304E50017670000130707E655
:10155400184F1385170215811C437D151375F50F5C
:101564009CC25C43DCC21C479CC65C47DCC61C4B6B
:101574009CCA5C4BDCCA1C4F9CCE5C4FDCCE19CDA4
:101584009386060213070702C1BF8327441288C348
:10159400835704042322A412850779B797670000B0
:1015A40083D747EE850717670000231DF7ECB24089
:1015B4002244410182808347C40023090400054575
:1015C40093C747002306F400DDB78347850193F7EB
:1015D400E70FD5EF83479501DDEB034625018346ED
:1015E400C50009CA8345450317670000034777C14F
:1015F40063E7E50013F7060141CF014709C6C18A35
:101604000357651C81C68356A51C369751C313071F
:10161400C712176500000355A5BAB335A7023746AC
:101624000F00411113060624814622C426C206C6B1
:101634007D543305A702971004E0E78040AE976716
:10164400000083C777BCB384A70097670000938723
:10165400E7E203A707098327070963F387003E84AA
:10166400184375FB976700009387C7BC9C43829718
:1016740081476364A400B307A440B2402244B3B7D3
:10168400970093C7170092443E85410182808147A9
:101694003E858280797126D206D622D44AD04ECE97
:1016A40052CC56CA5AC85EC68347350303447513E1
:1016B400AA843E941374F40F9307400263F68700E0
:1016C4001304B4FD1374F40F03AA841383AAC4137C
:1016D400A38B841222865285D685971004E0E78076
:1016E400409F058915E503CBD41201498149337B19
:1016F4006403930B50024A865285D685971004E002
:10170400E780209D058915C5639169031374F90F5A
:10171400238B8412B250225492540259F249624AE1
:10172400D24A424BB24B456182808509E20993D982
:1017340089410509E31179FDE1BF83278509035632
:10174400E503797193D60701BD8EC206C182358E39
:101754001357764093575640898B058B5D8F93576B
:101764003640918B5D8F93571640A18B5D8F9317F5
:101774001600C18B5D8F9317360093F707025D8FB8
:10178400931756009355860093F707041E065D8F42
:101794001376F60F518F93D7554013D63540118ADF
:1017A400898BD18F13D67540D18F13D61540218ADA
:1017B400D18F13961500418AD18F13963500137675
:1017C4000602D18F13965500137606049E05D18F19
:1017D40093F5F50FCD8FA20745465D8F3307C702FA
:1017E40022D42A8426D252CC56CA032A8413832AAA
:1017F400C4135AC806D63697420741839357774095
:10180400135557400989858BC98F13553740118962
:10181400C98F135517402189C98F131517004189A2
:10182400C98F1315370013750502C98F1315570097
:1018340093558700137505041E07C98F1377F70F97
:10184400D98F13D5354013D755401189098B498F4A
:1018540013D57540498F13D515402189498F1395A8
:1018640015004189498F1395350013750502498F79
:1018740013955500137505049E05498F93F5F50FCF
:101884004D8F2207D98FB387C7024AD04ECE5EC68A
:1018940062C4B697C207C18313D7774013D55740A4
:1018A4000989058B498F13D537401189498F13D581
:1018B40017402189498F139517004189498F139542
:1018C400370013750502498F1395570093D5870088
:1018D400137505049E07498F93F7F70FD98F13D516
:1018E400354013D755401189098B498F13D575405D
:1018F400498F13D515402189498F139515004189C6
:10190400498F1395350013750502498F13955500BA
:10191400137505049E05498F93F5F50F4D8F220726
:10192400D98FB387C702130650025285D685B6975E
:10193400BD8E93940601C18033F6C402137BF60F67
:10194400970004E0E780E07805890DED8347D41221
:1019540001498149B3849702130C5002C1804A861D
:101964005285D685970004E0E780A0760589937BAD
:10197400F90F11C563863403850993F9F90F050935
:10198400E31F89FD230B6413B2502254925402596D
:10199400F249624AD24A424BB24B224C45618280A0
:1019A4005E8BCDB7011197670000938727AD22CCDA
:1019B40003A4470B26CA06CE2AC42EC6854419E4BE
:1019C4000145F2406244D24405618280834791001C
:1019D40003471400858B6304F7000044CDB7194610
:1019E4009305A10013052400EFF02FDDE31795FE06
:1019F4000545C1BF011122CC176400001304C49C27
:101A040018402AC62EC432C206CE3C4B93F7F7F7D1
:101A14003CCB975003E0E7800044184097660000F1
:101A24009386C6973C4B93E707083CCB9C423245D0
:101A3400A24523A0070003471500034825002207F9
:101A4400420842970348050042970348350062085C
:101A5400429798D703475500034865002207420878
:101A6400429703484500429703487500620842972D
:101A7400D8D7034795000348A50022074208429798
:101A84000348850042970348B5006208429798DBF3
:101A94000347D5000348E50022074208429703485C
:101AA400C5000345F500429762052A97D8DB03C7B2
:101AB400150003C52500220742052A9703C5050022
:101AC4002A9703C5350062052A9798CF03C75500A6
:101AD40003C56500220742052A9703C545002A97D6
:101AE40003C5750062052A97D8CF03C7950003C5BF
:101AF400A500220742052A9703C585002A9703C536
:101B0400B50062052A9798D303C7D50003C5E5003D
:101B1400220742052A9703C5C50083C5F5002A9705
:101B2400E2052E97D8D3D843759BD8C3D8431367FF
:101B34001700D8C398431367170098C312469842F6
:101B44005C43858BD1E71C4F01452300F6009C4282
:101B54009C4FA183A300F6009C429C4FC1832301A8
:101B6400F6009C429C4FE183A301F6009C42D84FAF
:101B74002302E600D84F2183A302E600D84F418315
:101B84002303E600D84F6183A303E600985323049C
:101B9400E60098532183A304E60098534183230568
:101BA400E60098536183A305E600D8532306E600B4
:101BB400D8532183A306E600D85341832307E600C4
:101BC400DC53E183A307F600F2406244056182809E
:101BD4000100B5B7175700001307877C1443411160
:101BE40022C49C5E4AC006C6998326C2858B3A8469
:101BF400175900001309897AD1CB9C5E97540000D1
:101C04009384C47A93F7F7F99CDE175700000347CF
:101C1400477A93070008631BF700832709009C4356
:101C240093F70704175700002305F77883C70400C8
:101C340093F707049DC3975700009387A75F9C43BE
:101C440082979757000023ABA77683C7040093F7C6
:101C5400F70B17570000230BF77483C7440093F75F
:101C640007048DE7854717570000A303F7749757B8
:101C74000000938767759C43096798C7130700FCA6
:101C8400975600002386E672D844F8D31C40985F28
:101C94001183058B09CB985F3D9B98DF05479756C9
:101CA40000002387E670985F1D83058B11CB985F36
:101CB4001377F7F798DF854717570000230AF76E65
:101CC40083270900D8430583058B19C7D843759B1F
:101CD400D8C3D843799BD8C3B24022449244024922
:101CE40041018280397106DE16DC1ADA1ED82AD642
:101CF4002ED432D236D03ACE3ECC42CA46C872C670
:101D040076C47AC27EC0F935F250E2525253C253BD
:101D14003255A255125682567247E2475248C2487B
:101D2400324EA24E124F824F2161730020309757DA
:101D34000000938767699443975700009387076768
:101D440003C70700058B11CB975700002382076652
:101D540097570000A38E0764828003C71700058B82
:101D640065F7F85271FF83C75700DDB717580000B5
:101D740013080863032708001C5F9583858BD1E74C
:101D840009C61C5BBD832300F60085CA83270800AF
:101D9400985B4607935767016356070093E707C0AC
:101DA400C207C18303970600C207C18709C7BA9750
:101DB4000947B3C7E7022390F60085CD8347150092
:101DC4008DCB9756000083C6C65E93F60604138730
:101DD400970089478DCA3A95034705008546994778
:101DE4001376F7066311D60262076187B947634C1D
:101DF4000700832708009C5FED838D8B1757000035
:101E0400A30BF75A81473E8582808547EDBF411178
:101E140022C406C6175400001304045B184049E9A1
:101E2400AE877453FDFE3E85B2859757000023802C
:101E34000758975003E0E78000D89757000093872E
:101E440027569C43B70680009843558F98C3D857AC
:101E5400719BD8D797570000A38C0754975700005D
:101E6400A38607541C40094798C3B7F700E003A7AB
:101E740007D16D9B23A8E7D003A707D15D9B23A8B7
:101E8400E7D073005010144017570000130707528F
:101E940083472700858B89EB83473700858BD9C718
:101EA4009757000023860750B240224441018280A4
:101EB4008D476310F502975700009387674E9C4344
:101EC400B70680009843558F98C3D857719BD8D7CD
:101ED4005DBF8547E319F5FAB567BD075CC70F1009
:101EE40000001C400967094698C7130700F8975675
:101EF4000000238FE64A175700001307674A14436C
:101F0400984231830D8B6319C7001307E043F8D35C
:101F14003D673D07D8C785BF984231830D8B01E7E4
:101F240013076019EDB71307E01BD5B7FC52ADF3E7
:101F3400A5BF5D7152DC175A0000130A6A460327D5
:101F44000A0086C6A2C4A6C2CAC04EDE1C43975964
:101F540000009389294C175900001309E94693F7A7
:101F6400F7E793E707081CC383A609003707CEFFEA
:101F74007D179C46130680022A84F98F9CC683270A
:101F84000900130700082800B8CBAE849305100895
:101F9400EFE03FFD975003E0E780E0EB975003E06C
:101FA400E78000F983270A009376F41F370FFCFFBC
:101FB40023A40700984B4E88CA881367F70398CB6D
:101FC400F84F130510F8D285137707E0558FF8CF33
:101FD4009843F576FD16758F98C39843B70633007A
:101FE400B70204001377F7E798C398439303401F9D
:101FF4007D1F1377F7E71367071098C303A709003A
:10200400930F800285491C47D58F1CC7832709007D
:102014001307900D3400B8CB11490147135337000F
:1020240026938347030013767700B3D7C740858B85
:10203400DDCF9C41832E0800239C070423900706D0
:1020440003AECE02137EDEFF23A6CE0383AE0700CB
:10205400137EF70793FE0EF833EECE0123A0C701DB
:1020640003AE4702336E5E0023A2C70383AE0800AB
:10207400014E23A27E0603DA070663074E0303AE6E
:102084000703038A0600135EFE00620E135E8E4190
:102094006358CA0103AE0703135EFE002380C60122
:1020A40003DE0706137EFE0F03AA4E0663060A002C
:1020B40003DA8705E37F49FB03AE4702337EEE0173
:1020C40023A2C70383870600635CF400034E030066
:1020D4003396C9001346F6FF3376C6012300C300C6
:1020E4003E8663D3A7002A861315860161850507FA
:1020F4001377F70F8506E313F7F3B64026449644A7
:102104000649F259625A61618280975600009386AB
:10211400A62B9C42D847131617016355060298470D
:1021240013161701635006027D57B8D717570000DE
:1021340013078706584F050717560000232CE60699
:10214400116798C798470D83058B1DC31757000067
:102154000347E72513671700175600002309E624F1
:10216400130700F8175600002304E624214798C7F4
:102174009847058B09CF1757000003473723136788
:10218400170017560000A303E622054798C798478F
:102194000983058B09E798470583058B31CF984759
:1021A4001756000013068620175500001305451F17
:1021B4000983058B630307101841184331830D8B82
:1021C40075EBAC4B184E93F5050203471700CDCDC4
:1021D40079EF13077006D8CF03470600136717007B
:1021E400175600002304E61C114798C718415C5792
:1021F400F19B93E717005CD79C42984793163701ED
:1022040063D606029756000083C6862EC18A1757E6
:1022140000001307A726C5CE034747071367070225
:10222400975600002386E62C056798C798479316AF
:10223400270163D106021757000003476717620797
:102244006187635707000547975600002382E61607
:10225400096798C798479316070163D606029756ED
:10226400000083C6F628858A175700001307072144
:10227400ADCE034757071367270097560000A3897D
:10228400E626216798C7828029D785456315B7005C
:102294001307B00689B789456315B7001307F0061D
:1022A4001DBF8D456315B700130730072DB71307FE
:1022B400500715B71307600739BF03473600136784
:1022C400170017560000A304E60E094739BF8346DA
:1022D40047070946BD8A6388C600034747078D46FA
:1022E4003D8BE313D7F4114725BF83465707918AE3
:1022F400C9DA034757071367870041B7397106DE08
:1023040016DC1ADA1ED82AD62ED432D236D03ACED9
:102314003ECC42CA46C872C676C47AC27EC0F53381
:10232400F250E2525253C2533255A25512568256BB
:102334007247E2475248C248324EA24E124F824F71
:1023440021617300203017570000130727088346C4
:10235400B7019757000083C7370A4C4BB697FD8BDC
:1023640033D7F50097560000A382F606975600006F
:10237400A384F608058B15EF1757000003471708C9
:10238400B3F7E702814601471305000233D6E5009F
:10239400058A1378F70F19CA6397D7009757000077
:1023A400A38607038280850693F6F60F0507E31FCD
:1023B400A7FC8280975700009387C7E79C430111CD
:1023C40022CC4EC606CE26CA4AC852C456C28297EA
:1023D4009757000093878701804781496305A406C6
:1023E400BE84975700009387A7E0038767013E895F
:1023F40063550706018D135455009757000083C792
:1024040087FE9379F501636DF402370AC0A8B70A11
:102414004057153F9C449756000083C6C6FC13974B
:1024240056003E9783076901158C63C507006363F3
:10243400470156979757000023AEE7FAE37BD4FC95
:102444001604B3693401F24062444E85D2444249D1
:10245400B249224A924A05618280E37D85F8B70732
:10246400C0A833848740229579B797570000938793
:1024740067DC9C43411122C406C626C28297975743
:1024840000009387A7F680476309A406BE84975784
:1024940000009387E7D58387670163D80704018D1C
:1024A400135455009757000083C7E7F36367F40498
:1024B400593D98449757000083C7E7F29396570015
:1024C40036971D8C9756000023A6E6F2E372F4FEBD
:1024D4002244B240924417550000034535EF81452C
:1024E4004101175303E0670043ECE37A85FAB70729
:1024F400C0A833848740229565B7B24022449244F1
:1025040041018280975700009387C7F09843B757DB
:1025140002009387079F8326070913965600635882
:102524000600832607091396660063440600FD1718
:10253400FDF3828071C5AA870145E9C58D07C207ED
:10254400C183F19BC207C18313074003636FF70282
:1025540017570000130707F2084317570000130723
:10256400E7F014436398A60217570000130747C8FF
:10257400185B014541CB4111C20706C60545DD8DF7
:102584000297B240014541018280175700001307AA
:1025940027EED9B70357650035E303574500636F4A
:1025A400F704B306F7402146637CD60203280500EE
:1025B400938687001D8FAA9661171756000003564D
:1025C40006BE2392E60023A006012393060014C14D
:1025D4002312F500130786FF975600002391E6BCEB
:1025E4002313B5009755000083D565BBB387F54029
:1025F400175700002315F7BA2105828008419DB7BB
:102604000145828082800DC197570000938787E639
:1026140003A3070097570000938747E583A80700A3
:1026240081469A8763E31701828003A80700636DDC
:10263400F50A636BA80A13878700E367E5FE03D6F0
:102644006700216705076317E60003C781EA0507EA
:102654002384E1EA97550000938505B403D6470027
:1026640003D7650023930700329742074183175528
:1026740000002316E5B2638A6702175500001305AC
:1026840025DF08416303F50203D5660019ED83D7FE
:10269400460023A0060121073E9621062392C60088
:1026A40097570000239DE7AEB6879843E30E17F7CC
:1026B400975600009386C6DB9442E307D7F6835609
:1026C4006700BDF283D64700035647001843A106AE
:1026D400B2962392D70098C383D76500A1071757F2
:1026E4000000231EF7AA8280BE86C28725BF01117F
:1026F40097570000938787D822CC03A4C70B26CA18
:102704004AC84EC606CEAA8413092500854915C0B9
:1027140083C7140003473400858B6304F700405CCF
:10272400FDB71946930544004A85EFE01F89E31875
:1027340035FF2285F2406244D2444249B2490561E0
:102744008280411197570000938747D322C403A482
:10275400C70B26C24AC006C693042500054901E8F2
:102764002285B24022449244024941018280A685D6
:102774001305A40297F003E0E780E04AE30225FF93
:10278400405CF1BF411197570000938727CF22C4C3
:1027940003A4C70B26C24AC006C6930425000549F4
:1027A40001E82285B24022449244024941018280D8
:1027B400A6851305A40197F003E0E780C046E30271
:0827C40025FF405CF1BF00009D
:1027CC009711FF1F9381C1E01761FF1F13018182D5
:1027DC0017E5FFFF1305858297E5FE1F9385C581DD
:1027EC001706FF1F1306C6FD63FAC50083220500FA
:1027FC0023A0550011059105E3EAC5FE175503000A
:10280C00130585CD9705FF1F938585FB138641998D
:10281C0063FAC5008322050023A05500110591051C
:10282C00E3EAC5FE138501D29755FF1F938505D6A4
:10283C006377B500232005001105E36DB5FEFD425D
:10284C00739002BC8D427390428093028008739007
:10285C00023097D2FE1F9382227A93E23200739059
:10286C00523097D200009382C228739012347300B6
:10287C002030797106D622D40018232EA4FCB77709
:10288C00002003A7C70BB77700209387C70B83C71C
:10289C0087003E8693053006130500080297AA8729
:1028AC002307F4FE8347E4FEC9C78327C4FD3747DB
:1028BC000400034F87E5930687E583CE1600930645
:1028CC0087E503CE2600930687E503C336009306FF
:1028DC0087E583C84600930687E503C85600930630
:1028EC0087E503C56600930687E583C576009306E6
:1028FC0087E503C68600930687E583C69600130713
:10290C0087E50347A7002380E701A380D701238134
:10291C00C701A381670023821701A38207012383C8
:10292C00A700A383B7002384C700A384D700238503
:10293C00E700B777002003A7C70BB7770020938772
:10294C00C70B83C787003E8681451305E0050297B8
:10295C00B777002003A7C70BB77700209387C70B67
:10296C0083C787003E8685451305B0020297B7776B
:10297C00002003A7C70BB77700209387C70B83C72B
:10298C0087003E8685451305C0020297B777002065
:10299C0003A7C70BB77700209387C70B83C78700A4
:1029AC003E8681451305D0020297B777002003A716
:1029BC00C70BB77700209387C70B83C787003E866A
:1029CC0081451305E0020297B777002003A7C70BD8
:1029DC00B77700209387C70B83C787003E86854552
:1029EC001305F0020297B777002003A7C70BB77740
:1029FC0000209387C70B83C787003E868545130548
:102A0C0000030297B777002003A7C70BB777002006
:102A1C009387C70B83C787003E869305F00F13057A
:102A2C0010030297B777002003A7C70BB7770020D6
:102A3C009387C70B83C787003E8681451305200308
:102A4C000297B777002003A7C70BB77700209387AF
:102A5C00C70B83C787003E86814513053003029759
:102A6C00B777002003A7C70BB77700209387C70B56
:102A7C0083C787003E868145130540030297B777CD
:102A8C00002003A7C70BB77700209387C70B83C71A
:102A9C0087003E868145130550030297B7770020C7
:102AAC0003A7C70BB77700209387C70B83C7870093
:102ABC003E86BD45130560030297B777002003A738
:102ACC00C70BB77700209387C70B83C787003E8659
:102ADC00BD45130570030297B777002003A7C70BFA
:102AEC00B77700209387C70B83C787003E86814545
:102AFC00130580030297B777002003A7C70BB7779E
:102B0C0000209387C70B83C787003E86814513053A
:102B1C0090030297B777002003A7C70BB777002065
:102B2C009387C70B83C787003E8685451305A00393
:102B3C000297B777002003A7C70BB77700209387BE
:102B4C00C70B83C787003E8685451305B0030297E4
:102B5C00B777002003A7C70BB77700209387C70B65
:102B6C0083C787003E869305F00F1305C0030297B9
:102B7C00B777002003A7C70BB77700209387C70B45
:102B8C0083C787003E869305F00F1305D003029789
:102B9C00B777002003A7C70BB77700209387C70B25
:102BAC0083C787003E8681451305E0030297B777FC
:102BBC00002003A7C70BB77700209387C70B83C7E9
:102BCC0087003E8681451305F0030297B7770020F6
:102BDC0003A7C70BB77700209387C70B83C7870062
:102BEC003E868145130500040297A30704FE31A01D
:102BFC008347F4FE8507A307F4FE0347F4FE8D47D5
:102C0C00E3F8E7FEA30704FE71A8B777002003A83A
:102C1C00C70B0347F4FE93878198BA9783C70700C5
:102C2C00860793F7F70F9387170413F7F70FB77708
:102C3C0000209387C70C83D7870093F6F70FB777DD
:102C4C0000209387C70B83C787003E86B6853A85DD
:102C5C000298B777002003A8C70B0347F4FE9387AD
:102C6C008198BA9783C707009387170293F7F70FDA
:102C7C00860713F7F70FB77700209387C70C83D716
:102C8C00A70093F6F70FB77700209387C70B83C77E
:102C9C0087003E86B6853A8502988347F4FE850701
:102CAC00A307F4FE0347F4FE9947E3F0E7F6B77782
:102CBC00002003A7C70BB77700209387C70B83C7E8
:102CCC0087003E868945130590050297B77700204B
:102CDC0003A7C70BB77700209387C70B83C7870061
:102CEC003E8685451305A0050297B777002003A7FC
:102CFC00C70BB77700209387C70B83C787003E8627
:102D0C0081451305B0050297B777002003A7C70BC1
:102D1C00B77700209387C70B83C787003E86C145D2
:102D2C001305C0050297B777002003A7C70BB77729
:102D3C0000209387C70B83C787003E86930540020C
:102D4C001305D0050297B777002003A7C70BB777F9
:102D5C0000209387C70B83C787003E86AD451305BC
:102D6C00B0070297B777002003A7C70BB7770020EF
:102D7C009387C70B83C787003E869305800C13058A
:102D8C00D0070297B777002003A7C70BB7770020AF
:102D9C009387C70B83C787003E86930520081305CE
:102DAC00E0070297B777002003A7C70BB77700207F
:102DBC009387C70B83C787003E869305400B13058B
:102DCC00F0070297B777002003A7C70BB77700204F
:102DDC009387C70B83C787003E869305C00B1305EB
:102DEC00E00502970100B25022544561828079714E
:102DFC0022D60018AA87232CB4FC3287231FF4FC9C
:102E0C00BA87A30EF4FC231604FEA30704FE89A0C4
:102E1C008357E4FD0347F4FE832684FD369703476E
:102E2C000700B3D7E74013F717008347F4FEB31737
:102E3C00F7001397070141878317C4FED98FC20788
:102E4C00C1872316F4FE8347F4FE8507A307F4FE1F
:102E5C000347F4FE8347D4FDE36CF7FA8357C4FEB3
:102E6C003E85325445618280797122D60018AA873A
:102E7C00231FF4FCBD47A307F4FE0357E4FD83476F
:102E8C00F4FEB357F740858B81C78347F4FE39A016
:102E9C008347F4FEFD17A307F4FEC5B73E853254F5
:102EAC0045618280797122D60018AA87231FF4FC11
:102EBC00A30704FE0DA00357E4FD8347F4FEB357AC
:102ECC00F740858B81C78347F4FE29A88347F4FE1E
:102EDC008507A307F4FE0347F4FEB947E3FDE7FCBF
:102EEC009307F00F3E85325445618280797122D66A
:102EFC000018AA872E87231FF4FCBA87231EF4FC24
:102F0C00BD47A307F4FE8347F4FE0547B317F7004C
:102F1C001397070141878317E4FDF98FC207C18717
:102F2C002316F4FE8347F4FE0547B317F7001397F7
:102F3C00070141878317C4FDF98FC207C187231589
:102F4C00F4FE0357C4FE8357A4FE631DF70083579A
:102F5C00C4FE99E78347F4FEFD17A307F4FE65B79B
:102F6C00814729A88357C4FE13F7F70F8357A4FE94
:102F7C0093F7F70FB307F74093F7F70F3E853254EB
:102F8C0045618280797122D60018AA872E87231F6B
:102F9C00F4FCBA87231EF4FCA30704FEADA88347F8
:102FAC00F4FE0547B317F700139707014187831702
:102FBC00E4FDF98FC207C1872316F4FE8347F4FEA4
:102FCC000547B317F7001397070141878317C4FD13
:102FDC00F98FC207C1872315F4FE0357C4FE83572C
:102FEC00A4FE631DF7008357C4FE99E78347F4FEE4
:102FFC008507A307F4FE05A0814725A08357C4FECF
:10300C0013F7F70F8357A4FE93F7F70FB307F740A7
:10301C0093F7F70F39A00347F4FEB947E3F1E7F84C
:10302C0081473E85325445618280011122CE0010C9
:10303C00A30704FE85A88347F4FE93861700034775
:10304C00F4FEB6878607B6978A07B7760020938674
:10305C00C60EBE96B77700201386C70EBA878607B2
:10306C00BA978A07B297D4C38346F4FE8347F4FE1B
:10307C0013871700B6878607B6978A07B77600209E
:10308C009386C60EBE96B77700201386C70EBA87F6
:10309C008607BA978A07B29794C78347F4FE8507C9
:1030AC00A307F4FE8347F4FED9D7B77700209387A4
:1030BC00C70E377700201307870F98C7B777002004
:1030CC009387C70E377700201307C70E98CBB777B7
:1030DC000020377700201307C70E23A2E71001004A
:1030EC00724405618280411122C6000801003244FD
:1030FC0041018280011106CE22CC00102326A4FEB1
:10310C002324B4FE2322C4FE4146832584FEB777D4
:10311C0000201385C70BEF00C07E6946832544FE53
:10312C00B77700201385C70CEF00A07DB777002080
:10313C009387C70C23980700B77700209387C70C99
:10314C0023990700B77700209387C70C239A0700B1
:10315C00B77700209387C70C239B0700B777002015
:10316C009387C70C239C0700C9350325C4FEEFF0D9
:10317C004FF0953F0100F2406244056182800111DD
:10318C0022CE00102326A4FE8327C4FE377700200E
:10319C008346870E2380D7001307870E034717003B
:1031AC00A380E7000100724405618280011122CEE8
:1031BC0000102326A4FE377700208327C4FE83C685
:1031CC0007002304D70E1307870E83C71700A3002D
:1031DC00F7000100724405618280011122CE0010BB
:1031EC002326A4FEAE873287A305F4FEBA872314E8
:1031FC00F4FE8347B4FE8A070327C4FEBA979843AC
:10320C008347B4FE8A078326C4FEB697584398C3F7
:10321C008347B4FE8A070327C4FEBA979C4303571F
:10322C0084FE2390E7000100724405618280011145
:10323C0006CE22CC0010B77700209387C70B03A8CB
:10324C004700B77700209387C70B03C78700930706
:10325C00E4FE89463A86BE85014502988357E4FE12
:10326C003E868145B777002013854710BD37010096
:10327C00F240624405618280797106D622D400182E
:10328C00AA87A30FF4FCB777002083A7471003D7B6
:10329C0007001D46938581983A85913EAA8723178E
:1032AC00F4FEB777002083A747109C4703D707008D
:1032BC001D46938581983A851D3EAA872316F4FEF8
:1032CC00B77700209387C70BDC4783C707009D8B1C
:1032DC00A305F4FE8347F4FD858BFDC78357E4FEFD
:1032EC00F5C78357C4FEFDC30357E4FE8357C4FEE2
:1032FC0063F4E706B777002083A78710858B99C7FF
:10330C00B7770020094723A4E710E1A0B777002086
:10331C0083A7871013872700B777002023A4E71013
:10332C00B777002003A78710A1476314F70AB77774
:10333C00002023A40710B777002003D7870E13674C
:10334C0027002394E70EB777002003D7870E137757
:10335C00F7EF2394E70EA5AB0357E4FE8357C4FEA7
:10336C006378F706B777002083A78710858B99E7DA
:10337C00B7770020054723A4E710A1A8B777002052
:10338C0083A7871013872700B777002023A4E710A3
:10339C00B777002003A787109D47631BF702B77709
:1033AC00002023A40710B777002003D7870E1367DC
:1033BC0017002394E70EB777002003D7870E1377F7
:1033CC00F7F72394E70E21A3010021A0010011A01F
:1033DC0001008347F4FD898B6388074EB777002083
:1033EC0003D7870E6D9B2394E70EB777002003D786
:1033FC00870E5D9B2394E70EB777002003D7870ECB
:10340C003D9B2394E70E8357E4FE858BB337F00086
:10341C0013F7F70F8357C4FE858BB337F00093F780
:10342C00F70FB98F93F7F70FC1C38357E4FE858B62
:10343C00ADE7B77700209387C70C83D7270193E7B5
:10344C001700139707014183B77700209387C70CA8
:10345C002399E700B77700209387870E83C717005F
:10346C00898B93F7F70F95CBB777002003D7870E8F
:10347C001377F7DF2394E70EB77700209387C70BFA
:10348C00DC4703C70700B77700209387C70BDC47DF
:10349C00799B1377F70F2380E700B777002093878A
:1034AC00C70C239A0700C5A8B77700209387C70CD1
:1034BC0083D7470193960701C182416775176373E0
:1034CC00D700F557C207C1838507139707014183BE
:1034DC00B77700209387C70C239AE7008357E4FE45
:1034EC00858BA1E3B77700209387C70C03D74701DF
:1034FC00B77700209387C70C83D7C700636DF70895
:10350C00B77700209387C70C83D72701F99B1397B4
:10351C0007014183B77700209387C70C2399E700F5
:10352C009DA8B77700209387C70C83D72701858B7D
:10353C00BDC3B77700209387C70C83D72701F99BAE
:10354C00139707014183B77700209387C70C239902
:10355C00E700B77700209387C70BDC4703C707004A
:10356C00B77700209387C70BDC47136717001377D7
:10357C00F70F2380E700B777002003D7870E136778
:10358C0047002394E70EB777002003D7870E1377F5
:10359C00F7DF2394E70E8357E4FEA18BB337F000DB
:1035AC0013F7F70F8357C4FEA18BB337F00093F7D3
:1035BC00F70FB98F93F7F70FC1C38357E4FEA18BB5
:1035CC00ADE7B77700209387C70C83D7270193E724
:1035DC002700139707014183B77700209387C70C07
:1035EC002399E700B77700209387870E83C71700CE
:1035FC00918B93F7F70F95CBB777002003D7870EF6
:10360C001377F7BF2394E70EB77700209387C70B88
:10361C00DC4703C70700B77700209387C70BDC474D
:10362C006D9B1377F70F2380E700B7770020938704
:10363C00C70C239B0700C5A8B77700209387C70C3E
:10364C0083D7670193960701C1824167751763732E
:10365C00D700F557C207C18385071397070141832C
:10366C00B77700209387C70C239BE7008357E4FEB2
:10367C00A18BA1E3B77700209387C70C03D7670111
:10368C00B77700209387C70C83D7C700636DF70803
:10369C00B77700209387C70C83D72701F59B139727
:1036AC0007014183B77700209387C70C2399E70064
:1036BC009DA8B77700209387C70C83D72701898BE8
:1036CC00BDC3B77700209387C70C83D72701F59B21
:1036DC00139707014183B77700209387C70C239971
:1036EC00E700B77700209387C70BDC4703C70700B9
:1036FC00B77700209387C70BDC4713674700137716
:10370C00F70F2380E700B777002003D7870E1367E6
:10371C0087002394E70EB777002003D7870E137723
:10372C00F7BF2394E70E8357E4FE93F70704B337F0
:10373C00F00013F7F70F8357C4FE93F70704B33762
:10374C00F00093F7F70FB98F93F7F70FD9C383579F
:10375C00E4FE93F70704BDE7B77700209387C70C07
:10376C0083D7270193E74700139707014183B77766
:10377C0000209387C70C2399E700B7770020938725
:10378C00870E83C71700A18B93F7F70F85CFB777F9
:10379C00002083D6870E7D771307F77F758F2394D0
:1037AC00E70EB77700209387C70BDC4703C70700EA
:1037BC00B77700209387C70BDC47759B1377F70F00
:1037CC002380E700B77700209387C70C239C070062
:1037DC00FDA8B77700209387C70C83D787019396F2
:1037EC000701C182416775176373D700F557C2078C
:1037FC00C1838507139707014183B777002093870F
:10380C00C70C239CE7008357E4FE93F70704A1E35E
:10381C00B77700209387C70C03D78701B7770020B1
:10382C009387C70C83D7C7006363F70AB777002069
:10383C009387C70C83D72701ED9B1397070141830F
:10384C00B77700209387C70C2399E70049A0B77777
:10385C0000209387C70C83D72701918BA5CBB77713
:10386C0000209387C70C83D72701ED9B1397070183
:10387C004183B77700209387C70C2399E700B7776C
:10388C0000209387C70BDC4703C70700B7770020DE
:10389C009387C70BDC47136727001377F70F238039
:1038AC00E700B777002003D7870E1367070123942F
:1038BC00E70EB777002083D6870E7D771307F77F47
:1038CC00758F2394E70E21A0010011A00100B7779A
:1038DC0000209387C70BDC4783C7070013F77700DB
:1038EC008347B4FE630AF700B777002003D7870E2F
:1038FC00136707042394E70E0100B250225445616C
:10390C0082802A8309CA83830500230073007D16F5
:10391C00050385056DFA828015C22A838546636787
:10392C00B500FD561307F6FF3A93BA95838305004D
:10393C00230073007D163693B6956DFA82802A8328
:10394C0011C62300B3007D16050365FE8280034675
:10395C00050083C60500050585056313D60065FAC9
:10396C003305D6408280B717004003C777051A0588
:10397C0092054D8D1377E70F13653500A38BE70484
:10398C001375F50FA38CA7048280B717004003C7EB
:10399C0077051377E70FA38BE704130700F8A38DC4
:1039AC00E7043D47238CE70413075003A38CE7047B
:1039BC008280B717004083C7E7040D8993F7C70FC0
:1039CC00C98F73270080218B938601D201CB73277B
:1039DC00008098C298425D9B731007800100010023
:1039EC0037170040130670052300C704130680FA2E
:1039FC002300C704010001002307F7042300070478
:103A0C00732700809C42A18BD98F7390078023A0D1
:103A1C0001D20100010082804111B7170040985F6C
:103A2C003AC6945F3247E39CE6FE32454101828000
:103A3C005971E2C486D6A2D4A6D2CAD0CECED2CCEC
:103A4C00D6CADAC8DEC6E6C2EAC06EDE2A8C02D658
:103A5C00EF007051F3270080A18B938D01D291CB95
:103A6C00F327008023A0FD0083A70D00DD9B73903E
:103A7C00078001000100B717004013077005238071
:103A8C00E704130780FA2380E7040100010003C751
:103A9C00F7021377770FA387E70203C7F7021367C1
:103AAC008700A387E702238007047327008083A77E
:103ABC000D00A18BD98F7390078023A001D2010038
:103ACC000100F3270080A18B91CBF327008023A06A
:103ADC00FD0083A70D00DD9B7390078001000100A2
:103AEC00B7170040130770052380E704130780FA0B
:103AFC002380E7040100010003C7E7021377C70F17
:103B0C002387E70203C7E702136717002387E7023F
:103B1C00238007047327008083A70D00A18BD98F06
:103B2C007390078023A001D201000100130780C10C
:103B3C003347E502116A93070AE8130B5002130688
:103B4C0060FB8544B39484018D848569938909FA5B
:103B5C00B3998901371D0040814A814B13097005C7
:103B6C00130480FA7D1AB347F502330B67033EC684
:103B7C00BD67938707A6334BFB023306C702B30618
:103B8C00604136CAB346F60237460F0013060624C8
:103B9C003345C5021306001036C8B384E40213077C
:103BAC00A0AAB389A902B384E402B3C9C902B3C4FD
:103BBC00F4029396390036CC93090D0473260080D9
:103BCC00218A11CA7326008023A0CD0003A60D0004
:103BDC005D9A731006800100010093077005238025
:103BEC00F900238089000100010003463D0513768E
:103BFC00860FA309CD0403463D0513661600A309E1
:103C0C00CD0423800900F325008003A60D00218A32
:103C1C004D8E7310068023A001D201000100916C1F
:103C2C0073260080218A11CA7326008023A0CD0040
:103C3C0003A60D005D9A7310068001000100930726
:103C4C0070052380F90023808900010001000346E0
:103C5C003D05E17713660602A309CD0403560D0555
:103C6C0033669601420641822318CD0403560D0596
:103C7C005D8E420641822318CD0423800900F32572
:103C8C00008003A60D00218A4D8E7310068023A0A0
:103C9C0001D20100010003463D0513760602630CB8
:103CAC00063603463D05218A6DDE6810EF00B02F05
:103CBC0073260080218A11CA7326008023A0CD00B0
:103CCC0003A60D005D9A731006800100010023808D
:103CDC002901238089000100010003463D05E1779D
:103CEC001376F60DA309CD0403463D0513660602B3
:103CFC00A309CD0403560D05336696014206418295
:103D0C002318CD0403560D055D8E420641822318FF
:103D1C00CD0423800900F325008003A60D00218A21
:103D2C004D8E7310068023A001D2010001000346C2
:103D3C003D0513760602630C063003463D05218AC9
:103D4C006DFED9392A8632CEC1397246E30DC5FED5
:103D5C0003560D05325533669601420641822318EF
:103D6C00CD04EF00102603463D05218A6DDE8355F8
:103D7C000D0503462D05B247B3F545013306460341
:103D8C00B2959D8D6355BB00D24763CEF52E094687
:103D9C00637D762F73260080218A11CA73260080DA
:103DAC0023A0CD0003A60D005D9A731006800100C0
:103DBC0001002380290123808900010001000346B2
:103DCC003D059375FC0F1376860FA309CD040346AE
:103DDC003D054D8EA309CD04238009007325008079
:103DEC0003A60D00218A498E7310068023A001D2F0
:103DFC000100010003463D051D8A631386317326BD
:103E0C000080218A11CA7326008023A0CD0003A64E
:103E1C000D005D9A731006800100010023802901BA
:103E2C00238089000100010003463D05916513764E
:103E3C00F60DA309CD0403463D0513660602A3093E
:103E4C00CD0403560D054D8E2318CD0403560D05D8
:103E5C00A1654D8E2318CD0423800900F325008025
:103E6C0003A60D00218A4D8E7310068023A001D26B
:103E7C000100010003463D0513760602630A062A7B
:103E8C0003463D05218A6DDE6810EF00D0117326C4
:103E9C000080218A11CA7326008023A0CD0003A6BE
:103EAC000D005D9A7310068001000100238029012A
:103EBC00238089000100010003463D0591651376BE
:103ECC00F60DA309CD0403463D0513660602A309AE
:103EDC00CD0403560D054D8E2318CD0403560D0548
:103EEC00A1654D8E2318CD0423800900F325008095
:103EFC0003A60D00218A4D8E7310068023A001D2DB
:103F0C000100010003463D0513760602630E0624EC
:103F1C0003463D05218A6DFE0136AA8CF53CE30F64
:103F2C0095FF03560D05916532554D8E2318CD0422
:103F3C00EF00300903463D05218A6DDE73260080B3
:103F4C00218A938501D201CA7326008090C19041C9
:103F5C005D9A7310068001000100238029012380E3
:103F6C0089000100010003463D051376F60DA309F7
:103F7C00CD0423800900732500809041218A498E4D
:103F8C007310068023A001D20100010003560D0519
:103F9C0003452D05E24733764601330545032A9642
:103FAC001D8E1305800C635DC01E3306A6023346BE
:103FBC009602050609453346A602635FC0240355E5
:103FCC00CD021308F00F15813295635DA8300946B8
:103FDC00637E561DF3270080A18B81CBF3270080D5
:103FEC009CC19C41DD9B7390078001000100B717B9
:103FFC000040130770052380E704130780FA238021
:10400C00E7040100010003D7C70289668116558FAA
:10401C004207418389AC73260080218A11CA73261A
:10402C00008023A0CD0003A60D005D9A73100680BE
:10403C000100010023802901238089000100010077
:10404C0003463D0513660602A309CD043DB1732654
:10405C000080218A11CA7326008023A0CD0003A6FC
:10406C000D005D9A73100680010001002380290168
:10407C00238089000100010003463D0513660602FA
:10408C00A309CD0479B1E3970BD0C247850B1396E6
:10409C0015003346F60293FBFB0F6351B006050681
:1040AC0089453346B602F3250080A18991C9F325D1
:1040BC00008023A0BD0083A50D00DD9973900580C1
:1040CC0001000100238029012380890001000100E7
:1040DC008355CD022E96420641822316CD022380B3
:1040EC000900F325008003A60D00218A4D8E731064
:1040FC00068023A001D2010001001DB67D164DB72C
:10410C0073260080218A11CA7326008023A0CD005B
:10411C0003A60D005D9A7310068001000100238038
:10412C002901238089000100010003463D0555B19A
:10413C0073260080218A11CA7326008023A0CD002B
:10414C0003A60D005D9A7310068001000100238008
:10415C002901238089000100010003463D051366F7
:10416C000602A309CD04CDB973260080218A11CA99
:10417C007326008023A0CD0003A60D005D9A73105A
:10418C0006800100010023802901238089000100A1
:10419C00010003463D0513660602A309CD04A9B32D
:1041AC003306A602334696027D1629B57326008087
:1041BC00218A01CA7326008090C190415D9A7310C8
:1041CC00068001000100371500401306700523001E
:1041DC00C504130680FA2300C50401000100035630
:1041EC00C502056801181376F60F33660601420600
:1041FC0041822316C50223000504732500809041DB
:10420C00218A498E7310068023A001D2010001007F
:10421C00850A93FAFA0F5DB271C60355CD023308C5
:10422C00C04015816350050D0946637C5607F32782
:10423C000080A18B81CBF32700809CC19C41DD9B2E
:10424C007390078001000100B71700401307700539
:10425C002380E704130780FA2380E70401000100A0
:10426C0003D7C7027D8B2396E702238007047327AD
:10427C0000809C41A18BD98F7390078023A001D221
:10428C0001000100B650265496540659F649664A68
:10429C00D64A464BB64B264C964C064DF25D6561A4
:1042AC00828073260080218A01CA7326008090C107
:1042BC0090415D9A73100680010001002380290152
:1042CC0023808900010001000356CD02056501150C
:1042DC001376F60F498E420641822316CD022380B7
:1042EC00090021BFF3270080A18B81CBF32700802D
:1042FC009CC19C41DD9B7390078001000100B717A6
:10430C000040130770052380E704130780FA23800D
:10431C00E7040100010003D7C70216063297CDB996
:10432C00914763EAB70897070300938727B48A0578
:10433C00BE9598413E97B71700409387470B02876D
:10434C0094431345F5FF37170040E98E94C3930649
:10435C00070B9C42E98F9CC29307070A9843798DFF
:10436C0088C3828090439346F5FF37170040758EC3
:10437C0090C31306070B1C42C98F1CC29307070A74
:10438C009843F98E94C38280944337170040C98EAA
:10439C0094C39306070B9C421345F5FF65BF9443EA
:1043AC001347F5FF758F98C3B71700409387070A1B
:1043BC009843498F98C382809843498FEDB79147B2
:1043CC0063EAB70897070300938787AB8A05BE9506
:1043DC0098413E97B71700409387470D0287944347
:1043EC001345F5FF37170040E98E94C39306070D6C
:1043FC009C42E98F9CC29307070C9843798D88C324
:10440C00828090439346F5FF37170040758E90C31A
:10441C001306070D1C42C98F1CC29307070C984347
:10442C00F98E94C38280944337170040C98E94C38D
:10443C009306070D9C421345F5FF65BF9443134744
:10444C00F5FF758F98C3B71700409387070C9843F7
:10445C00498F98C382809843498FEDB71317050194
:10446C0089474183638BF50463E2B7021346F7FF78
:10447C009DE9B717004083D64709F18E239AD708D8
:10448C009387C70A9443C98E94C321A08D47638C2C
:10449C00F502B7170040239EE70883D60709558F0E
:1044AC002398E7088280B717004083D64709F18E1E
:1044BC00239AD7089387870AF1B7B717004083D69A
:1044CC004709D98E65BFB717004083D64709D98EE7
:1044DC00C5B7375700408357078011C593E71700BE
:1044EC002310F7808280C207C183F99BC207C18366
:1044FC00C5BF375700408357078011C593E7071096
:10450C002310F7808280C207C18393F7F7EFC207AD
:10451C00C183FDB7375700408357078011C593E718
:10452C0007202310F7808280C207C18393F7F7DF3F
:10453C00C207C183FDB7375700408357078011C5A9
:10454C0093E707402310F7808280C207C18393F75B
:10455C00F7BFC207C183FDB7B75700402398A780A8
:10456C008280B757004003D507811375F50F828001
:10457C009377E50F99C193671500375700402318BF
:10458C00F7808280375700408357078011C5A1669A
:10459C00D58F2310F7808280C607C583DDBF01113C
:1045AC0026CAB754004052C43E8A83D704804EC6F4
:1045BC00BA892167D98F06CE22CC4AC856C25AC0B6
:1045CC002390F4802A8901452E84328BB68A5D3F74
:1045DC00592A37480F00130808243358050383D78A
:1045EC004480C207C18393F707FCC207C18323929F
:1045FC00F48083D74480B3E70701C207C1832392B9
:10460C00F48083D70480C207C183F99BC207C1839E
:10461C002390F480E1679387076A63E4870A0604B2
:10462C003354850285671387C7FF114642044180C6
:10463C00618F01C7FD173376F40005089307F0036B
:10464C0063F407011308F0034208B75700401358EE
:10465C00080123900783B7550040239EC58083D75C
:10466C000580F240624493E717002390F58083D7CE
:10467C000580D244024BC207C18393F757BFC207D0
:10468C00C1832390F58003D50580336555013365CF
:10469C002501420541812390A58083D785802394F1
:1046AC00058083D685804249924AB3E7460133E7B9
:1046BC003701420741832394E580B249224A0561C0
:1046CC008280631A0B028D45B305B402B355B50253
:1046DC00D205D1812E8691E1054642064182A16721
:1046EC005D8E9307C0123308F8029307803E33584F
:1046FC00F802050891BFE5473304F402916733567D
:10470C008502520651825D8ED9BFB757004003D740
:10471C00478183D78781C207D98FE98FA207A183ED
:10472C003385A740133515008280411102C4B75759
:10473C00004002C6938707803EC69357C5013EC40E
:10474C00224722059357850019CB324751073AC6A9
:10475C003247084341017D8D3335A00082803247BA
:10476C00C1836107EDB7B717004003D787009317D4
:10477C00070113770704C18309EBFD8B3755E8015B
:10478C00130505803345F502828013F7070C930659
:10479C0000046316D700FD8B37459C1CD5B72165EB
:1047AC00130505D0828037E700E01C435443A183F6
:1047BC00E206D58F1CC1FD572320F7182322F718CA
:1047CC00828013178500B7E700E023A0E710618112
:1047DC0023A2A7108280B7F700E08847CC478280DD
:1047EC0017E7FE1F1307C75EAA8708439736FF1FFC
:1047FC009386C6D9AA9763EAD7009736FF1F93868C
:10480C00665F63E4F6001CC382807D558280B72707
:10481C00004001E5A38007408280239CB740239E83
:10482C00C740154791E20547A380E74082800111FC
:10483C0006CE22CC83A701D391C3829703A441D97E
:10484C001315040183A7C1D2418181C72AC682975F
:10485C00324583D781806374F50403D7A1806373D9
:10486C00A70483A681D289C66244F2400561828680
:10487C001315040185074181998F198D65473305FF
:10488C00E502C207C18389831387F7FF3A95334545
:10489C00F5021375F50FF240624405618280130531
:1048AC004006D5BF0145C5BF2D452DEBDC4141115F
:1048BC0022C426C206C603C7070083C71700B684E6
:1048CC003284A207D98F0D67930697A16398D702FC
:1048DC00B93F9387618003C707006374E5002380A9
:1048EC00A70083C7070005472390E4002300F400CA
:1048FC000145B240224492444101828013078790C3
:10490C002945E398E7FECC4589472390F4000946F6
:10491C00228597C0FE1FE780C060D9BF8280DC4132
:10492C00411122C406C626C203C8070083C717005C
:10493C002944A207B3E707010D6813082890639672
:10494C0007038547B284EF2061422A8419ED03A73F
:10495C0041D301CF83C7140083C60400A207D58FAF
:10496C0093B71700138517000297B2402285224493
:10497C0092444101828083474500858BBDC3011160
:10498C0022CC2A8403552500938581F206CEEF2094
:10499C00A138058939C103552400014781460546D4
:1049AC00ED45EF10D1712AC60DC997E7FE1F83D7CD
:1049BC0087E42314F10085472315F10083C7618038
:1049CC002300F5000355240001462C00EF30A11103
:1049DC0009C5ED452800EF204106F240624405610F
:1049EC008280828041654111938581F27D1506C6D6
:1049FC00EF40A100B24097E6FE1F938666DC41466D
:104A0C00954517E5FE1F130565DC41016F301174E8
:104A1C0023AAA1D2828085476316F502834706003C
:104A2C002382F1D203C761806370F702411117052D
:104A3C000000130585F406C6EF600139B24001454C
:104A4C004101828009458280014582808947630348
:104A5C00F50263E9A70001ED83C761802380F500AF
:104A6C00014582808D47630EF5000945828083C71E
:104A7C0041D2EDB797E7FE1F83D7E7D52390F5001A
:104A8C00C5B797E7FE1F83D7E7342392F50097E766
:104A9C00FE1F9387A7D303D7A70283D7A70323901F
:104AAC00E5002391F50085472383F50055BF41119F
:104ABC0006C6B53B9387618003C70700637AE500A0
:104ACC002380A70017050000130525EBEF60C12F0D
:104ADC00B240014541018280C167F917630CF502B0
:104AEC00411122C406C685472A84639AF5002285A3
:104AFC002244B240938581F241016F301170894795
:104B0C006396F5008545EF60A12675D1B24022442D
:104B1C004101828082803285D041411106C6834595
:104B2C001600034806000D66A205B3E505011398AF
:104B3C000501135808419308A6A263C8080313067D
:104B4C0026A26358060375761306C65DB295C20598
:104B5C00C18119466363B60217F802001308883343
:104B6C008A05C295904142960286130606A5630DEE
:104B7C00C81023900600A94525A01D469D456361DC
:104B8C00E6022146198E63F3C7003E862390C600C9
:104B9C00938581D3BA9597C0FE1FE78080388145F5
:104BAC00B2402E85410182802D469D45E36AE6FE8A
:104BBC003146198E63F3C7003E862390C60097F5E5
:104BCC0002009385E535F9B731469D45E36AE6FC6D
:104BDC003546198E63F3C7003E862390C60097F5C1
:104BEC0002009385E5327DB741469D45E36AE6FABE
:104BFC004546198E63F3C7003E862390C60097F591
:104C0C0002009385A52F79B741469D45E36AE6F8E6
:104C1C004546198E63F3C7003E862390C60097F570
:104C2C0002009385652CBDB741469D45E36AE6F6C7
:104C3C004546198E63F3C7003E862390C60097F550
:104C4C00020093852529B9B741469D45E36AE6F4F0
:104C5C004546198E63F3C7003E862390C60097F530
:104C6C0002009385E5253DB735469D45E36AE6F29E
:104C7C003946198E63F3C7003E862390C60097F51C
:104C8C0002009385E52239B719469D45E36AE6F0A3
:104C9C003386E54063F3C7003E862390C6009385B8
:104CAC00C180CDBD97E6FE1F938646B74146CD45E4
:104CBC0017E5FE1F130545B76F305149828082807E
:104CCC002A8783C781D403A5C1D483C6718399E392
:104CDC0001458280035605006316E6000346650015
:104CEC00E309D6FEFD1793F7F70F2105CDB7011198
:104CFC00930500030D4506CEEFE0504C93050005DF
:104D0C001145EFE0B04B9305C0030545EFE0104BA8
:104D1C0085471306F100854513055030A307F100B4
:104D2C00EF80F255F240056182808547631AF500E9
:104D3C001166130686A9894503C5C1D56FC0301904
:104D4C0089476317F500894503C5C1D56FC0503934
:104D5C00828085476390F50219EA138701DE238A66
:104D6C00B1D48347070093E727002300F70023887B
:104D7C00C1D4828009476391E50221E2238AF1D4F0
:104D8C00138701DE8347070003D521D593E727005E
:104D9C002300F7006F0050078D476390F502411117
:104DAC0017F502001305C51806C6EF803041B24056
:104DBC001305007D41016F80505A8280011122CC75
:104DCC0006CE83A741D42E8499C79C4789C76244D9
:104DDC00F240056182876C0013057040EF70222C45
:104DEC00324622858145EF70E26DF24062440561E6
:104DFC00828041119397050122C406C6C1872E8477
:104E0C0063DF070003C5C1D5EFC0203119C1EFC066
:104E1C00A0292165218DB24022444101828093F763
:104E2C00150085C317E6FE1F1306C6B397E5FE1FD4
:104E3C00938585B203C5C1D5EF80F21213451400DA
:104E4C00D9BF13F5250061D99D311166130686A9CA
:104E5C00894503C5C1D5EFC090071345240065BF34
:104E6C00797122D44AD052CC06D626D24ECE56CA0E
:104E7C0091472A842E89138A81D56314F50483D72C
:104E8C00A5001306E1008545130550302399F1D494
:104E9C0023070100238A01D4EF80723E83A741D4FB
:104EAC0091C7DC4781C7CA852285829723208A0057
:104EBC00B250225492540259F249624AD24A456184
:104ECC00828003270A00E31BF7FC938421D503D5CA
:104EDC0004008545113103D504008545EF00407869
:104EEC0083DA0400C167F917639BFA0285449305C2
:104EFC00E10013055041238A01D4A38B918223072F
:104F0C000100EF70C2198347E100A1E303C701D58B
:104F1C009147E315F7F8E13B238801D441B783A906
:104F2C00C1D483C481D4F9D003D5290011C9930508
:104F3C00E100EF20C14309C54C455685EF30F12BFC
:104F4C00FD1493F4F40FA109F9BF83A701D483C70F
:104F5C004700898BC5DF9305000A0D45EFE010264D
:104F6C009305000A1145EFE0702581450545EFE0FA
:104F7C00F0241306E10085451305503023079100FA
:104F8C00EF80F22F61B70111170500001305A5E69C
:104F9C0006CE22CCEFC0903C1384C1D585471306B6
:104FAC00F10085452300A40013054041A307F1003F
:104FBC00EF70C2787D55EF10C1587D55EF30D12080
:104FCC00D5310D34092D17050000130545D689344C
:104FDC00170500001305E5CE2D250345040062449A
:104FEC00F240854505616FC0405C23A2B1D423A07B
:104FFC00A1D4828023A6B1D42384A1D482807971D8
:10500C0006D622D426D24AD04ECE52CC83A781D5F6
:10501C0011476398E70A83C741D599EB4144B250D5
:10502C002285225492540259F249624A4561828087
:10503C00B284368903A4C1D483C781D403C77183D6
:10504C0085C7834644006393A60283465400639F3E
:10505C00B60083466400639BE60003552400930569
:10506C006100EF20C13001E9554455BFFD1793F79E
:10507C00F70F2104F1B7938921D503D50900014716
:10508C0081462686ED45035A0400EF1051032AC6CB
:10509C004D4451D52686CA85231441012315910010
:1050AC0097C0FE1FE780E0E703D5090001462C00FE
:1050BC00EF2071232A8425D5ED452800EF10F11738
:1050CC00B9BF0947E38CE7F42C00130550412304C6
:1050DC000100EF60D27C834781008DCB93050002E9
:1050EC000D45EFE0B00D930500031145EFE0100DF9
:1050FC0095450545EFE0900C854730008545130537
:10510C0050302304F100EF80921709BFCD3639B728
:10511C0041114AC03689D44126C206C622C403C4F2
:10512C001600B28403C6060022040D68518C01CF10
:10513C001308B8A42D4563080407B24022449244D6
:10514C000249410182809306D8A46300D4029306DD
:10515C0028A2630CD400F5789388E85CA298C20866
:10516C0093D80801854663EC160303D5A500893E48
:10517C001DC183A741D42286224403A8070083457E
:10518C005500B24003454500A6874A879244024920
:10519C0085464101028823100900014579BF130699
:1051AC00B8A46319C40203D801841D45E37707F939
:1051BC003308E84063D307013E88CC451316080139
:1051CC00231009014182BA95268597C0FE1FE780FE
:1051DC0040D5E1B79307A8A46318F40091472310B6
:1051EC00F9001146CC45CDB7930788906317F400AE
:1051FC0089472310F9000946F5B79307E8A4631A09
:10520C00F400DC452310D90083C707002380F40089
:10521C0069B713087890E31204F9D9BF011106CECF
:10522C0022CC26CA4AC82317D10063130712DC41CB
:10523C002E89B28403C4170083C607008D6722042D
:10524C00558C9386D7A46306D400938627A3631C3E
:10525C00D4020355A900AD3401E90145F240624482
:10526C00D24442490561828083A741D403A8070038
:10527C008345550003454500A6871307E100814689
:10528C0022860298E1BF9386C7A46314D402035705
:10529C00E10085473545E313F7FC8347060013050A
:1052AC000008E36DF7FA03A741D458433E850297F3
:1052BC006DB7938627906313D4068356E100854718
:1052CC00EF10D12A41FD03C6140083C70400835696
:1052DC00A90022065D8E03A7C1D483C781D4B5DF94
:1052EC00835527006397D50283A741D403A80700F1
:1052FC00854703454700834557008D466313F600E9
:10530C0089460D66A6871307E100130626900298BE
:10531C00A9B7FD1793F7F70F2107D1B79387E7A428
:10532C00E31DF4F20357E10085473545E318F7F226
:10533C008347060013050008E362F7F2D8453335BE
:10534C00F00009052300F70003A741D4584385B7A3
:10535C002D4529B7411122C441641305F4FF9385EF
:10536C0081F706C626C24AC0EF3021691305F4FF47
:10537C00938581F6EF3061681305F4FF938581F511
:10538C00EF30A1671305F4FF938581F4EF30E166EC
:10539C001305F4FF938581F3EF30216697D6FE1F3A
:1053AC009386065D41469305600217D5FE1F1305D3
:1053BC00E55C97D4FE1F9384645CEF302159CC4C90
:1053CC002A890945EFF08FE8138481F803D701830C
:1053DC002316E40003D7A41083D741832312F400CF
:1053EC002314E40003D7A41183D7A40C2315E400E1
:1053FC0003D7C182231AE40003D7A4142310F400AA
:10540C0083D7A40D2318E40003D7A4152311F400AB
:10541C0085472319E40013878182834507000346DF
:10542C00170003D7A4182303F4002307F400231C4C
:10543C00E40003D7A419230BF400230FF400231D5D
:10544C00E4001387418283460700230EB400A30EA9
:10545C00C4002302D40203471700A306C40203D6D8
:10546C00A41FA302E402A30AE40203D7A42203D5D7
:10547C00A41C2314C4022318E40203D7C18103D64D
:10548C00A420231EE40203D7A4242310A402230681
:10549C00B4020D45938581FC2303F4022315C40249
:1054AC00230AD402231CE402230FF4022311040266
:1054BC002307040223190402230B0402231D0402F4
:1054CC00EFF0CFD8A28525453536B2402244924420
:1054DC004A850249410182808D67138527A36300A9
:1054EC00A6049387D7A4631DF6008947639CF50037
:1054FC00854735456397F600834707002380F1D62F
:10550C00014582808D472945E39DF5FE854735454C
:10551C00E399F6FE83470700A38EF1D4D5B78547F0
:10552C003545E390F6FE83470700238FF1D4C9BFBE
:10553C008D67138527A36309A6029387D7A401451A
:10554C00631AF6008947639BF50083C701D62300D5
:10555C00F70005452390A600014582808D47E39B0B
:10556C00F5FE83C7D1D5E5B783C7E1D5CDB70145E6
:10557C00828039EFDC41AE8803C8070083C717006F
:10558C00A207B3E707010D68930EF8A4639AD7033B
:10559C0091473548639FF60203A5C8003283411139
:1055AC0011469A8506C697C0FE1FE7808097054571
:1055BC0083A701D78297B24001484285410182807E
:1055CC009308289029486396170185476F10017A34
:1055DC002D484285828041654111938501FD7D15E1
:1055EC0006C6EF308141B24097D6FE1F9386065F08
:1055FC004146994517D5FE1F1305055F41016F30D4
:10560C00E13423A8A1D682800111938501FD22CC1F
:10561C0006CE2A84EF10417005891DCD01478146C5
:10562C000546ED452285EF1081292AC615C597D769
:10563C00FE1F83D707612314F10085472315F10062
:10564C002300050001462C002285EF20C14909C525
:10565C00ED452800EF10613EF24062440561828006
:10566C00C167F917630CF502411122C406C68547C0
:10567C002A84639AF50022852244B240938501FD69
:10568C0041016F30813789476396F5008545EF50AE
:10569C00216E75D1B2402244410182808280014545
:1056AC008280014582804111B286A6052A862D454D
:1056BC0006C697B0FE1FE7802050B240014541015D
:1056CC0082809307900363EDB702011122CCB2865E
:1056DC002A84A60532C62545014606CE2EC497B0AF
:1056EC00FE1FE780604DB246A2452286294597B041
:1056FC00FE1FE780604CF2406244014505618280E8
:10570C00014582808947630EF50063E7A700930784
:10571C00A00311ED014582808D476309F500114509
:10572C008280930700202390F500EDB785479CC13C
:10573C00D5B709E9411106C69D37B2401375F50F6F
:10574C00410182800545828009E9411106C6913FDD
:10575C00B2401375F50F4101828005458280AA87FE
:10576C002E85B28581E71396960035BF1145828050
:10577C00AA872E85B28581E71396960099B71145B5
:10578C008280AA872E85B28591E3ADBF11458280B8
:10579C0001458280034715008347050022075D8F72
:1057AC008347250003453500C207D98F62055D8DFF
:1057BC00828093D785002300B500A300F50093D712
:1057CC000501E1812301F500A301B50082802A9631
:1057DC000505A30FB5FEE31DC5FE82801C4DF91512
:1057EC00F91763FAF5008357A5005855B387B7022C
:1057FC003385E700828001458280AA879306B50035
:10580C00014503C60700135715001E05498F850770
:10581C0032971375F70FE396D7FE82801C41AA8648
:10582C0085C73E877D459305A00303060700050742
:10583C001378F60F63710503E319B6FE8385070031
:10584C00130600036384C5007D55828089077D554E
:10585C00E31DF7FE98C201458280411126C206C69F
:10586C0022C4AE8409E925458147B24022449CC03C
:10587C009244410182801C412A84F5D703C707005A
:10588C007DD38356450003D76700E39EE6FC03C532
:10589C0017004535058961F91C40C1BF83473500A8
:1058AC00A9CB011122CC06CE9305450310592A84AD
:1058BC000345150085462EC6653D854715E51058F0
:1058CC005C50584CA3010400B307F64063FDE7009D
:1058DC00834624008947B2456397F60003451400BC
:1058EC0085463A9671358147F24062443E850561A2
:1058FC00828081473E85828081473387F5008346CD
:10590C0007003307F50085072300D700E317F6FEE1
:10591C00828093170601C183A183A38DF500238D8B
:10592C00C500034705008D476318F7004182238AA1
:10593C00C5002182A38AC50082801C59638AB702E4
:10594C00411122C426C206C62A84AE84813F01EDD1
:10595C00034514008546268693054403093519C171
:10596C000545FD5404D8B240224492444101828042
:10597C0001458280411122C406C6FD57A3010500D2
:10598C001CD92A845D3F7DE90347342383472423B4
:10599C009306B00E22075D8F834744036388D700BC
:1059AC00E10793F7F70F854663E3F60CAD67938732
:1059BC0057A56302F702834704048346F403A20746
:1059CC00D58F9386F7FFFD8E89E6930600206383BF
:1059DC00D7060D45A1A8930664089305E40817E6BD
:1059EC0002001306A66183C706000348060085065D
:1059FC000506B3870741638AD502F5D783470404AC
:105A0C008346F403A207D58F9386F7FFFD8E81EEB4
:105A1C00930600206399D7008346140489C69387A4
:105A2C00F6FFF58F99CF094511A0E9FBB24022444E
:105A3C004101828083461404C9DE9387F6FFF58FFB
:105A4C00C9FB834744048546FD1793F7F70F63E0C2
:105A5C00F6028347640483465404A207D58F81CB96
:105A6C008347B4048346A404A207D58FE1F3AD6742
:105A7C00938757A50D45E308F7FA4DBF11457DB740
:105A8C00854663F4B612184D011122CC4AC806CED5
:105A9C0026CA4EC652C456C22A892E84894763F937
:105AAC00E50803470500B2846305F70A8D476306D2
:105ABC00F70C8947631ED7065C5193D91500AE9934
:105ACC0093D59900BE95953DAA873DE1130A4903EC
