:040000006F109001EC
:1000040000000000000000009000002072020020A8
:10001400A9BDF9F5940000200000000000000000D4
:10002400960000209800002000000000000000005E
:100034009A000020000000009C0000200000000046
:100044007E030020A0000020A2000020A4000020C5
:10005400A6000020A800002072030020AC000020AD
:10006400AE000020B0000020B2000020B400002048
:100074005C030020B8000020BA000020BC0000206F
:10008400BE000020C0000020C2000020C4000020E8
:1000940001A001A001A001A001A001A001A001A054
:1000A40001A001A001A001A001A001A001A001A044
:1000B40001A001A001A001A001A001A001A001A034
:1000C40001A001A001A0B71700409306700523808A
:1000D400D704130780FA2380E7040100010003C654
:1000E400B7041376F60DA385C7042380070413769B
:1000F400050259CE03C6A700118A1DE22380D70446
:100104002380E7040100010003C7A7001367470029
:100114002385E7009307004B01000100FD17EDFF65
:10012400B7170040930670052380D704130780FA9D
:100134002380E704010001007D892394A7000100C6
:10014400010001000100238007042380D7042380D9
:10015400E704010001003727004093061005A303BC
:10016400D78023800704B717004013077005238046
:10017400E704130780FA2380E7040100010003C7A2
:10018400B70413670708A385E70423800704828064
:100194001376050441C603C6A700418A1DE22380E5
:1001A400D7042380E7040100010003C7A7001367F5
:1001B40007012385E7009307007D01000100FD1777
:1001C400EDFFB7170040930670052380D70413078B
:1001D40080FA2380E704010001001376F501136619
:1001E40006042394C70001000100010001002380DC
:1001F40007042380D704130660042380E7046318EC
:10020400C5000100010037270040894689BF01006D
:100214000100372700409306200591B72380D704B7
:100224002380E7040100010003D787001367070C4C
:100234002394E7000DBF41118146014681451145D4
:1002440006C6D924B7170040130770052380E704B6
:10025400130780FA2380E7040100010003C7670441
:10026400136717002383E70423800704B240410186
:10027400828081460146814511457924B7170040A3
:10028400130770052380E704130780FA2380E7042B
:10029400010001007D572396E70203C76704136733
:1002A40017002383E7042380070401A0BD47330517
:1002B400F50201007D1575FD8280411122C426C21C
:1002C40006C6AA84014463179400B24022449244AF
:1002D4004101828005041305803E4204C13F4180F0
:1002E400DDB7411106C68566014681450545292CC1
:1002F4007DF981460146814511453924B7170040EF
:10030400130770052380E704130780FA2380E704AA
:10031400010001007D572396E70203C767041367B2
:1003240017002383E7042380070401A0B7170040C4
:10033400130770052380E704130780FA2380E7047A
:10034400010001007D572396E70203C76704136782
:1003540017002383E7042380070401A0B717004094
:10036400130700032388E702854723A2F18673005D
:100374002030972000E0E780203B730020303727AF
:10038400004083476700858BC5CB85472303F7006F
:10039400938701819C434D476372F70A2546814543
:1003A4001385419B23A80180092303C74181854705
:1003B400631DF70089451715000003452546238A68
:1003C4000180973000E0E78060D403C751818547FE
:1003D400631DF70085451715000003452544A38ACE
:1003E4000180973000E0E78060D203C761818547D0
:1003F400631DF70091451715000003452542238B23
:100404000180973000E0E78060D0972000E0E7802B
:10041400E09B9307803E3355F502B7270040094718
:10042400C8C72380E70011472380E70003C72700DC
:10043400136717002381E70073002030850723A882
:10044400F180E1B7411106C6852DFDBF2303048069
:1004540015472303E48001002302A48082808307DC
:100464006480E3CE07FE23030480828083076480D4
:10047400E3CE07FE03454480828083076480E3CE95
:1004840007FE2302A4808280411126C44AC24EC0C2
:1004940006C61377F50BAD47AA892E8995446306E2
:1004A400F70019456537653F8D444E854537FD593D
:1004B400FD1463983401B240A244124982494101B7
:1004C4008280135509011375F50F453F2209CDB7F5
:1004D400011126CC06CEB704080051371545BD37A7
:1004E400713769372AC6A53F32459377150089EBE2
:1004F400136515001375F50FF240E244056182801F
:10050400FD14E9FC0145CDBF397126DC4ADA4ED829
:1005140052D656D45AD25ED006DE62CE66CCB7E747
:1005240000E07D5783AA070022C603AA470023A040
:10053400E71823A2E718B7170040130770052380B4
:10054400E704130780FA2380E70483C74704930B67
:1005540075FFB684E20793FBFB0F8546AA892E8BB1
:10056400328937240040E187015763FA7601630832
:10057400D5008946130700026313D5000157D98FAC
:1005840093F7F70FB71C00402382FC0411472303A1
:10059400E4801305F00F5D3D094CD135636D7C118A
:1005A400B7050700DA9537870700795563F2E50444
:1005B400B3879500636EF702370B0800A94733EB46
:1005C40065016399F90689E48144513D26850DA0AE
:1005D400DA850945553D05090345F9FFFD14050B69
:1005E400693D81C49377FB0FFDF7DD3569FD7D55CA
:1005F400B7170040130770052380E704130780FA38
:100604002380E70403C74704418B2382E704F250A5
:10061400B7E700E023A0571123A24711E254324464
:100624005259C259325AA25A125B825B724CE24C42
:1006340021618280A5476395F90685691309F00F46
:10064400B3069900B3742B01B6941349F9FFB3743C
:100654009900856B33796901416B9387F9FFB3F78F
:10066400270199E363FC340193D94900C147E3E6C8
:1006740037FF99BF0569C1697D19D9B71305800D85
:100684006388690113050002638479011305100866
:10069400CA85DD3B353D21DD4E99B3843441D9B75C
:1006A400DA852D45D533CA94E30099F205097D3BDB
:1006B400A30FA9FED5BF9387F9FF93F7F70F6361E3
:1006C400FC0C83C71C0413073008631FF7043707A7
:1006D4000800636BEB04B3079B00B706100063F5D7
:1006E400D704334BEB0089476393F9068980D549D6
:1006F400E38C04ECDA850945413B11090327C9FF62
:1007040091472320E48003076480E34E07FE23031C
:100714003481FD17EDFBFD14110B81C49377FB0F9E
:10072400E9FF7D3371F5E1B5B717004003C75704FE
:10073400B70708001377070219E3B787070079554D
:10074400E378FBEA33079B00E3FFE7F855B58547F9
:10075400E382F9F2DA852D45053B9389F4FFE385BD
:1007640004E6293393F7390091EB832604800327A9
:10077400090093074900E39AE6E43E89CE84F1BF79
:10078400B5476396F9001305900BC93135BDB147E0
:100794001305B00AE38BF9FE99476391F904B70591
:1007A4000800B365BB002D45C53181448D4BA1497B
:1007B400753963967401832704802320F900850426
:1007C400E39834FF8327048013172B016355070034
:1007D4002312F900D5BB2322F900FDB39D47639989
:1007E400F90281451305B0044531BD4423200900B5
:1007F40023220900FD599D3993F77400CA9703C752
:100804000700FD14398D2380A700E39634FF6DBBE8
:10081400A1476392F9046D398144630D0B008D4740
:100824009304C0036308FB009304000563048B0175
:10083400930440041375C507E30895D81945393165
:1008440039390545213126850D3909453D3149316F
:10085400E31C05D669BB91476399F900130560064B
:10086400F536F53E130590090DB7E38F09D4F1541D
:10087400A9BB19CD91CD09CE81473387F5008346B5
:1008840007003307F50085072300D700E397C7FE69
:10089400828019C991C909CA910583A7C5FF1105A9
:1008A4007D16232EF5FEC5BF828001C919C62A967E
:1008B4000505A30FB5FEE31DA6FE8280814733071D
:1008C400F5000307070019E33E8582808507C5BF4D
:1008D40001112E8626CAAA84131506019305F00475
:1008E400418122CC06CE32C6EF0010572A8401C5BE
:1008F4003246A685BD3F2285F2406244D24405615A
:100904008280854715C18DC105C28147B306F500B4
:100914003387F50083C60600034707006398E600A3
:100924008507E315F6FE85473E8582808147EDBF46
:100934009307F6FFBE952A966313C5008280FD15C2
:1009440083C715000505A30FF5FEFDB7AA8701456A
:1009540081CF09CE3E96850703C7F7FF6317B7001B
:10096400E31BF6FE05458280828001458280797111
:10097400973700009387479C22D4804306D626D21B
:100984004AD04ECE52CC56CA5AC85EC662C45DCC5A
:1009940037C9C901814B173A0000130A6A9E97347C
:1009A40000009384A4991309F937973A0000938AB5
:1009B4006A93B709C0A8370B40578357240095E3BF
:1009C4005C44639D0B00173700002327F796032C24
:1009D400C4002285EF007055628499A823A6FB0009
:1009E400FDB783270A008297838664011C4463DB76
:1009F40006063307F5406367E9089737000023AB21
:100A0400078E8355240003450400972000E0E78007
:100A1400E06F5C405844A9CF1444B69783866401C0
:100A240063C5060063E33701DA971CC4A28B3A84DA
:100A340049F4973700009387E78A9C4B094763780A
:100A4400F706F917173700002326F78AB250225405
:100A540092540259F249624AD24A424BB24B224C56
:100A640045618280E377F5F83387F9402A9761B7C7
:100A740063970B009737000023A0E78C89BF23A658
:100A8400EB00B1B7D85009CF63DF06003385A74028
:100A940083A70A016376F5009737000023ACA78487
:100AA400A28B404471B7E3F3A7FECE97C5B797373F
:100AB400000023A1078459BF411122C41734000048
:100AC400130444851C4006C626C24AC091C78297B7
:100AD4009737000023A007845C4091C382971C4091
:100AE4006390071C9737000083C7D78A858B95C707
:100AF40097370000A380078A173700000347B78998
:100B0400914763FCE700812E9737000083C7B788BD
:100B1400F9178A07A2979C43829717390000130993
:100B2400298B8347C900918B99C3EF0050261C443D
:100B340091C38297972400009384C47F984017261A
:100B440000000346367A9727000083C7A779939657
:100B54001700BA9683D60600D5CA9727000083C724
:100B6400677863EFC70A97270000238D07761C4038
:100B7400639807129737000083C7178291CF97377E
:100B8400000083C7578189EB97370000A38607804D
:100B9400973000E0E7804022972700009387477E44
:100BA4009C43638F070EB707C0A8172700002323B1
:100BB400F774753B9727000093874778DC53EDC3A0
:100BC4001727000013070772184B9727000083C7E5
:100BD40037786367F70C172700000347D77B9147E3
:100BE40063E0E70C8347C900918BDDEB90409726C7
:100BF400000083C6366F63CBD70A2244B2409244C6
:100C040002494101172300E06700033A850793F77F
:100C1400F70F972600002387F66CE3E6C7F235BF8B
:100C240086073E9783550700231007009727000087
:100C340023900770972700009387876D9C4317259F
:100C440000000345256A13172500BA979C43829731
:100C54009727000083D7C76D1727000003478768CD
:100C640093C7F7FF7D8D9317170098403E978357DE
:100C740007005D8D2310A7009727000083C78766B0
:100C840091C7850717270000230EF7641727000074
:100C9400034747659727000083C7D764E375F7ECDC
:100CA400B2402244924402494101828013971700C2
:100CB4003297035707006DF7850735BFAD6737C710
:100CC4000040BD072326F7200F10000097270000DF
:100CD40093874761C84F83278726BD66BD0693C7A0
:100CE400F7FF99836A052326D7205D8D8280411101
:100CF400B7170040985F3AC6945F3247E39CE6FE1C
:100D040032454101828082805D713AD2172700000A
:100D14001307876736D414433ED022DE9C5E4ACA4A
:100D240086C6998396C49AC29EC026DC2ADA2ED837
:100D340032D642CE46CC72C876C67AC47EC2858B81
:100D44003A84172900001309E963D1CB9C5E9724E8
:100D540000009384E46393F7F7F99CDE17270000FF
:100D64000347676393070008631BF70083270900A1
:100D74009C4393F7070417270000230EF76083C7EB
:100D8400040093F707049DC3972700009387475FE8
:100D94009C4382979727000023A4A76083C704007D
:100DA40093F7F70B172700002304F75E83C744006B
:100DB40093F707048DE7854717270000A30CF75C1A
:100DC400972700009387875E9C43096798C713079A
:100DD40000FC97260000238FE65AD844F8D31C4021
:100DE400985F1183058B09CB985F3D9B98DF05477E
:100DF400972600002380E65A985F1D83058B11CB4C
:100E0400985F1377F7F798DF8547172700002303C8
:100E1400F75883270900D8430583058B19C7D8439E
:100E2400759BD8C3D843799BD8C37254B640A642A5
:100E340016438643E2545255C2553256A2561257AF
:100E440082577248E2485249424EB24E224F924F64
:100E540061617300203097270000938727559443DE
:100E6400972700009387C75203C70700058B11CB50
:100E7400972700002380075297270000A38C075070
:100E8400828003C71700058B65F7F85271FF83C78B
:100E94005700DDB7172800001308084F0327080080
:100EA4001C5F9583858BD5EB1DC697270000938720
:100EB400675583986704030306001C5BBD83630BBB
:100EC400030893F7F71FB38717419A970947B3C7E6
:100ED400E7022300F60085CA83270800985B4607CB
:100EE400935767016356070093E707C0C207C1839E
:100EF40003970600C207C18709C7BA970947B3C752
:100F0400E7022390F6009DC98347150085CB9726F9
:100F1400000083C6464893F606041387970091475A
:100F240085CA3A950347050085461376F70663118B
:100F3400D60262076187B147634C07008327080024
:100F44009C5FED838D8B17270000A308F74481472E
:100F54003E858280B3871741ADBF8947D5BF411114
:100F640022C406C61724000013044444184049E967
:100F7400AE877453FDFE3E85B28597270000238A11
:100F84000740973000E0E78020BD97270000938753
:100F9400A73F9C43B70680009843558F98C3D85702
:100FA400719BD8D797270000A386073E9727000098
:100FB400A380073E1C40094798C3B7F700E003A786
:100FC40007D16D9B23A8E7D003A707D15D9B23A876
:100FD400E7D0730050101440172700001307473B55
:100FE40083472700858B89EB83473700858BD9C7D7
:100FF400972700002380073AB240224441018280AF
:101004008D476310F502972700009387E7379C43C9
:10101400B70680009843558F98C3D857719BD8D78B
:101024005DBF8547E319F5FAB567BD075CC70F10C7
:1010340000001C400967094698C7130700F8972663
:1010440000002389E634172700001307E73314430D
:10105400984231830D8B6319C7001307E043F8D31B
:101064003D673D07D8C785BF984231830D8B01E7A3
:1010740013076019EDB71307E01BD5B7FC52ADF3A6
:10108400A5BF5D714EDE972900009389E92F03A760
:10109400090086C6A2C4A6C2CAC052DC1C431729D2
:1010A40000001309E934172A0000130A2A3093F7C1
:1010B400F7E793E707081CC3832609003707CEFF29
:1010C4007D179C46130680022A84F98F9CC68327C9
:1010D4000A00130700082800B8CBAE849305100853
:1010E400EFF0AFFC973000E0E780C0C9973000E034
:1010F400E780C0D683A709009376F41FB70EFCFFE0
:1011040023A40700984B130510F8CE851367F70343
:1011140098CBF84F4A88B70F0400137707E0558F30
:10112400F8CF9843F576FD16758F98C39843B706A4
:10113400330091421377F7E798C39843FD1E854324
:101144001377F7E71367071098C303270900130FF2
:1011540080021C47D58F1CC783270A001307900DF4
:101164003400B8CB014793583700A69883C70800CA
:1011740013767700B3D7C740858BDDC79C41032E18
:101184000800239C0704239007060323CE0213734D
:10119400D3FF23266E0203AE07001373F707137EF3
:1011A4000EF833636E0023A0670003A34702336382
:1011B400F30123A26702014303DE07066307C303A7
:1011C40003A30703038E06001353F30062031353B0
:1011D400834163586E0003A307031353F300238072
:1011E400660003D307061373F30F03DE8705E3F5E5
:1011F400C2FD03A347023373D30123A2670283878B
:101204000600635CF40003C308003396C30013466E
:10121400F6FF337666002380C8003E8663D3A700BA
:101224002A8613158601618505071377F70F85064E
:10123400E31BE7F3B640264496440649F259625A42
:1012440061618280011136C89726000093860616D4
:101254003EC49C423AC632CAD8472ACE2ECC131674
:1012640017016355060298471316170163500602C7
:101274007D57B8D7172700001307C706584F05072F
:1012840017260000232EE606116798C798470D839A
:10129400058B1DC3172700000347A70F136717000B
:1012A400172600002307E60E130700F81726000090
:1012B4002302E60E214798C79847058B09CF1727C5
:1012C40000000347F70C1367170017260000A3015B
:1012D400E60C054798C798470983058B09E79847A3
:1012E4000583058B39CF9847172600001306460A55
:1012F40017250000130545090983058B630C0710A6
:101304001841184331830D8B63130710AC4B184EEF
:1013140093F5050203471700E9C57DE71307700637
:10132400D8CF0347060013671700172600002301D0
:10133400E606114798C718415C57F19B93E71700DD
:101344005CD79C4298479316370163D606029726CA
:10135400000083C62612C18A172700001307870AD4
:10136400E1C6034707071367070297260000238394
:10137400E610056798C798479316270163D10602BC
:1013840017270000034707016207618763570700B7
:10139400054797260000238FE6FE096798C79847FC
:1013A4009316070163D606029726000083C6960C9F
:1013B400858A172700001307E704C9C603471707E0
:1013C4001367270097260000A386E60A216798C7BB
:1013D4007245E2455246C2463247A2470561730050
:1013E40020300DDF85456315B7001307B0060DBF28
:1013F40089456315B7001307F0061DB78D456315BE
:10140400B7001307300729BF1307500711BF13078D
:10141400600739B703473600136717001726000023
:10142400A309E6F6094739B7834607070946BD8A83
:101434006388C600034707078D463D8BE31BD7F23D
:10144400114725B783461707918AC9D2034717075F
:101454001367870085BF17270000130767F58346C6
:10146400B7019727000083C777F7B69793F7F70F6D
:10147400FD4663EAF6044C4B97260000A38AF6F275
:101484009727000083C7D7F205473317F70097263D
:101494000000A385F6F46D8F1DEF9726000083C628
:1014A40036F4B3F6D70213050002814733D6F500AC
:1014B400058A13F8F70F09CE6399E6009727000011
:1014C400A38807EF828081177DB705071377F70F8D
:1014D4008507E39DA7FC828097270000938747EA4E
:1014E4009C43011122CC4EC606CE26CA4AC852C419
:1014F40056C2829797270000938787ED80478149DA
:101504006305A406BE8497270000938727E3038717
:1015140067013E8963550706018D135455009727CB
:10152400000083C787EA9379F501636DF402370AF3
:10153400C0A8B70A405705379C449726000083C6C5
:10154400C6E8139756003E9783076901158C63C557
:1015540007006363470156979727000023AEE7E629
:10156400E37BD4FC1604B3693401F24062444E8533
:10157400D2444249B249224A924A05618280E37DBB
:1015840085F8B707C0A833848740229579B7972791
:1015940000009387E7DE9C43411122C406C626C29D
:1015A4008297972700009387A7E280476309A406E0
:1015B400BE8497270000938767D88387670163D821
:1015C4000704018D135455009727000083C7E7DFF4
:1015D4006367F404493598449727000083C7E7DE1E
:1015E4009396570036971D8C9726000023A6E6DEB7
:1015F400E372F4FE2244B2409244172500000345EE
:1016040035DB81454101173300E06700C3A6E37A67
:1016140085FAB707C0A833848740229565B7B240DE
:10162400224492444101828097270000938747DC3B
:101634009843B75702009387079F83260709139699
:101644005600635806008326070913966600634410
:101654000600FD17FDF3828071C5AA870145E9C51F
:101664008D07C207C183F19BC207C18313074003DF
:10167400636FF70217270000130787D8084317275B
:101684000000130767D714436398A60217270000C6
:101694001307C7CA185B014541CB4111C20706C6EF
:1016A4000545DD8D0297B24001454101828017272F
:1016B40000001307A7D4D9B70357650035E30357D0
:1016C4004500636FF704B306F7402146637CD602F6
:1016D40003280500938687001D8FAA966117172695
:1016E4000000035686C02392E60023A0060123933C
:1016F400060014C12312F500130786FF9726000085
:101704002395E6BE2313B5009725000083D5E5BDD8
:10171400B387F540172700002319F7BC2105828001
:1017240008419DB70145828082800DC19727000042
:10173400938707CD03A30700972700009387C7CBA0
:1017440083A8070081469A8763E31701828003A870
:101754000700636DF50A636BA80A13878700E367C4
:10176400E5FE03D66700216705076317E60003C794
:1017740091810507A38CE18097250000938585B6A8
:1017840003D6470003D76500239307003297420727
:10179400418317250000231AE5B4638A67021725DD
:1017A40000001305A5C508416303F50203D56600CF
:1017B40019ED83D7460023A0060121073E96210692
:1017C4002392C600972700002391E7B2B687984377
:1017D400E30E17F797260000938646C29442E30768
:1017E400D7F683566700BDF283D6470003564700F9
:1017F4001843A106B2962392D70098C383D76500F5
:10180400A107172700002312F7AE8280BE86C28785
:0418140025BF0000EC
:101818009711002093810180176100201301017E38
:101828001305400097E5FF1F9385457D17060020A7
:10183800130606FE63FAC5008322050023A055009F
:1018480011059105E3EAC5FE17550000130505E4E7
:10185800970500209385C5FB1386818063FAC50030
:101868008322050023A0550011059105E3EAC5FE72
:1018780013858180972500209385C5C96377B500B6
:10188800232005001105E36DB5FEFD42739002BCEF
:101898008D42739042809302800873A0023097E2D1
:1018A800FF1F9382A27593E2320073905230971211
:1018B80000009382424F7390123473002030B717A0
:1018C800004003C777051377E70FA38BE7041307D7
:1018D80000F8A38DE7043D47238CE7041307500362
:1018E800A38CE7048280411122C406C62A84C92930
:1018F80037170040930670052300D704930780FA32
:101908002300F704010001000346F702136686006E
:10191800A307C7020346F7021376760FA307C70289
:101928000346E7021376C60F2307C7020346E702FA
:10193800136616002307C7022300D7042300F70401
:1019480001000100034637051376860FA309C70473
:101958000346370513661600A309C7042300D704F6
:101968002300F70401000100834737059166130639
:1019780080FA93E70702A309F70483570705D58F71
:101988002318F70493067005B717004003C73705F7
:101998001377070261C7130880C19305803E334857
:1019A80005039307500291682167138E08E813070F
:1019B80007D01143B71600409162FD18894E930F66
:1019C8007005130F80FAB345B5023308F802B387E0
:1019D800F502334EC5033348E802B3C7E70203C72D
:1019E8003605218B6DDF03D7060503C73605218B26
:1019F8006DFF03D70605336757002398E60403C72E
:101A08003605218B6DDF03D6060503C7260533F699
:101A1800C8003387E8023A963306C6416354C800C3
:101A2800634DF6047D131373F30F63080304131750
:101A380016003347F7026350C00405072380F605F4
:101A48002380E6053347D7030100010003D6C60209
:101A58003297420741832396E60251B72380D70481
:101A68002380C7040100010003C737051367070275
:101A7800A389E70421BF7D17D1B7B717004083C6F4
:101A8800370513873705A18AFDDA83D6070583D67C
:101A980007051166D18E2398D70493067005238015
:101AA800D704930680FA2380D704010001008347F6
:101AB800070093F7870F2300F70083470700C18FBC
:101AC80093F7F70F2300F7003717004083473705D0
:101AD800A18BEDFFB717004003C73705218B6DDFDA
:101AE80037460F00130606243345C50283D607057B
:101AF80083C7270511677D17F98E2166130606D05F
:101B08003307F7028567BA96138707FA33178700F2
:101B18003307A7021305803E938707C8B3D78740CA
:101B28003347C7023307A7023387E6409306605559
:101B3800B385D502B3C5C502B387E702B3C7B702F9
:101B48006354E0048507094793067005B3C7E702A5
:101B5800371700402300D704930680FA2300D704E0
:101B68009607010001008356C702B697C207C183D2
:101B78002316F7028347370593F7F70DA309F704F0
:101B8800B240224441018280FD1775BF41112A836A
:101B9800014E930E407E130F0019930F400663E425
:101BA8006E0E9308001913034006B3781503854E8B
:101BB8000D4FA14F337365020D891335150063EE80
:101BC800BE0E1308F6FF79467298420813580801AA
:101BD8003307C70213D61700BE0732976146B3F61C
:101BE800C60213068070B386C6023697A166F58FC3
:101BF80042075D8FB716004083C7F60293F70708C0
:101C0800A307F1000346F10083C7F60293F707081C
:101C1800E394C7FE8347F100B716004093F7F70F28
:101C2800FDC7B7170040930670052380D7049306B5
:101C380080FA2380D7040100010023AA070383C682
:101C4800170311667D1693E60608A388D702D45BAE
:101C5800C85F93854703A98EF18EF5FA9306700540
:101C68002380D704930680FA2380D704010001005B
:101C780098C103C7170313670704A388E7022380E3
:101C88000704410182807D133368E3039308E0165B
:101C9800630E08003368F3039308D016630808003E
:101CA8009378330093B818009388D81633081E0128
:101CB800131E0801135E0E01DDB56393E5030548A5
:101CC800638608000148630303002A887108729834
:101CD800FD15131E0801C205135E0E01C181C5B5AD
:101CE80013F8150063F4BF007908D5B71338180046
:101CF800E5BF83C7F60293F70708A307F100034679
:101D0800F10083C7F60293F70708E394C7FE8347F9
:101D1800F10093F7F70FF1DF29B7914763EEB702A8
:101D280017470000130747798A05BA959C41BA9767
:101D38008287B717004003A7470D1345F5FF698F42
:101D480023AAE70C03A7070D698F23A8E70C03A7AD
:101D5800070C798D23A0A70C8280B717004083A6B3
:101D6800470D1347F5FFF98E23AAD70C83A6070D55
:101D7800558D23A8A70C83A6070C758F23A0E70C05
:101D88008280B717004003A7470D498F23AAE70CA5
:101D980003A7070D1345F5FF45BFB717004083A6F6
:101DA800470D1347F5FF758F23AAE70C03A7070C08
:101DB800598D4DB7B717004003A7470D498FEDB7A9
:101DC800B717004003D58700420541819377050482
:101DD80091EB9377F5013755E801130505803345F5
:101DE800F50282809377050C130700046397E700D8
:101DF8009377F50137459C1CCDB72165130505D0B0
:101E08008280B7F700E08847CC478280B727004038
:101E1800C8C709472380E70011472380E70082806D
:101E2800B7870040238007001307C0FC2386E7001C
:101E3800A386E70003D781852398E70003D7C185E8
:101E4800239AE70003D70185239CE70003D7418540
:101E5800239EE70089462381D70249472383E70267
:101E68002385E7022387E7022389D702A381070096
:101E7800130790022380E700B716004003D7A60196
:101E88001367070C239DE6007D572383E70013079C
:101E980010F8A380E7001D472381E7008280B787F9
:101EA80000402382A70203C767021377C70F238363
:101EB800E7028280B78700402384A70203C7A702EE
:101EC8001377C70F2385E7028280B78700402386F0
:101ED800A70203C7E7021377C70F2387E7028280A9
:101EE800B78700402388A70203C727031377C70FC4
:101EF8002389E7028280797122D426D24AD04ECE35
:101F080052CC56CA06D61379F5001384C18185448C
:101F180093899180138A8180914A6310090222541F
:101F2800B25092540259F249624AD24A03C5018614
:101F38000146854545616F10A022B3779900A9C76E
:101F480083470A0003C7090023000400E58FD98FDF
:101F5800A384F1802312D4002301C400A300B40099
:101F680099E12300540136C632C42EC2EF10201660
:101F780083470400B2462246924593E7270008C4E7
:101F88002300F40033499900860493F4F40F3104D4
:101F980069B793771500938681809DCB85476391B8
:101FA800F502371600408327860C7D777D17F98F59
:101FB8002324F60C83C706005D8D2384A1808280CC
:101FC800371700408327870C0566D18F2324F70C29
:101FD800F5F183C706001345F5FF7D8DF9BF0111A3
:101FE80022CC26CA4AC84EC652C406CEAE899374BD
:101FF800F5001389C1810544214A89E8F240624409
:10200800D2444249B249224A05618280B3F784002A
:1020180089CFCE85639649018345090093C515008C
:1020280022852300B900A18CAD3706041374F40F80
:102038003109E1B7AA8711C909CA81CA93073006CD
:1020480063E3C7004DBD854559BF81453E85EDBF5A
:10205800A14763EFB7029746000093862647139778
:10206800250036971C43411106C6B697828793060A
:10207800803E154685457D3FB2400145410182803D
:102088009306803E154693052003F5B7893FEDB7C3
:1020980001458280371700408327870C41118566E8
:1020A80006C6D58F2324F70C8D450565BD318145BE
:1020B8003D4535379306E02E794695450545253D3E
:1020C800B240238601844101828083C7C18463931F
:1020D800071679714ECEC16922D426D24AD052CC85
:1020E80056CA5AC85EC662C406D666C26AC0138497
:1020F800C181014C3D498544138A9180930A400669
:10210800FD19130B4006930BF00FB3F72401E1C739
:1021180083470400898BD5CFEF00707B1C442A8D40
:102128006366F50E83460400834C240093F716007B
:10213800BDCB33079B41F99A81452685937CF70FE0
:102148002300D400B935034604009377460099EF7D
:1021580083461400638C7601FD1693F6F60FA300F0
:10216800D40089E6134626002300C40083470400F0
:10217800898BB1C303574400330797033357570379
:1021880093170701337737016A97C18318C463032C
:102198000C08A1C33E876373FC006287131C070108
:1021A800135C0C013DA093E61600854526852300A7
:1021B800D400C53365BF83450A002685E58DB33550
:1021C800B000793503470A0093C7F4FFF98FA38459
:1021D800F18033C92401860493F4F40F3104E31623
:1021E80009F2630B0C022254B25092540259F2497C
:1021F800624AD24A424BB24B924C024D6286224C02
:1022080003C50186854545616F009075898FC207B2
:10221800C183B5BF3E8C75BFB25022549254025947
:10222800F249624AD24A424BB24B224C924C024D7E
:1022380045618280828011456FF0EFEA41119396E3
:102248002500AA852D4506C697E0FF1FE780802B4D
:10225800B240014541018280411126C29394250074
:1022680022C44AC02A843289A686AA850146254501
:1022780006C697E0FF1FE780E028A6864A86A28563
:10228800294597E0FF1FE780E027B24022449244A7
:102298000249014541018280011122CC06CE371442
:1022A800004026CA4AC84EC652C483447405034A2D
:1022B800B4058349840503499405EFF04FE083474B
:1022C800A40593F4F40F137AFA0F93E71700230D7C
:1022D800F40493F9F90F1379F90FB717004003C7FE
:1022E800A705058B6DFF03D5C705A38D4705238C6F
:1022F8003705A38C2705A38B9704F2406244D24488
:102308004249B249224A05618280411193970501E9
:1023180022C406C6C1872E8463DA0700EF00D02DD9
:1023280019C1EF00B02A2165218D39A093F7150056
:1023380081CB613B13451400B240224441018280A5
:102348009397250163D00702EF105039ED3537F622
:102358000200130606E0896503C50186EF00506098
:102368000965D9B7939715010145E3D707FC13060B
:102378000064916503C50186EF00905E11656DB735
:102388001D7149469745000093858516174500003D
:102398001305452E86CE97E0FF1FE780405611E1D2
:1023A80001A0B7F600E0795798CAFD57DCCA05675F
:1023B800B7E700E023A0E7101306F00290C223A0BD
:1023C800E718010001001306C0038145480897E09B
:1023D800FF1FE780404D97F7FF1F9387E76F3ECABF
:1023E800896793870780231CF100ED472312F102C8
:1023F8009547A301F10285472303F102B54723045A
:10240800F102A167938707E03ECE97070000938704
:1024180027E3BEC497070000938747E4BEC68567D5
:10242800938717D02315F102970700009387A79D7C
:102438003EDAB7F5070097070000938727E63EDEE8
:10244800814697070000938747DF7000E10519452B
:10245800BEC097E0FF1FE780E00A58088147994609
:1024680070003E960346060085070507A30CC700C3
:10247800E398D7FED24791C70357810185676373F5
:10248800F70001A04808EF00F07611C101A0F6405E
:1024980025618280411117050000130545E706C62E
:1024A80022C4EF007071138401862300A400312830
:1024B800D536034504002244B24037F6020013061D
:1024C80006E0896541016F00B049411106C6B7179A
:1024D8000040130770052380E704130780FA238060
:1024E800E7040100010003C7F7021377A70FA387CA
:1024F800E70203C7F70213672700A387E7022380D1
:102508000704153B1305407E814701478146054670
:102518008545EFF0AFE7B240014541016F1060100B
:1025280093F7050191CBB7E700E03707400023A0F8
:10253800E71013C505018280411122C406C693F72E
:1025480025002E849DC39387C185884315469385AE
:10255800419B13050504EF30906A154589321345F0
:102568002400B24022444101828093F7150085C3BC
:102578009387C185884325469385419B13050504A8
:10258800EF30F0672545213A13451400D9BF93F77A
:10259800450085C71387419B9387C18583460700FC
:1025A8009C4309452380D70403471700A380E70409
:1025B800EFF0FF8E134544006DB793F785008DC388
:1025C8009387C18588430D469385419B1305050470
:1025D800EF30F0620D45EFF09F8C1345840051B742
:1025E800939735010145E3DE07F68947238AF19A77
:1025F800238BF19AA38BF19A93870185884315461B
:102608009385419B13050504EF30705F1545EFF086
:102618007F8A85651306003217F5FF1F0345851F5E
:10262800EF00103485653345B40025BF4111170507
:102638000000130525EF06C622C4EF00F05797F7F0
:10264800FF1F9387672423ACF1849387419323AEBC
:10265800F1849387019C17F4FF1F1304A41B23A87C
:10266800F184938701A42300A40023AAF184EFF046
:102678002FFB034504002244B2400146C1454101F5
:102688006F00102E81471386C18513F7F70F636417
:10269800A7006FF0DF8018423E9783460700850742
:1026A80093C6F6FF2300D704CDB78147138601856B
:1026B80013F7F70F6364A7006FF0CFFF18423E9738
:1026C80083460700850793C6F6FF2300D704CDB7D6
:1026D80081471386418513F7F70F6364A7006FF0EE
:1026E800CFFE18423E9783460700850793C6F6FF3C
:1026F8002300D704CDB781471386818513F7F70FD9
:102708006364A7006FF0CFFD18423E978346070425
:10271800850793C6F6FF2300D708CDB7B7870040D3
:1027280003C767001377F70F937627006388064679
:10273800011106CE22CC26CA4AC84EC603C7770066
:102748009306000313770703630BD70203C77700C9
:1027580091461377F7036303D72263E4E60A8546B5
:10276800630ED71A6301071889466303D71C8D4681
:102778006303D71EB787004009472383E7003787DD
:10278800004083477700E207E18763D4072E930769
:1027980020FC2301F7029386818588420347750050
:1027A8008347650022075D8F2395E18683471500DF
:1027B8002386F18603490500137609066300061E81
:1027C800DD170547636CF72862091359894181466B
:1027D8006352090283D7A186930600043E8763F4F7
:1027E800F6001307000442074183998F9376F70F89
:1027F8002395F186B78700402380D702130700FC92
:1028080095A493062002630FD71263E3E6029306AA
:1028180000026306D70493061002E31DD7F403C72A
:1028280067021377C70F136727002383E70299B757
:1028380093063002630BD71293064002E31CD7F2CB
:1028480003C72703134707042389E70203C727039E
:102858001377C70F136727002389E70221BF03C730
:10286800C18695466303D7069946631BD7069387A7
:10287800A18603D4070013070004BE84637487008D
:1028880013040004938781851389018788434204D0
:102898008325090041802286EF30703683D70400F3
:1028A8009379F40F818F2395F186832709003E944D
:1028B80023A88186B78700402380370303C72702F0
:1028C800134707042381E70275B503C7370083C69A
:1028D800A18613770708558FA381E7000947DDB75D
:1028E80023800702E5BF83C7870003C7C186A547C2
:1028F800E312F7E8938781859C432946A14583C75E
:10290800170003C501AC13F717008583858B238651
:10291800E180A386F180EF00B004A9BD03C777006A
:1029280013770704E30807E403C58700A13B99B5BB
:1029380003C7770013770704E30E07E203C5870090
:10294800AD330DBD03C7A7021377C70F1367270061
:102958002385E70205B503C7770013770704E30B60
:1029680007E003C58700AD3331B503C7E702137726
:10297800C70F136727002387E702EDBB03C777005C
:1029880013770704E30807DE03C72703134707087D
:102998002389E70203C58700B93BE9BB2946636F72
:1029A800F60A174600001306E6B58A07B2979C4355
:1029B800B297828783473500834625000946A207D8
:1029C800D58F93D68700638DC60A6369D60085477D
:1029D800638BF6021304F00F814735A88D45638B8E
:1029E800B60A93072002E397F6FE834745006396ED
:1029F800070E974700009387A7B323A8F1860144E1
:102A08009307100D09A897470000938767C323A869
:102A1800F1860144C947C207C18363F4E7002395DF
:102A2800F1869387A18603D607009307000463F411
:102A3800C70013060004938901879314060183A530
:102A48000900C1802686EF30901B03A60900269650
:102A580023A8C1869307F00FE318F4D6B787004080
:102A68001307F0FC2381E702B78700400947238357
:102A7800E700F2406244D2444249B249056182808B
:102A880097470000938707B823A8F1860144930766
:102A9800900351B793F7F70F8546638ED7008DC71C
:102AA800E39AC7F2974700009387C7BB23A8F1862C
:102AB8000144C1478DB7974700009387A7B923A85A
:102AC800F1860144B94781BF974700009387C7BB88
:102AD80023A8F186014491473DBF01449307F00FB5
:102AE8001DBF834725002395F186F9B983C78186E1
:102AF8002300F50003D7A1868547E3F7E7CC854790
:102B0800DDB7834725002384F1867DB91377F90162
:102B18008947E315F7F4834745006381E704636C4D
:102B2800F7000547E39CE7F23787004083476702D1
:102B380093F7370799A0130710086388E70213076C
:102B48002008E39DE7F0378700408347A70293F703
:102B5800C70B93E727002305F702BDB1378700406D
:102B68008347A70293F73707FDB7378700408347A6
:102B7800670293F7C70B93E727002303F702A9B16E
:102B88002300050085BF230005009C42A3800700A1
:102B980003D7A1868947E3F9E7C2B1B7937617004F
:102BA8008DC2A381070009472381E7024947238390
:102BB800E7022385E7022387E70205472383E70027
:102BC800828093764700FDDA03C7570009831347CD
:102BD8001700058B2385E1801147CDB78D47630A20
:102BE800F50091476304F50A89476315F50A6F20D4
:102BF800402DFD1593F5F50F854763FDB70803478D
:102C08001600A54763E8E70803472600411106C6F2
:102C18009307A007631CF70097D0FF1FE780206C7D
:102C2800B24003C501AC91454101D9A9930580077C
:102C380081479386419B6310B70223A80180CDB7D3
:102C48003307F600834527003387D700850723001D
:102C5800B70093F7F70F03471600E3E3E7FE03C750
:102C6800A1808547E31EF7FA83C5419BFD15B3157F
:102C7800B70093874181AE97C205C18117F5FF1F41
:102C8800034545B92380E700A52959BF914503C5E8
:102C980001AC61BF828041119397050122C406C629
:102CA800C1872E8463DB0700812A11C105222165B3
:102CB800218DB24022444101828093F7450099CF8B
:102CC800EF2020209306F00F1306F00F8945138597
:102CD800C180EF10B02613454400E1BF93F785008B
:102CE8000145E1DBEF20E01D9306F00F1306F00F1E
:102CF80089451385C180EF1070241345840055BFA2
:102D080079711306000281450A8506D697E0FF1FF0
:102D1800E78060B917050000130525F8712D238099
:102D2800A1ACB7477671938797123EC4B757550041
:102D3800938757553EC6B7B72400938787283EC266
:102D48008567938717842310F100970700009387FE
:102D580027E93EC80A85ED57230EF100EF10C05F42
:102D68009306F00F1306F00F89451385C180EF1005
:102D7800F01C3D65130505A6EFF04F893727004085
:102D88008347270093E717002301F700B7E700E020
:102D9800416723A0E71051472388E740B2504561B7
:102DA800828041111305800406C697D0FF1FE78073
:102DB8004031EFF0EFDCEFF0EFEDEF20A045893781
:102DC800EFF0DF8697D0FF1FE78080671DC183463D
:102DD800E5FF1307F00F9147639EE600411106C611
:102DE80097F0FF1FE7802094B24081473E8541015C
:102DF800828095473E858280170700201307C74DBC
:102E08001C43411122C426C24AC006C601440149D6
:102E1800BA8489E7A1652D211DC401A803C7E7FF6E
:102E2800631AA7020DCCA165E12C9840832784FF83
:102E38006319E402170700202320F74AFD57232CC3
:102E480004FE230FF4FE2285B24022449244024934
:102E58004101828011E03E8983A787FF5DBF3E84E0
:102E6800E5BF232CF9FED9BF9707002023A6074604
:102E78008280970700209387A74B9C4399E33E8560
:102E8800828003D727006316B70003C70700E3084B
:102E9800A7FEDC47E5B7C9C1797122D406D626D288
:102EA8004AD04ECE01444147B3D78540858BA5C350
:102EB8001205314722953305E502970700209387CD
:102EC800274B03A907008544B3948400C204C1803A
:102ED800BE892A990327090011C7032549002EC670
:102EE8000297B24531473304E40283A709003E94B0
:102EF8001C4489E72320090023220900B2502254E8
:102F0800A58D02599254F2492E85456182800504A7
:102F1800E31CE4F88144DDB72E85828041111397C4
:102F2800050122C406C626C24AC041872E84635EB4
:102F38000700D93511C1593DA1673D8C2285B240A2
:102F480022449244024941018280EDD9AA8701476F
:102F58004146B356E440858A8DCE9207BA97B1466A
:102F6800B387D702970600209386864003A90600F8
:102F78008544B394E400C204C1803E9983270900C4
:102F88000325490082972320090023220900258C64
:102F980075B70507E31FC7FA8144D5BF011168005B
:102FA80006CE22CC26CAEF005000FD576300F50E6E
:102FB8003247970600209386E6379707002083C795
:102FC800B738B68463F9E70A1704002013040431FC
:102FD80018483706C0A8630EC702970700209387D2
:102FE800A7399C43829732471C486373F700BA8716
:102FF8001707002003475735998F3E95838764014B
:1030080063CE0700B707C0A8636AF500B707405743
:10301800A5A88386660163D506061D8D17040020C2
:10302800130484361C4C81CF970700209387C73B35
:1030380094433707CDFF7D179C46F98F9CC619E14D
:103048003705C0A8970700209387C72EDC538297BF
:1030580019E51C4C8DC3EF00D07BEF00F0231C4C0E
:1030680099CB97070020938727389843B7063300F2
:103078001C47D58F1CC7F2406244D2440561828048
:10308800E37DF5F8B307F7403E9549BF9704002064
:103098009384C4249C483704C0A8E38E87FC970710
:1030A80000209387672D9C4382979C481707002030
:1030B80003479729998F3E9597070020938787277D
:1030C80083876701E3CC07F4E36A85F481B7970740
:1030D80000209387272A9C43411122C406C617045F
:1030E80000201304A41F81CB82975C483E95970764
:1030F800002023AFA71E4848B240224441018280E5
:103108009707002083C7971D6371F50217070020F2
:103118001307C7219317150008433E9583570500E9
:10312800DD8D2310B500014582800D45828097070B
:10313800002083C7B71A6373F50217070020130727
:10314800E71E93171500084393C5F5FF3E9583576F
:103158000500FD8D2310B500014582800D45828054
:103168009707002083C797176364F500014582809D
:1031780097070020938747209C43EDDB011122CC61
:1031880026CA4AC84EC606CEB2892E89AA84829714
:10319800170400200354041733043403930700640E
:1031A800130404323354F4029707002093878718D6
:1031B80003876701BE892A9463490700B707C0A837
:1031C8006365F400B70740573E94CA852685553194
:1031D80001C500C5054515A093E504F0C205C181E8
:1031E800414597E0FF1FE780E04619ED83A70903F3
:1031F80081C7A685114582970145F2406244D244B1
:103208004249B24905618280970700209387471297
:103218009C439DE39707002023ACA71085472326EE
:10322800050000C52311250123009500A300F50022
:103238002322050045B7BA87D84775FFC8C7F9BF25
:10324800411122C426C24AC006C62A892E841531D5
:10325800AA8419C123110500A2854A85C93D97078B
:10326800002083C7A707639B27019707002083D700
:10327800A70B5D8C970700202398870A014591E0EA
:103288001945B240224492440249410182804111C9
:1032980006C69707002023AFA70C0295B2409707F0
:1032A800002023A9A704014541018280994763E9C9
:1032B800B7008A059707002093874705BE9588C100
:1032C80082804111714681451705002013050504C8
:1032D80006C622C426C297D0FF1FE780C05C13062B
:1032E800C002814517050020130545FF97D0FF1F31
:1032F800E780605BEF20B0729707002023AA0702DF
:103308009707002023A807069707002083C7F7031D
:1033180013D527008D8B3E958D473305F50217048D
:1033280000201304A4FB9947854597040020938443
:10333800A4FD39051375F50F2301A4003305F50223
:103348001305052497E0FF1FE780C030970700208A
:1033580023A0A702834724001305052488C08A07F1
:103368003E959707002023A3A7FCFD3CBD2E83476D
:103378001400944017060000130626B2139727007E
:10338800369710C3138717001377F70F0A07369776
:10339800170600001306C6B810C31387370089073D
:1033A80093F7F70FA300E400B24022448A07B697C8
:1033B80090C39244410182809707002083C717F287
:1033C800170700200347A7F163F3E7021707002058
:1033D800130787F318439386170017060020A30FD7
:1033E800D6EE93962700369708C33E8582809307CA
:1033F800F00FE5BF1C416387071641777D8FB7063D
:10340800002089476311D71603574500630D071439
:10341800411126C21946AA849305F00F690506C60C
:1034280022C497D0FF1FE780205205478D476305C8
:10343800E512170400201304E4EF1C4481CB58580C
:103448009947631B0710185C631807101306C0031D
:103458008145170500201305E5ED97D0FF1FE7808C
:1034680080441306C003A68517050020130585ECC4
:1034780097D0FF1FE780A03F9707002083D747EC2E
:1034880099E79307001017070020231BF7EA97070F
:10349800002083C707EB91E7854717070020230221
:1034A800F7EA9707002083D7E7E991E7ED47170781
:1034B80000202319F7E89707002083C797E891E7CA
:1034C800954717070020A30EF7E69707002083C744
:1034D80087E791E78547170700202306F7E6970750
:1034E800002083C757E699E78347F40017070020B1
:1034F800A30BF7E49707002083C707E591E7B547D3
:10350800170700202302F7E49707002083C717E472
:1035180099E79307800217070020A309F7E29707A6
:10352800002083C777E299E79307D00217070020A6
:10353800A30CF7E083C7840199E79307C003170733
:1035480000202305F7E01C5491C7829797070020B5
:10355800239AA7D8BD338147B240224492443E857E
:103568004101828089473E858280970700209387A2
:10357800A7E09C43411106C6829793070064B307EE
:10358800F5029706002083D6E6D717070020130711
:10359800E7D4184F0145B3D7D7026300F702338544
:1035A800E7406368F700370500B03355D502198D39
:1035B8003E9517070020232FF7D2B24041018280A1
:1035C80097070020938707D7985739CB411122C412
:1035D80026C206C6BE84029717070020035787D065
:1035E8002A8415CBBA876373A700AA87C207C18349
:1035F800BA866373E400A286C206C182958F5147DA
:10360800635BF700DC5491C38297EF00300D970796
:103618000020239987CCB240224492444101828001
:103628008280970700209387E7D0DC57011106CEE8
:1036380081C72AC68297324515C5B7873200938756
:1036480027A117070020232FF7CA9707002023A5D3
:10365800A7D217050000130585F11539F240014579
:10366800056182809707002083C727CE13978701BB
:103678006187635C07029707002023AF07C6B787F7
:103688003200938727A117070020232DF7C67D57FF
:10369800B7C7004023A4E72697D7FF1F9387C761C2
:1036A80017070020232AF7CC6DB713F7170011CF9F
:1036B800B7872003938707D0170700202324F7C470
:1036C80097D7FF1F93876762E1BF6177970600204E
:1036D800239AE6C281CB93070032170700202314F0
:1036E800F7C2F9BF93072003CDBF011122CC1704FD
:1036F8000020130424C4084406CE26CA4AC801E997
:103708000545F2406244D2444249056182805C58D2
:10371800E5DB185C75D77000854582971844B24779
:10372800E300F7FE9305E00417050020035545C1A3
:1037380097E0FF1FE78000F2170700202320A7BCAF
:1037480061D1170600200356A6BF9305F00F97D046
:10375800FF1FE7804015814417090020130909B8A5
:103768009707002083C7E7BD0326090263C1F40257
:10377800328597E0FF1FE78000FB0145970700208F
:1037880023AE07B69707002023AC07B69DBF970561
:10379800002083D5E5BAB38795020844185C89816F
:1037A80085043E9508C2029765BF9707002083C726
:1037B80017B36382071841114AC006C62A8922C472
:1037C80026C27D55630C090E97070020938707C30F
:1037D80083A6C708E5C6970400209384A4B5838808
:1037E800640137450F00130FF52317030020035317
:1037F80063B1970F002083CF6FB57D54854E1305B5
:103808000524370EC0A89D429303204EB7004057A9
:1038180003C7B60083A70609631AD70703D7E607C5
:1038280003D6A6036378C70A83C506016394D50B3C
:1038380083A58611C5E183A5460AC9ED83C5F600AF
:10384800639A550883D58603198E03A74609B3855D
:10385800C50233466502B385750233D7E502B3D591
:10386800C5027E97420741832392E6083386F50016
:1038780063C508006363C6010696B3076702FA9733
:10388800B3D7A70263D20804B307F64063F38700EF
:103898003E849442B5FE970700209387E7AD9C438A
:1038A80082976368A404B307A4402320F900832700
:1038B80009002947636FF70423200900B240224416
:1038C8009244024941018280E370F6FCB307FE404E
:1038D800B2976DBF03D74608330767027A97335705
:1038E800A70263D40800998F55B7E3FEE7FEF29765
:1038F800DDBFB307854063DB070083876401E3C44A
:1039080007FAB707C0A8A297898F45B723200900EF
:1039180079BFD9172320F9008387640163D507008D
:10392800130564FF61BFA547E3EC87FE3705C0A810
:103938005915229561B77D5582804111970700205E
:103948009387C7AB26C2970400209384A4A522C4FA
:10395800E05B9C4006C64AC098430D8B05C3B84B34
:10396800619BB8CB98431367870098C39C438D83AA
:10397800858B89C70100010001000100970700201D
:10398800938707A0944337C7898E130767ED98C6B6
:103998003757550013075755D8C2034724029306D3
:1039A800F00F3E896307D700FD57A300E402230107
:1039B800F4020345140289476303F5000145984062
:1039C8005C4393E717005CC3930710FA2305F400E0
:1039D8009707002083C7D79B81CF1707002003478D
:1039E800279B95476316F70097070020A382079A3D
:1039F800170700200347B7999D476318F7009307F7
:103A08007010170700202315F7989547170700200F
:103A1800A30FF7960146970700202387079693057B
:103A2800F00F9707002023830796B9249040970743
:103A38000020A38D079497070020A3870794854744
:103A48001CC283270900B705330098431377F7E7AB
:103A580098C398431377F7E71367071098C31707B6
:103A680000201307679818431447CD8E14C7930690
:103A7800900D34CA5457F59A54D703479400937657
:103A8800F7079843137707F8558F98C3B240224435
:103A98009244024941018280170600201306468E8F
:103AA8001C42B7068000B71501809843938585E7C7
:103AB800558F98C39843B7060010558F98C31307BE
:103AC800001DD8DB170700200347078893169701C6
:103AD800CD8ED4D7D457B70500821377F703FD15D9
:103AE800ED8E6607558FD8D73717004093077005B6
:103AF8002300F704930780FA2300F70497060020B1
:103B080083C68684B54763FBD7028357270293E7AA
:103B180007012311F7021842B707090093873708EE
:103B28001CD337E700E0D147A309F70497D7FF1F55
:103B38009387471D93E717007CD782808357270216
:103B4800C207C183BD9BC207C183E1B797070020A5
:103B5800938747839C4399CB944BD04B9842518F82
:103B680098C294439C479842D98F9CC297070020DB
:103B780093870781170600201306C68293762500CF
:103B88009843032806009707002083C78780C1C68B
:103B98001443F578FD18B3F616010963B3E6660019
:103BA80014C3D1769388F6FF14438E050D4E938582
:103BB800B50293876723B3F61601631CC503116525
:103BC800C98E14C335673D072326E8000F1000008F
:103BD8001842930600F886052324670017F6FF1F8E
:103BE8002306D67ABE958605BD676CD3BD075CC72C
:103BF800828014C335673D072326E8000F100000B4
:103C08001842930600F82324670017F6FF1F230FB6
:103C1800D6768E05C1BFF5769388F6FF14430589DD
:103C28009387E709B3F6160105C514C335673D0741
:103C38002326E8000F10000018428966AD0514C756
:103C4800930600F817F6FF1F2302D6748A0559BF9A
:103C58000565C98E14C335673D072326E8000F1094
:103C6800000018428966A90514C7930600F817F6DC
:103C7800FF1F230DD67071BF97F7FF1F93878770BB
:103C88009C4389CFD44303A8870098423367070130
:103C980098C2D447DC4B9842D98F9CC297F7FF1F34
:103CA8009387076E137725009C4335C39843F576B1
:103CB800FD16758F8966558F98C337070900130756
:103CC800670898D3372737001307F72D98CB37277E
:103CD80030084517D8CB371703001307976198CFDB
:103CE8000D671307E78D98D737670001130707316A
:103CF8009E05D8D39385453697F7FF1F23ACB76841
:103D080011C6060697F7FF1F23A6C76882803707E4
:103D180009001307370898D3372710081307179097
:103D2800D8CB371703001307476298CF0D671307DF
:103D3800E78B98D73767000113070731D8D3757712
:103D48009306F7FF984305489505758F631C050191
:103D580098C337272D001307072D98CB8E05938519
:103D6800C50359BF8566558F98C337273700130792
:103D7800072D98CB9205E5B797F7FF1F83C75761C3
:103D88008DE717F7FF1F034797609307B7FF93F770
:103D9800F70F894663EBF60097F7FF1F238AE75E64
:103DA800854717F7FF1FA305F75E8280411106C6F6
:103DB80017F7FF1F0347C75D9D476311F70497F780
:103DC800FF1F83C7675E858B17F6FF1F0346F65FE5
:103DD80097F6FF1F83C6665FB5C797F7FF1F9387E0
:103DE800A75EC84325C1834515000905EF001015D6
:103DF80011C5854717F7FF1FA30CF75817F7FF1FC3
:103E0800034707599547631BF70097F7FF1F9387E9
:103E1800E75EFC5B83C7B7008DCB053617F7FF1F3E
:103E28000347075799476312F70297F7FF1F9387CE
:103E3800E75C83A7470883C7770081CBB24041017D
:103E48006F2060458145014555B7B24041018280E8
:103E580017F7FF1F130707551C4394438D8A85C224
:103E6800B44BE19AB4CB944393E6860094C39C4345
:103E78008D83858B89C7010001000100010097F738
:103E8800FF1F9387E74F94439C4293F7F7E793E725
:103E980007089CC297F7FF1F938707559043B706FB
:103EA800CEFFFD161C46F58F1CC61C4313070008E1
:103EB800B8CB97F7FF1F9387E74C9C4399CBD44324
:103EC80090479842518F98C2944BDC4B9842D98FB7
:103ED8009CC297F7FF1FA38C074A828097F7FF1FA2
:103EE8009387874A9C4FDDC7411106C622C426C264
:103EF8004AC0052217F9FF1F13098948EF10E03956
:103F0800613E83270900F576FD16984397F4FF1F55
:103F18009384844D17F4FF1F1304C448758F98C306
:103F28009843B70633001377F7E798C39843137796
:103F3800F7E71367071098C398401C47D58F1CC72D
:103F48001C401307D00DB8CBEF100058EF202029E4
:103F5800EF10E04BEF10A053032709001C4393F721
:103F6800F7E793E707081CC394403707CEFF7D1790
:103F78009C46F98F9CC61C4013070008B8CBED3B44
:103F8800B240224497F7FF1FA38307409244024997
:103F980041018280828097F7FF1F23A5073EB7C79C
:103FA80000401387073097F6FF1F23A9E63C1387C5
:103FB800072097F6FF1F23A7E63E9387071037D7FA
:103FC8000040411197F6FF1F23A0E64217F7FF1F95
:103FD8002328F73A06C617F7FF1F1307E73A85475E
:103FE800A303F70097F7FF1F9387C7349C431CCFA1
:103FF800938707115CCBDD35B7E700E03707100082
:10400800B24023A0E7103707200023A0E7104101A2
:10401800828097F7FF1F9387E7389C431307C008F0
:1040280093066007D8CBD4CFD8D31306C003D0D714
:10403800D8DBD0DFF8C317F7FF1F1307E734184F93
:10404800F4C7F8DB41677D1798C73D673D07D8C7B8
:1040580037E700E0D5472309F70497D7FF1F938771
:10406800271E93E717003CD7828097F7FF1F938797
:10407800A737944397F7FF1F938787309C4363873D
:10408800051037B724001307F7E96366A7089843B4
:10409800137707F81367570298C313F7150001CB76
:1040A80093F5050341476390E50E13050583D8563C
:1040B800370810FE7D1813672700D8D64167130705
:1040C80007A03356E5023375E5021307A00F7D8A72
:1040D80093154601F042337606014D8EF0C237063D
:1040E800FCFF2A053355E502F842718F3A053981FC
:1040F800598DE8C217F7FF1F0347072B098B19CB08
:1041080098431377F707936607049843137707F8DC
:10411800558F98C38280370725001306F7486363D5
:10412800A6023767DBFF130707932A971306007D5C
:104138003357C7027D1790431377F707137606F8AE
:10414800518F99BF130707496318E5009843137700
:1041580007F81367670289B737D725001307F7777A
:10416800636DA7003767DBFF130707932A971306CA
:10417800007D3357C70279177DBF9843137707F837
:104188001367770211BF130585C115B7D856137584
:10419800F507759BD8D69843137707F8598D88C3C8
:1041A80091BF411106C697F7FF1F238607224D319D
:1041B80001458145EFF08F8FB24001454101828072
:1041C80097F7FF1F9387071E9843797117F5FF1F0D
:1041D8000345851D22D426D206D64AD04ECE9376E4
:1041E8001500BE8417F4FF1F1304041A638C06120B
:1041F80083472400858B638407101185014697F552
:10420800FF1F83C5251C0D8997F7FF1F238F0716EE
:10421800A53497F5FF1F83C5251991851306F00F5F
:104228008D89054597D0FF1FE78020D39D3F17F95B
:10423800FF1F1309691783270901014681450545B1
:10424800829783473400CA89858BC1CF084C97F77A
:10425800FF1FA38C0712814581461306F100A307AF
:10426800010097F7FF1F2383071297D0FF1FE780EE
:1042780020C293158501E1858DE11C4C9306F00F52
:1042880003C70700630BD70097F7FF1F83C7D71330
:104298006385D7006303F70089458387090063C7EF
:1042A80007001C4C0347F1002380E70083A709019E
:1042B800104C93F5F50F0945829797F7FF1F83C7B1
:1042C8006711898B81CB854517F5FF1F0345C510FD
:1042D800EFE01FE3B250225492540259F24945616B
:1042E80082809C40FC53FDF797F7FF1F2380070A45
:1042F800832709010146814549458297E1BF7C53DF
:10430800E39607EE793DEFF0AFAB97F7FF1F238FEA
:10431800070697F7FF1F938727099C4B014681459E
:104328004545E1BF83473400858B9DC39D3D97F785
:10433800FF1FA38C070497F7FF1F2389070497F72C
:10434800FF1F938767069C4B01468145054575B756
:104358007C53E9FBB93555BF1C49638C07104111E3
:1043680022C406C6834705002A8493F7070481C739
:104378005C410945FDCB13060002814517F5FF1F77
:104388001305850297C0FF1FE780E051A285130639
:10439800000217F5FF1F1305250197C0FF1FE780CF
:1043A800004D97F7FF1F83C7B70117F4FF1F1304CA
:1043B800A4FF99E79307800217F7FF1FA302F700EE
:1043C80097F7FF1F83C7E7FF91E7A14717F7FF1F7D
:1043D8002309F7FE97F7FF1F83C7B7FE91E7C54785
:1043E80017F7FF1FA30FF7FC97F7FF1F83C787FD7A
:1043F80091E7ED5717F7FF1F2306F7FC97F7FF1F05
:1044080083C757FC91E7ED5717F7FF1FA30CF7FA7F
:1044180097F7FF1F938747FBC84309C597D0FF1F2E
:10442800E780603097F7FF1F23A207FA834704004D
:10443800858B85C317F5FF1F0345D5F893059004B1
:10444800090597D0FF1FE780E02097F7FF1F23AFEC
:10445800A7F683471400014517F7FF1FA30DF7F6CA
:104468001C4417F7FF1F232BF7F6B24022444101E3
:10447800828005458280797122D417F4FF1F1304C6
:10448800A4F21C4406D626D24AD04ECE52CC56CAE6
:104498005AC85EC662C466C26380072A17FCFF1F3B
:1044A800130C0CEE03270C0017FAFF1F130ACAF3AC
:1044B800B68A1C4397F9FF1F9389C9EE17F9FF1FA6
:1044C800130989F093F7F7E793E707081CC38326D6
:1044D8000A003707CEFF7D179C46AA8BAE84F98F5A
:1044E8009CC683A7090013070008328BB8CB834703
:1044F800C900BD4C898B6390071E03270C005C57CD
:10450800F19B93E717005CD78347C900898B6383C6
:10451800071E814517F5FF1F034515E9B93683279F
:104528000C003706330098431377F7E798C398438E
:104538001377F7E71367071098C383260A0098468E
:10454800518F98C603A709009306A00D34CB97F6A0
:10455800FF1F83C666E513F606046306061A4C4079
:104568003796DBFF13060681B29561661306066A65
:10457800637BB6181306800C70D31044858A90C7E5
:104588005044D0C354C38347E90093E7270017F783
:10459800FF1F2302F7E497F7FF1FA38757E397F757
:1045A800FF1F238367E397FAFF1F938AEADD03A5BA
:1045B8004A01638D0B1423006501A300950026862C
:1045C800DE85090597C0FF1FE780602A83A70900D9
:1045D80003A74A018145170500001305A5BEB8DBEE
:1045E80097F7FF1FA38307DA97F7FF1F238007DAE0
:1045F800EFE0DFCBEFF04FF88D4717F7FF1FA30869
:10460800F7D88347C900898BA9C703A709007C533A
:10461800FDFF97F7FF1F938727D69C43829717F7CD
:10462800FF1F130727D103076701832789006352F8
:10463800070E1D8D034704000D8183A74A01218BB6
:104648006DC33707800062051307F72F598D88C39C
:10465800894497F5FF1F83C525D591850145268691
:104668008D8997D0FF1FE780408F03270A000145F7
:104678005C578583858BB9C35C40C165938505A06C
:10468800938787C1B3D6B702370810FE7D18B3F7F2
:10469800B702FD8A139646017443B3F60601D18E1C
:1046A80074C39306A00F3706FCFFAA07B3D7D70237
:1046B8007443F18EBA07B983D58F7CC3B2502254A4
:1046C80092540259F249624AD24A424BB24B224CA6
:1046D800924C4561828097D0FF1FE780A0DFE3FC02
:1046E800ACFE97F7FF1F83C7C7CD9607C117E3E452
:1046F800A7FE21B58347040093F70704E38B07E07F
:104708008945484021BD1306000ABDB5232065012F
:1047180075BDE370F5F23707C0A8B307F7403E95BB
:1047280011BF890493F4F40FA3809700A697238000
:104738000700A380A70031BF054549B797F7FF1FBA
:104748009387C7CB83A7870991CF05458280054505
:10475800F2406244D2444249B249224A924A024B48
:1047680005618280011126CA97F4FF1F9384C4C390
:104778009C4406CE22CC4AC84EC652C456C25AC021
:10478800F9D717F9FF1F1309E9C1832709009843CF
:104798000D8B05C3B84B619BB8CB98431367870053
:1047A80098C39C438D83858B89C701000100010054
:1047B800010017F4FF1F130424C18347C400B68AFD
:1047C800328B918BAE892A8A89EB97F5FF1F83C5B7
:1047D800A5BD93F70504639C0714814517F5FF1FD2
:1047E800034595BCEFF07F8817F5FF1F0345C5BB50
:1047F8001185014697F5FF1F83C5C5BC0D89EFF0EC
:10480800AFC717F7FF1F1307A7B794441C4394C7F4
:10481800D444D4C383C7040083260900BA84858B93
:10482800DCC297F7FF1FA38267BB97F7FF1F238E92
:1048380057B9DC42858BB1CF5C4085E317F5FF1F84
:10484800034555B893059004090597D0FF1FE780E5
:1048580060E097F7FF1F23ABA7B65C40E38907EE3C
:1048680017F7FF1F034767B62380E7005C4063061E
:104878000A0C6384090CA380370148404E86D28510
:10488800090597C0FF1FE78080FE8327090058406D
:10489800B8DBEFF06FCE8347E40093E7470017F7E4
:1048A800FF1F230AF7B29307000417F7FF1F230D12
:1048B800F7AC97F7FF1F238B07AC9D4717F7FF1F30
:1048C800A307F7AC97F7FF1F9387C7A69C5791CB11
:1048D80013060064C14517F5FF1F0345E5AFEFE078
:1048E8003F8897F7FF1FA38307AA8326090097F736
:1048F800FF1FA38B07A8984085479CC21C43370617
:104908003300014593F7F7E71CC31C4393F7F7E718
:1049180093E707101CC397F7FF1F9387E7AC9843EB
:104928001C47D18F1CC79307900DBCCA15B593F5CA
:10493800050393E51500C84075B5A3800700B1B716
:10494800797126D297F4FF1F938404A683C70400C5
:1049580022D406D64AD04ECE52CC858B17F4FF1FF0
:10496800130484A26384073083470400858B63861D
:10497800072C97F7FF1F938727A79843A3070100E2
:10498800032984015C578583858BA1C3DC40C165FD
:10499800938505A0B3D6B702370510FE7D15B3F78A
:1049A800B702FD8A139646017443E98ED18E74C30B
:1049B8009306A00F3706FCFFAA07B3D7D7027443A4
:1049C800F18EBA07B983D58F7CC381461306F100EF
:1049D80081454A8597F7FF1F2388079A97C0FF1FCD
:1049E800E780004B131A8501135A8A4163120A02A1
:1049F80097F7FF1F83C7779D9306F00F638AD70049
:104A0800184C034707006305D7006303F700094AFA
:104A18008387040097F9FF1F9389099B63CA0712CC
:104A2800631A0A128347F1002300F90083C7C900FB
:104A3800918B95C783471900CA9703C70700930747
:104A48000008631EF7005C481307F00F98C383C77C
:104A5800040093E7870017F7FF1F2307F79497F7DA
:104A6800FF1F9387E7919C43B70680009843558FB3
:104A780098C3D857719BD8D783A7490017F5FF1F4C
:104A880003458592118583C517000D89EFF00F8CBA
:104A980097C0FF1FE780E03BEFF08FBB97F6FF1F43
:104AA80083C6469393F74600638B071417F7FF1FD7
:104AB80013074788030667011C48635D060CF11756
:104AC80017F7FF1F232AF78C1C4803A78900635B8D
:104AD800060C3387E7408347190093958601E185E3
:104AE800CA9783C717008E0763DD050C63F2E70CCE
:104AF8001D8F9306000263EBE6001848635D060A03
:104B0800B307F74017F7FF1F2324F78C894517F5DC
:104B1800FF1F0345658CEFE0AFDE83C70400A18B60
:104B2800F1CB03A5490017F6FF1F0346168A97F62F
:104B3800FF1F83C6868945CD834515000905FD3EBF
:104B480083C70400DD9B17F7FF1F230FF7841DA8F9
:104B5800E30E0AECEFF0CFAF104C9C480D4593756F
:104B6800FA0F829703A5490017F6FF1F0346F6853B
:104B780097F6FF1F83C666856302052683451500E1
:104B880009056D3EB250225492540259F249624AC4
:104B9800456182800D47E364F7F23707C0A87117B3
:104BA800BA9739BFE3F7E7F2B705C0A8AE9715B7CC
:104BB8003387E7403DBFE375F7F4B706C0A83697DB
:104BC80081B71848635F0600B307F74093E606F815
:104BD80017E7FF1F232EF77E97E7FF1F238CD77E4B
:104BE80035B7E373F7FE3706C0A83297F1BF8145A2
:104BF8000145B1B783471900F917A300F900EFF091
:104C08004FDA9C48104C81450D4582978347140024
:104C1800858B99CB97E7FF1FA38807769C480146A9
:104C2800814511458297B9BF97E7FF1F2380077613
:104C38009C48014681455145F5B7EFF0EF9397E75A
:104C4800FF1F9387E7739843B70680001C43D58FEF
:104C58001CC3EFF00FD597E7FF1F9387A76D9C5BE9
:104C680089458DD313051008829729BF83471400FF
:104C7800858B6381072297E7FF1FA38707700329A6
:104C88008401EFF00FD297E6FF1F83C6A67493F74F
:104C98004600638A071A83471900CA9703C70700A3
:104CA80093070008631AF70083C7040093E7870097
:104CB80017E7FF1F230AF76E17E7FF1F130787671A
:104CC800030667011C48635E0610F11717E7FF1F0C
:104CD8002324F76C1C4817E7FF1F1307E76E1847D4
:104CE800635906103387E740834719009395860177
:104CF800E185CA9783C717008E0763DB051063F049
:104D0800E7101D8F9306000263EBE6001848635B0B
:104D1800060EB307F74017E7FF1F232BF76A8945ED
:104D280017E5FF1F0345456BEFE08FBD83C7040000
:104D3800A18B6385071097E7FF1F9387A7669443A6
:104D48009307800C1307F00FFCD25C48370633003A
:104D5800014598C397E7FF1F2389076297E7FF1F5D
:104D6800A385076297E7FF1F2382076297E7FF1F64
:104D7800A38E076097E7FF1F9387876098431C43BC
:104D880093F7F7E71CC31C4393F7F7E793E707107C
:104D98001CC397E7FF1F93872765984397E5FF1F75
:104DA80083C5856091851C478D89D18F1CC7930762
:104DB800A00DBCCA054697C0FF1FE780001A83C72D
:104DC800040097E6FF1F83C6466017E6FF1F0346E9
:104DD800D65FDD9B17E7FF1F2308F75C8145014578
:104DE8004DB30D47E363F7EE3707C0A87117BA97BD
:104DF800F1BDE3F9E7EEB705C0A8AE97E5B533878F
:104E0800E74009B7E377F7F0B706C0A8369711B7B8
:104E18001848635F0600B307F74093E606F817E7FC
:104E2800FF1F2327F75A97E7FF1F2385D75AC5BDCA
:104E3800E373F7FE3706C0A83297F1BF834719001E
:104E4800F917A300F900084C9306F00F014903472E
:104E58000500630BD70097E7FF1F83C717576385C4
:104E6800D7006303F700094983870400814663D0AC
:104E780007020146814597C0FF1FE780600133653F
:104E8800A9009375F50F9C48104C0D4561BB2A8607
:104E98008145D5B7EFE05FEE97E7FF1F9387474E51
:104EA8009843B70680001C43D58F1CC3EFF06FAF43
:104EB80097E7FF1F938707489C5BE38507CC8545E9
:104EC80055B397E7FF1F2388075097E7FF1F93877E
:104ED800A74FC843411106C609C597D0FF1FE780F1
:104EE800808497E7FF1F23A3074E97E7FF1F83C719
:104EF800374A81CF17E7FF1F034787499D47631646
:104F0800F70097E7FF1FA385074897E6FF1F83C6AB
:104F180016489387B6FF93F7F70F0547636AF700BC
:104F280097E7FF1F2386D74697E7FF1FA382E74629
:104F3800EFE01FF2C14517E5FF1F0345E549EFE024
:104F48002FB001458145EFE06FB6B2400145410100
:104F58008280411106C622C4AD3797E7FF1F9387A9
:104F6800A74603C7F700DC4BA14517E5FF1F03451C
:104F7800A54697E6FF1FA389E64217E7FF1F2329E7
:104F8800F742EFE0EFAB914517E5FF1F0345C54436
:104F9800EFE00FAB97E7FF1F83C7C74313F727005F
:104FA80017E4FF1F1304444019CF1C4801468145EC
:104FB800130520028297B240224497E7FF1F238BF4
:104FC800074041018280918BFDD71C4801468145ED
:104FD80013054002C5B7797126D297E4FF1F938461
:104FE800A43E83C7C40006D622D44AD04ECE52CCA3
:104FF80056CA5AC85EC6898BE1CB97EAFF1F83CA97
:10500800AA3A93E79A00356985693D6A17E7FF1F51
:10501800230CF738014417EBFF1F130BEB3697EB04
:10502800FF1F938B2B383D09938929F93D0A97E691
:10503800FF1F83C6763917E6FF1F0346E63881450A
:105048000145EFF04FC383472B00858BEDD317E560
:10505800FF1F03456535118501469305F00F0D893E
:1050680097E7FF1F23830732EFE01FC1F9470100CD
:10507800FD17F5FF97E5FF1F83C5053391851306D7
:10508800F00F8D89054597C0FF1FE78000ED834726
:105098003B00858BA9C797E7FF1FA388072EEFF072
:1050A8004F9083C7C400854517E5FF1F0345C532E8
:1050B80093E707F817E7FF1F230EF730EFE04F8459
:1050C80097E7FF1F2382572FB25022549254025958
:1050D800F249624AD24A424BB24B45618280EFF0B4
:1050E8004F8C05041374F40FA1476314F40095352D
:1050F800C1BF83A70B0023A627010F10000083A7B9
:105108000B00096798C7130700F897E6FF1F238F5E
:10511800E62623A2370723A64701F8537DFF01BFE0
:10512800411122C406C693F715002E84B9C397E728
:10513800FF1F83C7272A13F7270015C7E207E18750
:1051480017E5FF1F034545291306000563DA070025
:1051580017E6FF1F0346D6269307000A3306F60212
:105168009145EFD0FFFF13451400B240224441019E
:10517800828093F72500B1C397E7FF1F83C7872570
:1051880013F7470005CBE207E18717E5FF1F034543
:10519800A5241306000A63DC070017E6FF1F034671
:1051A80036229307000A3306F60213068602A14543
:1051B800EFD01FFB134524004DBF93F7450089C767
:1051C800193D1345440055B793F7850099CB97E7E8
:1051D800FF1F83C72720918B91C3A53B13458400EC
:1051E80069B793F705010145C9D3EFE06FBD17E72C
:1051F800FF1F0347D7199D47631BF7001306006479
:10520800C14517E5FF1F0345251DEFD07FF5134561
:105218000401A1BF411106C622C4EFE0DFD77146E1
:10522800814517E5FF1F1305251A97B0FF1FE78073
:10523800806717E4FF1F13042419FD5717050000A2
:10524800130545EE1CC0EFE02F972308A4009545F1
:1052580017F5FFFF1305056FEFE04F85B2402244B5
:1052680001454101828097E7FF1F9387E717944321
:10527800056713071710D8C6514701007D1775FF3A
:10528800984323260700514701007D1775FF98436F
:105298008567938717105CC78280411106C6E1377E
:1052A80097E7FF1F938747149C431307004837036A
:1052B800009098D7B8477D13370E002033776700E2
:1052C8003367C701B8C7B847B70600F9FD16758F29
:1052D80037060004518FB8C7B8473706F9FF7D165F
:1052E800419B13679700B8C7B847B7080080B70E47
:1052F8000002718FB8C7B847370600FF7D163367BD
:105308001701B8C7F84745757D1E619B13673700BD
:10531800F8C7F8471377F7F813670703F8C7EC4798
:1053280093F5F58F93E50530ECC7F847718FF8C70B
:10533800F84711663367D701F8C703A807051307AD
:10534800F5FF7D753378E8003368C80023A80705A2
:1053580003A847057D15137808FF1368480023AA9A
:105368000705F04B13660608F0CBF04B698EF0CBBF
:10537800C85F798D2167598DC8DFCC5F370700403A
:10538800F58DB3E5D501CCDFD05FB7057000337676
:10539800C601598ED0DFD05709674D8ED0D7D05768
:1053A800F18ED4D7D45775767D16F18ED98ED4D791
:1053B800D4573706FDFF7D1637070200F18ED98EC8
:1053C800D4D7945BC19A94DB945B93F6F6F094DBA4
:1053D800945B93F6F68F94DB985BB70600504D8F7D
:1053E80098DB985B33776700558F98DB985FB70633
:1053F80008FFFD16758FB7068800558F98DF985FF0
:10540800B368170123AC1703B2404101828017E744
:10541800FF1F130767FD1C4341767D16B44BF18EC1
:10542800B4CB944737062000D18E94C7D44793E66F
:105438000601D4C7D447BD9AD4C7010001000100B2
:10544800010014430566DC4693E70701DCC6DC422D
:10545800D18FDCC283A7C609A183858BE5DF010054
:105468000100010001001C43416603A7C709B44BB2
:10547800D18EB4CB9376F701B84B019B558FB8CB3F
:105488009847B706E0FFFD16758F98C7828097E7A3
:10549800FF1F938767F59C4341777D17B44F41669B
:1054A800F98EB4CF9447D18E94C7D44793F6F6EFCC
:1054B800D4C7D443758FD8C3D44793E60610D4C74E
:1054C800D843518FD8C38280397122DC17E4FF1F7B
:1054D800130484F11C4006DE26DA4AD84ED652D48C
:1054E80056D25AD05ECE62CC66CA6AC86EC6D84357
:1054F800FD76FD161377F7EFD8C39857758F98D7B1
:10550800D857B70602003D9BD8D79847558F98C7FC
:10551800D84313670701D8C303C7718183C6818144
:10552800558F61EFD84381749384F40F799BD8C366
:10553800985FB166938606F0658F558F98DFD843DC
:1055480013671700D8C397C0FF1FE780A00D1C4042
:1055580003A707091377F703A38BE18003A747097C
:1055680029831377F707238CE180D843B96693869C
:105578000670799BD8C3985F658F558F98DFD8439D
:1055880013671700D8C397C0FF1FE780A0091C4006
:1055980003A707091377F70397E6FF1FA388E6E435
:1055A80003A7470929831377F70797E6FF1FA38BFC
:1055B800E6E2D843B56693860630799BD8C3985FF0
:1055C800658F558F98DFD84313671700D8C397C0E6
:1055D800FF1FE780200518408327070993F7F70383
:1055E80097E6FF1F2384F6E083274709A98393F7EB
:1055F800F70717E7FF1F2307F7DE1C4017ECFF1F0D
:10560800034CCCDE83C6718103A7070AB3868641A3
:1056180013F6F600419B518F23A0E70A1307600297
:105628003387E6021306700283A5070A7D7E130EF0
:10563800FE0F93F5F5F01305400245737D1313042F
:1056480030023347C702B708F1FFFD1813082002DC
:10565800930E10027D4FF94FF542F1436D4DD14B3A
:10566800454BBD443949314AAD4AB5493D8B1207CE
:105678004D8F9305500223A0E70A3387B60283A50E
:10568800070AB3F5C5013347C7023D8B22074D8F83
:1056980023A0E70A3387A60283A5070A370500F186
:1056A8007D15B3F565003347C7023D8B32074D8F33
:1056B80023A0E70A3387860283A5070A6144B3F566
:1056C80015013347C7023D8B42074D8F23A0E70AD8
:1056D8003387060383A5070A370810FF7D18B3F53B
:1056E80005013347C7023D8B52074D8F23A0E70AB8
:1056F8003387D60383A5070AB70E0010FD1EE98D70
:105708003347C7023D8B62074D8F23A0E70A1397E3
:1057180056003347C7029315C70103A7070A337713
:10572800D7014D8F23A0E70A3387E6035D4F334740
:10573800C7029375F70003A7470A419B4D8F23A221
:10574800E70A3387F60383A5470AD94F93F5F5F09F
:105758003347C7023D8B12074D8F23A2E70A3387D1
:10576800560283A5470AD542B3F5C5013347C70298
:105778003D8B22074D8F23A2E70A3387760283A544
:10578800470ACD43B3F565003347C7023D8B32075F
:105798004D8F23A2E70A3387A60383A5470A494DFD
:1057A800B3F515013347C7023D8B42074D8F23A23E
:1057B800E70A69473387E60283A5470AB3F5050177
:1057C8003347C7023D8B52074D8FE54523A2E70AB1
:1057D8003387B60283A5470AE98D3347C7023D8B55
:1057E80062074D8F23A2E70A338786020D443347A9
:1057F800C7029315C70103A7470A3377D7014D8F0F
:1058080023A2E70A3387E603254F3347C702937578
:10581800F70003A7870A419B4D8F23A4E70A338724
:10582800F60383A5870A9D4F93F5F5F03347C70222
:105838003D8B12074D8F23A4E70A3387560283A5B1
:10584800870A9942B3F5C5013347C7023D8B220742
:105858004D8F23A4E70A3387760383A5870AB3F518
:1058680065003347C7023D8B32074D8F23A4E70AF3
:105878003387760283A5870A9543B3F51501334725
:10588800C7023D8B42074D8F23A4E70A3387A6033F
:1058980083A5870A294DB3F505013347C7023D8B18
:1058A80052074D8F23A4E70A3387660383A5870A27
:1058B800E98D3347C7023D8B62074D8F93954600AC
:1058C800B3C5C50223A4E70A03A7870A3377D7011C
:1058D800F2054D8FB385960223A4E70A03A7C70AEA
:1058E800419BB3C5C502BD894D8F23A6E70A3387FF
:1058F800260383A5C70A93F5F5F03347C7023D8B06
:1059080012074D8FB3C5860223A6E70A03A7C70A65
:105918003377C701BD89A2054D8F23A6E70A3387D0
:10592800460383A5C70AB3F565003347C7023D8B15
:1059380032074D8F23A6E70A3387560383A5C70A84
:10594800B3F515013347C7023D8B42074D8F23A698
:10595800E70A3387A60383A5C70AB3F505013347CA
:10596800C7023D8B52074D8F23A6E70A3387E6030C
:1059780083A5C70AE98D3347C7023D8B62074D8F60
:1059880093953600B3C5C50223A6E70A03A7C70A3D
:105998003377D701F2054D8FB385F60323A6E70ABF
:1059A80003A7070B419BB3C5C502BD894D8F23A82B
:1059B800E70A3387560283A5070B93F5F5F03347BB
:1059C800C7023D8B12074D8F23A8E70A338776025B
:1059D80083A5070BB3F5C5013347C7023D8B2207E3
:1059E8004D8F23A8E70A139726003347C70283A5DC
:1059F800070BB3F565003D8B32074D8FB3C53603F2
:105A080023A8E70A03A7070B33771701BD89C20547
:105A18004D8F23A8E70A139716003347C70283A5BB
:105A2800070BB3F505013D8B52074D8FB3C5C60271
:105A380023A8E70A03A7070B698FBD89E2054D8FE5
:105A480023A8E70A03A7070B930580023377D7013A
:105A580023A8E70A17E7FF1F034757993307EC40C6
:105A6800B34DB70283AC470B93FC0CFFB34B7703E2
:105A780093FDFD00B3ECBC0123AA970B83AC470B45
:105A8800CD4D93FCFCF093FBFB00920BB3EB7C0138
:105A980023AA770BB30B870283AC470BB3FCCC016B
:105AA800B3CBBB0293FBFB00A20BB3EB7C01B34C63
:105AB800A70323AA770B83AB470BB3FB6B0093FCBD
:105AC800FC00B20CB3EB9B0123AA770BA14BB34BA1
