:040000006F109001EC
:1000040000000000000000009000002072020020A8
:10001400A9BDF9F5940000200000000000000000D4
:10002400960000209800002000000000000000005E
:100034009A000020000000009C0000200000000046
:100044007E030020A0000020A2000020A4000020C5
:10005400A6000020A800002072030020AC000020AD
:10006400AE000020B0000020B2000020B400002048
:100074005C030020B8000020BA000020BC0000206F
:10008400BE000020C0000020C2000020C4000020E8
:1000940001A001A001A001A001A001A001A001A054
:1000A40001A001A001A001A001A001A001A001A044
:1000B40001A001A001A001A001A001A001A001A034
:1000C40001A001A001A0B71700409306700523808A
:1000D400D704130780FA2380E7040100010003C654
:1000E400B7041376F60DA385C7042380070413769B
:1000F400050259CE03C6A700118A1DE22380D70446
:100104002380E7040100010003C7A7001367470029
:100114002385E7009307004B01000100FD17EDFF65
:10012400B7170040930670052380D704130780FA9D
:100134002380E704010001007D892394A7000100C6
:10014400010001000100238007042380D7042380D9
:10015400E704010001003727004093061005A303BC
:10016400D78023800704B717004013077005238046
:10017400E704130780FA2380E7040100010003C7A2
:10018400B70413670708A385E70423800704828064
:100194001376050441C603C6A700418A1DE22380E5
:1001A400D7042380E7040100010003C7A7001367F5
:1001B40007012385E7009307007D01000100FD1777
:1001C400EDFFB7170040930670052380D70413078B
:1001D40080FA2380E704010001001376F501136619
:1001E40006042394C70001000100010001002380DC
:1001F40007042380D704130660042380E7046318EC
:10020400C5000100010037270040894689BF01006D
:100214000100372700409306200591B72380D704B7
:100224002380E7040100010003D787001367070C4C
:100234002394E7000DBF41118146014681451145D4
:1002440006C6D924B7170040130770052380E704B6
:10025400130780FA2380E7040100010003C7670441
:10026400136717002383E70423800704B240410186
:10027400828081460146814511457924B7170040A3
:10028400130770052380E704130780FA2380E7042B
:10029400010001007D572396E70203C76704136733
:1002A40017002383E7042380070401A0BD47330517
:1002B400F50201007D1575FD8280411122C426C21C
:1002C40006C6AA84014463179400B24022449244AF
:1002D4004101828005041305803E4204C13F4180F0
:1002E400DDB7411106C68566014681450545292CC1
:1002F4007DF981460146814511453924B7170040EF
:10030400130770052380E704130780FA2380E704AA
:10031400010001007D572396E70203C767041367B2
:1003240017002383E7042380070401A0B7170040C4
:10033400130770052380E704130780FA2380E7047A
:10034400010001007D572396E70203C76704136782
:1003540017002383E7042380070401A0B717004094
:10036400130700032388E702854723A0F18673005F
:100374002030972000E0E780E037730020303727F3
:10038400004083476700858BC5CB85472303F7006F
:100394009387C1809C434D476372F70A2546814584
:1003A4001385019B23A60180092303C70181854787
:1003B400631DF7008545171500000345254623886E
:1003C4000180973000E0E780E0D303C711818547BF
:1003D400631DF70089451715000003452544A388CC
:1003E4000180973000E0E780E0D103C72181854791
:1003F400631DF70091451715000003452542238925
:100404000180973000E0E780E0CF972000E0E780AC
:10041400E09B9307803E3355F502B7270040094718
:10042400C8C72380E70011472380E70003C72700DC
:10043400136717002381E70073002030850723A684
:10044400F180E1B7411106C6852DFDBF2303048069
:1004540015472303E48001002302A48082808307DC
:100464006480E3CE07FE23030480828083076480D4
:10047400E3CE07FE03454480828083076480E3CE95
:1004840007FE2302A4808280411126C44AC24EC0C2
:1004940006C61377F50BAD47AA892E8995446306E2
:1004A400F70019456537653F8D444E854537FD593D
:1004B400FD1463983401B240A244124982494101B7
:1004C4008280135509011375F50F453F2209CDB7F5
:1004D400011126CC06CEB704080051371545BD37A7
:1004E400713769372AC6A53F32459377150089EBE2
:1004F400136515001375F50FF240E244056182801F
:10050400FD14E9FC0145CDBF397126DC4ADA4ED829
:1005140052D656D45AD25ED006DE62CE66CCB7E747
:1005240000E07D5783AA070022C603AA470023A040
:10053400E71823A2E718B7170040130770052380B4
:10054400E704130780FA2380E70483C74704930B67
:1005540075FFB684E20793FBFB0F8546AA892E8BB1
:10056400328937240040E187015763FA7601630832
:10057400D5008946130700026313D5000157D98FAC
:1005840093F7F70FB71C00402382FC0411472303A1
:10059400E4801305F00F5D3D094CD135636D7C118A
:1005A400B7050700DA9537870700795563F2E50444
:1005B400B3879500636EF702370B0800A94733EB46
:1005C40065016399F90689E48144513D26850DA0AE
:1005D400DA850945553D05090345F9FFFD14050B69
:1005E400693D81C49377FB0FFDF7DD3569FD7D55CA
:1005F400B7170040130770052380E704130780FA38
:100604002380E70403C74704418B2382E704F250A5
:10061400B7E700E023A0571123A24711E254324464
:100624005259C259325AA25A125B825B724CE24C42
:1006340021618280A5476395F90685691309F00F46
:10064400B3069900B3742B01B6941349F9FFB3743C
:100654009900856B33796901416B9387F9FFB3F78F
:10066400270199E363FC340193D94900C147E3E6C8
:1006740037FF99BF0569C1697D19D9B71305800D85
:100684006388690113050002638479011305100866
:10069400CA85DD3B353D21DD4E99B3843441D9B75C
:1006A400DA852D45D533CA94E30099F205097D3BDB
:1006B400A30FA9FED5BF9387F9FF93F7F70F6361E3
:1006C400FC0C83C71C0413073008631FF7043707A7
:1006D4000800636BEB04B3079B00B706100063F5D7
:1006E400D704334BEB0089476393F9068980D549D6
:1006F400E38C04ECDA850945413B11090327C9FF62
:1007040091472320E48003076480E34E07FE23031C
:100714003481FD17EDFBFD14110B81C49377FB0F9E
:10072400E9FF7D3371F5E1B5B717004003C75704FE
:10073400B70708001377070219E3B787070079554D
:10074400E378FBEA33079B00E3FFE7F855B58547F9
:10075400E382F9F2DA852D45053B9389F4FFE385BD
:1007640004E6293393F7390091EB832604800327A9
:10077400090093074900E39AE6E43E89CE84F1BF79
:10078400B5476396F9001305900BC93135BDB147E0
:100794001305B00AE38BF9FE99476391F904B70591
:1007A4000800B365BB002D45C53181448D4BA1497B
:1007B400753963967401832704802320F900850426
:1007C400E39834FF8327048013172B016355070034
:1007D4002312F900D5BB2322F900FDB39D47639989
:1007E400F90281451305B0044531BD4423200900B5
:1007F40023220900FD599D3993F77400CA9703C752
:100804000700FD14398D2380A700E39634FF6DBBE8
:10081400A1476392F9046D398144630D0B008D4740
:100824009304C0036308FB009304000563048B0175
:10083400930440041375C507E30895D81945393165
:1008440039390545213126850D3909453D3149316F
:10085400E31C05D669BB91476399F900130560064B
:10086400F536F53E130590090DB7E38F09D4F1541D
:10087400A9BB19CD91CD09CE81473387F5008346B5
:1008840007003307F50085072300D700E397C7FE69
:10089400828019C991C909CA910583A7C5FF1105A9
:1008A4007D16232EF5FEC5BF828001C919C62A967E
:1008B4000505A30FB5FEE31DA6FE8280814733071D
:1008C400F5000307070019E33E8582808507C5BF4D
:1008D40001112E8626CAAA84131506019305F00475
:1008E400418122CC06CE32C6EF0010572A8401C5BE
:1008F4003246A685BD3F2285F2406244D24405615A
:100904008280854715C18DC105C28147B306F500B4
:100914003387F50083C60600034707006398E600A3
:100924008507E315F6FE85473E8582808147EDBF46
:100934009307F6FFBE952A966313C5008280FD15C2
:1009440083C715000505A30FF5FEFDB7AA8701456A
:1009540081CF09CE3E96850703C7F7FF6317B7001B
:10096400E31BF6FE05458280828001458280797111
:10097400973700009387079C22D4804306D626D25B
:100984004AD04ECE52CC56CA5AC85EC662C45DCC5A
:1009940037C9C901814B173A0000130A2A9E9734BC
:1009A4000000938464991309F937973A0000938AF5
:1009B4002A93B709C0A8370B40578357240095E3FF
:1009C4005C44639D0B00173700002325F796032C26
:1009D400C4002285EF007055628499A823A6FB0009
:1009E400FDB783270A008297838664011C4463DB76
:1009F40006063307F5406367E9089737000023A923
:100A0400078E8355240003450400972000E0E78007
:100A1400606F5C405844A9CF1444B6978386640140
:100A240063C5060063E33701DA971CC4A28B3A84DA
:100A340049F4973700009387A78A9C4B094763784A
:100A4400F706F917173700002324F78AB250225407
:100A540092540259F249624AD24A424BB24B224C56
:100A640045618280E377F5F83387F9402A9761B7C7
:100A740063970B009737000023AEE78A89BF23A64C
:100A8400EB00B1B7D85009CF63DF06003385A74028
:100A940083A70A016376F5009737000023AAA78489
:100AA400A28B404471B7E3F3A7FECE97C5B797373F
:100AB400000023AF078259BF411122C4173400003C
:100AC400130404851C4006C626C24AC091C78297F7
:100AD4009737000023AE07825C4091C382971C4085
:100AE4006390071C9737000083C7978A858B95C747
:100AF40097370000A38E07881737000003477789CC
:100B0400914763FCE700812E9737000083C77788FD
:100B1400F9178A07A2979C43829717390000130993
:100B2400E98A8347C900918B99C3EF0050261C447E
:100B340091C38297972400009384847F984017265A
:100B440000000346F6799727000083C767799396D8
:100B54001700BA9683D60600D5CA9727000083C724
:100B6400277863EFC70A97270000238B07761C407A
:100B7400639807129737000083C7D78191CF9737BF
:100B8400000083C7178189EB97370000A38407808F
:100B9400973000E0E780C021972700009387077E05
:100BA4009C43638F070EB707C0A8172700002321B3
:100BB400F774753B9727000093870778DC53EDC3E0
:100BC400172700001307C771184B9727000083C726
:100BD400F7776367F70C172700000347977B914764
:100BE40063E0E70C8347C900918BDDEB90409726C7
:100BF400000083C6F66E63CBD70A2244B240924407
:100C040002494101172300E067008339850793F700
:100C1400F70F972600002385F66CE3E6C7F235BF8D
:100C240086073E9783550700231007009727000087
:100C3400239E076E972700009387476D9C431725D3
:100C440000000345E56913172500BA979C43829772
:100C54009727000083D7876D17270000034747684D
:100C640093C7F7FF7D8D9317170098403E978357DE
:100C740007005D8D2310A7009727000083C74766F0
:100C840091C7850717270000230CF7641727000076
:100C9400034707659727000083C79764E375F7EC5C
:100CA400B2402244924402494101828013971700C2
:100CB4003297035707006DF7850735BFAD6737C710
:100CC4000040BD072326F7200F10000097270000DF
:100CD40093870761C84F83278726BD66BD0693C7E0
:100CE400F7FF99836A052326D7205D8D8280411101
:100CF400B7170040985F3AC6945F3247E39CE6FE1C
:100D040032454101828082805D713AD2172700000A
:100D14001307476736D414433ED022DE9C5E4ACA8A
:100D240086C6998396C49AC29EC026DC2ADA2ED837
:100D340032D642CE46CC72C876C67AC47EC2858B81
:100D44003A84172900001309A963D1CB9C5E972428
:100D540000009384A46393F7F7F99CDE172700003F
:100D64000347276393070008631BF70083270900E1
:100D74009C4393F7070417270000230CF76083C7ED
:100D8400040093F707049DC3972700009387075F28
:100D94009C4382979727000023A2A76083C704007F
:100DA40093F7F70B172700002302F75E83C744006D
:100DB40093F707048DE7854717270000A30AF75C1C
:100DC400972700009387475E9C43096798C71307DA
:100DD40000FC97260000238DE65AD844F8D31C4023
:100DE400985F1183058B09CB985F3D9B98DF05477E
:100DF40097260000238EE658985F1D83058B11CB40
:100E0400985F1377F7F798DF8547172700002301CA
:100E1400F75883270900D8430583058B19C7D8439E
:100E2400759BD8C3D843799BD8C37254B640A642A5
:100E340016438643E2545255C2553256A2561257AF
:100E440082577248E2485249424EB24E224F924F64
:100E5400616173002030972700009387E75494431F
:100E6400972700009387875203C70700058B11CB90
:100E740097270000238E075097270000A38A075066
:100E8400828003C71700058B65F7F85271FF83C78B
:100E94005700DDB7172800001308C84E03270800C1
:100EA4001C5F9583858BD5EB1DC697270000938720
:100EB400675583986704030306001C5BBD83630BBB
:100EC400030893F7F71FB38717419A970947B3C7E6
:100ED400E7022300F60085CA83270800985B4607CB
:100EE400935767016356070093E707C0C207C1839E
:100EF40003970600C207C18709C7BA970947B3C752
:100F0400E7022390F6009DC98347150085CB9726F9
:100F1400000083C6064893F606041387970091479A
:100F240085CA3A950347050085461376F70663118B
:100F3400D60262076187B147634C07008327080024
:100F44009C5FED838D8B17270000A306F744814730
:100F54003E858280B3871741ADBF8947D5BF411114
:100F640022C406C61724000013040444184049E9A7
:100F7400AE877453FDFE3E85B28597270000238813
:100F84000740973000E0E780A0BC972700009387D4
:100F9400673F9C43B70680009843558F98C3D85742
:100FA400719BD8D797270000A384073E972700009A
:100FB400A38E073C1C40094798C3B7F700E003A77A
:100FC40007D16D9B23A8E7D003A707D15D9B23A876
:100FD400E7D0730050101440172700001307073B95
:100FE40083472700858B89EB83473700858BD9C7D7
:100FF40097270000238E0738B240224441018280A3
:101004008D476310F502972700009387A7379C4309
:10101400B70680009843558F98C3D857719BD8D78B
:101024005DBF8547E319F5FAB567BD075CC70F10C7
:1010340000001C400967094698C7130700F8972663
:1010440000002387E634172700001307A73314434F
:10105400984231830D8B6319C7001307E043F8D31B
:101064003D673D07D8C785BF984231830D8B01E7A3
:1010740013076019EDB71307E01BD5B7FC52ADF3A6
:10108400A5BF5D714EDE972900009389A92F03A7A0
:10109400090086C6A2C4A6C2CAC052DC1C431729D2
:1010A40000001309A934172A0000130AEA2F93F742
:1010B400F7E793E707081CC3832609003707CEFF29
:1010C4007D179C46130680022A84F98F9CC68327C9
:1010D4000A00130700082800B8CBAE849305100853
:1010E400EFF0AFFC973000E0E78040C9973000E0B4
:1010F400E78040D683A709009376F41FB70EFCFF60
:1011040023A40700984B130510F8CE851367F70343
:1011140098CBF84F4A88B70F0400137707E0558F30
:10112400F8CF9843F576FD16758F98C39843B706A4
:10113400330091421377F7E798C39843FD1E854324
:101144001377F7E71367071098C303270900130FF2
:1011540080021C47D58F1CC783270A001307900DF4
:101164003400B8CB014793583700A69883C70800CA
:1011740013767700B3D7C740858BDDC79C41032E18
:101184000800239C0704239007060323CE0213734D
:10119400D3FF23266E0203AE07001373F707137EF3
:1011A4000EF833636E0023A0670003A34702336382
:1011B400F30123A26702014303DE07066307C303A7
:1011C40003A30703038E06001353F30062031353B0
:1011D400834163586E0003A307031353F300238072
:1011E400660003D307061373F30F03DE8705E3F5E5
:1011F400C2FD03A347023373D30123A2670283878B
:101204000600635CF40003C308003396C30013466E
:10121400F6FF337666002380C8003E8663D3A700BA
:101224002A8613158601618505071377F70F85064E
:10123400E31BE7F3B640264496440649F259625A42
:1012440061618280011136C8972600009386C61515
:101254003EC49C423AC632CAD8472ACE2ECC131674
:1012640017016355060298471316170163500602C7
:101274007D57B8D71727000013078706584F05076F
:1012840017260000232CE606116798C798470D839C
:10129400058B1DC3172700000347670F136717004B
:1012A400172600002305E60E130700F81726000092
:1012B4002300E60E214798C79847058B09CF1727C7
:1012C40000000347B70C1367170017260000A30F8D
:1012D400E60A054798C798470983058B09E79847A5
:1012E4000583058B39CF9847172600001306060A95
:1012F40017250000130505090983058B630C0710E6
:101304001841184331830D8B63130710AC4B184EEF
:1013140093F5050203471700E9C57DE71307700637
:10132400D8CF034706001367170017260000230FC2
:10133400E604114798C718415C57F19B93E71700DF
:101344005CD79C4298479316370163D606029726CA
:10135400000083C62612C18A172700001307870AD4
:10136400E1C6034707071367070297260000238394
:10137400E610056798C798479316270163D10602BC
:10138400172700000347C7006207618763570700F8
:10139400054797260000238DE6FE096798C79847FE
:1013A4009316070163D606029726000083C6960C9F
:1013B400858A172700001307E704C9C603471707E0
:1013C4001367270097260000A386E60A216798C7BB
:1013D4007245E2455246C2463247A2470561730050
:1013E40020300DDF85456315B7001307B0060DBF28
:1013F40089456315B7001307F0061DB78D456315BE
:10140400B7001307300729BF1307500711BF13078D
:10141400600739B703473600136717001726000023
:10142400A307E6F6094739B7834607070946BD8A85
:101434006388C600034707078D463D8BE31BD7F23D
:10144400114725B783461707918AC9D2034717075F
:101454001367870085BF17270000130727F5834606
:10146400B7019727000083C737F7B69793F7F70FAD
:10147400FD4663EAF6044C4B97260000A388F6F277
:101484009727000083C797F205473317F70097267D
:101494000000A383F6F46D8F1DEF9726000083C62A
:1014A400F6F3B3F6D70213050002814733D6F500ED
:1014B400058A13F8F70F09CE6399E6009727000011
:1014C400A38607EF828081177DB705071377F70F8F
:1014D4008507E39DA7FC828097270000938707EA8E
:1014E4009C43011122CC4EC606CE26CA4AC852C419
:1014F40056C2829797270000938747ED804781491A
:101504006305A406BE84972700009387E7E2038758
:1015140067013E8963550706018D135455009727CB
:10152400000083C747EA9379F501636DF402370A33
:10153400C0A8B70A405705379C449726000083C6C5
:1015440086E8139756003E9783076901158C63C597
:1015540007006363470156979727000023ACE7E62B
:10156400E37BD4FC1604B3693401F24062444E8533
:10157400D2444249B249224A924A05618280E37DBB
:1015840085F8B707C0A833848740229579B7972791
:1015940000009387A7DE9C43411122C406C626C2DD
:1015A400829797270000938767E280476309A40620
:1015B400BE8497270000938727D88387670163D861
:1015C4000704018D135455009727000083C7A7DF34
:1015D4006367F404493598449727000083C7A7DE5E
:1015E4009396570036971D8C9726000023A4E6DEB9
:1015F400E372F4FE2244B2409244172500000345EE
:10160400F5DA81454101173300E0670043A6E37A28
:1016140085FAB707C0A833848740229565B7B240DE
:10162400224492444101828097270000938707DC7B
:101634009843B75702009387079F83260709139699
:101644005600635806008326070913966600634410
:101654000600FD17FDF3828071C5AA870145E9C51F
:101664008D07C207C183F19BC207C18313074003DF
:10167400636FF70217270000130747D8084317279B
:101684000000130727D714436398A6021727000006
:10169400130787CA185B014541CB4111C20706C62F
:1016A4000545DD8D0297B24001454101828017272F
:1016B4000000130767D4D9B70357650035E3035710
:1016C4004500636FF704B306F7402146637CD602F6
:1016D40003280500938687001D8FAA966117172695
:1016E4000000035646C02392E60023A0060123937C
:1016F400060014C12312F500130786FF9726000085
:101704002393E6BE2313B5009725000083D5A5BD1A
:10171400B387F540172700002317F7BC2105828003
:1017240008419DB70145828082800DC19727000042
:101734009387C7CC03A3070097270000938787CB21
:1017440083A8070081469A8763E31701828003A870
:101754000700636DF50A636BA80A13878700E367C4
:10176400E5FE03D66700216705076317E60003C794
:1017740051810507A38AE18097250000938545B62A
:1017840003D6470003D76500239307003297420727
:101794004183172500002318E5B4638A67021725DF
:1017A4000000130565C508416303F50203D566000F
:1017B40019ED83D7460023A0060121073E96210692
:1017C4002392C60097270000239FE7B0B68798436B
:1017D400E30E17F797260000938606C29442E307A8
:1017E400D7F683566700BDF283D6470003564700F9
:1017F4001843A106B2962392D70098C383D76500F5
:10180400A107172700002310F7AE8280BE86C28787
:0418140025BF0000EC
:101818009711002093810180176100201301017E38
:101828001305400097E5FF1F9385457D17060020A7
:10183800130606FE63FAC5008322050023A055009F
:1018480011059105E3EAC5FE17550000130585E269
:10185800970500209385C5FB1386818063FAC50030
:101868008322050023A0550011059105E3EAC5FE72
:1018780013858180972500209385C5C96377B500B6
:10188800232005001105E36DB5FEFD42739002BCEF
:101898008D42739042809302800873A0023097E2D1
:1018A800FF1F9382A27593E2320073905230971211
:1018B80000009382C24E7390123473002030B71721
:1018C800004003C777051377E70FA38BE7041307D7
:1018D80000F8A38DE7043D47238CE7041307500362
:1018E800A38CE7048280411122C406C62A84C92930
:1018F80037170040930670052300D704930780FA32
:101908002300F704010001000346F702136686006E
:10191800A307C7020346F7021376760FA307C70289
:101928000346E7021376C60F2307C7020346E702FA
:10193800136616002307C7022300D7042300F70401
:1019480001000100034637051376860FA309C70473
:101958000346370513661600A309C7042300D704F6
:101968002300F70401000100834737059166130639
:1019780080FA93E70702A309F70483570705D58F71
:101988002318F70493067005B717004003C73705F7
:101998001377070261C7130880C19305803E334857
:1019A80005039307500291682167138E08E813070F
:1019B80007D01143B71600409162FD18894E930F66
:1019C8007005130F80FAB345B5023308F802B387E0
:1019D800F502334EC5033348E802B3C7E70203C72D
:1019E8003605218B6DDF03D7060503C73605218B26
:1019F8006DFF03D70605336757002398E60403C72E
:101A08003605218B6DDF03D6060503C7260533F699
:101A1800C8003387E8023A963306C6416354C800C3
:101A2800634DF6047D131373F30F63080304131750
:101A380016003347F7026350C00405072380F605F4
:101A48002380E6053347D7030100010003D6C60209
:101A58003297420741832396E60251B72380D70481
:101A68002380C7040100010003C737051367070275
:101A7800A389E70421BF7D17D1B7B717004083C6F4
:101A8800370513873705A18AFDDA83D6070583D67C
:101A980007051166D18E2398D70493067005238015
:101AA800D704930680FA2380D704010001008347F6
:101AB800070093F7870F2300F70083470700C18FBC
:101AC80093F7F70F2300F7003717004083473705D0
:101AD800A18BEDFFB717004003C73705218B6DDFDA
:101AE80037460F00130606243345C50283D607057B
:101AF80083C7270511677D17F98E2166130606D05F
:101B08003307F7028567BA96138707FA33178700F2
:101B18003307A7021305803E938707C8B3D78740CA
:101B28003347C7023307A7023387E6409306605559
:101B3800B385D502B3C5C502B387E702B3C7B702F9
:101B48006354E0048507094793067005B3C7E702A5
:101B5800371700402300D704930680FA2300D704E0
:101B68009607010001008356C702B697C207C183D2
:101B78002316F7028347370593F7F70DA309F704F0
:101B8800B240224441018280FD1775BF41112A836A
:101B9800014E930E407E130F0019930F400663E425
:101BA8006E0E9308001913034006B3781503854E8B
:101BB8000D4FA14F337365020D891335150063EE80
:101BC800BE0E1308F6FF79467298420813580801AA
:101BD8003307C70213D61700BE0732976146B3F61C
:101BE800C60213068070B386C6023697A166F58FC3
:101BF80042075D8FB716004083C7F60293F70708C0
:101C0800A307F1000346F10083C7F60293F707081C
:101C1800E394C7FE8347F100B716004093F7F70F28
:101C2800FDC7B7170040930670052380D7049306B5
:101C380080FA2380D7040100010023AA070383C682
:101C4800170311667D1693E60608A388D702D45BAE
:101C5800C85F93854703A98EF18EF5FA9306700540
:101C68002380D704930680FA2380D704010001005B
:101C780098C103C7170313670704A388E7022380E3
:101C88000704410182807D133368E3039308E0165B
:101C9800630E08003368F3039308D016630808003E
:101CA8009378330093B818009388D81633081E0128
:101CB800131E0801135E0E01DDB56393E5030548A5
:101CC800638608000148630303002A887108729834
:101CD800FD15131E0801C205135E0E01C181C5B5AD
:101CE80013F8150063F4BF007908D5B71338180046
:101CF800E5BF83C7F60293F70708A307F100034679
:101D0800F10083C7F60293F70708E394C7FE8347F9
:101D1800F10093F7F70FF1DF29B7914763EEB702A8
:101D2800174700001307C7788A05BA959C41BA97E8
:101D38008287B717004003A7470D1345F5FF698F42
:101D480023AAE70C03A7070D698F23A8E70C03A7AD
:101D5800070C798D23A0A70C8280B717004083A6B3
:101D6800470D1347F5FFF98E23AAD70C83A6070D55
:101D7800558D23A8A70C83A6070C758F23A0E70C05
:101D88008280B717004003A7470D498F23AAE70CA5
:101D980003A7070D1345F5FF45BFB717004083A6F6
:101DA800470D1347F5FF758F23AAE70C03A7070C08
:101DB800598D4DB7B717004003A7470D498FEDB7A9
:101DC800B717004003D58700420541819377050482
:101DD80091EB9377F5013755E801130505803345F5
:101DE800F50282809377050C130700046397E700D8
:101DF8009377F50137459C1CCDB72165130505D0B0
:101E08008280B7F700E08847CC478280B727004038
:101E1800C8C709472380E70011472380E70082806D
:101E2800B7870040238007001307C0FC2386E7001C
:101E3800A386E70003D741852398E70003D7818568
:101E4800239AE70003D7C184239CE70003D70185C1
:101E5800239EE70089462381D70249472383E70267
:101E68002385E7022387E7022389D702A381070096
:101E7800130790022380E700B716004003D7A60196
:101E88001367070C239DE6007D572383E70013079C
:101E980010F8A380E7001D472381E7008280B787F9
:101EA80000402382A70203C767021377C70F238363
:101EB800E7028280B78700402384A70203C7A702EE
:101EC8001377C70F2385E7028280B78700402386F0
:101ED800A70203C7E7021377C70F2387E7028280A9
:101EE800B78700402388A70203C727031377C70FC4
:101EF8002389E7028280797122D426D24AD04ECE35
:101F080052CC56CA06D61379F500138481818544CC
:101F180093899180138A8180914A6310090222541F
:101F2800B25092540259F249624AD24A03C5C18555
:101F38000146854545616F102022B3779900A9C7EE
:101F480083470A0003C7090023000400E58FD98FDF
:101F5800A384F1802312D4002301C400A300B40099
:101F680099E12300540136C632C42EC2EF10A015E1
:101F780083470400B2462246924593E7270008C4E7
:101F88002300F40033499900860493F4F40F3104D4
:101F980069B793771500938681809DCB85476391B8
:101FA800F502371600408327860C7D777D17F98F59
:101FB8002324F60C83C706005D8D2384A1808280CC
:101FC800371700408327870C0566D18F2324F70C29
:101FD800F5F183C706001345F5FF7D8DF9BF0111A3
:101FE80022CC26CA4AC84EC652C406CEAE899374BD
:101FF800F500138981810544214A89E8F240624449
:10200800D2444249B249224A05618280B3F784002A
:1020180089CFCE85639649018345090093C515008C
:1020280022852300B900A18CAD3706041374F40F80
:102038003109E1B7AA8711C909CA81CA93073006CD
:1020480063E3C7004DBD854559BF81453E85EDBF5A
:10205800A14763EFB702974600009386A6461397F9
:10206800250036971C43411106C6B697828793060A
:10207800803E154685457D3FB2400145410182803D
:102088009306803E154693052003F5B7893FEDB7C3
:1020980001458280371700408327870C41118566E8
:1020A80006C6D58F2324F70C8D450565BD318145BE
:1020B8003D4535379306E02E794695450545253D3E
:1020C800B240238401844101828083C78184639361
:1020D800071679714ECEC16922D426D24AD052CC85
:1020E80056CA5AC85EC662C406D666C26AC0138497
:1020F8008181014C3D498544138A9180930A4006A9
:10210800FD19130B4006930BF00FB3F72401E1C739
:1021180083470400898BD5CFEF00F07A1C442A8DC1
:102128006366F50E83460400834C240093F716007B
:10213800BDCB33079B41F99A81452685937CF70FE0
:102148002300D400B935034604009377460099EF7D
:1021580083461400638C7601FD1693F6F60FA300F0
:10216800D40089E6134626002300C40083470400F0
:10217800898BB1C303574400330797033357570379
:1021880093170701337737016A97C18318C463032C
:102198000C08A1C33E876373FC006287131C070108
:1021A800135C0C013DA093E61600854526852300A7
:1021B800D400C53365BF83450A002685E58DB33550
:1021C800B000793503470A0093C7F4FFF98FA38459
:1021D800F18033C92401860493F4F40F3104E31623
:1021E80009F2630B0C022254B25092540259F2497C
:1021F800624AD24A424BB24B924C024D6286224C02
:1022080003C5C185854545616F001075898FC20773
:10221800C183B5BF3E8C75BFB25022549254025947
:10222800F249624AD24A424BB24B224C924C024D7E
:1022380045618280828011456FF0EFEA41119396E3
:102248002500AA852D4506C697E0FF1FE780802B4D
:10225800B240014541018280411126C29394250074
:1022680022C44AC02A843289A686AA850146254501
:1022780006C697E0FF1FE780E028A6864A86A28563
:10228800294597E0FF1FE780E027B24022449244A7
:102298000249014541018280011122CC06CE371442
:1022A800004026CA4AC84EC652C483447405034A2D
:1022B800B4058349840503499405EFF04FE083474B
:1022C800A40593F4F40F137AFA0F93E71700230D7C
:1022D800F40493F9F90F1379F90FB717004003C7FE
:1022E800A705058B6DFF03D5C705A38D4705238C6F
:1022F8003705A38C2705A38B9704F2406244D24488
:102308004249B249224A05618280411193970501E9
:1023180022C406C6C1872E8463DA0700EF00502D59
:1023280019C1EF00302A2165218D39A093F71500D6
:1023380081CB613B13451400B240224441018280A5
:102348009397250163D00702EF10D038ED3537F6A3
:102358000200130606E0896503C5C185EF00D05F5A
:102368000965D9B7939715010145E3D707FC13060B
:102378000064916503C5C185EF00105E11656DB7F6
:102388001D714946974500009385051617450000BD
:102398001305C52C86CE97E0FF1FE780405611E154
:1023A80001A0B7F600E0795798CAFD57DCCA05675F
:1023B800B7E700E023A0E7101306F00290C223A0BD
:1023C800E718010001001306C0038145480897E09B
:1023D800FF1FE780404D97F7FF1F9387A76F3ECAFF
:1023E800896793870780231CF100ED472312F102C8
:1023F8009547A301F10285472303F102B54723045A
:10240800F102A167938707E03ECE97070000938704
:1024180027E3BEC497070000938747E4BEC68567D5
:10242800938717D02315F102970700009387A79D7C
:102438003EDAB7F5070097070000938727E63EDEE8
:10244800814697070000938747DF7000E10519452B
:10245800BEC097E0FF1FE780E00A58088147994609
:1024680070003E960346060085070507A30CC700C3
:10247800E398D7FED24791C70357810185676373F5
:10248800F70001A04808EF00707611C101A0F640DE
:1024980025618280411117050000130545E706C62E
:1024A80022C4EF00F0701384C1852300A4003128F2
:1024B800D536034504002244B24037F6020013061D
:1024C80006E0896541016F003049411106C6B7171A
:1024D8000040130770052380E704130780FA238060
:1024E800E7040100010003C7F7021377A70FA387CA
:1024F800E70203C7F70213672700A387E7022380D1
:102508000704153B1305407E814701478146054670
:102518008545EFF0AFE7B240014541016F10E00F8C
:1025280093F7850091CBB7E700E03707400023A079
:10253800E71013C585008280411122C406C693F7AF
:1025480015002E849DC39387C184884311469385C3
:10255800119B13050504EF30106A1145A13A134584
:102568001400B24022444101828093F7250085C3BC
:1025780093878185884321469385119B130505041C
:10258800EF3070672145213A13452400D9BF93F7EE
:10259800450099CF938701851387019B9C43034787
:1025A800170005452380E7040D321345440055BF45
:1025B800939735010145E3D607FA89472389F19AAC
:1025C800A389F19A9387C184884311469385119B07
:1025D80013050504EF3030621145EFF0BF8D8565B6
:1025E8001306003217F5FF1F0345C522EF00D0364A
:1025F80085653345B400B5B74111170500001305CB
:1026080065F206C622C4EF00B05A97F7FF1F9387FA
:10261800672723AAF1849387019323ACF1849387D6
:10262800C19B17F4FF1F1304E41E23A6F1849387AC
:10263800C1A32300A40023A8F184EFF06FFE034593
:1026480004002244B2400146A14541016F00D03048
:1026580081471386818513F7F70F6364A7006FF02E
:102668001F8418423E9783460700850793C6F6FFE6
:102678002300D704CDB781471386C18413F7F70F1A
:102688006364A7006FF01F8318423E9783460700D4
:10269800850793C6F6FF2300D704CDB78147138675
:1026A800018513F7F70F6364A7006FF01F821842C4
:1026B8003E9783460700850793C6F6FF2300D70495
:1026C800CDB781471386418513F7F70F6364A700D9
:1026D8006FF01F8118423E9783460704850793C60B
:1026E800F6FF2300D708CDB7B787004003C76700B8
:1026F8001377F70F93762700638F0648011106CEEC
:1027080022CC26CA4AC84EC603C7770093060003E0
:1027180013770703630BD70203C777009146137734
:10272800F7036302D72263E4E60A8546630DD71AE6
:102738006301071889466302D71C8D466302D71EBA
:10274800B787004009472383E7003787004083475E
:102758007700E207E18763D2072E930720FC230165
:10276800F7029386418588420347750083476500D1
:1027780022075D8F2393E186834715002384F18622
:102788000349050013760906630F061CDD17054784
:10279800636AF7286209135989418146635209021D
:1027A80083D76186930600043E8763F4F600130717
:1027B800000442074183998F9376F70F2393F1869C
:1027C800B78700402380D702130700FC85A493062F
:1027D8002002630ED71263E3E60293060002630643
:1027E800D70493061002E31DD7F403C767021377D3
:1027F800C70F136727002383E70299B793063002B0
:10280800630AD71293064002E31CD7F203C72703D3
:10281800134707042389E70203C727031377C70F62
:10282800136727002389E70221BF03C781869546DE
:102838006303D7069946631BD7069387618603D43B
:10284800070013070004BE846374870013040004A0
:10285800938741851389C1868843420483250900EB
:1028680041802286EF30303983D704009379F40F02
:10287800818F2393F186832709003E9423A68186BE
:10288800B78700402380370303C72702134707048D
:102898002381E70275B503C7370083C661861377BE
:1028A8000708558FA381E7000947DDB72380070292
:1028B800E5BF83C7870003C78186A547E312F7E80A
:1028C800938741859C4303C5C1AB83C70700898BA8
:1028D80081EBA38201802946A145EF00F0078DB561
:1028E800A382D180CDBF03C7770013770704E3091C
:1028F80007E403C58700A93BA1B503C77700137791
:102908000704E30F07E203C58700B53315BD03C706
:10291800A7021377C70F136727002385E7020DB5B2
:1029280003C7770013770704E30C07E003C58700A4
:10293800B53339B503C7E7021377C70F1367270005
:102948002387E702F5BB03C7770013770704E3097A
:1029580007DE03C72703134707082389E70203C5D0
:1029680087008533F1BB2946636EF60A17460000D7
:102978001306C6B88A07B2979C43B29782878347E3
:102988003500834625000946A207D58F93D68700D0
:10299800638CC60A6369D6008547638AF602130406
:1029A800F00F81472DA88D456383B60E930720024B
:1029B800E397F6FE83474500D5E3974700009387E2
:1029C800A7B623A6F18601449307E00309A8974711
:1029D8000000938767C323A6F1860144C947C2074D
:1029E800C18363F4E7002393F1869387618603D656
:1029F80007009307000463F4C700130600049389D3
:102A0800C1869314060183A50900C1802686EF308C
:102A1800901E03A60900269623A6C1869307F00FE9
:102A2800E31AF4D6B78700401307F0FC2381E702C6
:102A3800B787004009472383E700F2406244D24445
:102A48004249B2490561828097470000938707B5DC
:102A580023A6F18601449307B00651B78546639CC7
:102A6800D70097470000938727B023A6F186014433
:102A780093074003ADB7639FC70497470000938748
:102A8800A7BB23A6F18601449307100289BF93F7D9
:102A9800F70F8546638ED7008DC7E392C7F0974737
:102AA80000009387A7B823A6F1860144A94705BF6C
:102AB80097470000938787B623A6F1860144B94754
:102AC80039BF974700009387A7BA23A6F186014428
:102AD800914731B701449307F00F11B78347250099
:102AE8002393F18645B983C741862300F50003D7B0
:102AF80061868547E3F0E7CA8547DDB78347250048
:102B08002382F18641B91377F9018947E31CF7F06D
:102B1800834745006381E704636CF7000547E39347
:102B2800E7F0378700408347670293F7370799A094
:102B3800130710086388E70213072008E394E7EEF9
:102B4800378700408347A70293F7C70B93E727000F
:102B58002305F70281B1378700408347A70293F71F
:102B68003707FDB7378700408347670293F7C70BDE
:102B780093E727002303F70231B92300050085BF37
:102B8800230005009C42A380070003D7618689477C
:102B9800E3F2E7C0B1B7937617008DC2A3810700AF
:102BA80009472381E70249472383E7022385E70290
:102BB8002387E70205472383E7008280937647004F
:102BC800FDDA03C75700098313471700058B2385D0
:102BD800E1801147CDB78D47630AF500914763043B
:102BE800F50A89476310F50A6F20202DFD1593F526
:102BF800F50F854763F9B70803471600A54763E44F
:102C0800E70803472600411106C69307A007631C7F
:102C1800F70097D0FF1FE780806CB24003C5C1ABB7
:102C280091454101D1A99305800781479386019B6E
:102C38006310B70223A60180CDB73307F60083459A
:102C480027003387D70085072300B70093F7F70FCE
:102C580003471600E3E3E7FE03C7A1808547E31EA9
:102C6800F7FA83C5019BB315B70093870181AE9727
:102C7800C205C18117F5FF1F0345C5B92380E700C9
:102C8800A52961BF8280914503C5C1AB61BF4111D0
:102C98009397050122C406C6C1872E8463DB07000B
:102CA800812A11C105222165218DB24022444101AA
:102CB800828093F7450099CFEF2020209306F00FEC
:102CC8001306F00F894513854180EF10B026134590
:102CD8004400E1BF93F785000145E1DBEF20E01DEB
:102CE8009306F00F1306F00F894513854180EF1006
:102CF80070241345840055BF79711306000281457D
:102D08000A8506D697E0FF1FE780E0B9170500009F
:102D1800130525F8712D238EA1AAB74776719387DD
:102D280097123EC4B7575500938757553EC6B7B755
:102D38002400938787283EC28567938717842310CA
:102D4800F10097070000938747E93EC80A85ED57C9
:102D5800230EF100EF10C05F9306F00F1306F00F7B
:102D6800894513854180EF10F01C3D65130505A6C4
:102D7800EFF0CF89372700408347270093E71700F4
:102D88002301F700B7E700E0416723A0E7105147A8
:102D98002388E740B25045618280411113058004C1
:102DA80006C697D0FF1FE780C031EFF06FDDEFF068
:102DB8006FEEEF20A0458937EFF01F8497D0FF1FF3
:102DC800E78000681DC18346E5FF1307F00F9147B0
:102DD800639EE600411106C697F0FF1FE780A094A6
:102DE800B24081473E854101828095473E85828079
:102DF800170700201307074E1C43411122C426C29F
:102E08004AC006C601440149BA8489E7A1652D2153
:102E18001DC401A803C7E7FF631AA7020DCCA1656B
:102E2800E12C9840832784FF6319E40217070020E8
:102E38002322F74AFD57232C04FE230FF4FE228594
:102E4800B2402244924402494101828011E03E8905
:102E580083A787FF5DBF3E84E5BF232CF9FED9BF5A
:102E68009707002023A807468280970700209387AA
:102E7800E74B9C4399E33E85828003D7270063167E
:102E8800B70003C70700E308A7FEDC47E5B7C9C1D9
:102E9800797122D406D626D24AD04ECE0144414773
:102EA800B3D78540858BA5C31205314722953305D5
:102EB800E502970700209387674B03A9070085441D
:102EC800B3948400C204C180BE892A9903270900EB
:102ED80011C7032549002EC60297B245314733046E
:102EE800E40283A709003E941C4489E723200900D3
:102EF80023220900B2502254A58D02599254F24956
:102F08002E85456182800504E31CE4F88144DDB721
:102F18002E85828041111397050122C406C626C258
:102F28004AC041872E84635E0700D93511C1593DD7
:102F3800A1673D8C2285B240224492440249410156
:102F48008280EDD9AA8701474146B356E440858A75
:102F58008DCE9207BA97B146B387D702970600205D
:102F68009386C64003A906008544B394E400C204CE
:102F7800C1803E99832709000325490082972320B1
:102F8800090023220900258C75B70507E31FC7FA36
:102F98008144D5BF0111680006CE22CC26CAEF00B5
:102FA8005000FD576300F50E3247970600209386C0
:102FB80026389707002083C7F738B68463F9E70AED
:102FC800170400201304443118483706C0A8630EBC
:102FD800C702970700209387E7399C4382973247B7
:102FE8001C486373F700BA87170700200347973513
:102FF800998F3E958387640163CE0700B707C0A801
:10300800636AF500B7074057A5A88386660163D5AC
:1030180006061D8D170400201304C4361C4C81CFEE
:10302800970700209387073C94433707CDFF7D1708
:103038009C46F98F9CC619E13705C0A89707002060
:103048009387072FDC53829719E51C4C8DC3EF003B
:10305800D07BEF00F0231C4C99CB97070020938777
:1030680067389843B70633001C47D58F1CC7F24012
:103078006244D24405618280E37DF5F8B307F740E6
:103088003E9549BF97040020938404259C48370443
:10309800C0A8E38E87FC970700209387A72D9C4341
:1030A80082979C48170700200347D729998F3E9598
:1030B800970700209387C72783876701E3CC07F426
:1030C800E36A85F481B7970700209387672A9C43B2
:1030D800411122C406C6170400201304E41F81CB43
:1030E80082975C483E959707002023A1A72048486F
:1030F800B2402244410182809707002083C7D71D30
:103108006371F502170700201307072293171500AC
:1031180008433E9583570500DD8D2310B500014512
:1031280082800D4582809707002083C7F71A637352
:10313800F502170700201307271F931715000843E8
:1031480093C5F5FF3E9583570500FD8D2310B50007
:10315800014582800D4582809707002083C7D717D5
:103168006364F500014582809707002093878720D4
:103178009C43EDDB011122CC26CA4AC84EC606CEB6
:10318800B2892E89AA848297170400200354441711
:103198003304340393070064130404323354F402F1
:1031A800970700209387C71803876701BE892A9469
:1031B80063490700B707C0A86365F400B70740571D
:1031C8003E94CA852685553101C500C5054515A01B
:1031D80093E504F0C205C181414597E0FF1FE780F0
:1031E800604719ED83A7090381C7A6851145829712
:1031F8000145F2406244D2444249B24905618280A5
:1032080097070020938787129C439DE39707002028
:1032180023AEA71085472326050000C523112501E5
:1032280023009500A300F5002322050045B7BA87BF
:10323800D84775FFC8C7F9BF411122C426C24AC082
:1032480006C62A892E841531AA8419C123110500BE
:10325800A2854A85C93D9707002083C7E707639B76
:1032680027019707002083D7E70B5D8C970700207D
:10327800239A870A014591E01945B24022449244B5
:10328800024941018280411106C69707002023A107
:10329800A70E0295B2409707002023ABA70401456B
:1032A80041018280994763E9B7008A0597070020A2
:1032B80093878705BE9588C18280411171468145F3
:1032C800170500201305450406C622C426C297D058
:1032D800FF1FE780405D1306C002814517050020E7
:1032E800130585FF97D0FF1FE780E05BEF20B072E2
:1032F8009707002023AC07029707002023AA070698
:103308009707002083C7370413D527008D8B3E9578
:103318008D473305F502170400201304E4FB994791
:103328008545970400209384E4FD39051375F50F4E
:103338002301A4003305F5021305052497E0FF1FB8
:10334800E78040319707002023A2A7028347240083
:103358001305052488C08A073E959707002023A5F2
:10336800A7FCFD3CBD2E83471400944017060000BF
:10337800130626B213972700369710C31387170032
:103388001377F70F0A073697170600001306C6B813
:1033980010C313873700890793F7F70FA300E400DA
:1033A800B24022448A07B69790C392444101828072
:1033B8009707002083C757F2170700200347E7F154
:1033C80063F3E702170700201307C7F31843938630
:1033D800170017060020A301D6F09396270036970A
:1033E80008C33E8582809307F00FE5BF1C416387C1
:1033F800071641777D8FB706002089476311D716D6
:1034080003574500630D0714411126C21946AA84C3
:103418009305F00F690506C622C497D0FF1FE78001
:10342800A05205478D476305E512170400201304D1
:1034380024F01C4481CB58589947631B0710185C2B
:10344800631807101306C0038145170500201305EC
:1034580025EE97D0FF1FE78000451306C003A68519
:10346800170500201305C5EC97D0FF1FE780204003
:103478009707002083D787EC99E793070010170771
:103488000020231DF7EA9707002083C747EB91E741
:103498008547170700202304F7EA9707002083D7FA
:1034A80027EA91E7ED4717070020231BF7E897075E
:1034B800002083C7D7E891E7954717070020A300A6
:1034C800F7E89707002083C7C7E791E785471707FD
:1034D80000202308F7E69707002083C797E699E7B7
:1034E8008347F40017070020A30DF7E4970700208F
:1034F80083C747E591E7B547170700202304F7E49A
:103508009707002083C757E499E7930780021707B6
:103518000020A30BF7E29707002083C7B7E299E7DB
:103528009307D00217070020A30EF7E083C7840192
:1035380099E79307C003170700202307F7E01C54F7
:1035480091C7829797070020239CA7D8BD3381474E
:10355800B240224492443E854101828089473E859B
:103568008280970700209387E7E09C43411106C6B5
:10357800829793070064B307F5029706002083D665
:1035880026D817070020130727D5184F0145B3D7AA
:10359800D7026300F7023385E7406368F700370511
:1035A80000B03355D502198D3E9517070020232109
:1035B800F7D4B2404101828097070020938747D70C
:1035C800985739CB411122C426C206C6BE84029739
:1035D800170700200357C7D02A8415CBBA8763730F
:1035E800A700AA87C207C183BA866373E400A286CC
:1035F800C206C182958F5147635BF700DC5491C3C3
:103608008297EF00300D97070020239B87CCB240AC
:103618002244924441018280828097070020938748
:1036280027D1DC57011106CE81C72AC682973245B9
:1036380015C5B7873200938727A1170700202321D4
:10364800F7CC9707002023A7A7D21705000013057A
:1036580085F11539F2400145056182809707002000
:1036680083C767CE139787016187635C0702970753
:10367800002023A107C8B7873200938727A117071F
:103688000020232FF7C67D57B7C7004023A4E7269D
:1036980097D7FF1F9387476217070020232CF7CC83
:1036A8006DB713F7170011CFB7872003938707D09B
:1036B800170700202326F7C497D7FF1F9387E762D1
:1036C800E1BF617797060020239CE6C281CB930770
:1036D8000032170700202316F7C2F9BF930720030B
:1036E800CDBF011122CC17040020130464C4084480
:1036F80006CE26CA4AC801E90545F2406244D244CA
:103708004249056182805C58E5DB185C75D770001A
:10371800854582971844B247E300F7FE9305E00415
:1037280017050020035585C197E0FF1FE78080F249
:10373800170700202322A7BC61D1170600200356D3
:10374800E6BF9305F00F97D0FF1FE780C0158144AF
:1037580017090020130949B89707002083C727BE17
:103768000326090263C1F402328597E0FF1FE78050
:1037780080FB01459707002023A007B89707002082
:1037880023AE07B69DBF9705002083D525BBB38719
:1037980095020844185C898185043E9508C2029701
:1037A80065BF9707002083C757B363820718411185
:1037B8004AC006C62A8922C426C27D55630C090E52
:1037C80097070020938787C383A6C708E5C6970491
:1037D80000209384E4B58388640137450F00130FF4
:1037E800F523170300200353A3B1970F002083CFBD
:1037F800AFB57D54854E13050524370EC0A89D42EC
:103808009303204EB700405703C7B60083A70609A5
:10381800631AD70703D7E60703D6A6036378C70A50
:1038280083C506016394D50B83A58611C5E183A5DD
:10383800460AC9ED83C5F600639A550883D5860301
:10384800198E03A74609B385C50233466502B385B9
:10385800750233D7E502B3D5C5027E974207418387
:103868002392E6083386F50063C508006363C60142
:103878000696B3076702FA97B3D7A70263D208047C
:10388800B307F64063F387003E849442B5FE97077A
:103898000020938727AE9C4382976368A404B307EC
:1038A800A4402320F900832709002947636FF70400
:1038B80023200900B24022449244024941018280F7
:1038C800E370F6FCB307FE40B2976DBF03D7460816
:1038D800330767027A973357A70263D40800998F92
:1038E80055B7E3FEE7FEF297DDBFB307854063DB1C
:1038F800070083876401E3C407FAB707C0A8A29743
:10390800898F45B72320090079BFD9172320F900EB
:103918008387640163D50700130564FF61BFA5476A
:10392800E3EC87FE3705C0A85915229561B77D5588
:103938008280411197070020938747AC26C29704DD
:1039480000209384E4A522C4E05B9C4006C64AC0DC
:1039580098430D8B05C3B84B619BB8CB984313674D
:10396800870098C39C438D83858B89C7010001001C
:103978000100010097070020938747A0944337C7A9
:10398800898E130767ED98C63757550013075755A3
:10399800D8C2034724029306F00F3E896307D70075
:1039A800FD57A300E4022301F402034514028947EA
:1039B8006303F500014598405C4393E717005CC337
:1039C800930710FA2305F4009707002083C7179C74
:1039D80081CF170700200347679B95476316F700B9
:1039E80097070020A384079A170700200347F79931
:1039F8009D476318F70093077010170700202317D7
:103A0800F798954717070020A301F79801469707ED
:103A18000020238907969305F00F97070020238538
:103A28000796B924904097070020A38F079497071B
:103A38000020A389079485471CC283270900B7057E
:103A4800330098431377F7E798C398431377F7E75A
:103A58001367071098C3170700201307A798184380
:103A68001447CD8E14C79306900D34CA5457F59A4F
:103A780054D7034794009376F7079843137707F8CA
:103A8800558F98C3B2402244924402494101828032
:103A9800170600201306868E1C42B7068000B7154D
:103AA80001809843938585E7558F98C39843B70657
:103AB8000010558F98C31307001DD8DB1707002087
:103AC8000347478893169701CD8ED4D7D457B705A7
:103AD80000821377F703FD15ED8E6607558FD8D74B
:103AE80037170040930770052300F704930780FAFF
:103AF8002300F7049706002083C6C684B54763FBF6
:103B0800D7028357270293E707012311F7021842C8
:103B1800B7070900938737081CD337E700E0D14778
:103B2800A309F70497D7FF1F9387C71D93E71700CB
:103B38007CD7828083572702C207C183BD9BC207F7
:103B4800C183E1B797070020938787839C4399CB6C
:103B5800944BD04B9842518F98C294439C479842BB
:103B6800D98F9CC2970700209387478117060020AA
:103B780013060683937625009843032806009707C3
:103B8800002083C7C780C1C61443F578FD18B3F673
:103B980016010963B3E6660014C3D1769388F6FF6D
:103BA80014438E050D4E9385B50293876723B3F6AC
:103BB8001601631CC5031165C98E14C335673D071B
:103BC8002326E8000F1000001842930600F8860527
:103BD8002324670017F6FF1F2308D67ABE958605AB
:103BE800BD676CD3BD075CC7828014C335673D07CA
:103BF8002326E8000F1000001842930600F823243B
:103C0800670017F6FF1F2301D6788E05C1BFF5762A
:103C18009388F6FF144305899387E709B3F61601DD
:103C280005C514C335673D072326E8000F100000BB
:103C380018428966AD0514C7930600F817F6FF1FEA
:103C48002304D6748A0559BF0565C98E14C3356720
:103C58003D072326E8000F10000018428966A905D1
:103C680014C7930600F817F6FF1F230FD67071BF0D
:103C780097F7FF1F9387C7709C4389CFD44303A846
:103C8800870098423367070198C2D447DC4B9842B3
:103C9800D98F9CC297F7FF1F9387476E137725002C
:103CA8009C4335C39843F576FD16758F8966558F05
:103CB80098C3370709001307670898D337273700D1
:103CC8001307F72D98CB372730084517D8CB371768
:103CD80003001307976198CF0D671307E78D98D7EF
:103CE80037670001130707319E05D8D393854536FA
:103CF80097F7FF1F23AEB76811C6060697F7FF1F91
:103D080023A8C7688280370709001307370898D3A4
:103D18003727100813071790D8CB37170300130756
:103D2800476298CF0D671307E78B98D7376700016D
:103D380013070731D8D375779306F7FF98430548DB
:103D48009505758F631C050198C337272D00130748
:103D5800072D98CB8E059385C50359BF8566558F6A
:103D680098C3372737001307072D98CB9205E5B777
:103D780097F7FF1F83C797618DE717F7FF1F034763
:103D8800D7609307B7FF93F7F70F894663EBF60001
:103D980097F7FF1F238CE75E854717F7FF1FA307D9
:103DA800F75E8280411106C617F7FF1F0347075EBB
:103DB8009D476311F70497F7FF1F83C7A75E858B9D
:103DC80017F6FF1F0346366097F6FF1F83C6A65FE8
:103DD800B5C797F7FF1F9387E75EC84325C183459B
:103DE80015000905EF00101511C5854717F7FF1FC6
:103DF800A30EF75817F7FF1F034747599547631B4B
:103E0800F70097F7FF1F9387675FFC5B83C7B700CF
:103E18008DCB053617F7FF1F03474757994763129E
:103E2800F70297F7FF1F9387675D83A7470883C744
:103E3800770081CBB24041016F2060458145014543
:103E480055B7B2404101828017F7FF1F1307475546
:103E58001C4394438D8A85C2B44BE19AB4CB9443F6
:103E680093E6860094C39C438D83858B89C70100A4
:103E780001000100010097F7FF1F93872750944323
:103E88009C4293F7F7E793E707089CC297F7FF1F51
:103E9800938747559043B706CEFFFD161C46F58F0E
:103EA8001CC61C4313070008B8CB97F7FF1F93875E
:103EB800274D9C4399CBD44390479842518F98C241
:103EC800944BDC4B9842D98F9CC297F7FF1FA38E67
:103ED800074A828097F7FF1F9387C74A9C4FDDC721
:103EE800411106C622C426C24AC0052217F9FF1F7F
:103EF8001309C948EF10E039613E83270900F576B8
:103F0800FD16984397F4FF1F9384C44D17F4FF1FC1
:103F180013040449758F98C39843B7063300137781
:103F2800F7E798C398431377F7E71367071098C321
:103F380098401C47D58F1CC71C401307D00DB8CB21
:103F4800EF100058EF202029EF10E04BEF10A0539E
:103F5800032709001C4393F7F7E793E707081CC3F7
:103F680094403707CEFF7D179C46F98F9CC61C40AE
:103F780013070008B8CBED3BB240224497F7FF1F68
:103F8800A38507409244024941018280828097F7C5
:103F9800FF1F23A7073EB7C700401387073097F6D0
:103FA800FF1F23ABE63C1387072097F6FF1F23A9C3
:103FB800E63E9387071037D70040411197F6FF1F59
:103FC80023A2E64217F7FF1F232AF73A06C617F778
:103FD800FF1F1307273B8547A303F70097F7FF1F2A
:103FE800938707359C431CCF938707115CCBDD353E
:103FF800B7E700E037071000B24023A0E710370703
:10400800200023A0E7104101828097F7FF1F9387C4
:1040180027399C431307C00893066007D8CBD4CF31
:10402800D8D31306C003D0D7D8DBD0DFF8C317F72F
:10403800FF1F13072735184FF4C7F8DB41677D17B3
:1040480098C73D673D07D8C737E700E0D54723093C
:10405800F70497D7FF1F9387A71E93E717003CD74E
:10406800828097F7FF1F9387E737944397F7FF1FDF
:104078009387C7309C436387051037B7240013071D
:10408800F7E96366A7089843137707F81367570299
:1040980098C313F7150001CB93F5050341476390C7
:1040A800E50E13050583D856370810FE7D181367EB
:1040B8002700D8D64167130707A03356E5023375A2
:1040C800E5021307A00F7D8A93154601F042337667
:1040D80006014D8EF0C23706FCFF2A053355E5026E
:1040E800F842718F3A053981598DE8C217F7FF1FD9
:1040F8000347472B098B19CB98431377F707936628
:1041080007049843137707F8558F98C382803707B9
:1041180025001306F7486363A6023767DBFF13071A
:1041280007932A971306007D3357C7027D179043DC
:104138001377F707137606F8518F99BF13070749C6
:104148006318E5009843137707F81367670289B780
:1041580037D725001307F777636DA7003767DBFFAD
:10416800130707932A971306007D3357C702791759
:104178007DBF9843137707F81367770211BF1305BC
:1041880085C115B7D8561375F507759BD8D69843CA
:10419800137707F8598D88C391BF411106C697F761
:1041A800FF1F238807224D3101458145EFF08F8F8E
:1041B800B24001454101828097F7FF1F9387471E50
:1041C8009843797117F5FF1F0345C51D22D426D2E0
:1041D80006D64AD04ECE93761500BE8417F4FF1F3C
:1041E8001304441A638C061283472400858B638466
:1041F80007101185014697F5FF1F83C5651C0D89BA
:1042080097F7FF1F23810718A53497F5FF1F83C56C
:10421800651991851306F00F8D89054597D0FF1F05
:10422800E780A0D39D3F17F9FF1F1309A91783271C
:104238000901014681450545829783473400CA89AB
:10424800858BC1CF084C97F7FF1FA38E07128145B6
:1042580081461306F100A307010097F7FF1F238586
:10426800071297D0FF1FE780A0C293158501E1854B
:104278008DE11C4C9306F00F03C70700630BD700B2
:1042880097F7FF1F83C717146385D7006303F700E9
:1042980089458387090063C707001C4C0347F10061
:1042A8002380E70083A70901104C93F5F50F094512
:1042B800829797F7FF1F83C7A711898B81CB854505
:1042C80017F5FF1F03450511EFE01FE3B250225415
:1042D80092540259F249456182809C40FC53FDF793
:1042E80097F7FF1F2382070A8327090101468145A3
:1042F80049458297E1BF7C53E39607EE793DEFF09D
:10430800AFAB97F7FF1F2381070897F7FF1F938726
:1043180067099C4B014681454545E1BF8347340009
:10432800858B9DC39D3D97F7FF1FA38E070497F7C5
:10433800FF1F238B070497F7FF1F9387A7069C4B44
:1043480001468145054575B77C53E9FBB93555BF2D
:104358001C49638C0710411122C406C68347050017
:104368002A8493F7070481C75C410945FDCB1306EE
:104378000002814517F5FF1F1305C50297C0FF1FEF
:10438800E7806052A2851306000217F5FF1F130588
:10439800650197C0FF1FE780804D97F7FF1F83C710
:1043A800F70117F4FF1F1304E4FF99E7930780024E
:1043B80017F7FF1FA304F70097F7FF1F83C727000E
:1043C80091E7A14717F7FF1F230BF7FE97F7FF1F8A
:1043D80083C7F7FE91E7C54717F7FF1FA301F7FE4D
:1043E80097F7FF1F83C7C7FD91E7ED5717F7FF1F23
:1043F8002308F7FC97F7FF1F83C797FC91E7ED5752
:1044080017F7FF1FA30EF7FA97F7FF1F938787FB8E
:10441800C84309C597D0FF1FE780E03097F7FF1F13
:1044280023A407FA83470400858B85C317F5FF1F6C
:10443800034515F993059004090597D0FF1FE780F8
:10444800602197F7FF1F23A1A7F8834714000145B0
:1044580017F7FF1FA30FF7F61C4417F7FF1F232DAD
:10446800F7F6B24022444101828005458280797185
:1044780022D417F4FF1F1304E4F21C4406D626D2F4
:104488004AD04ECE52CC56CA5AC85EC662C466C21C
:104498006380072A17FCFF1F130C4CEE03270C0040
:1044A80017FAFF1F130A0AF4B68A1C4397F9FF1F6D
:1044B800938909EF17F9FF1F1309C9F093F7F7E775
:1044C80093E707081CC383260A003707CEFF7D172A
:1044D8009C46AA8BAE84F98F9CC683A70900130754
:1044E8000008328BB8CB8347C900BD4C898B6390D9
:1044F800071E03270C005C57F19B93E717005CD756
:104508008347C900898B6383071E814517F5FF1F01
:10451800034555E9B93683270C003706330098431D
:104528001377F7E798C398431377F7E713670710EC
:1045380098C383260A009846518F98C603A7090096
:104548009306A00D34CB97F6FF1F83C6A6E513F696
:1045580006046306061A4C403796DBFF13060681ED
:10456800B29561661306066A637BB6181306800C5B
:1045780070D31044858A90C75044D0C354C383472E
:10458800E90093E7270017F7FF1F2304F7E497F7DD
:10459800FF1FA38957E397F7FF1F238567E397FA60
:1045A800FF1F938A2ADE03A54A01638D0B1423009B
:1045B8006501A30095002686DE85090597C0FF1FC3
:1045C800E780E02A83A7090003A74A018145170568
:1045D80000001305A5BEB8DB97F7FF1FA38507DA10
:1045E80097F7FF1F238207DAEFE0DFCBEFF04FF8F2
:1045F8008D4717F7FF1FA30AF7D88347C900898B90
:10460800A9C703A709007C53FDFF97F7FF1F9387EE
:1046180067D69C43829717F7FF1F130767D10307D5
:104628006701832789006352070E1D8D0347040025
:104638000D8183A74A01218B6DC33707800062056E
:104648001307F72F598D88C3894497F5FF1F83C532
:1046580065D59185014526868D8997D0FF1FE7800E
:10466800C08F03270A0001455C578583858BB9C332
:104678005C40C165938505A0938787C1B3D6B7020F
:10468800370810FE7D18B3F7B702FD8A1396460166
:104698007443B3F60601D18E74C39306A00F370690
:1046A800FCFFAA07B3D7D7027443F18EBA07B983C0
:1046B800D58F7CC3B250225492540259F249624AAF
:1046C800D24A424BB24B224C924C4561828097D0E1
:1046D800FF1FE78020E0E3FCACFE97F7FF1F83C7CE
:1046E80007CE9607C117E3E4A7FE21B58347040068
:1046F80093F70704E38B07E08945484021BD13067B
:10470800000ABDB52320650175BDE370F5F23707D2
:10471800C0A8B307F7403E9511BF890493F4F40F7E
:10472800A3809700A69723800700A380A70031BF26
:10473800054549B797F7FF1F938747CC83A7870994
:1047480091CF054582800545F2406244D2444249F2
:10475800B249224A924A024B05618280011126CA57
:1047680097F4FF1F938404C49C4406CE22CC4AC805
:104778004EC652C456C25AC0F9D717F9FF1F1309BB
:1047880029C28327090098430D8B05C3B84B619B49
:10479800B8CB98431367870098C39C438D83858B58
:1047A80089C7010001000100010017F4FF1F13046D
:1047B80064C18347C400B68A328B918BAE892A8A3A
:1047C80089EB97F5FF1F83C5E5BD93F70504639C47
:1047D8000714814517F5FF1F0345D5BCEFF07F8807
:1047E80017F5FF1F034505BC1185014697F5FF1F07
:1047F80083C505BD0D89EFF0AFC717F7FF1F130776
:10480800E7B794441C4394C7D444D4C383C7040073
:1048180083260900BA84858BDCC297F7FF1FA3841F
:1048280067BB97F7FF1F238057BBDC42858BB1CF4F
:104838005C4085E317F5FF1F034595B89305900481
:10484800090597D0FF1FE780E0E097F7FF1F23AD2A
:10485800A7B65C40E38907EE17F7FF1F0347A7B623
:104868002380E7005C4063060A0C6384090CA3807C
:10487800370148404E86D285090597C0FF1FE7805B
:1048880000FF832709005840B8DBEFF06FCE83475D
:10489800E40093E7470017F7FF1F230CF7B29307CD
:1048A800000417F7FF1F230FF7AC97F7FF1F238D9F
:1048B80007AC9D4717F7FF1FA309F7AC97F7FF1F32
:1048C800938707A79C5791CB13060064C14517F53A
:1048D800FF1F034525B0EFE03F8897F7FF1FA3852B
:1048E80007AA8326090097F7FF1FA38D07A89840FA
:1048F80085479CC21C4337063300014593F7F7E709
:104908001CC31C4393F7F7E793E707101CC397F7FB
:10491800FF1F938727AD98431C47D18F1CC7930768
:10492800900DBCCA15B593F5050393E51500C8406D
:1049380075B5A3800700B1B7797126D297F4FF1F28
:10494800938444A683C7040022D406D64AD04ECE08
:1049580052CC858B17F4FF1F1304C4A2638407305D
:1049680083470400858B6386072C97F7FF1F93877F
:1049780067A79843A3070100032984015C5785832F
:10498800858BA1C3DC40C165938505A0B3D6B7026A
:10499800370510FE7D15B3F7B702FD8A1396460159
:1049A8007443E98ED18E74C39306A00F3706FCFFBB
:1049B800AA07B3D7D7027443F18EBA07B983D58F44
:1049C8007CC381461306F10081454A8597F7FF1F8E
:1049D800238A079A97C0FF1FE780804B131A850127
:1049E800135A8A4163120A0297F7FF1F83C7B79DBC
:1049F8009306F00F638AD700184C03470700630536
:104A0800D7006303F700094A8387040097F9FF1F5B
:104A18009389499B63CA0712631A0A128347F100F4
:104A28002300F90083C7C900918B95C783471900F4
:104A3800CA9703C7070093070008631EF7005C487E
:104A48001307F00F98C383C7040093E7870017F78D
:104A5800FF1F2309F79497F7FF1F938727929C431B
:104A6800B70680009843558F98C3D857719BD8D7FD
:104A780083A7490017F5FF1F0345C592118583C514
:104A880017000D89EFF00F8C97C0FF1FE780603C7F
:104A9800EFF08FBB97F6FF1F83C6869393F7460008
:104AA800638B071417F7FF1F13078788030667012F
:104AB8001C48635D060CF11717F7FF1F232CF78CB2
:104AC8001C4803A78900635B060C3387E7408347CC
:104AD800190093958601E185CA9783C717008E0749
:104AE80063DD050C63F2E70C1D8F9306000263EB90
:104AF800E6001848635D060AB307F74017F7FF1F7B
:104B08002326F78C894517F5FF1F0345A58CEFE091
:104B1800AFDE83C70400A18BF1CB03A5490017F6CC
:104B2800FF1F0346568A97F6FF1F83C6C68945CDE1
:104B3800834515000905FD3E83C70400DD9B17F773
:104B4800FF1F2301F7861DA8E30E0AECEFF0CFAF95
:104B5800104C9C480D459375FA0F829703A54900A0
:104B680017F6FF1F0346368697F6FF1F83C6A685EE
:104B7800630205268345150009056D3EB25022548F
:104B880092540259F249624A456182800D47E364B2
:104B9800F7F23707C0A87117BA9739BFE3F7E7F2FA
:104BA800B705C0A8AE9715B73387E7403DBFE37593
:104BB800F7F4B706C0A8369781B71848635F0600B0
:104BC800B307F74093E606F817F7FF1F2320F7808F
:104BD80097E7FF1F238ED77E35B7E373F7FE3706B7
:104BE800C0A83297F1BF81450145B1B78347190085
:104BF800F917A300F900EFF04FDA9C48104C8145F3
:104C08000D45829783471400858B99CB97E7FF1F43
:104C1800A38A07769C480146814511458297B9BF0A
:104C280097E7FF1F238207769C4801468145514537
:104C3800F5B7EFF0EF9397E7FF1F93872774984333
:104C4800B70680001C43D58F1CC3EFF00FD597E73C
:104C5800FF1F9387E76D9C5B89458DD3130510086B
:104C6800829729BF83471400858B6381072297E7C2
:104C7800FF1FA389077003298401EFF00FD297E67D
:104C8800FF1F83C6E67493F74600638A071A8347B3
:104C98001900CA9703C7070093070008631AF700AB
:104CA80083C7040093E7870017E7FF1F230CF76EFD
:104CB80017E7FF1F1307C767030667011C48635EF2
:104CC8000610F11717E7FF1F2326F76C1C4817E794
:104CD800FF1F1307276F1847635906103387E740EC
:104CE8008347190093958601E185CA9783C7170002
:104CF8008E0763DB051063F0E7101D8F9306000233
:104D080063EBE6001848635B060EB307F74017E746
:104D1800FF1F232DF76A894517E5FF1F0345856B9C
:104D2800EFE08FBD83C70400A18B6385071097E769
:104D3800FF1F9387E76694439307800C1307F00FD0
:104D4800FCD25C4837063300014598C397E7FF1F3C
:104D5800238B076297E7FF1FA387076297E7FF1F69
:104D68002384076297E7FF1FA380076297E7FF1F67
:104D78009387C76098431C4393F7F7E71CC31C430A
:104D880093F7F7E793E707101CC397E7FF1F93878D
:104D98006765984397E5FF1F83C5C56091851C47E4
:104DA8008D89D18F1CC79307A00DBCCA054697C033
:104DB800FF1FE780801A83C7040097E6FF1F83C69A
:104DC800866017E6FF1F03461660DD9B17E7FF1F87
:104DD800230AF75C814501454DB30D47E363F7EEC0
:104DE8003707C0A87117BA97F1BDE3F9E7EEB70521
:104DF800C0A8AE97E5B53387E74009B7E377F7F082
:104E0800B706C0A8369711B71848635F0600B307FE
:104E1800F74093E606F817E7FF1F2329F75A97E7A5
:104E2800FF1F2387D75AC5BDE373F7FE3706C0A80F
:104E38003297F1BF83471900F917A300F900084C0E
:104E48009306F00F014903470500630BD70097E766
:104E5800FF1F83C757576385D7006303F7000949C6
:104E680083870400814663D007020146814597C0C5
:104E7800FF1FE780E0013365A9009375F50F9C4893
:104E8800104C0D4561BB2A868145D5B7EFE05FEE32
:104E980097E7FF1F9387874E9843B70680001C4308
:104EA800D58F1CC3EFF06FAF97E7FF1F9387474875
:104EB8009C5BE38507CC854555B397E7FF1F238A9D
:104EC800075097E7FF1F9387E74FC843411106C66E
:104ED80009C597D0FF1FE780008597E7FF1F23A527
:104EE800074E97E7FF1F83C7774A81CF17E7FF1F52
:104EF8000347C7499D476316F70097E7FF1FA38736
:104F0800074897E6FF1F83C656489387B6FF93F76F
:104F1800F70F0547636AF70097E7FF1F2388D7460F
:104F280097E7FF1FA384E746EFE01FF2C14517E5A7
:104F3800FF1F0345254AEFE02FB001458145EFE00B
:104F48006FB6B240014541018280411106C622C4B4
:104F5800AD3797E7FF1F9387E74603C7F700DC4B9A
:104F6800A14517E5FF1F0345E54697E6FF1FA38BFD
:104F7800E64217E7FF1F232BF742EFE0EFAB91451F
:104F880017E5FF1F03450545EFE00FAB97E7FF1F48
:104F980083C7074413F7270017E4FF1F130484404F
:104FA80019CF1C4801468145130520028297B2405B
:104FB800224497E7FF1F238D074041018280918B90
:104FC800FDD71C480146814513054002C5B77971D4
:104FD80026D297E4FF1F9384E43E83C7C40006D615
:104FE80022D44AD04ECE52CC56CA5AC85EC6898BF5
:104FF800E1CB97EAFF1F83CAEA3A93E79A0035693B
:1050080085693D6A17E7FF1F230EF738014417EB40
:10501800FF1F130B2B3797EBFF1F938B6B383D0943
:10502800938929F93D0A97E6FF1F83C6B63917E623
:10503800FF1F0346263981450145EFF04FC38347DB
:105048002B00858BEDD317E5FF1F0345A53511858B
:1050580001469305F00F0D8997E7FF1F2385073257
:10506800EFE01FC1F9470100FD17F5FF97E5FF1FA6
:1050780083C5453391851306F00F8D89054597C083
:10508800FF1FE78080ED83473B00858BA9C797E723
:10509800FF1FA38A072EEFF04F9083C7C4008545F2
:1050A80017E5FF1F0345053393E707F817E7FF1FC9
:1050B8002300F732EFE04F8497E7FF1F2384572F31
:1050C800B250225492540259F249624AD24A424B8F
:1050D800B24B45618280EFF04F8C05041374F40FD6
:1050E800A1476314F4009535C1BF83A70B0023A61D
:1050F80027010F10000083A70B00096798C7130743
:1051080000F897E6FF1F2381E62823A2370723A686
:105118004701F8537DFF01BF411122C406C693F72A
:1051280015002E84B9C397E7FF1F83C7672A13F7B3
:10513800270015C7E207E18717E5FF1F0345852903
:105148001306000563DA070017E6FF1F0346162754
:105158009307000A3306F6029145EFD0FFFF134587
:105168001400B24022444101828093F72500B1C364
:1051780097E7FF1F83C7C72513F7470005CBE2074B
:10518800E18717E5FF1F0345E5241306000A63DCE2
:10519800070017E6FF1F034676229307000A330627
:1051A800F60213068602A145EFD01FFB1345240023
:1051B8004DBF93F7450089C7193D1345440055B7BE
:1051C80093F7850099CB97E7FF1F83C76720918BDB
:1051D80091C3A53B1345840069B793F705010145C1
:1051E800C9D3EFE06FBD17E7FF1F0347171A9D47A5
:1051F800631BF70013060064C14517E5FF1F03454D
:10520800651DEFD07FF513450401A1BF411106C606
:1052180022C4EFE0DFD77146814517E5FF1F13056C
:10522800651A97B0FF1FE780006817E4FF1F130493
:105238006419FD5717050000130545EE1CC0EFE083
:105248002F972308A400954517F5FFFF1305056F51
:10525800EFE04F85B240224401454101828097E743
:10526800FF1F938727189443056713071710D8C69D
:10527800514701007D1775FF9843232607005147C2
:1052880001007D1775FF98438567938717105CC7E2
:105298008280411106C6E13797E7FF1F938787147D
:1052A8009C43130700483703009098D7B8477D13ED
:1052B800370E0020337767003367C701B8C7B84790
:1052C800B70600F9FD16758F37060004518FB8C769
:1052D800B8473706F9FF7D16419B13679700B8C793
:1052E800B847B7080080B70E0002718FB8C7B84733
:1052F800370600FF7D1633671701B8C7F8474575AD
:105308007D1E619B13673700F8C7F8471377F7F8D6
:1053180013670703F8C7EC4793F5F58F93E5053056
:10532800ECC7F847718FF8C7F84711663367D7019C
:10533800F8C703A807051307F5FF7D753378E8005C
:105348003368C80023A8070503A847057D15137807
:1053580008FF1368480023AA0705F04B13660608E0
:10536800F0CBF04B698EF0CBC85F798D2167598DF2
:10537800C8DFCC5F37070040F58DB3E5D501CCDF3A
:10538800D05FB70570003376C601598ED0DFD0578D
:1053980009674D8ED0D7D057F18ED4D7D4577576AC
:1053A8007D16F18ED98ED4D7D4573706FDFF7D16DA
:1053B80037070200F18ED98ED4D7945BC19A94DB5B
:1053C800945B93F6F6F094DB945B93F6F68F94DB9C
:1053D800985BB70600504D8F98DB985B3377670072
:1053E800558F98DB985FB70608FFFD16758FB706CF
:1053F8008800558F98DF985FB368170123AC1703AF
:10540800B2404101828017E7FF1F1307A7FD1C4325
:1054180041767D16B44BF18EB4CB94473706200005
:10542800D18E94C7D44793E60601D4C7D447BD9A12
:10543800D4C7010001000100010014430566DC46E1
:1054480093E70701DCC6DC42D18FDCC283A7C6091B
:10545800A183858BE5DF01000100010001001C43E9
:10546800416603A7C709B44BD18EB4CB9376F70135
:10547800B84B019B558FB8CB9847B706E0FFFD1690
:10548800758F98C7828097E7FF1F9387A7F59C437E
:1054980041777D17B44F4166F98EB4CF9447D18ECA
:1054A80094C7D44793F6F6EFD4C7D443758FD8C3BF
:1054B800D44793E60610D4C7D843518FD8C3828007
:1054C800397122DC17E4FF1F1304C4F11C4006DE07
:1054D80026DA4AD84ED652D456D25AD05ECE62CCAC
:1054E80066CA6AC86EC6D843FD76FD161377F7EF0D
:1054F800D8C39857758F98D7D857B70602003D9BE1
:10550800D8D79847558F98C7D84313670701D8C38A
:1055180003C7318183C64181558F61EFD8438174B8
:105528009384F40F799BD8C3985FB166938606F08D
:10553800658F558F98DFD84313671700D8C397C076
:10554800FF1FE780200E1C4003A707091377F70306
:10555800A389E18003A7470929831377F707238ADB
:10556800E180D843B96693860670799BD8C3985F63
:10557800658F558F98DFD84313671700D8C397C036
:10558800FF1FE780200A1C4003A707091377F703CA
:1055980097E6FF1FA38AE6E403A747092983137741
:1055A800F70797E6FF1FA38DE6E2D843B566938613
:1055B8000630799BD8C3985F658F558F98DFD8439D
:1055C80013671700D8C397C0FF1FE780A0051840CE
:1055D8008327070993F7F70397E6FF1F2386F6E06B
:1055E80083274709A98393F7F70717E7FF1F2309BD
:1055F800F7DE1C4017ECFF1F034C0CDF83C631811C
:1056080003A7070AB386864113F6F600419B518F1C
:1056180023A0E70A130760023387E6021306700225
:1056280083A5070A7D7E130EFE0F93F5F5F013058B
:10563800400245737D13130430023347C702B7088D
:10564800F1FFFD1813082002930E10027D4FF94F49
:10565800F542F1436D4DD14B454BBD443949314A73
:10566800AD4AB5493D8B12074D8F9305500223A0D3
:10567800E70A3387B60283A5070AB3F5C50133479E
:10568800C7023D8B22074D8F23A0E70A3387A60266
:1056980083A5070A370500F17D15B3F56500334783
:1056A800C7023D8B32074D8F23A0E70A3387860256
:1056B80083A5070A6144B3F515013347C7023D8B3B
:1056C80042074D8F23A0E70A3387060383A5070AFD
:1056D800370810FF7D18B3F505013347C7023D8B26
:1056E80052074D8F23A0E70A3387D60383A5070AFD
:1056F800B70E0010FD1EE98D3347C7023D8B6207C8
:105708004D8F23A0E70A139756003347C702931516
:10571800C70103A7070A3377D7014D8F23A0E70AEC
:105728003387E6035D4F3347C7029375F70003A736
:10573800470A419B4D8F23A2E70A3387F60383A5C7
:10574800470AD94F93F5F5F03347C7023D8B120747
:105758004D8F23A2E70A3387560283A5470AD5420D
:10576800B3F5C5013347C7023D8B22074D8F23A2EE
:10577800E70A3387760283A5470ACD43B3F5650068
:105788003347C7023D8B32074D8F23A2E70A338781
:10579800A60383A5470A494DB3F515013347C70248
:1057A8003D8B42074D8F23A2E70A69473387E602FC
:1057B80083A5470AB3F505013347C7023D8B520756
:1057C8004D8FE54523A2E70A3387B60283A5470A2A
:1057D800E98D3347C7023D8B62074D8F23A2E70A45
:1057E800338786020D443347C7029315C70103A7C1
:1057F800470A3377D7014D8F23A2E70A3387E60399
:10580800254F3347C7029375F70003A7870A419BC3
:105818004D8F23A4E70A3387F60383A5870A9D4F94
:1058280093F5F5F03347C7023D8B12074D8F23A43C
:10583800E70A3387560283A5870A9942B3F5C5015B
:105848003347C7023D8B22074D8F23A4E70A3387CE
:10585800760383A5870AB3F565003347C7023D8BF6
:1058680032074D8F23A4E70A3387760283A5870A78
:105878009543B3F515013347C7023D8B42074D8F5A
:1058880023A4E70A3387A60383A5870A294DB3F51E
:1058980005013347C7023D8B52074D8F23A4E70A02
:1058A8003387660383A5870AE98D3347C7023D8B93
:1058B80062074D8F93954600B3C5C50223A4E70A36
:1058C80003A7870A3377D701F2054D8FB385960270
:1058D80023A4E70A03A7C70A419BB3C5C502BD892C
:1058E8004D8F23A6E70A3387260383A5C70A93F5B6
:1058F800F5F03347C7023D8B12074D8FB3C58602BB
:1059080023A6E70A03A7C70A3377C701BD89A205FB
:105918004D8F23A6E70A3387460383A5C70AB3F545
:1059280065003347C7023D8B32074D8F23A6E70A30
:105938003387560383A5C70AB3F515013347C70252
:105948003D8B42074D8F23A6E70A3387A60383A51D
:10595800C70AB3F505013347C7023D8B52074D8F80
:1059680023A6E70A3387E60383A5C70AE98D3347E9
:10597800C7023D8B62074D8F93953600B3C5C502AC
:1059880023A6E70A03A7C70A3377D701F2054D8F85
:10599800B385F60323A6E70A03A7070B419BB3C504
:1059A800C502BD894D8F23A8E70A3387560283A510
:1059B800070B93F5F5F03347C7023D8B12074D8F60
:1059C80023A8E70A3387760283A5070BB3F5C50139
:1059D8003347C7023D8B22074D8F23A8E70A139749
:1059E80026003347C70283A5070BB3F565003D8B37
:1059F80032074D8FB3C5360323A8E70A03A7070B61
:105A080033771701BD89C2054D8F23A8E70A13977D
:105A180016003347C70283A5070BB3F505013D8B75
:105A280052074D8FB3C5C60223A8E70A03A7070B81
:105A3800698FBD89E2054D8F23A8E70A03A7070BE5
:105A4800930580023377D70123A8E70A17E7FF1FDA
:105A5800034797993307EC40B34DB70283AC470B24
:105A680093FC0CFFB34B770393FDFD00B3ECBC0133
:105A780023AA970B83AC470BCD4D93FCFCF093FB0B
:105A8800FB00920BB3EB7C0123AA770BB30B8702C5
:105A980083AC470BB3FCCC01B3CBBB0293FBFB003D
:105AA800A20BB3EB7C01B34CA70323AA770B83AB00
:105AB800470BB3FB6B0093FCFC00B20CB3EB9B01F0
:105AC80023AA770BA14BB34B770383AC470BB3FCEB
