:040000006F10907D70
:1000040000000000000000009000002076020020A4
:10001400A9BDF9F5940000200000000000000000D4
:10002400960000209800002000000000000000005E
:100034009A000020000000009C0000200000000046
:100044009E000020A0000020A2000020A4000020A8
:10005400A6000020A8000020AA000020AC00002078
:10006400AE000020B0000020B2000020B400002048
:10007400F2020020B8000020BA000020BC000020DA
:10008400BE000020C0000020C2000020C4000020E8
:1000940001A001A001A001A001A001A001A001A054
:1000A40001A001A001A001A001A001A001A001A044
:1000B40001A001A001A001A001A001A001A001A034
:1000C40001A001A001A0B71700409306700523808A
:1000D400D704130780FA2380E7040100010003C654
:1000E400B7041376F60DA385C7042380070413769B
:1000F40005024DC203C6A700118A1DE22380D7045E
:100104002380E7040100010003C7A7001367470029
:100114002385E7009307004B01000100FD17EDFF65
:10012400B7170040930670052380D704130780FA9D
:100134002380E704010001007D892394A7000100C6
:10014400010001000100238007042380D7042380D9
:10015400E704010001000100010037270040930675
:100164001005A303D78023800704B71700401307A3
:1001740070052380E704130780FA2380E704010055
:10018400010003C7B70413670708A385E7042380A6
:10019400070482801376050441C603C6A700418A7A
:1001A4001DE22380D7042380E7040100010003C774
:1001B400A700136707012385E7009307007D01006B
:1001C4000100FD17EDFFB71700409306700523806B
:1001D400D704130780FA2380E70401000100137693
:1001E400F501136606042394C70001000100010011
:1001F4000100238007042380D704130660042380AE
:10020400E7046318C5000100010037270040894650
:1002140089BF01000100372700409306200591B7EC
:100224002380D7042380E7040100010003D787005B
:100234001367070C2394E7000DBF41118146014663
:100244008145114506C65922B717004013077005AA
:100254002380E704130780FA2380E70401000100E8
:1002640003C76704136717002383E7042380070485
:10027400B240410182808146014681451145B9223F
:10028400B7170040930670052380D704130780FA3C
:100294002380E704010001007D562396C7022380D2
:1002A400D7042380E7040100010003C76704136730
:1002B40017002383E7042380070401A0BD47330507
:1002C400F50201007D1575FD8280411122C426C20C
:1002D40006C6AA84014463179400B240224492449F
:1002E4004101828005041305803E4204C13F4180E0
:1002F400DDB7B7170040130700032388E7028547DB
:1003040023ACF19273002030411106C6852DFDBF48
:100314002303048015472303E48001002302A480FF
:10032400828083076480E3CE07FE230304808280F7
:1003340083076480E3CE07FE0345448082808307FD
:100344006480E3CE07FE2302A4808280411126C488
:100354004AC24EC006C61377F50BAD47AA892E894B
:1003640095446306F70019456537653F8D444E850E
:100374004537FD59FD1463983401B240A244124933
:10038400824941018280135509011375F50F453FD8
:100394002209CDB7011126CC06CEB7040800513787
:1003A4001545BD37713769372AC6A53F324593775E
:1003B400150089EB136515001375F50FF240E2443F
:1003C40005618280FD14E9FC0145CDBF397126DC4D
:1003D4004ADA4ED852D656D45AD25ED006DE62CE0F
:1003E40066CCB7E700E07D5783AA070022C603AABC
:1003F400470023A0E71823A2E718B7170040130704
:1004040070052380E704130780FA2380E70483C779
:100414004704930B75FFB684E20793FBFB0F8546F5
:10042400AA892E8B328937240040E187015763FA69
:1004340076016308D5008946130700026313D500CB
:100444000157D98F93F7F70FB71C00402382FC04A0
:1004540011472303E4801305F00F5D3D094CD135AA
:10046400636D7C11B7050700DA9537870700795566
:1004740063F2E504B3879500636EF702370B080057
:10048400A94733EB65016399F90689E48144513D39
:1004940026850DA0DA850945553D05090345F9FF73
:1004A400FD14050B693D81C49377FB0FFDF7DD3522
:1004B40069FD7D55B7170040130770052380E704D5
:1004C400130780FA2380E70403C74704418B238280
:1004D400E704F250B7E700E023A0571123A2471125
:1004E400E25432445259C259325AA25A125B825BC4
:1004F400724CE24C21618280A5476395F9068569B7
:100504001309F00FB3069900B3742B01B694134981
:10051400F9FFB3749900856B33796901416B938753
:10052400F9FFB3F7270199E363FC340193D9490038
:10053400C147E3E637FF99BF0569C1697D19D9B79A
:100544001305800D63886901130500026384790132
:1005540013051008CA85DD3B353D21DD4E99B38472
:100564003441D9B7DA852D45D533CA94E30099F2DD
:1005740005097D3BA30FA9FED5BF9387F9FF93F728
:10058400F70F6361FC0C83C71C0413073008631F57
:10059400F70437070800636BEB04B3079B00B70647
:1005A400100063F5D704334BEB0089476393F906D6
:1005B4008980D549E38C04ECDA850945413B11096E
:1005C4000327C9FF91472320E48003076480E34E97
:1005D40007FE23033481FD17EDFBFD14110B81C4C9
:1005E4009377FB0FE9FF7D3371F5E1B5B717004051
:1005F40003C75704B70708001377070219E3B7873F
:1006040007007955E378FBEA33079B00E3FFE7F83B
:1006140055B58547E382F9F2DA852D45053B938983
:10062400F4FFE38504E6293393F7390091EB83263D
:1006340004800327090093074900E39AE6E43E890E
:10064400CE84F1BFB5476396F9001305900BC93109
:1006540035BDB1471305B00AE38BF9FE99476391A1
:10066400F904B7050800B365BB002D45C5318144C5
:100674008D4BA14975396396740183270480232027
:10068400F9008504E39834FF8327048013172B01B2
:10069400635507002312F900D5BB2322F900FDB3EB
:1006A4009D476399F90281451305B0044531BD4462
:1006B4002320090023220900FD599D3993F7740072
:1006C400CA9703C70700FD14398D2380A700E3965A
:1006D40034FF6DBBA1476392F9046D398144630D06
:1006E4000B008D479304C0036308FB0093040005CB
:1006F40063048B01930440041375C507E30895D87C
:100704001945393139390545213126850D390945D0
:100714003D314931E31C05D669BB91476399F90022
:1007240013056006F536F53E130590090DB7E38F02
:1007340009D4F154A9BB19CD91CD09CE8147338792
:10074400F500834607003307F50085072300D7002B
:10075400E317F6FE828019C991C909CA910583A7D6
:10076400C5FF11057D16232EF5FEC5BF828001C984
:1007740019C62A960505A30FB5FEE31DA6FE8280C1
:1007840081473307F5000307070019E33E8582809C
:100794008507C5BF01112E8626CAAA841315060132
:1007A4009305F004418122CC06CE32C6EF104059A5
:1007B4002A8401C53246A685BD3F2285F2406244A3
:1007C400D24405618280854715C18DC105C2814728
:1007D400B306F5003387F50083C606000347070018
:1007E4006398E6008507E315F6FE85473E8582801B
:1007F4008147EDBF9307F6FFBE952A966313C500A4
:100804008280FD1583C715000505A30FF5FEFDB70E
:10081400AA87014581CF09CE3E96850703C7F7FF16
:100824006317B700E39BC7FE0545828082800145BC
:1008340082807971973700009387877422D480432C
:1008440006D626D24AD04ECE52CC56CA5AC85EC616
:1008540062C45DCC37C9C901814B173A0000130A41
:10086400AA76973400009384E4711309F937973A10
:100874000000938AAA6BB709C0A8370B4057835767
:10088400240095E35C44639D0B0017370000232983
:10089400F76E032CC4002285EF10A057628499A838
:1008A40023A6FB00FDB783270A0082978386640191
:1008B4001C4463DB06063307F5406367E908973792
:1008C400000023AD076683552400034504009740C8
:1008D40000E0E780209F5C405844A9CF1444B697B9
:1008E4008386640163C5060063E33701DA971CC499
:1008F400A28B3A8449F497370000938727639C4B73
:1009040009476378F706F917173700002328F762B9
:10091400B250225492540259F249624AD24A424B8A
:10092400B24B224C45618280E377F5F83387F94076
:100934002A9761B763970B009737000023A2E764F7
:1009440089BF23A6EB00B1B7D85009CF63DF0600F7
:100954003385A74083A70A016376F5009737000023
:1009640023AEA75CA28B404471B7E3F3A7FECE97F6
:10097400C5B79737000023A3075C59BF411122C4B0
:10098400173400001304845D1C4006C626C24AC006
:1009940091C782979737000023A2075C5C4091C3FC
:1009A40082971C406391071C9737000083C717790F
:1009B400858B9DC797370000A382077817370000FF
:1009C4000347F777954763FDE700EF001037973744
:1009D400000083C7D776F5178A07A2979C438297AE
:1009E40017390000130949798347C900918B99C3CA
:1009F400EF1060281C4491C38297973400009384BD
:100A0400E4579840173600000346565297370000C3
:100A140083C7C75193961700BA9683D60600D5CAE2
:100A24009737000083C7875063EFC70A97370000E2
:100A3400238E074E1C40639807129737000083C724
:100A4400377091CF9737000083C7776F89EB97375B
:100A54000000A387076E979001E0E78080E1973755
:100A64000000938767569C43638F070EB707C0A89F
:100A7400173700002324F74C6D3B9737000093870A
:100A84006750DC53EDC3173700001307274A184B90
:100A94009737000083C757506367F70C1737000078
:100AA4000347F769954763E0E70C8347C900918BD7
:100AB400DDEB90409736000083C6564763CBD70AD8
:100AC4002244B240924402494101173300E06700D6
:100AD400835C850793F7F70F973600002388F64465
:100AE400E3E6C7F235BF86073E9783550700231018
:100AF4000700973700002391074897370000938732
:100B0400A7459C43173500000345454213172500AC
:100B1400BA979C4382979737000083D7E7451737E6
:100B240000000347A74093C7F7FF7D8D9317170075
:100B340098403E97835707005D8D2310A700973791
:100B4400000083C7A73E91C7850717370000230F0E
:100B5400F73C173700000347673D9737000083C70A
:100B6400F73CE375F7ECB240224492440249410158
:100B74008280139717003297035707006DF7850794
:100B840035BFAD6737C70040BD072326F7200F10D8
:100B940000009737000093876739C84F832787265B
:100BA400BD66BD0693C7F7FF99836A052326D72040
:100BB4005D8D82804111B7170040985F3AC6945FFB
:100BC4003247E39CE6FE324541018280828003275E
:100BD400851163000712411122C406C68347C5006C
:100BE4008345C5042A8493F7C70F2306F50083467B
:100BF40097000356C70013958601618563F1C50804
:100C0400635A05060345870093F6F607A304D70045
:100C1400054693E627006314C50093E617002306F0
:100C2400D4005C4389075CC3A30AB4000325041100
:100C34002E864C430905013683278411034654014B
:100C4400D44303D7C700B296118FD4C32396E700C9
:100C54008947A30DF400034744039737000083C773
:100C640087336378F7048347C40093E707012306B7
:100C7400F40081A093E717002306F40075B7937678
:100C8400F60F635D050203458700854513E62700DB
:100C94006314B50013E617002306C400A30AD400A6
:100CA400A30407008547A30DF400832784119C4304
:100CB400DDF3B240224401454101828093E71700ED
:100CC4002306F400A30AD400A30407000325041197
:100CD4004C4309058D348327841103465401D443BE
:100CE40003D7C700B296118FD4C32396E7008D476C
:100CF4005DBF0545828097370000938767429C4318
:100D0400411122C406C6858B2A84C5EF41651305AB
:100D140025F5973001E0E78000F345C58347A5003A
:100D24002315F50083270412BDE72320A4122322F0
:100D3400A41285472310F40423200500834764018B
:100D440054412316F5000347D4002304E500054766
:100D5400A304E500173700001307073E184F138557
:100D6400170215811C437D151375F50F9CC25C4356
:100D7400DCC21C479CC65C47DCC61C4B9CCA5C4B53
:100D8400DCCA1C4F9CCE5C4FDCCE19CD9386060288
:100D940013070702C1BF8327441288C3835704047F
:100DA4002322A412850779B79737000083D7074613
:100DB400850717370000231BF744B2402244410142
:100DC40082808347C40023090400054593C7470074
:100DD4002306F400DDB78347850193F7E70FD5EFCA
:100DE40083479501DDEB034625018346C50009CA07
:100DF40083454503173700000347F71963E7E50008
:100E040013F7060141CF014709C6C18A0357851B61
:100E140081C68356C51B369751C31307C7121735AE
:100E2400000003552513B335A70237460F004111BF
:100E340013060624814622C426C206C67D54330501
:100E4400A702973002E0E78040B49737000083C7D9
:100E5400F714B384A700973700009387A73A03A732
:100E6400C7088327070963F387003E84184375FB8B
:100E740097370000938747159C43829781476364A3
:100E8400A400B307A440B2402244B3B7970093C769
:100E9400170092443E854101828081473E858280CD
:100EA400797126D206D622D44AD04ECE52CC56CA16
:100EB4005AC85EC68347350303447513AA843E9417
:100EC4001374F40F9307400263F687001304B4FD10
:100ED4001374F40F03AA841383AAC413A38B841278
:100EE40022865285D685973002E0E78040A50589A1
:100EF40015E503CBD41201498149337B6403930B79
:100F040050024A865285D685973002E0E78020A3B6
:100F1400058915C5639169031374F90F238B841232
:100F2400B250225492540259F249624AD24A424B74
:100F3400B24B456182808509E20993D9894105094B
:100F4400E31179FDE1BF832785090356E503797130
:100F540093D60701BD8EC206C182358E13577640E3
:100F640093575640898B058B5D8F93573640918BF1
:100F74005D8F93571640A18B5D8F93171600C18B1D
:100F84005D8F9317360093F707025D8F9317560012
:100F94009355860093F707041E065D8F1376F60FAC
:100FA400518F93D7554013D63540118A898BD18FF1
:100FB40013D67540D18F13D61540218AD18F13963D
:100FC4001500418AD18F1396350013760602D18F0E
:100FD40013965500137606049E05D18F93F5F50FED
:100FE400CD8FA20745465D8F3307C70222D42A84DA
:100FF40026D252CC56CA032A8413832AC4135AC84D
:1010040006D6369742074183935777401355574086
:101014000989858BC98F135537401189C98F135599
:1010240017402189C98F131517004189C98F1315DA
:10103400370013750502C98F1315570093558700A0
:10104400137505041E07C98F1377F70FD98F13D5AE
:10105400354013D755401189098B498F13D57540F5
:10106400498F13D515402189498F1395150041895E
:10107400498F1395350013750502498F1395550053
:10108400137505049E05498F93F5F50F4D8F2207BF
:10109400D98FB387C7024AD04ECE5EC662C4B69714
:1010A400C207C18313D7774013D557400989058BED
:1010B400498F13D537401189498F13D5174021899A
:1010C400498F139517004189498F1395370013757C
:1010D4000502498F1395570093D5870013750504AE
:1010E4009E07498F93F7F70FD98F13D5354013D740
:1010F40055401189098B498F13D57540498F13D5F4
:1011040015402189498F139515004189498F1395FD
:10111400350013750502498F1395550013750504A1
:101124009E05498F93F5F50F4D8F2207D98FB3870D
:10113400C702130650025285D685B697BD8E939486
:101144000601C18033F6C402137BF60F972002E038
:10115400E780E07E05890DED8347D412014981497A
:10116400B3849702130C5002C1804A865285D685F7
:10117400972002E0E780A07C0589937BF90F11C5D5
:1011840063863403850993F9F90F0509E31F89FD83
:10119400230B6413B250225492540259F249624A06
:1011A400D24A424BB24B224C456182805E8BCDB712
:1011B4000111973700009387E70422CC03A4070B9F
:1011C40026CA06CE2AC42EC6854419E40145F24037
:1011D4006244D2440561828083479100034714002E
:1011E400858B6304F7000044CDB719469305A1002D
:1011F40013052400EFF02FDDE31795FE0545C1BF6D
:10120400011122CC173400001304C4F418402AC678
:101214002EC432C206CE3C4B93F7F7F73CCB9780F3
:1012240001E0E780C0611840973600009386C6EF5E
:101234003C4B93E707083CCB9C423245A24523A094
:101244000700034715000348250022074208429778
:10125400034805004297034835006208429798D72F
:101264000347550003486500220742084297034894
:10127400450042970348750062084297D8D7034750
:1012840095000348A50022074208429703488500B9
:1012940042970348B5006208429798DB0347D5009C
:1012A4000348E5002207420842970348C500034566
:1012B400F500429762052A97D8DB03C7150003C5DA
:1012C4002500220742052A9703C505002A9703C56E
:1012D400350062052A9798CF03C7550003C56500FA
:1012E400220742052A9703C545002A9703C57500BE
:1012F40062052A97D8CF03C7950003C5A500220726
:1013040042052A9703C585002A9703C5B5006205DF
:101314002A9798D303C7D50003C5E50022074205E1
:101324002A9703C5C50083C5F5002A97E2052E97C1
:10133400D8D3D843759BD8C3D84313671700D8C3F1
:1013440098431367170098C3124698425C43858BF1
:10135400D1E71C4F01452300F6009C429C4FA1831A
:10136400A300F6009C429C4FC1832301F6009C42DB
:101374009C4FE183A301F6009C42D84F2302E60070
:10138400D84F2183A302E600D84F41832303E6000C
:10139400D84F6183A303E60098532304E6009853CF
:1013A4002183A304E600985341832305E600985360
:1013B4006183A305E600D8532306E600D8532183AE
:1013C400A306E600D85341832307E600DC53E183F8
:1013D400A307F600F2406244056182800100B5B7BC
:1013E40017370000130787D41443411122C49C5EAD
:1013F4004AC006C6998326C2858B3A8417390000F1
:10140400130989D2D1CB9C5E973400009384C4D253
:1014140093F7F7F99CDE17370000034747D2930789
:101424000008631BF700832709009C4393F7070414
:10143400173700002305F7D083C7040093F7070488
:101444009DC397370000938727B89C4382979737AB
:10145400000023ABA7CE83C7040093F7F70B17371D
:101464000000230BF7CC83C7440093F707048DE7F0
:10147400854717370000A303F7CC973700009387FD
:1014840067CD9C43096798C7130700FC9736000093
:101494002386E6CAD844F8D31C40985F1183058B91
:1014A40009CB985F3D9B98DF05479736000023875B
:1014B400E6C8985F1D83058B11CB985F1377F7F708
:1014C40098DF854717370000230AF7C683270900EA
:1014D400D8430583058B19C7D843759BD8C3D84314
:1014E400799BD8C3B240224492440249410182808C
:1014F400397106DE16DC1ADA1ED82AD62ED432D278
:1015040036D03ACE3ECC42CA46C872C676C47AC2F7
:101514007EC0F935F250E2525253C2533255A255AD
:10152400125682567247E2475248C248324EA24E81
:10153400124F824F21617300203097370000938748
:1015440067C1944397370000938707BF03C7070019
:10155400058B11CB97370000238207BE9737000015
:10156400A38E07BC828003C71700058B65F7F8526A
:1015740071FF83C75700DDB717380000130808BB95
:10158400032708001C5F9583858BD1E709C61C5B84
:10159400BD832300F60085CA83270800985B4607AD
:1015A400935767016356070093E707C0C207C183D7
:1015B40003970600C207C18709C7BA970947B3C78B
:1015C400E7022390F60085CD834715008DCB97362F
:1015D400000083C6C6B693F60604138797008947AE
:1015E4008DCA3A9503470500854699471376F70651
:1015F4006311D60262076187B947634C07008327EA
:1016040008009C5FED838D8B17370000A30BF7B2A6
:1016140081473E8582808547EDBF411122C406C6BD
:1016240017340000130404B3184049E9AE87745317
:10163400FDFE3E85B28597370000238007B0978072
:1016440001E0E78020FB97370000938727AE9C4397
:10165400B70680009843558F98C3D857719BD8D745
:1016640097370000A38C07AC97370000A38607AC1C
:101674001C40094798C3B7F700E003A707D16D9B47
:1016840023A8E7D003A707D15D9B23A8E7D0730065
:101694005010144017370000130707AA8347270088
:1016A400858B89EB83473700858BD9C79737000033
:1016B400238607A8B2402244410182808D476310EB
:1016C400F50297370000938767A69C43B70680000E
:1016D4009843558F98C3D857719BD8D75DBF85471A
:1016E400E319F5FAB567BD075CC70F1000001C408D
:1016F4000967094698C7130700F897360000238F37
:10170400E6A217370000130767A2144398423183F7
:101714000D8B6319C7001307E043F8D33D673D07FA
:10172400D8C785BF984231830D8B01E71307601931
:10173400EDB71307E01BD5B7FC52ADF3A5BF5D7140
:1017440052DC173A0000130A6A9E03270A0086C671
:10175400A2C4A6C2CAC04EDE1C43973900009389B6
:1017640029A4173900001309E99E93F7F7E793E7D3
:1017740007081CC383A609003707CEFF7D179C46C4
:10178400130680022A84F98F9CC683270900130755
:1017940000082800B8CBAE8493051008EFE03FFDA5
:1017A400978001E0E780A009978001E0E780A01618
:1017B40083270A009376F41F370FFCFF23A4070046
:1017C400984B4E88CA881367F70398CBF84F1305D4
:1017D40010F8D285137707E0558FF8CF9843F57644
:1017E400FD16758F98C39843B7063300B7020400FB
:1017F4001377F7E798C398439303401F7D1F13772C
:10180400F7E71367071098C303A70900930F800233
:1018140085491C47D58F1CC7832709001307900DE2
:101824003400B8CB1149014713533700269383473B
:10183400030013767700B3D7C740858BDDCF9C4177
:10184400832E0800239C07042390070603AECE02D0
:10185400137EDEFF23A6CE0383AE0700137EF707B5
:1018640093FE0EF833EECE0123A0C70103AE470268
:10187400336E5E0023A2C70383AE0800014E23A289
:101884007E0603DA070663074E0303AE0703038AE3
:101894000600135EFE00620E135E8E416358CA0199
:1018A40003AE0703135EFE002380C60103DE0706B2
:1018B400137EFE0F03AA4E0663060A0003DA8705A9
:1018C400E37F49FB03AE4702337EEE0123A2C70345
:1018D40083870600635CF400034E03003396C9005B
:1018E4001346F6FF3376C6012300C3003E8663D356
:1018F400A7002A8613158601618505071377F70F5C
:101904008506E313F7F3B640264496440649F25994
:10191400625A61618280973600009386A6839C4256
:10192400D847131617016355060298471316170173
:10193400635006027D57B8D7172700001307075FC7
:10194400584F0507172600002320E660116798C743
:1019540098470D83058B1DC3172700000347E77DB8
:1019640013671700172600002309E67C130700F805
:10197400172600002304E67C214798C79847058B67
:1019840009CF172700000347377B13671700172673
:101994000000A303E67A054798C798470983058B97
:1019A40009E798470583058B31CF98471726000030
:1019B4001306867817250000130545770983058BE0
:1019C400630307101841184331830D8B75EBAC4B3F
:1019D400184E93F5050203471700CDCD79EF130791
:1019E4007006D8CF034706001367170017260000B8
:1019F4002304E674114798C718415C57F19B93E799
:101A040017005CD79C4298479316370163D60602A9
:101A14009736000083C60686C18A1727000013077D
:101A2400677EC5CE03470707136707029736000092
:101A34002382E684056798C798479316270163D1E4
:101A44000602172700000347676F62076187635721
:101A540007000547972600002382E66E096798C7AA
:101A640098479316070163D606029736000083C68B
:101A74007680858A172700001307C778ADCE034701
:101A840017071367270097260000A385E67E2167C2
:101A940098C7828029D785456315B7001307B00618
:101AA40089B789456315B7001307F0061DBF8D4537
:101AB4006315B700130730072DB71307500715B781
:101AC4001307600739BF034736001367170017264B
:101AD4000000A304E666094739BF834607070946A1
:101AE400BD8A6388C600034707078D463D8BE31311
:101AF400D7F4114725BF83461707918AC9DA0347EC
:101B040017071367870041B7397106DE16DC1ADA46
:101B14001ED82AD62ED432D236D03ACE3ECC42CAA1
:101B240046C872C676C47AC27EC0F533F250E25219
:101B34005253C2533255A255125682567247E24747
:101B44005248C248324EA24E124F824F2161730056
:101B5400203017270000130727608346B701972713
:101B6400000083C737624C4BB697FD8B33D7F50023
:101B740097260000A382F65E97260000A384F660F1
:101B8400058B15EF1727000003471760B3F7E7022B
:101B9400814601471305000233D6E500058A137810
:101BA400F70F19CA6397D70097270000A386075B2E
:101BB4008280850693F6F60F0507E31FA7FC828053
:101BC40097270000938747409C43011122CC4EC6BF
:101BD40006CE26CA4AC852C456C282979727000026
:101BE40093878759804781496305A406BE84972754
:101BF400000093872739038767013E8963550706E9
:101C0400018D135455009727000083C78756937995
:101C1400F501636DF402370AC0A8B70A4057153FAF
:101C24009C449726000083C6C654139756003E97DB
:101C340083076901158C63C50700636347015697E1
:101C44009727000023AEE752E37BD4FC1604B36964
:101C54003401F24062444E85D2444249B249224A98
:101C6400924A05618280E37D85F8B707C0A8338472
:101C74008740229579B7972700009387E7349C43E0
:101C8400411122C406C626C2829797270000938773
:101C9400A74E80476309A406BE8497270000938754
:101CA400672E8387670163D80704018D1354550099
:101CB4009727000083C7E74B6367F404593D9844B2
:101CC4009727000083C7E74A9396570036971D8CE1
:101CD4009726000023A6E64AE372F4FE2244B240AB
:101CE4009244172500000345354781454101178378
:101CF40001E067006309E37A85FAB707C0A8338473
:101D04008740229565B7B2402244924441018280C3
:101D1400972700009387C7489843B75702009387D3
:101D2400079F8326070913965600635806008326E7
:101D340007091396660063440600FD17FDF38280CD
:101D440071C5AA870145E9C58D07C207C183F19B07
:101D5400C207C18313074003636FF702172700000C
:101D64001307074A0843172700001307E7481443DB
:101D74006398A602172700001307C720185B0145C4
:101D840041CB4111C20706C60545DD8D0297B2401D
:101D94000145410182801727000013072746D9B760
:101DA4000357650035E303574500636FF704B30633
:101DB400F7402146637CD6020328050093868700FA
:101DC4001D8FAA96611717260000035686162392C4
:101DD400E60023A006012393060014C12312F50094
:101DE400130786FF972600002395E6142313B500F6
:101DF4009725000083D5E513B387F5401727000026
:101E04002319F7122105828008419DB7014582807C
:101E140082800DC1972700009387873E03A30700A4
:101E2400972700009387473D83A8070081469A8738
:101E340063E31701828003A80700636DF50A636BEF
:101E4400A80A13878700E367E5FE03D667002167C6
:101E540005076317E60003C7019C05072380E19C7F
:101E6400972500009385850C03D6470003D76500AA
:101E74002393070032974207418317250000231A52
:101E8400E50A638A67021725000013052537084110
:101E94006303F50203D5660019ED83D7460023A03A
:101EA400060121073E9621062392C60097270000CB
:101EB4002391E708B6879843E30E17F797260000A7
:101EC4009386C6339442E307D7F683566700BDF280
:101ED40083D64700035647001843A106B2962392BF
:101EE400D70098C383D76500A107172700002312E2
:101EF400F7048280BE86C28725BF011197270000A0
:101F04009387473022CC03A4870B26CA4AC84EC6FF
:101F140006CEAA8413092500854915C083C7140079
:101F240003473400858B6304F700405CFDB7194612
:101F3400930544004A85EFE01F89E31835FF2285A5
:101F4400F2406244D2444249B2490561828041115F
:101F5400972700009387072B22C403A4870B26C26C
:101F64004AC006C693042500054901E82285B2400B
:101F740022449244024941018280A6851305A402A9
:101F8400971002E0E780E050E30225FF405CF1BFD8
:101F94004111972700009387E72622C403A4870BE7
:101FA40026C24AC006C693042500054901E82285D5
:101FB400B24022449244024941018280A68513051D
:101FC400A401971002E0E780C04CE30225FF405CC7
:041FD400F1BF000059
:101FD80097110020938181C5176100201301010228
:101FE8001305400097E5FF1F93854501170600205C
:101FF800130606FE63FAC5008322050023A05500D8
:1020080011059105E3EAC5FE172502001305855A57
:10201800970500209385C5FB1386818E63FAC5005A
:102028008322050023A0550011059105E3EAC5FEAA
:102038001385818E972500209385052E6377B5003B
:10204800232005001105E36DB5FEFD42739002BC27
:102058008D42739042809302800873A0023097E209
:10206800FF1F9382A2F993E23200739052309722B5
:1020780000009382E2D073901234730020302A83D8
:1020880009CA83830500230073007D1605038505AF
:102098006DFA8280B717004003C777051377E70FFB
:1020A800A38BE704130700F8A38DE7043D47238CAF
:1020B800E70413075003A38CE7048280411122C46C
:1020C80006C626C22A845D21B7170040930670050C
:1020D8002380D704130780FAAA852380E704010028
:1020E800010003C6F70213668600A387C70203C66A
:1020F800F7021376760FA387C7022380D7042380BD
:10210800E7040100010003C6E7021376C60F238720
:10211800C70203C6E702136616002387C702238097
:10212800D7042380E7040100010003C637051376AE
:10213800860FA389C70403C6370513661600A3894B
:10214800C7042380D7042380E7040100010003C7E4
:1021580037059166130680FA13670702A389E70417
:1021680003D70705558F2398E7049306700503C71F
:1021780037051377070271CB130680C133C6C50232
:1021880013055002A1671163938707D0130E03E864
:10219800930860FB014891637D138D44894E930F2A
:1021A8007005130F80FA3305A6023345F502BD67A3
:1021B800938707A633CEC503B302A040B30816031E
:1021C800B3C8F802B717004003C73705218B6DDF86
:1021D80003D7070503C73705218B6DFF03D707050D
:1021E80033677700420741832398E70403C737051D
:1021F800218B6DDF83D6070503C72705B3F6660075
:1022080033076702BA96B386C6416354D50063CBD9
:102218005604630B980405081397160033471703F1
:102228001378F80F635CD01605072380F705238021
:10223800E7053347D7030100010083D6C702369765
:10224800420741832396E70241B72380D7042380BE
:10225800C7040100010003C7370513670702A389F4
:10226800E70431B7E30908FAB717004003C7370591
:10227800218B6DDF03D7070503D707059166558FB7
:102288002398E704130770052380E704130780FAEF
:102298002380E7040100010003C737051375F40F15
:1022A800930694FF1377870FA389E70403C73705BD
:1022B800B336D00013087005498FA389E704930843
:1022C80080FAB717004003C73705758F71EB3717CA
:1022D800004083473705A18BEDFF37170040834740
:1022E8003705A18BEDDF835707058346270511675F
:1022F8007D17F98F3387E602B7460F0093860624C9
:102308003306C040B3C5D502BA970567130707FA65
:1023180033178700930600103307B7023347D702F5
:10232800A1460E07998F0547331787003347D70211
:10233800930660553307C7023307D702BD669386F5
:1023480006A63347D7029306800C6357F006B38777
:10235800D702B3C7E70285070947B3C7E702930661
:102368007005371700402300D704930680FA23002E
:10237800D7049607010001008356C702B697C20723
:10238800C1832316F7028347370593F7F70DA3098F
:10239800F704B24022449244410182807D1771B50E
:1023A80023800705238017050100010003C73705AF
:1023B800498FA389E70401BFB387D702B3C7E702F0
:1023C800FD1759BF41112A830148930E407E130F10
:1023D8000019930F40069318030193D8080163EF7F
:1023E8001E0113030019337365028542FD4363F030
:1023F800B20A8D4F214F930E400689A87D13336E84
:10240800E3039308E016630E0E00336EF30393089C
:10241800D01663080E009378330093B81800938899
:10242800D816C29813980801135808016DB793F885
:102438001500138EF5FF6371BF04F908C29813984D
:10244800080193150E0113580801C181E391F5FFA6
:102458008545630B0300B378D5038145638608007F
:102468009375350093B51500F105C29513980501CC
:10247800135808018945D9BFB3881341C2981398E6
:10248800080193150E0113580801C1818DB77D16F7
:10249800329879463307C70213D61700BE07420899
:1024A8001358080132976146B3F6C60213068070C6
:1024B800B386C6023697A166F58F4207D98FB7163D
:1024C800004003C7F60213770708A307E100034695
:1024D800F10003C7F60213770708E314E6FE034783
:1024E800F100B71600403DCF37170040930670053E
:1024F8002300D704930680FA2300D70401000100C3
:10250800232A07038346170311667D1693E60608F8
:10251800A308D702545B4C5FAD8EF18EE5FE93069F
:1025280070052300D704930680FA2300D70401001E
:1025380001005CDB8347170393E70704A308F7024E
:10254800230007044101828003C7F60213770708B6
:10255800A307E1000346F10003C7F6021377070853
:10256800E314E6FE0347F10065D3BDBFB71700408B
:1025780003D787009317070113770704C18309EB73
:10258800FD8B3755E801130505803345F502828038
:1025980013F7070C930600046316D700FD8B374525
:1025A8009C1CD5B72165130505D08280B7F700E0DC
:1025B8008847CC478280411106C683A7418F91C3C3
:1025C800829783A7018F91C382971707002003572B
:1025D80027E69307C01263F4E70483D661801306E5
:1025E800B0126361D60403A6C18E11C6B2401305AA
:1025F800C012410102863385D740E5473305F5020D
:102608000507158F4207418309839307F7FF3E9516
:102618003345E5021375F50FB24041018280130579
:102628004006DDBF0145CDBF2D453DEBDC414111E5
:1026380022C426C206C603C7070083C71700B6848C
:102648003284A207D98F0D67930697A1639AD702A0
:102658009D3797070020938787DD03C707006374BA
:10266800E5002380A70083C7070005472390E400FF
:102678002300F4000145B240224492444101828083
:10268800130787902945E398E7FECC4589472390AF
:10269800F4000946228597E0FF1FE7808009D9BF2B
:1026A8008280DC41411122C406C626C203C8070045
:1026B80083C717002944A207B3E707010D68130869
:1026C8002890639607038547B284EF7080372A8481
:1026D80019ED03A7818F01CF83C7140083C60400B7
:1026E800A207D58F93B71700138517000297B2403A
:1026F8002285224492444101828083474500858B8C
:10270800ADC7011122CC2A8403552500938581A2E7
:1027180006CEEF70C02D058929C503552400014751
:1027280081460546ED45EF60F0662AC61DC9970744
:10273800002083D7478D2314F10085472315F10026
:102748009707002083C7A7CE2300F5000355240070
:1027580001462C00EF80800609C5ED452800EF6092
:10276800307BF2406244056182808280416541117C
:10277800938581A27D1506C6EF809075B2409706B5
:1027880000209386E68441469545170500201305E9
:10279800E58441016F80F06823ACA18E8280854773
:1027A8006318F502834706002384F18E170700207B
:1027B8000347E7C76370F7024111170500001305C7
:1027C80005F406C6EFB0A02DB24001454101828054
:1027D800094582800145828089476305F50263EBDC
:1027E800A70011ED9707002083C767C42380F50071
:1027F800014582808D47630EF5000945828083C7B5
:10280800818EEDB797F7FF1F83D7E77D2390F500FB
:10281800C5B79707002083D767C12392F50097F7BC
:10282800FF1F9387A77B03D7A70283D7A70323900C
:10283800E5002391F50085472383F50055BF411135
:1028480006C6953B97070020938767BE03C7070016
:10285800637AE5002380A70017050000130525EA21
:10286800EFB0E023B240014541018280C167F9170A
:10287800630CF502411122C406C685472A84639A6F
:10288800F50022852244B240938581A241016F80E0
:10289800306489476396F5008545EFB0C01A75D155
:1028A800B24022444101828082803285D041411168
:1028B80006C683451600034806000D66A205B3E563
:1028C800050113980501135808419308A6A263C887
:1028D8000803130626A26358060375761306C65D19
:1028E800B295C205C18119466363B6021718020082
:1028F800130848458A05C2959041429602861306F8
:1029080006A5630DC81023900600A94525A01D46FD
:102918009D456361E6022146198E63F3C7003E8632
:102928002390C6009385C18FBA9597E0FF1FE78073
:1029380040E08145B2402E85410182802D469D456B
:10294800E36AE6FE3146198E63F3C7003E8623909C
:10295800C600971502009385A547F9B731469D45EE
:10296800E36AE6FC3546198E63F3C7003E8623907A
:10297800C600971502009385A5447DB741469D453D
:10298800E36AE6FA4546198E63F3C7003E8623904C
:10299800C600971502009385654179B741469D4564
:1029A800E36AE6F84546198E63F3C7003E8623902E
:1029B800C600971502009385253EBDB741469D4543
:1029C800E36AE6F64546198E63F3C7003E86239010
:1029D800C600971502009385E53AB9B741469D456B
:1029E800E36AE6F44546198E63F3C7003E862390F2
:1029F800C600971502009385A5373DB735469D4516
:102A0800E36AE6F23946198E63F3C7003E862390DF
:102A1800C600971502009385A53439B719469D4518
:102A2800E36AE6F03386E54063F3C7003E86239009
:102A3800C600970500209385E59FFDB597F6FF1F13
:102A48009386C65E4146CD4517F5FF1F1305C55E43
:102A58006F80303D828082802A8783C7C19003A51A
:102A6800019183C6F18199E30145828003560500EF
:102A78006316E60003466500E309D6FEFD1793F7E3
:102A8800F70F2105CDB70111930500030D4506CEBB
:102A9800EF30F040930500051145EF3050409305A5
:102AA800C0030545EF30B03F85471306F100854563
:102AB80013055030A307F100EFC0710DF240056116
:102AC80082808547631AF5001166130686A9894531
:102AD80003C501926F10501089476317F5008945A7
:102AE80003C501926F103030828085476398F500E6
:102AF80019E2238CB190238AC19082800947639997
:102B0800E50019E6238CF19003D561916F0060729E
:102B18008280011122CC06CE83A781902E8499C78A
:102B28009C4789C76244F240056182876C0013059F
:102B38007040EFA01174324622858145EFB0C1354F
:102B4800F24062440561828041119397050122C4D5
:102B580006C6C1872E8463DF070003C50192EF1004
:102B6800402D19C1EF10C0252165218DB2402244A6
:102B78004101828093F7150085C317F6FF1F1306DE
:102B8800665F97F5FF1F9385255E03C50192EFC029
:102B9800214F13451400D9BF13F5250061D94531DC
:102BA8001166130686A9894503C50192EF10D00264
:102BB8001345240065BF797122D44AD052CC06D679
:102BC80026D24ECE56CA91472A842E89138AC1919D
:102BD8006314F50483D7A5001306E10085451305A2
:102BE8005030239BF19023070100238C0190EFC004
:102BF800017A83A7819091C7DC4781C7CA8522855E
:102C0800829723208A00B250225492540259F249E2
:102C1800624AD24A4561828003270A00E31BF7FC17
:102C28009384619103D504008545893103D5040057
:102C38008545A12D83DA0400C167F917639BFA0261
:102C480085449305E10013055041238C0190A38F1F
:102C5800918023070100EFA0D1618347E100A1E340
:102C680003C741919147E316F7F8313D238A019054
:102C780049B783A9019183C4C190F9D003D529002C
:102C880011C99305E100EF70E03B09C54C45568535
:102C9800EF801024FD1493F4F40FA109F9BF83A762
:102CA800419083C74700898BC5DF9305000A0D450E
:102CB800EF30F01E9305000A1145EF30501E814594
:102CC8000545EF30D01D1306E1008545130550304A
:102CD80023079100EFC0A16B61B701111705000030
:102CE8001305C5E606CE22CCEF1070371384019287
:102CF80085471306F10085452300A40013054041CC
:102D0800A307F100EFB0C1407D55EF60E0507D555D
:102D1800EF80F0182533993CE521170500001305CD
:102D280085DA9D3C17050000130525D301230345CB
:102D380004006244F240854505616F10E05723A402
:102D4800B19023A2A190828023A8B1902386A1905C
:102D58008280797106D622D426D24AD04ECE52CC61
:102D680083A7C1911147639FE70A83C7819199EBB4
:102D78004144B2502285225492540259F249624A7F
:102D880045618280B284B68903A4019183C7C1904A
:102D980003C7F18185C7834644006393A60283462F
:102DA8005400639FB60083466400639BE6000355A6
:102DB800240093056100EF70E02801E9554455BFF0
:102DC800FD1793F7F70F2104F1B7138961914C456B
:102DD80003550900EF60B04105896DD1035509001D
:102DE800014781462686ED45035A0400EF60807A44
:102DF8002AC64D443DDD2686CE8523144101231580
:102E0800910097E0FF1FE780C09203550900014633
:102E18002C00EF70B01A2A8429DDED452800EF60F8
:102E2800300F81BF0947E385E7F42C0013055041B3
:102E380023040100EFA0F143834781008DCB930564
:102E480000020D45EF30B005930500031145EF3042
:102E5800100595450545EF309004854730008545B8
:102E6800130550302304F100EFC0615211B7213926
:102E780001B741114AC03689D44126C206C622C4C8
:102E880003C41600B28403C6060022040D68518CE0
:102E980001CF1308B8A42D4563080407B2402244A3
:102EA80092440249410182809306D8A46300D40267
:102EB800930628A2630CD400F5789388E85CA2985E
:102EC800C20893D80801854663EC160303D5A5000C
:102ED80061361DC183A781902286224403A807007A
:102EE80083455500B24003454500A6874A8792446A
:102EF800024985464101028823100900014579BF2E
:102F08001306B8A46319C40203D881821D45E37768
:102F180007F93308E84063D307013E88CC45131608
:102F28000801231009014182BA95268597E0FF1F01
:102F3800E7802080E1B79307A8A46318F4009147BD
:102F48002310F9001146CC45CDB793078890631735
:102F5800F40089472310F9000946F5B79307E8A458
:102F6800631AF400DC452310D90083C707002380C7
:102F7800F40069B713087890E31204F9D9BF011176
:102F880006CE22CC26CA4AC82317D10063130712DB
:102F9800DC412E89B28403C4170083C607008D67FD
:102FA8002204558C9386D7A46306D400938627A35E
:102FB800631CD4020355A900453401E90145F240D8
:102FC8006244D24442490561828083A7819003A864
:102FD80007008345550003454500A6871307E10010
:102FE800814622860298E1BF9386C7A46314D4025F
:102FF8000357E10085473545E313F7FC834706008F
:1030080013050008E36DF7FA03A7819058433E853E
:1030180002976DB7938627906313D4068356E10011
:103028008547EF60102241FD03C6140083C70400E2
:103038008356A90022065D8E03A7019183C7C1901C
:10304800B5DF835527006397D50283A7819003A82E
:103058000700854703454700834557008D4663139E
:10306800F60089460D66A6871307E1001306269029
:103078000298A9B7FD1793F7F70F2107D1B79387E0
:10308800E7A4E31DF4F20357E10085473545E3184B
:10309800F7F28347060013050008E362F7F2D84504
:1030A8003335F00009052300F70003A78190584342
:1030B80085B72D4529B741654111938581A37D15B4
:1030C80006C622C426C24AC0EF80806097F6FF1F5A
:1030D8009386060B4146C94517F5FF1F1305050BD7
:1030E800EF80205497F4FF1F9384440ACC4C2A891C
:1030F8000945EFF06FEE138481A483D7C1812312B1
:10310800F40083D7A40C03D781812316E40023108D
:10311800F40083D7A40D03D7A410938581A52311A8
:10312800F4000D4585472303F4002314E400230726
:10313800F40023150400EFF02FEAA2850D4529318C
:10314800B240224492444A850249410182808D67F7
:103158009387D7A4631EF6008D472945639BF50026
:10316800854735456397F60083470700A380F192AA
:10317800014582808D679387D7A40145631AF600BD
:103188008D476397F50083C711922300F700054523
:103198002390A600014582800145828039EFDC41F9
:1031A800AE8803C8070083C71700A207B3E7070163
:1031B8000D68930EF8A4639AD70391473548639F27
:1031C800F60203A5C8003283411111469A8506C646
:1031D80097D0FF1FE780E055054583A701938297A5
:1031E800B2400148428541018280930828902948CD
:1031F8006396170185476F60D0042D484285828009
:1032080041654111938501A67D1506C6EF80404CA6
:10321800B24097F6FF1F938666094146994517F510
:10322800FF1F1305650941016F80A03F23A8A192E4
:1032380082800111938501A622CC06CE2A84EF60F4
:10324800007B05891DCD014781460546ED45228550
:10325800EF6040342AC615C597F7FF1F83D7670B61
:103268002314F10085472315F100230005000146CA
:103278002C002285EF70805409C5ED452800EF60C9
:103288002049F240624405618280C167F917630CE6
:10329800F502411122C406C685472A84639AF500BF
:1032A80022852244B240938501A641016F804042A5
:1032B80089476396F5008545EFA0E07875D1B2405F
:1032C8002244410182808280B71700401387870A11
:1032D8001443E175FD15BD9A14C3144371767D1628
:1032E80093F6F6FD14C3144379757D1593F6F6FB32
:1032F80014C31443F99A14C31443F59A14C314431A
:10330800ED9A14C31443DD9A14C31443ED8E14C309
:103318001443F18E14C31443E98E14C30843FD7695
:103328001388F6FF3375050108C308439386F67FB3
:103338003708F8FFE98E14C314437D1893F6F6DFB7
:1033480014C3144393F6F6F714C39386870C884284
:103358001375F5FB88C288421375F5FD88C288424B
:103368005D9988C288426D9988C28842759988C2D9
:103378008842799988C288423375050188C2884293
:103388000968E98D8CC28C4221656D8E90C210430C
:1033980091651376F6BF10C310431376F6EF10C38A
:1033A800984241767D16718F98C2984201767D16B3
:1033B800718F98C21387070A14430566930806801D
:1033C80093E6060114C314439387070C93E6060299
:1033D80014C3144393E6060414C3144393E6160077
:1033E80014C3144393E6260014C3144393E646001B
:1033F80014C3144393E6860014C31443C98E14C33C
:103408001443CD8E14C31443B3E6060114C3144306
:10341800D18E14C31443B3E6160114C31443B7087A
:10342800080093E6062014C3144393E6060814C361
:10343800944393E6060494C3944393E6060294C324
:10344800944393E6860094C3944393E6460094C35A
:10345800944393E6260094C3944393E6160094C3DA
:103468009443B3E6160194C39443B3E6060194C3A8
:103478009443D18E94C39443B3E6160194C3944302
:10348800C98E94C39443CD8E94C3144393E60640E7
:1034980014C3144393E6061014C39843C166558FAA
:1034A80098C39843B7060200558F98C382809387C4
:1034B800419303C70700F54663E6E638971602000E
:1034C800938606950A073697184336970287371763
:1034D80000409305870C944101767D16F18E130701
:1034E800870A94C1144393E6060114C30547238051
:1034F800E7008280371700401307870A1443BD9AF4
:1035080014C3144393E6060214C30947CDB737170B
:1035180000401307870A144393F6F6FD14C31443B7
:1035280093E6060414C30D47D9B7371700401307AD
:10353800870A144393F6F6FB14C3144393E6160064
:1035480014C311476DB7371700401307870A144390
:10355800F99A14C3144393E6260014C3154741BFD0
:10356800371700401307870A1443F59A14C3144306
:1035780093E6460014C319479DBF37170040130749
:10358800870A1443ED9A14C3144393E6860014C3C0
:103598001D47B1BF371700401307870A1443216638
:1035A800DD9A14C31443D18E14C3214789B7371742
:1035B80000401307870A144361767D16F18E14C301
:1035C80014431166D18E14C3254715B73717004029
:1035D8001307870A144371767D16F18E14C31443BA
:1035E8000966D18E14C3294719B737170040130746
:1035F800870A144379767D16F18E14C31443056641
:10360800D18E14C32D47E5B5371700401307870A35
:1036180014437D767D16F18E14C314430566130694
:103628000680D18E14C33147D9B537170040130728
:10363800870A14437D761306F67FF18E14C314436C
:1036480093E6062014C335475DB5371700401307C6
:10365800870A144393F6F6DF14C3144393E6060867
:1036680014C3394769B5371700401306870A14424F
:103678001307870C93F6F6F714C2144393E606046F
:1036880014C33D47ADB5371700401307870C1443E3
:1036980093F6F6FB14C3144393E6060214C341479A
:1036A800B9B5371700401307870C144393F6F6FD96
:1036B80014C3144393E6860014C345470DBD37175A
:1036C80000401307870C1443DD9A14C3144393E690
:1036D800460014C3494721BD371700401307870C1C
:1036E8001443ED9A14C3144393E6260014C34D47BC
:1036F800FDBB371700401307870C1443F59A14C312
:10370800144393E6160014C35147D5B33717004046
:103718001307870C144337060800F99A14C3144397
:10372800D18E14C35547E1B3371700401307870CF0
:1037380014433706F8FF7D16F18E14C31443096647
:10374800D18E14C3594765B3371700401307870C48
:10375800144379767D16F18E14C314430566D18E11
:1037680014C35D4769B3371700401307870C144328
:103778007D767D16F18E14C3144337060800D18E6A
:1037880014C36147ADB3371700401307870C1443C0
:103798003706F8FF7D16F18E14C314432166D18EC7
:1037A80014C36547A9B3371700401307870C1443A0
:1037B80061767D16F18E14C314431166D18E14C33D
:1037C800694735B3371700409305870C94417176E4
:1037D8007D16F18E1307870A94C1144393E60640B9
:1037E80014C36D4729B3371700401307870A1443DA
:1037F80093F6F6BF14C3144393E6061014C3714737
:10380800FDB1371700401306870A14421307870CC7
:1038180093F6F6EF14C214434166D18E14C375476C
:10382800F9B1B71700409387870C9843C176FD1606
:10383800758F98C39843B7060200558F98C3238A9B
:10384800019201A805071377F70F2380E700E3E843
:10385800E6FE828011456FE07F8641119396250030
:10386800AA852D4506C697D0FF1FE780E0B5B24070
:10387800014541018280011122CC26CA9396250078
:103888002A84B284AA850146254506CE36C697D035
:10389800FF1FE78060B3B2462686A285294597D0E8
:1038A800FF1FE78060B2F2406244D24401450561DF
:1038B8008280011122CC06CE3714004026CA4AC89D
:1038C8004EC652C483447405034AB405834984052B
:1038D80003499405EFE00FFC8347A40593F4F40F24
:1038E800137AFA0F93E71700230DF40493F9F90FED
:1038F8001379F90FB717004003C7A705058B6DFFAC
:1039080003D5C705A38D4705238C3705A38C270549
:10391800A38B9704F2406244D2444249B249224AF6
:103928000561828041119397050122C406C626C20B
:10393800C1872E8463DC0700ED2911C1512121655F
:10394800218DB240224492444101828093F71500B0
:1039580013C51500FDF793F7450081CF893E13067F
:103968000064914503C55193EF00102713454400A7
:10397800C9BF8964B3F7950095C3EF600125D93DA8
:1039880037F60200130606E0896503C55193EF0078
:10399800B024258C13150401418165B7916433F572
:1039A800950045D1130600649165C5B71D71494658
:1039B800970502009385454D170502001305457DBF
:1039C80086CEA2CC97D0FF1FE780A0DF11E101A02F
:1039D80037F700E0795610CBFD5654CBB7E700E037
:1039E800056423A087109306F00214C323A0871848
:1039F800010001001306C0038145480897D0FF1F46
:103A0800E780A0D697F7FF1F938747C93ECA896703
:103A180093870780231CF100ED472312F102954795
:103A2800A301F10285472303F102B5472304F102FC
:103A3800A167938707E03ECE97070000938727E2A8
:103A4800BEC497070000938747E3BEC6930714D008
:103A58002315F10297F7FFFF938787B53EDAB7F58D
:103A6800070097070000938707E53EDE8146970722
:103A78000000938767DE7000E1051945BEC097D046
:103A8800FF1FE780609419466C001305E102EFE020
:103A98000FDFD24789C78357810163F3870001A0ED
:103AA8004808EF00905F11C101A0F6406644256107
:103AB8008280411117050000130505E706C622C4D8
:103AC800EF00F059138451932300A4003520EFF040
:103AD800AFFF0345040037F60200130606E08965C8
:103AE800EF00900F034504002244B240130600641F
:103AF800914541016F00500E411106C6B7170040AD
:103B0800130670052380C704930680FA2380D70420
:103B18000100010003C7F7021377A70FA387E70285
:103B28002380C7042380D7040100010003C7F702DC
:103B380013672700A387E70223800704213B1305A7
:103B4800407E81470147814605468545EFE09F87CE
:103B5800B240014541016F1060078280011106CE15
:103B68003D898D476307F50491476301F502854751
:103B7800631BF5002C0013054030EFB0A16E2C003C
:103B88000545EF40B035F2400561828003C7250046
:103B98009547E31AF7FE83D7A500F2400D662396F2
:103BA800F18203C5F18313060620914505616F0074
:103BB800B002854730008545130550302304F100D5
:103BC800EFB0E17CC9B73688BA863E87631608002D
:103BD80083C606006FF0AFD785476314F8006FF00F
:103BE8006FD98947631FF80041111306401F8945A3
:103BF80003C5F18306C6EF00207EB24001454101AE
:103C080082800145828001119397050122CC06CE5E
:103C1800C1872E8463DD070003C5F183192C11C108
:103C280045222165218DF24062440561828093F727
:103C3800150013C51500E5FB93F7450099CF83C719
:103C4800F1831307401F81462146A14503D5C18250
:103C5800EFB0613C13454400F9B793F7850013C5ED
:103C68008500F1F313F525005DDDB70702009387A2
:103C7800072074001146854501453EC6EFF06F8D5B
:103C880013060032894503C5F183EF00E07413453C
:103C9800240051BF011117050000130505F706CED2
:103CA80022CC26CAEF00B03B9384F18305442380DD
:103CB800A400700085451305503023068100EFB03D
:103CC800016D138681839D4513056030EFB0216C2B
:103CD80017E6FF1F13064665E94513057030EFB078
:103CE800016B170602001306661BD5450145EF5008
:103CF80080448D4770009145130570402305F100FD
:103D080023048100A305810002C6A3040100EFA0DB
:103D180021403000854513050040EFA0613F1306A0
:103D28009100854513051040EFA0813E1306A100C0
:103D3800854513052040EFA0A13D1306B100854538
:103D480013055040EFA0C13C9947700085450545D3
:103D58002306F100EFE0BFA4EFF0EFB597E5FF1FF2
:103D68009385855B13850183EFE07FFD624403C57E
:103D78000400F240D244854505613DAB411113056D
:103D8800800406C697C0FF1FE780A03305311533AE
:103D9800EFB0710BEFE07FF4F53D97C0FF1FE780B0
:103DA800605623AC05FE1C4191E7010001000CC1DF
:103DB8008280BA8703A787FF6DFF23ACB7FE828096
:103DC8001DC18346E5FF1307F00F9147639EE60088
:103DD800411106C697E0FF1FE7806003B2408147A4
:103DE8003E854101828095473E85828001E90145F3
:103DF80082800145B240224441018280956541118B
:103E0800938505D022C4C98D2A842105C20542059F
:103E1800C181418106C697E0FF1FE78020F271D972
:103E2800FD5723200500231285002303F5002105F3
:103E3800D1B7170700201307A70E1C43411122C44E
:103E480026C24AC006C601440149BA8491E7A16561
:103E5800EF0060791DC401A803C7E7FF631AA70232
:103E68000DCCA16591299840832784FF6319E4024A
:103E7800170700202326F70AFD57232C04FE230FDB
:103E8800F4FE2285B24022449244024941018280D4
:103E980011E03E8983A787FF55BF3E84E5BF232CE9
:103EA800F9FED9BFB1CD411122C406C62A849707AD
:103EB800002083C737072E856375F400894763E8B8
:103EC8008700FD3D0D45B24022444101828083A711
:103ED80085FF99E703C7E5FF9307F00F6305F70030
:103EE800C5351545CDB7238F85FE17050020130569
:103EF8002503453D22852244B240A16541016DAEAE
:103F0800154582809707002023AC07008280970719
:103F18000020938767069C4399E33E85828003D7F8
:103F280027006316B70003C70700E308A7FEDC47AE
:103F3800E5B7C9C1797122D406D626D24AD04ECE69
:103F480001444147B3D78540858BA5C31205314746
:103F580022953305E502970700209387E70503A913
:103F680007008544B3948400C204C180BE892A999D
:103F78000327090011C7032549002EC60297B24539
:103F880031473304E40283A709003E941C4489E7BF
:103F98002320090023220900B2502254A58D02597A
:103FA8009254F2492E85456182800504E31CE4F8A9
:103FB8008144DDB72E85828041111397050122C403
:103FC80006C626C24AC041872E84635E070095351F
:103FD80011C1FD33A1673D8C2285B2402244924431
:103FE800024941018280EDD9AA8701474146B3566B
:103FF800E440858A8DCE9207BA97B146B387D70237
:1040080097060020938646FB03A906008544B394CF
:10401800E400C204C1803E998327090003254900B2
:1040280082972320090023220900258C75B70507EC
:10403800E31FC7FA8144D5BF97070020938707F489
:104048009C53411122C406C61384018499C78297E0
:104058001C403E9523A0A18439A097070020938790
:1040680027F69C43EDF70840B74703009387D73FEF
:104078003305F502B7A72600938737ECB2402244F0
:104088003E9523A0A184410182800111680006CEDB
:1040980022CC26CAEFE0A065FD576300F50E324733
:1040A80097060020938686ED9707002083C757EE72
:1040B800B68463F9E70A170400201304A4E6184835
:1040C8003706C0A8630EC70297070020938747EFFB
:1040D8009C43829732471C486373F700BA871707D7
:1040E80000200347F7EA998F3E958387640163CEE2
:1040F8000700B707C0A8636AF500B7074057A5A827
:104108008386660163D506061D8D170400201304F7
:1041180024021C4C81CF970700209387E70794431C
:104128003707CDFF7D179C46F98F9CC619E13705E7
:10413800C0A897070020938767E4DC53829719E5A6
:104148001C4C8DC3EF50113EEF5041241C4C99CBB1
:1041580097070020938747049843B70633001C4706
:10416800D58F1CC7F2406244D24405618280E37D4A
:10417800F5F8B307F7403E9549BF970400209384AC
:1041880064DA9C483704C0A8E38E87FC97070020B0
:10419800938707E39C4382979C48170700200347AF
:1041A80037DF998F3E9597070020938727DD838710
:1041B8006701E3CC07F4E36A85F481B77DC9374822
:1041C800F6A6130808C889476366C80E7971970769
:1041D8000020938767DE22D45AC803A807003E8BC5
:1041E80006D626D24AD04ECE52CC56CA5EC662C435
:1041F8000144B148C147B30B1403137CF40F3303D4
:104208007801032303006311030AAE8AC165AA84F7
:10421800938505F041453A8AB689328997E0FF1FB0
:10422800E780C0B10DE997070020938727D59C5BED
:1042380099EF8147B250225492540259F249624A86
:10424800D24A424BB24B224C3E8545618280814521
:1042580011458297F9BF970700209387E7D19843C4
:1042680021E39707002023A9A7D02300050083276F
:104278000B00054733148700232605002324250156
:104288002311850023224501DE9784C323A2570109
:1042980023A44701E38F09F82380890159BF368792
:1042A8005447F5FE48C7D1B70504E316F4F4A1470F
:1042B80051B789473E8582809707002083C797C6F4
:1042C8006371F502170700201307C7CA9317150073
:1042D80008433E9583570500DD8D2310B500014541
:1042E80082800D4582809707002083C7B7C3637318
:1042F800F502170700201307E7C7931715000843AF
:1043080093C5F5FF3E9583570500FD8D2310B50035
:10431800014582800D4582809307F00263EBA70A6E
:10432800B146B306D502970700209387E7C898439C
:1043380089473697184359CF011122CC4EC60544F8
:10434800935945003D893315A40013140501418094
:1043580026CA4E85AE84A2854AC806CE4D3E2A8915
:10436800814725C1A2854E85BD3F970700209387C9
:1043780027C59C4382979707002083D727BD33879B
:1043880097022A84130600648146B3B7970213057F
:104398000732B335E500BE95EFF0615E9707002060
:1043A8009387C7BD83876701229563C90700B7074D
:1043B800C0A86365F500B70740573E952324A900B8
:1043C8008147F2406244D2444249B2493E85056180
:1043D800828089473E8582809707002083C797B4EB
:1043E8006364F500014582800111970700209387D7
:1043F80027BD26CA844306CE22CC4AC84EC6CDC89D
:10440800AE899705002083D565B4B387C5022A8491
:1044180032898146B3B5C50213850732B337F50033
:1044280013060064BE95EFF08155B747F6A693874B
:1044380007C863EFA70682949705002083D505B1C6
:10444800B3872503AA84130600648146B3B5250300
:1044580013850732B337F500BE95EFF04152970741
:1044680000209387A7B103876701AA943E8963490F
:104478000700B707C0A863E5F400B7074057BE9424
:10448800CE852285EFF0BFA801C504C5054515A056
:10449800936504F0C205C181414597E0FF1FE7809D
:1044A800E08919ED8327090381C7A2851145829701
:1044B8000145F2406244D2444249B24905618280D2
:1044C80097070020938747AB9C439DE397070020FD
:1044D80023A4A7AA85472326050004C5231135016F
:1044E80023008500A300F5002322050045B7BA87FD
:1044F800D84775FFC8C7F9BF51C9797122D426D2E8
:104508004AD04ECE52CC56CA5AC85EC662C406D6E7
:10451800B689B28A2E8A2A899304000C4144170B63
:104528000020130B6BA9054C930B000383270B008A
:10453800A6979C43A1E79375F400B315BC00C20588
:104548005686C18113554400413D0DC983270B0090
:104558000145BE9423A0240123A2440163840900D9
:1045680023808900B250225492540259F249624A77
:10457800D24A424BB24B224C4561828005041374E7
:10458800F40FB104E31474FB2145E9BF09458280A7
:10459800411122C426C24AC006C62A842E89B28482
:1045A800253DCA852285EFF09F9605CD9705002009
:1045B80083D5C599B38795022A841306006481467A
:1045C800B3B5950213850732B337F500BE95EFF002
:1045D800013B48C00145B24022449244024941018E
:1045E80082802145CDBF411122C426C24AC006C6D9
:1045F8002A892E84EFF0BF91AA8419C123110500DE
:10460800A2854A85CD319707002083C7A791639B70
:1046180027019707002083D7A7955D8C970700206F
:1046280023988794014591E01945B2402244924469
:104638000249410182809307F00263E8A70441110F
:10464800B14722C43304F50226C29704002093849C
:10465800A4969C4006C6A297984389470DC39377B2
:10466800F5008545B395F500C205C1811181A53FC7
:104678009C40A29723A0070023A207008147B240CD
:10468800224492443E854101828089473E8582804A
:10469800411106C622C4EFF09F8711E50145B240DB
:1046A80022444101828097070020938767919C43A9
:1046B80000458297970700209387478C8387670177
:1046C80063D80702B747F6A63305A4409387F7C710
:1046D800E3E6A7FC93070064B335F502170600204C
:1046E8000356C68681463305F502EFF0412945BFDA
:1046F800E37AA4FCB707C0A83E94E9B7411106C6FF
:104708009707002023ACA78A0295B240970700209C
:1047180023A6A782014541018280994763E9B70032
:104728008A05970700209387E782BE9588C1828013
:10473800411171468145170500201305A58106C65C
:104748009707002023AA07829707002023A8078637
:104758009707002023A6078697C0FF1FE780E00081
:104768001306C002814517F5FF1F1305A57B97C0E7
:10477800FF1FE78080FFEFA0D1769707002083C74F
:10478800578113D527008D8B3E958D473305F5024C
:10479800854539051375F50F97F7FF1F2385A7780A
:1047A80099473305F5021305052497D0FF1FE780C5
:1047B800E058170700202321A78059CD994717F6FD
:1047C800FF1F034646763306F60281451306062484
:1047D80097C0FF1FE78060F997F7FF1F9387C77D92
:1047E8009C439387072417F7FF1F2323F77617F7B0
:1047F800FF1F034747730A07BA9717F7FF1F232BB3
:10480800F776EFF02FF0792197F7FF1F938747741A
:10481800944397F7FF1F83C7F770139727003697BE
:1048280017F6FFFF1306267110C3138717001377B7
:10483800F70F0A07369717F6FFFF1306267810C3F7
:1048480013873700890793F7F70F8A0797F5FF1F34
:10485800A38AE56CB69790C3B2404101828097F76E
:10486800FF1F83C7376C17F7FF1F0347C76B63F337
:10487800E70217F7FF1F1307A76D18439386170062
:1048880017F6FF1FA300D66A93962700369708C32A
:104898003E8582809307F00FE5BF1C4163850716AC
:1048A80041777D8FB70600208947631FD7140357C8
:1048B8004500630B0714411122C419462A84930545
:1048C800F00F690506C697C0FF1FE78020F405476B
:1048D8008D476305E5121C4481CB58589947630FEF
:1048E8000710185C630C07101306C003814517F501
:1048F800FF1F1305A56897C0FF1FE78000E7130691
:10490800C003A28517F5FF1F1305456797C0FF1F52
:10491800E78020E217F7FF1F0357076797F7FF1F86
:104928009387C76519E71307001097F6FF1F239DA4
:10493800E66417F7FF1F0347476511E7054797F632
:10494800FF1F2384E66417F7FF1F0357276411E747
:104958006D4797F6FF1F239BE66217F7FF1F034774
:10496800D76211E7154797F6FF1FA380E66217F78E
:10497800FF1F0347C76111E7054797F6FF1F238805
:10498800E66017F7FF1F0347976019E703C7F700AB
:1049980097F6FF1FA38DE65E17F7FF1F0347475FD4
:1049A80011E7354797F6FF1F2384E65E17F7FF1FC9
:1049B8000347575E19E71307800297F6FF1FA38B7B
:1049C800E65C17F7FF1F0347B75C19E71307D00228
:1049D80097F6FF1FA38EE65A0347840119E71307CA
:1049E800C00397F6FF1F2387E65A9C5791C7829703
:1049F80097F7FF1F239CA752253B8147B2402244CB
:104A08003E854101828089473E85828097F7FF1F56
:104A18009387075B9C43411106C622C426C24AC03D
:104A2800829793070064B335F50217F4FF1F130448
:104A3800644F0359840281464A863305F502EFE044
:104A48001174004CAA8401456304940233858440A0
:104A5800636C94004A868146370500B09305E041AF
:104A6800EFE0F171018D269597F7FF1F23A8974C6A
:104A7800B24022449244024941018280011122CC71
:104A88000A852E84414697F501009385A52A06CE0E
:104A9800EFD0EFDE180806043A94035504FF97F7A1
:104AA800FF1F83D7C74AF2406244AA9737450F00D1
:104AB800130505243355F5020561828097F7FF1F1A
:104AC80083D7E74851471D45637CF7027947194565
:104AD8006378F7021307200315456373F70213077A
:104AE800B0041145637EF700130740060D4563794E
:104AF800F7001307600909456374F70013B5B70F8A
:104B08008280011122CC06CE2A842EC6EFF0CFD2A5
:104B1800B245F240818D33A5A502229562441375F2
:104B2800F50F05618280011122CC06CE2A842EC69B
:104B3800EFF08FD0B245F240818D33A5A5022295C2
:104B480062444205418105618280011122CC06CE72
:104B58002A842EC6EFF04FCEB245F240818D33B590
:104B6800A502229562440561828097F7FF1F93870B
:104B7800E740985739CB411122C426C206C6BE84E5
:104B8800029717F7FF1F0357673A2A8415CBBA878E
:104B98006373A700AA87C207C183BA866373E40058
:104BA800A286C206C182958F5147635BF700DC5429
:104BB80091C38297EF50610197F7FF1F23988736BB
:104BC800B2402244924441018280828097F7FF1FBD
:104BD8009387C73ADC57011106CE81C72AC6829748
:104BE800324515C5B7873200938727A117F7FF1FEE
:104BF800232EF73497F7FF1F23A4A73C17050000BF
:104C0800130505E1E53CF24001450561828097F70F
:104C1800FF1F83C70738139787016187635C070203
:104C280097F7FF1F23AE0730B7873200938727A176
:104C380017F7FF1F232CF7307D57B7C7004023A471
:104C4800E72697C7FF1F938787F317F7FF1F2329C7
:104C5800F7366DB713F7170011CFB787200393877F
:104C680007D017F7FF1F2323F72E97C7FF1F938738
:104C780027F4E1BF617797F6FF1F2399E62C81CBD4
:104C88009307003217F7FF1F2313F72CF9BF930779
:104C98002003CDBF011122CC17F4FF1F1304042EEB
:104CA800084406CE26CA4AC801E90545F2406244CE
:104CB800D2444249056182805C58E5DB185C75D7AF
:104CC8007000854582971844B247E300F7FE9305C4
:104CD800E00417F5FF1F0355252B97D0FF1FE7802A
:104CE800E00517F7FF1F232FA72461D117F6FF1F31
:104CF800035686299305F00F97C0FF1FE780E0A6AB
:104D0800814417F9FF1F1309E92197F7FF1F83C78C
:104D1800C7270326090263C1F402328597D0FF1F13
:104D2800E780E00E014597F7FF1F23AD072097F7AF
:104D3800FF1F23AB07209DBF97F5FF1F83D5C52411
:104D4800B38795020844185C898185043E9508C29A
:104D5800029765BF411122C417F4FF1F13040422F0
:104D68001C4426C206C64AC097F4FF1F9384841BBE
:104D780091EB885025EDB240224492440249014506
:104D8800410182801C5CF5D79C5099EF9305E004A3
:104D980017F5FF1F0355451F97D0FF1FE78000FA3F
:104DA80097F7FF1F23A0A71A885061D517F6FF1F92
:104DB8000356861D9305F00F97C0FF1FE780E09A02
:104DC800014997F7FF1F83C7471C9050E353F9FA2F
:104DD80097F5FF1F83D5451B338525031C4489811F
:104DE80005093E951C5C08C28297E1BF97D0FF1F5A
:104DF800E780E00197F7FF1F23A6071497F7FF1F27
:104E080023A407148DBF011156C297FAFF1F938A76
:104E1800EA1683A78A0022CC4AC84EC606CE26CAFE
:104E280052C45AC0AA892E8432896385072203A7EF
:104E38004A03630707147D476366A71497F4FF1FA7
:104E48009384440E03AA040263170A0A956593859E
:104E580015E017F5FF1F0355251397D0FF1FE780AF
:104E6800E0ED97F7FF1F23AFA70C2A86630A05100A
:104E780083A74A0303A58A0097F5FF1F83D5C510AA
:104E88008981829783A78A0003AA040217F7FF1F64
:104E9800232CF70A8947639CF908C1476312F40E6B
:104EA80097F5FF1F83D5450E938505FC9147B3C53C
:104EB800F5028A05D29503C705009307A005631D6F
:104EC800F70A83C715006399370B4A85228691052F
:104ED80097C0FF1FE780E0859C5052856393471574
:104EE8000145F2406244D2444249B249224A924AB8
:104EF800024B05618280D850E38EE7F8956593856B
:104F080025E017F5FF1F0355250897D0FF1FE780F9
:104F1800E0E22A8A35C52A8683A74A0303A58A00C0
:104F280097F5FF1F83D5450689818297A5B78D47D9
:104F3800639DF900C1476315F40497F5FF1F83D5F6
:104F4800A504938545FDF199B5B79147639AF90092
:104F58006318340397F5FF1F83D50503A115E5B73B
:104F6800C147639FF900A14763EC870097F5FF1FCE
:104F780083D58501C115C1BF9C5052856397470DE4
:104F8800294585B71307F006568B6361A70A130AEC
:104F980005FE1947334AEA0217F7FF1F0357C7FEF2
:104FA80097FAFF1F938A0AF8330AEA023E9A83A700
:104FB8004A026395470183A40A029DE49305E0042D
:104FC80017F5FF1F035545FC97D0FF1FE78000D753
:104FD800AA845DD583274B0397F5FF1F83D5C5FAB0
:104FE8002A8689815285829791451307A005898170
:104FF80093972500A69783C607006393E60483C6A4
:105008001700639C360385058A052286A6954A857E
:1050180097B0FF1FE780E07183A70A02E38297EC4D
:10502800268597D0FF1FE78080DE5DBD1307E00768
:10503800E368A7F4130A05F985B783D5270045BFA8
:1050480083A70A02E38E97F2268597D0FF1FE78091
:1050580000DC3DB797F7FF1F9387C7EC8C538DD1C2
:1050680091479306A0058983139727002E97034637
:105078000700E317D6F003461700631C36018507BF
:105088008A072286BE954A8597B0FF1FE780606A27
:1050980081BD83572700C1BF97F7FF1F938707EE8E
:1050A800984739C79C5FA9C705476313E5044111B1
:1050B80022C417F4FF1F1304E4E6105006C60DC6F9
:1050C800485097F5FF1F83D525EC898182970850B2
:1050D80097D0FF1FE780A0D397F7FF1F23A407E609
:1050E80097F7FF1F23A207E6B240224441018280BE
:1050F8008280011117F7FF1F130747E84EC683295F
:10510800870022CC26CA4AC806CE52C456C2AA84F0
:105118002E843289638A09201C5FBA8A99EB294553
:10512800F2406244D2444249B249224A924A056155
:1051380082805C5BEDD7FD4763E9A70E97F9FF1FF7
:10514800938949DE83A70902B1CB03A58A0083A707
:1051580049026395A70689476393F408C147E3109A
:10516800F4FC17F5FF1F035525E29147130505FCCD
:105178003345F5029317250003A509022286CA853F
:105188003E959307A0052300F500A300950011059F
:1051980097B0FF1FE780E059014559B79305E00430
:1051A80017F5FF1F035545DE97D0FF1FE78000B9AD
:1051B80097F7FF1F23A8A7D849F995B783A74A03EC
:1051C80003A6090297F5FF1F83D505DC898182971D
:1051D80083A78A0017F7FF1F2328F7D6ADBF8D478F
:1051E800639EF400C147E31CF4F217F5FF1F035553
:1051F800A5D9130545FD9377C5FFBDBF9147639AB0
:10520800F400E31E94F017F5FF1F0355E5D72115A9
:10521800DDB7C147E395F4F0A147E3E287F017F55E
:10522800FF1F035565D64115F9B79307F00663EAE2
:10523800A706930705FE1947B3C7E70217F7FF1F2D
:10524800035787D417FAFF1F130ACACDB387E7029B
:10525800BE9983270A02A9CF83274A02639A370790
:1052680003250A0291461308A005FD5593D7260089
:10527800C207C183139727002A9703460700631DB7
:105288000607834817000356270063959806B30658
:10529800D64063CF860485078A072286CA853E954D
:1052A800C5BD9307E007E3ECA7E6930705F979B7CF
:1052B8009305E00417F5FF1F035505CD97D0FF1F91
:1052C800E780C0A797F7FF1F23AEA7C651F581BD9A
:1052D80083A74A0303260A0297F5FF1F83D5C5CA89
:1052E80089814E85829797F7FF1F23AF37C58DBFFA
:1052F800A300B700B2869DBFB385860017F6FF1FCF
:10530800035686C89105130606FCE3FAC5E01306A2
:1053180034001376C60F1106B29623000701A300C6
:1053280097002311D70085BF97F7FF1F938787BF83
:105338009453BE89A1C203A5090291461308A0058A
:10534800FD5593D72600C207C183139727002A97D4
:10535800034607006316060583481700035627000F
:1053680063989800B306D640E3D786F2A300B70047
:10537800B286C1BF8357C70017F5FF1F0345E5C0B5
:105388009305E0043305F5024205418197D0FF1FDC
:10539800E780C09A97F7FF1F23A6A7BA49FD41B334
:1053A80017F6FF1F035646BE97F5FF1F83C5E5BDD9
:1053B800B385C502338686001106E3E2C5D681BFF0
:1053C80001458280011106CE2EC6EF80805501C9A5
:1053D800B245F2400355250005616FC02064F240D4
:1053E800494505618280A38201962382019623A6FE
:1053F800019423A8019423AA019423AC019423A423
:10540800019423A2019497F7FF1F9387A7BD130662
:1054180040382391C70271761307400B130606B86C
:105428002391E7002392C70211671D4693060005E2
:105438009305000A1305007D2392E7002393C70212
:1054480041470546130810F82395E7002396E7001F
:105458002399E700239AE700239BE700239CE700B2
:105468002394E70223960703239007002393B700AA
:105478002394B7002397D7002398D700239DA7002C
:10548800239E0700239F0700239007022395C70246
:10549800239707021308F007239807022392E704CB
:1054A8002393E704239FE7042390E7062391E70665
:1054B8002392E706239907031307C01C239AC70200
:1054C800239BC702239C0702239D0702239E0702F2
:1054D800239F0702239007042391C70423940704FA
:1054E800239507042396C7042397D7042398D70442
:1054F8002399A704239A0704239B0704239C0704E2
:10550800239DD704239ED7042393A7062394070635
:1055180023950706239607062397B7062398B70609
:1055280023990706239AE7067D57239B0706239CA2
:10553800E7068280011126CAAA84214522CC06CE1C
:105548002E8432C636C43AC2EFE05F8A1DC9A2462D
:1055580012473246930700FD2300F5009947A30040
:1055680095002301F5002303D500A303E5002312CA
:10557800C500AA8522856244F240D24405616FE0E5
:105588007F92F2406244D2440561828023A6A194AE
:10559800828023A8A194828023AAA194828023AC2C
:1055A800A1948280011122CC4AC806CE26CA2A8933
:1055B8000144B30489006368B400F2406244D244F1
:1055C8004249056182802EC6EFE01FA793170501A7
:1055D800C183A183B2452380F4009307140093F795
:1055E800F70F850463F9B700CA9709042380A70059
:1055F8001374F40F7DBF3E847DBFC16717F5FF1F8D
:105608000355A59CFD176304F502411117F6FF1F0A
:10561800034646AF9385C19506C6EF80800EB2401B
:10562800FD5717F7FF1F2312F79A410182808280E6
:1056380009C925151375F50F1335850E1345150082
:1056480082800145828023900500C9C6797122D4E1
:1056580026D24ECE52CC5AC806D64AD056CA5EC6B4
:105668003684328AAE892A8B814463F34407B307B0
:10567800940083C70700138914004209939A07010D
:1056880093DA0A011359090163840A04CA9763412A
:10569800FA04B307240183CB07005E85513F0DC987
:1056A8009387FAFF2390F90063906B0313051900A1
:1056B8002295B250225492540259F249624AD24A6F
:1056C800424BB24B45618280D694C204C18071BFFF
:1056D8000145C5B701458280411126C2AE8422C466
:1056E80097F7FF1F23AAC78E97F7FF1F23A4B78E2C
:1056F80097F7FF1F23AEA78C2A8441469305F00F26
:1057080026854AC006C6054997B0FF1FE7800010E6
:105718006310250597F7FF1F9387C78A884BC145F4
:10572800513541469305F00F228597B0FF1FE7805A
:10573800E00D854463189502224497F7FF1F93876D
:105748006788B24092440249C847C145410199BDA2
:1057580041468145268597B0FF1FE780200BE3125D
:1057680025FD4DBF41468145228597B0FF1FE78043
:10577800E009E30395FCB240224492440249410106
:105788008280411122C426C22E84AA8413060002F4
:10579800814517F5FF1F1305E58206C697B0FF1F61
:1057A800E780A0FC97F7FF1FA38F978097F7FF1F4D
:1057B800238C8794EFC08028854719C181474945C4
:1057C800B240224417E7FF1F230EF77E924441019F
:1057D8008280814781CD19C98547631BF50083C73E
:1057E800550093E707FCA382F50085473E85828034
:1057F80089476317F50083C7550093F7F703E5B7A3
:105808000D478547E314E5FE03C755001377F703F3
:1058180013670704A382E500D1BF81478DC105C185
:1058280003C755009306000C85471377070C6308D8
:10583800D700930600048D476303D70089473E8548
:105848008280411122C4005D06C626C21DC8AA84F2
:10585800085009C597C0FF1FE780605B485009C51D
:1058680097C0FF1FE780A05A085409C597C0FF1FBB
:10587800E780E059228597C0FF1FE780405923AC95
:105888000402B240224492444101828009ED97E724
:10589800FF1F83C7477317E5FF1F1305257481CBC7
:1058A8001385C193828017E5FF1F13052573828036
:1058B80017E5FF1F03452571828097E7FF1F938730
:1058C8006770C847828097E7FF1F9387A76F884B49
:1058D800828097E7FF1F9387E76EDC4B88438280BF
:1058E80097E7FF1F9387076ED84B1C4385071CC398
:1058F80017E5FF1F0345356D9307F00F6305F500A6
:1059080091656FE07F9B8280011122CC06CE2E84A8
:1059180032C6EF80C0119147B245631FF5009387E7
:1059280081959C438DC303A30700630E0300228562
:105938006244F24005610283938701959C4381C7C5
:1059480003A34700DDB7F240624405450561828044
:10595800011122CC2A840355450006CE26CA4AC81E
:105968004EC6EF70F06A35C52A898344050083491D
:10597800C500C13D4A85EF80004B03554400EF80C8
:10598800400683C74196B1CB6399970483C5519666
:105998002685EFF03FA319E12382019603554400C1
:1059A800EF80E0089147631FF5000357440097E72D
:1059B800FF1F83D787616317F700FD5717E7FF1F9E
:1059C8002315F760F2406244D2444249B249056166
:1059D800828081499304F00F6DB79307F00FE38F2E
:1059E800F4FA8346640003564400034524004E87B6
:1059F800A685EFF03FB45DB779715EC6AA8B2E8598
:105A080052CC56CA5AC806D622D426D24AD04ECE2E
:105A1800AE8A328B368AEF70B05F7DC1045D2A8909
:105A2800E5C09C50614599C3130540039C5481C748
:105A380051054205418163050A007105420541810E
:105A4800DC5081C7590542054181EFE02FBA2A840D
:105A580045C96146814597B0FF1FE78000D197E9A6
:105A6800FF1F83C9295B63940900834909009307D1
:105A780000FD2300F400A947A30074012301F400EA
:105A8800230364018C50231254011305840191C926
:105A980008C47146930A440397B0FF1FE78060C9A2
:105AA80056858C5491C948C45146930A450197B00C
:105AB800FF1FE78000C85685630C0A0008C87146B6
:105AC800D285930AC50197B0FF1FE78080C6568527
